{
	"Documents/GitHub/ReCrypto/src/contracts/RecryUsdcSwap.sol": {
		"RecryUsdcSwap": {
			"abi": [
				{
					"inputs": [
						{
							"internalType": "contract ReCryptoToken",
							"name": "_recry",
							"type": "address"
						},
						{
							"internalType": "contract UsdcToken",
							"name": "_usdc",
							"type": "address"
						}
					],
					"stateMutability": "nonpayable",
					"type": "constructor"
				},
				{
					"inputs": [
						{
							"internalType": "uint256",
							"name": "_amount",
							"type": "uint256"
						}
					],
					"name": "addProtocolGain",
					"outputs": [],
					"stateMutability": "nonpayable",
					"type": "function"
				},
				{
					"inputs": [
						{
							"internalType": "uint256",
							"name": "_amount",
							"type": "uint256"
						}
					],
					"name": "addRecrySupply",
					"outputs": [],
					"stateMutability": "payable",
					"type": "function"
				},
				{
					"inputs": [
						{
							"internalType": "uint256",
							"name": "_amount",
							"type": "uint256"
						}
					],
					"name": "buyRecryWithUsdc",
					"outputs": [],
					"stateMutability": "payable",
					"type": "function"
				},
				{
					"inputs": [
						{
							"internalType": "uint256",
							"name": "_amount",
							"type": "uint256"
						}
					],
					"name": "changeProtocolGain",
					"outputs": [],
					"stateMutability": "nonpayable",
					"type": "function"
				},
				{
					"inputs": [
						{
							"internalType": "uint256",
							"name": "_amount",
							"type": "uint256"
						}
					],
					"name": "changeRecrySupply",
					"outputs": [],
					"stateMutability": "nonpayable",
					"type": "function"
				},
				{
					"inputs": [],
					"name": "getOwner",
					"outputs": [
						{
							"internalType": "address",
							"name": "_value",
							"type": "address"
						}
					],
					"stateMutability": "view",
					"type": "function"
				},
				{
					"inputs": [],
					"name": "getProtocolGain",
					"outputs": [
						{
							"internalType": "uint256",
							"name": "_value",
							"type": "uint256"
						}
					],
					"stateMutability": "view",
					"type": "function"
				},
				{
					"inputs": [],
					"name": "getRecryMaxAvailable",
					"outputs": [
						{
							"internalType": "uint256",
							"name": "_value",
							"type": "uint256"
						}
					],
					"stateMutability": "view",
					"type": "function"
				},
				{
					"inputs": [],
					"name": "getRecryMaxSupply",
					"outputs": [
						{
							"internalType": "uint256",
							"name": "_value",
							"type": "uint256"
						}
					],
					"stateMutability": "view",
					"type": "function"
				},
				{
					"inputs": [],
					"name": "getRecryPrice",
					"outputs": [
						{
							"internalType": "uint256",
							"name": "_value",
							"type": "uint256"
						}
					],
					"stateMutability": "view",
					"type": "function"
				},
				{
					"inputs": [],
					"name": "getRecryTotalValue",
					"outputs": [
						{
							"internalType": "uint256",
							"name": "_value",
							"type": "uint256"
						}
					],
					"stateMutability": "view",
					"type": "function"
				},
				{
					"inputs": [],
					"name": "getRecryValue",
					"outputs": [
						{
							"internalType": "uint256",
							"name": "_value",
							"type": "uint256"
						}
					],
					"stateMutability": "view",
					"type": "function"
				},
				{
					"inputs": [],
					"name": "getSender",
					"outputs": [
						{
							"internalType": "address",
							"name": "_value",
							"type": "address"
						}
					],
					"stateMutability": "view",
					"type": "function"
				},
				{
					"inputs": [],
					"name": "getUsdcMaxAvailable",
					"outputs": [
						{
							"internalType": "uint256",
							"name": "_value",
							"type": "uint256"
						}
					],
					"stateMutability": "view",
					"type": "function"
				},
				{
					"inputs": [],
					"name": "isOwnerX",
					"outputs": [
						{
							"internalType": "bool",
							"name": "_value",
							"type": "bool"
						}
					],
					"stateMutability": "view",
					"type": "function"
				},
				{
					"inputs": [],
					"name": "maxSupply",
					"outputs": [
						{
							"internalType": "uint256",
							"name": "",
							"type": "uint256"
						}
					],
					"stateMutability": "view",
					"type": "function"
				},
				{
					"inputs": [],
					"name": "owner",
					"outputs": [
						{
							"internalType": "address",
							"name": "",
							"type": "address"
						}
					],
					"stateMutability": "view",
					"type": "function"
				},
				{
					"inputs": [],
					"name": "protocolGain",
					"outputs": [
						{
							"internalType": "uint256",
							"name": "",
							"type": "uint256"
						}
					],
					"stateMutability": "view",
					"type": "function"
				},
				{
					"inputs": [],
					"name": "recry",
					"outputs": [
						{
							"internalType": "contract ReCryptoToken",
							"name": "",
							"type": "address"
						}
					],
					"stateMutability": "view",
					"type": "function"
				},
				{
					"inputs": [
						{
							"internalType": "uint256",
							"name": "_amount",
							"type": "uint256"
						}
					],
					"name": "sellRecryForUsdc",
					"outputs": [],
					"stateMutability": "payable",
					"type": "function"
				},
				{
					"inputs": [],
					"name": "usdc",
					"outputs": [
						{
							"internalType": "contract UsdcToken",
							"name": "",
							"type": "address"
						}
					],
					"stateMutability": "view",
					"type": "function"
				},
				{
					"inputs": [
						{
							"internalType": "uint256",
							"name": "_amount",
							"type": "uint256"
						}
					],
					"name": "withdrawRecry",
					"outputs": [],
					"stateMutability": "payable",
					"type": "function"
				},
				{
					"inputs": [
						{
							"internalType": "uint256",
							"name": "_amount",
							"type": "uint256"
						}
					],
					"name": "withdrawUsdc",
					"outputs": [],
					"stateMutability": "payable",
					"type": "function"
				}
			],
			"devdoc": {
				"kind": "dev",
				"methods": {},
				"version": 1
			},
			"evm": {
				"assembly": "    /* \"Documents/GitHub/ReCrypto/src/contracts/RecryUsdcSwap.sol\":120:4924  contract RecryUsdcSwap {\r... */\n  mstore(0x40, 0x80)\n    /* \"Documents/GitHub/ReCrypto/src/contracts/RecryUsdcSwap.sol\":267:268  0 */\n  0x00\n    /* \"Documents/GitHub/ReCrypto/src/contracts/RecryUsdcSwap.sol\":240:268  uint public maxSupply    = 0 */\n  0x03\n  sstore\n    /* \"Documents/GitHub/ReCrypto/src/contracts/RecryUsdcSwap.sol\":338:339  0 */\n  0x00\n    /* \"Documents/GitHub/ReCrypto/src/contracts/RecryUsdcSwap.sol\":311:339  uint public protocolGain = 0 */\n  0x04\n  sstore\n    /* \"Documents/GitHub/ReCrypto/src/contracts/RecryUsdcSwap.sol\":364:500  constructor(ReCryptoToken _recry, UsdcToken _usdc) {\r... */\n  callvalue\n  dup1\n  iszero\n  tag_1\n  jumpi\n  0x00\n  dup1\n  revert\ntag_1:\n  pop\n  mload(0x40)\n  sub(codesize, bytecodeSize)\n  dup1\n  bytecodeSize\n  dup4\n  codecopy\n  dup2\n  dup2\n  add\n  0x40\n  mstore\n  dup2\n  add\n  swap1\n  tag_2\n  swap2\n  swap1\n  tag_3\n  jump\t// in\ntag_2:\n    /* \"Documents/GitHub/ReCrypto/src/contracts/RecryUsdcSwap.sol\":434:440  _recry */\n  dup2\n    /* \"Documents/GitHub/ReCrypto/src/contracts/RecryUsdcSwap.sol\":426:431  recry */\n  0x01\n  0x00\n    /* \"Documents/GitHub/ReCrypto/src/contracts/RecryUsdcSwap.sol\":426:440  recry = _recry */\n  0x0100\n  exp\n  dup2\n  sload\n  dup2\n  0xffffffffffffffffffffffffffffffffffffffff\n  mul\n  not\n  and\n  swap1\n  dup4\n  0xffffffffffffffffffffffffffffffffffffffff\n  and\n  mul\n  or\n  swap1\n  sstore\n  pop\n    /* \"Documents/GitHub/ReCrypto/src/contracts/RecryUsdcSwap.sol\":458:463  _usdc */\n  dup1\n    /* \"Documents/GitHub/ReCrypto/src/contracts/RecryUsdcSwap.sol\":451:455  usdc */\n  0x02\n  0x00\n    /* \"Documents/GitHub/ReCrypto/src/contracts/RecryUsdcSwap.sol\":451:463  usdc = _usdc */\n  0x0100\n  exp\n  dup2\n  sload\n  dup2\n  0xffffffffffffffffffffffffffffffffffffffff\n  mul\n  not\n  and\n  swap1\n  dup4\n  0xffffffffffffffffffffffffffffffffffffffff\n  and\n  mul\n  or\n  swap1\n  sstore\n  pop\n    /* \"Documents/GitHub/ReCrypto/src/contracts/RecryUsdcSwap.sol\":482:492  msg.sender */\n  caller\n    /* \"Documents/GitHub/ReCrypto/src/contracts/RecryUsdcSwap.sol\":474:479  owner */\n  0x00\n  dup1\n    /* \"Documents/GitHub/ReCrypto/src/contracts/RecryUsdcSwap.sol\":474:492  owner = msg.sender */\n  0x0100\n  exp\n  dup2\n  sload\n  dup2\n  0xffffffffffffffffffffffffffffffffffffffff\n  mul\n  not\n  and\n  swap1\n  dup4\n  0xffffffffffffffffffffffffffffffffffffffff\n  and\n  mul\n  or\n  swap1\n  sstore\n  pop\n    /* \"Documents/GitHub/ReCrypto/src/contracts/RecryUsdcSwap.sol\":364:500  constructor(ReCryptoToken _recry, UsdcToken _usdc) {\r... */\n  pop\n  pop\n    /* \"Documents/GitHub/ReCrypto/src/contracts/RecryUsdcSwap.sol\":120:4924  contract RecryUsdcSwap {\r... */\n  jump(tag_6)\n    /* \"#utility.yul\":7:192   */\ntag_8:\n    /* \"#utility.yul\":85:90   */\n  0x00\n    /* \"#utility.yul\":116:122   */\n  dup2\n    /* \"#utility.yul\":110:123   */\n  mload\n    /* \"#utility.yul\":101:123   */\n  swap1\n  pop\n    /* \"#utility.yul\":132:186   */\n  tag_10\n    /* \"#utility.yul\":180:185   */\n  dup2\n    /* \"#utility.yul\":132:186   */\n  tag_11\n  jump\t// in\ntag_10:\n    /* \"#utility.yul\":7:192   */\n  swap3\n  swap2\n  pop\n  pop\n  jump\t// out\n    /* \"#utility.yul\":198:377   */\ntag_12:\n    /* \"#utility.yul\":273:278   */\n  0x00\n    /* \"#utility.yul\":304:310   */\n  dup2\n    /* \"#utility.yul\":298:311   */\n  mload\n    /* \"#utility.yul\":289:311   */\n  swap1\n  pop\n    /* \"#utility.yul\":320:371   */\n  tag_14\n    /* \"#utility.yul\":365:370   */\n  dup2\n    /* \"#utility.yul\":320:371   */\n  tag_15\n  jump\t// in\ntag_14:\n    /* \"#utility.yul\":198:377   */\n  swap3\n  swap2\n  pop\n  pop\n  jump\t// out\n    /* \"#utility.yul\":383:968   */\ntag_3:\n    /* \"#utility.yul\":501:507   */\n  0x00\n    /* \"#utility.yul\":509:515   */\n  dup1\n    /* \"#utility.yul\":558:560   */\n  0x40\n    /* \"#utility.yul\":546:555   */\n  dup4\n    /* \"#utility.yul\":537:544   */\n  dup6\n    /* \"#utility.yul\":533:556   */\n  sub\n    /* \"#utility.yul\":529:561   */\n  slt\n    /* \"#utility.yul\":526:645   */\n  iszero\n  tag_17\n  jumpi\n    /* \"#utility.yul\":564:643   */\n  tag_18\n  tag_19\n  jump\t// in\ntag_18:\n    /* \"#utility.yul\":526:645   */\ntag_17:\n    /* \"#utility.yul\":684:685   */\n  0x00\n    /* \"#utility.yul\":709:794   */\n  tag_20\n    /* \"#utility.yul\":786:793   */\n  dup6\n    /* \"#utility.yul\":777:783   */\n  dup3\n    /* \"#utility.yul\":766:775   */\n  dup7\n    /* \"#utility.yul\":762:784   */\n  add\n    /* \"#utility.yul\":709:794   */\n  tag_8\n  jump\t// in\ntag_20:\n    /* \"#utility.yul\":699:794   */\n  swap3\n  pop\n    /* \"#utility.yul\":655:804   */\n  pop\n    /* \"#utility.yul\":843:845   */\n  0x20\n    /* \"#utility.yul\":869:951   */\n  tag_21\n    /* \"#utility.yul\":943:950   */\n  dup6\n    /* \"#utility.yul\":934:940   */\n  dup3\n    /* \"#utility.yul\":923:932   */\n  dup7\n    /* \"#utility.yul\":919:941   */\n  add\n    /* \"#utility.yul\":869:951   */\n  tag_12\n  jump\t// in\ntag_21:\n    /* \"#utility.yul\":859:951   */\n  swap2\n  pop\n    /* \"#utility.yul\":814:961   */\n  pop\n    /* \"#utility.yul\":383:968   */\n  swap3\n  pop\n  swap3\n  swap1\n  pop\n  jump\t// out\n    /* \"#utility.yul\":1055:1151   */\ntag_24:\n    /* \"#utility.yul\":1092:1099   */\n  0x00\n    /* \"#utility.yul\":1121:1145   */\n  tag_26\n    /* \"#utility.yul\":1139:1144   */\n  dup3\n    /* \"#utility.yul\":1121:1145   */\n  tag_27\n  jump\t// in\ntag_26:\n    /* \"#utility.yul\":1110:1145   */\n  swap1\n  pop\n    /* \"#utility.yul\":1055:1151   */\n  swap2\n  swap1\n  pop\n  jump\t// out\n    /* \"#utility.yul\":1157:1274   */\ntag_28:\n    /* \"#utility.yul\":1215:1222   */\n  0x00\n    /* \"#utility.yul\":1244:1268   */\n  tag_30\n    /* \"#utility.yul\":1262:1267   */\n  dup3\n    /* \"#utility.yul\":1244:1268   */\n  tag_24\n  jump\t// in\ntag_30:\n    /* \"#utility.yul\":1233:1268   */\n  swap1\n  pop\n    /* \"#utility.yul\":1157:1274   */\n  swap2\n  swap1\n  pop\n  jump\t// out\n    /* \"#utility.yul\":1280:1394   */\ntag_31:\n    /* \"#utility.yul\":1335:1342   */\n  0x00\n    /* \"#utility.yul\":1364:1388   */\n  tag_33\n    /* \"#utility.yul\":1382:1387   */\n  dup3\n    /* \"#utility.yul\":1364:1388   */\n  tag_24\n  jump\t// in\ntag_33:\n    /* \"#utility.yul\":1353:1388   */\n  swap1\n  pop\n    /* \"#utility.yul\":1280:1394   */\n  swap2\n  swap1\n  pop\n  jump\t// out\n    /* \"#utility.yul\":1400:1526   */\ntag_27:\n    /* \"#utility.yul\":1437:1444   */\n  0x00\n    /* \"#utility.yul\":1477:1519   */\n  0xffffffffffffffffffffffffffffffffffffffff\n    /* \"#utility.yul\":1470:1475   */\n  dup3\n    /* \"#utility.yul\":1466:1520   */\n  and\n    /* \"#utility.yul\":1455:1520   */\n  swap1\n  pop\n    /* \"#utility.yul\":1400:1526   */\n  swap2\n  swap1\n  pop\n  jump\t// out\n    /* \"#utility.yul\":1655:1772   */\ntag_19:\n    /* \"#utility.yul\":1764:1765   */\n  0x00\n    /* \"#utility.yul\":1761:1762   */\n  dup1\n    /* \"#utility.yul\":1754:1766   */\n  revert\n    /* \"#utility.yul\":1778:1942   */\ntag_11:\n    /* \"#utility.yul\":1872:1917   */\n  tag_39\n    /* \"#utility.yul\":1911:1916   */\n  dup2\n    /* \"#utility.yul\":1872:1917   */\n  tag_28\n  jump\t// in\ntag_39:\n    /* \"#utility.yul\":1865:1870   */\n  dup2\n    /* \"#utility.yul\":1862:1918   */\n  eq\n    /* \"#utility.yul\":1852:1936   */\n  tag_40\n  jumpi\n    /* \"#utility.yul\":1932:1933   */\n  0x00\n    /* \"#utility.yul\":1929:1930   */\n  dup1\n    /* \"#utility.yul\":1922:1934   */\n  revert\n    /* \"#utility.yul\":1852:1936   */\ntag_40:\n    /* \"#utility.yul\":1778:1942   */\n  pop\n  jump\t// out\n    /* \"#utility.yul\":1948:2106   */\ntag_15:\n    /* \"#utility.yul\":2039:2081   */\n  tag_42\n    /* \"#utility.yul\":2075:2080   */\n  dup2\n    /* \"#utility.yul\":2039:2081   */\n  tag_31\n  jump\t// in\ntag_42:\n    /* \"#utility.yul\":2032:2037   */\n  dup2\n    /* \"#utility.yul\":2029:2082   */\n  eq\n    /* \"#utility.yul\":2019:2100   */\n  tag_43\n  jumpi\n    /* \"#utility.yul\":2096:2097   */\n  0x00\n    /* \"#utility.yul\":2093:2094   */\n  dup1\n    /* \"#utility.yul\":2086:2098   */\n  revert\n    /* \"#utility.yul\":2019:2100   */\ntag_43:\n    /* \"#utility.yul\":1948:2106   */\n  pop\n  jump\t// out\n    /* \"Documents/GitHub/ReCrypto/src/contracts/RecryUsdcSwap.sol\":120:4924  contract RecryUsdcSwap {\r... */\ntag_6:\n  dataSize(sub_0)\n  dup1\n  dataOffset(sub_0)\n  0x00\n  codecopy\n  0x00\n  return\nstop\n\nsub_0: assembly {\n        /* \"Documents/GitHub/ReCrypto/src/contracts/RecryUsdcSwap.sol\":120:4924  contract RecryUsdcSwap {\r... */\n      mstore(0x40, 0x80)\n      jumpi(tag_1, lt(calldatasize, 0x04))\n      shr(0xe0, calldataload(0x00))\n      dup1\n      0x5b06dece\n      gt\n      tag_25\n      jumpi\n      dup1\n      0xd5abeb01\n      gt\n      tag_26\n      jumpi\n      dup1\n      0xd5abeb01\n      eq\n      tag_19\n      jumpi\n      dup1\n      0xd60a904e\n      eq\n      tag_20\n      jumpi\n      dup1\n      0xddf5b66c\n      eq\n      tag_21\n      jumpi\n      dup1\n      0xe37398d8\n      eq\n      tag_22\n      jumpi\n      dup1\n      0xecb9417c\n      eq\n      tag_23\n      jumpi\n      dup1\n      0xf1a376b6\n      eq\n      tag_24\n      jumpi\n      jump(tag_1)\n    tag_26:\n      dup1\n      0x5b06dece\n      eq\n      tag_13\n      jumpi\n      dup1\n      0x5e01eb5a\n      eq\n      tag_14\n      jumpi\n      dup1\n      0x7741eb92\n      eq\n      tag_15\n      jumpi\n      dup1\n      0x893d20e8\n      eq\n      tag_16\n      jumpi\n      dup1\n      0x8da5cb5b\n      eq\n      tag_17\n      jumpi\n      dup1\n      0xb42ca291\n      eq\n      tag_18\n      jumpi\n      jump(tag_1)\n    tag_25:\n      dup1\n      0x27718127\n      gt\n      tag_27\n      jumpi\n      dup1\n      0x27718127\n      eq\n      tag_7\n      jumpi\n      dup1\n      0x2bd160bc\n      eq\n      tag_8\n      jumpi\n      dup1\n      0x33b3c3f7\n      eq\n      tag_9\n      jumpi\n      dup1\n      0x3e413bee\n      eq\n      tag_10\n      jumpi\n      dup1\n      0x4bd2f33d\n      eq\n      tag_11\n      jumpi\n      dup1\n      0x4cd60eb3\n      eq\n      tag_12\n      jumpi\n      jump(tag_1)\n    tag_27:\n      dup1\n      0x0b468779\n      eq\n      tag_2\n      jumpi\n      dup1\n      0x0b6e87f7\n      eq\n      tag_3\n      jumpi\n      dup1\n      0x10d9744f\n      eq\n      tag_4\n      jumpi\n      dup1\n      0x112ed6e2\n      eq\n      tag_5\n      jumpi\n      dup1\n      0x1ded4ad9\n      eq\n      tag_6\n      jumpi\n    tag_1:\n      0x00\n      dup1\n      revert\n        /* \"Documents/GitHub/ReCrypto/src/contracts/RecryUsdcSwap.sol\":177:203  ReCryptoToken public recry */\n    tag_2:\n      callvalue\n      dup1\n      iszero\n      tag_28\n      jumpi\n      0x00\n      dup1\n      revert\n    tag_28:\n      pop\n      tag_29\n      tag_30\n      jump\t// in\n    tag_29:\n      mload(0x40)\n      tag_31\n      swap2\n      swap1\n      tag_32\n      jump\t// in\n    tag_31:\n      mload(0x40)\n      dup1\n      swap2\n      sub\n      swap1\n      return\n        /* \"Documents/GitHub/ReCrypto/src/contracts/RecryUsdcSwap.sol\":311:339  uint public protocolGain = 0 */\n    tag_3:\n      callvalue\n      dup1\n      iszero\n      tag_33\n      jumpi\n      0x00\n      dup1\n      revert\n    tag_33:\n      pop\n      tag_34\n      tag_35\n      jump\t// in\n    tag_34:\n      mload(0x40)\n      tag_36\n      swap2\n      swap1\n      tag_37\n      jump\t// in\n    tag_36:\n      mload(0x40)\n      dup1\n      swap2\n      sub\n      swap1\n      return\n        /* \"Documents/GitHub/ReCrypto/src/contracts/RecryUsdcSwap.sol\":1435:1643  function withdrawRecry(uint _amount) public payable isOwner{\r... */\n    tag_4:\n      tag_38\n      0x04\n      dup1\n      calldatasize\n      sub\n      dup2\n      add\n      swap1\n      tag_39\n      swap2\n      swap1\n      tag_40\n      jump\t// in\n    tag_39:\n      tag_41\n      jump\t// in\n    tag_38:\n      stop\n        /* \"Documents/GitHub/ReCrypto/src/contracts/RecryUsdcSwap.sol\":1112:1211  function changeProtocolGain(uint _amount) public isOwner {\r... */\n    tag_5:\n      callvalue\n      dup1\n      iszero\n      tag_42\n      jumpi\n      0x00\n      dup1\n      revert\n    tag_42:\n      pop\n      tag_43\n      0x04\n      dup1\n      calldatasize\n      sub\n      dup2\n      add\n      swap1\n      tag_44\n      swap2\n      swap1\n      tag_40\n      jump\t// in\n    tag_44:\n      tag_45\n      jump\t// in\n    tag_43:\n      stop\n        /* \"Documents/GitHub/ReCrypto/src/contracts/RecryUsdcSwap.sol\":994:1104  function addProtocolGain(uint _amount) public isOwner {\r... */\n    tag_6:\n      callvalue\n      dup1\n      iszero\n      tag_46\n      jumpi\n      0x00\n      dup1\n      revert\n    tag_46:\n      pop\n      tag_47\n      0x04\n      dup1\n      calldatasize\n      sub\n      dup2\n      add\n      swap1\n      tag_48\n      swap2\n      swap1\n      tag_40\n      jump\t// in\n    tag_48:\n      tag_49\n      jump\t// in\n    tag_47:\n      stop\n        /* \"Documents/GitHub/ReCrypto/src/contracts/RecryUsdcSwap.sol\":2622:2865  function isOwnerX() public view returns(bool _value)\r... */\n    tag_7:\n      callvalue\n      dup1\n      iszero\n      tag_50\n      jumpi\n      0x00\n      dup1\n      revert\n    tag_50:\n      pop\n      tag_51\n      tag_52\n      jump\t// in\n    tag_51:\n      mload(0x40)\n      tag_53\n      swap2\n      swap1\n      tag_54\n      jump\t// in\n    tag_53:\n      mload(0x40)\n      dup1\n      swap2\n      sub\n      swap1\n      return\n        /* \"Documents/GitHub/ReCrypto/src/contracts/RecryUsdcSwap.sol\":2233:2363  function getRecryMaxAvailable() public view returns(uint _value)\r... */\n    tag_8:\n      callvalue\n      dup1\n      iszero\n      tag_55\n      jumpi\n      0x00\n      dup1\n      revert\n    tag_55:\n      pop\n      tag_56\n      tag_57\n      jump\t// in\n    tag_56:\n      mload(0x40)\n      tag_58\n      swap2\n      swap1\n      tag_37\n      jump\t// in\n    tag_58:\n      mload(0x40)\n      dup1\n      swap2\n      sub\n      swap1\n      return\n        /* \"Documents/GitHub/ReCrypto/src/contracts/RecryUsdcSwap.sol\":3083:4281  function buyRecryWithUsdc(uint _amount) public payable{\r... */\n    tag_9:\n      tag_59\n      0x04\n      dup1\n      calldatasize\n      sub\n      dup2\n      add\n      swap1\n      tag_60\n      swap2\n      swap1\n      tag_40\n      jump\t// in\n    tag_60:\n      tag_61\n      jump\t// in\n    tag_59:\n      stop\n        /* \"Documents/GitHub/ReCrypto/src/contracts/RecryUsdcSwap.sol\":210:231  UsdcToken public usdc */\n    tag_10:\n      callvalue\n      dup1\n      iszero\n      tag_62\n      jumpi\n      0x00\n      dup1\n      revert\n    tag_62:\n      pop\n      tag_63\n      tag_64\n      jump\t// in\n    tag_63:\n      mload(0x40)\n      tag_65\n      swap2\n      swap1\n      tag_66\n      jump\t// in\n    tag_65:\n      mload(0x40)\n      dup1\n      swap2\n      sub\n      swap1\n      return\n        /* \"Documents/GitHub/ReCrypto/src/contracts/RecryUsdcSwap.sol\":892:986  function changeRecrySupply(uint _amount) public isOwner {\r... */\n    tag_11:\n      callvalue\n      dup1\n      iszero\n      tag_67\n      jumpi\n      0x00\n      dup1\n      revert\n    tag_67:\n      pop\n      tag_68\n      0x04\n      dup1\n      calldatasize\n      sub\n      dup2\n      add\n      swap1\n      tag_69\n      swap2\n      swap1\n      tag_40\n      jump\t// in\n    tag_69:\n      tag_70\n      jump\t// in\n    tag_68:\n      stop\n        /* \"Documents/GitHub/ReCrypto/src/contracts/RecryUsdcSwap.sol\":615:884  function addRecrySupply(uint _amount) public payable isOwner {\r... */\n    tag_12:\n      tag_71\n      0x04\n      dup1\n      calldatasize\n      sub\n      dup2\n      add\n      swap1\n      tag_72\n      swap2\n      swap1\n      tag_40\n      jump\t// in\n    tag_72:\n      tag_73\n      jump\t// in\n    tag_71:\n      stop\n        /* \"Documents/GitHub/ReCrypto/src/contracts/RecryUsdcSwap.sol\":1223:1427  function withdrawUsdc(uint _amount) public payable isOwner{\r... */\n    tag_13:\n      tag_74\n      0x04\n      dup1\n      calldatasize\n      sub\n      dup2\n      add\n      swap1\n      tag_75\n      swap2\n      swap1\n      tag_40\n      jump\t// in\n    tag_75:\n      tag_76\n      jump\t// in\n    tag_74:\n      stop\n        /* \"Documents/GitHub/ReCrypto/src/contracts/RecryUsdcSwap.sol\":2871:2973  function getSender() public view returns(address _value)\r... */\n    tag_14:\n      callvalue\n      dup1\n      iszero\n      tag_77\n      jumpi\n      0x00\n      dup1\n      revert\n    tag_77:\n      pop\n      tag_78\n      tag_79\n      jump\t// in\n    tag_78:\n      mload(0x40)\n      tag_80\n      swap2\n      swap1\n      tag_81\n      jump\t// in\n    tag_80:\n      mload(0x40)\n      dup1\n      swap2\n      sub\n      swap1\n      return\n        /* \"Documents/GitHub/ReCrypto/src/contracts/RecryUsdcSwap.sol\":2119:2225  function getRecryMaxSupply() public view returns(uint _value)\r... */\n    tag_15:\n      callvalue\n      dup1\n      iszero\n      tag_82\n      jumpi\n      0x00\n      dup1\n      revert\n    tag_82:\n      pop\n      tag_83\n      tag_84\n      jump\t// in\n    tag_83:\n      mload(0x40)\n      tag_85\n      swap2\n      swap1\n      tag_37\n      jump\t// in\n    tag_85:\n      mload(0x40)\n      dup1\n      swap2\n      sub\n      swap1\n      return\n        /* \"Documents/GitHub/ReCrypto/src/contracts/RecryUsdcSwap.sol\":2979:3075  function getOwner() public view returns(address _value)\r... */\n    tag_16:\n      callvalue\n      dup1\n      iszero\n      tag_86\n      jumpi\n      0x00\n      dup1\n      revert\n    tag_86:\n      pop\n      tag_87\n      tag_88\n      jump\t// in\n    tag_87:\n      mload(0x40)\n      tag_89\n      swap2\n      swap1\n      tag_81\n      jump\t// in\n    tag_89:\n      mload(0x40)\n      dup1\n      swap2\n      sub\n      swap1\n      return\n        /* \"Documents/GitHub/ReCrypto/src/contracts/RecryUsdcSwap.sol\":150:170  address public owner */\n    tag_17:\n      callvalue\n      dup1\n      iszero\n      tag_90\n      jumpi\n      0x00\n      dup1\n      revert\n    tag_90:\n      pop\n      tag_91\n      tag_92\n      jump\t// in\n    tag_91:\n      mload(0x40)\n      tag_93\n      swap2\n      swap1\n      tag_81\n      jump\t// in\n    tag_93:\n      mload(0x40)\n      dup1\n      swap2\n      sub\n      swap1\n      return\n        /* \"Documents/GitHub/ReCrypto/src/contracts/RecryUsdcSwap.sol\":2371:2499  function getUsdcMaxAvailable() public view returns(uint _value)\r... */\n    tag_18:\n      callvalue\n      dup1\n      iszero\n      tag_94\n      jumpi\n      0x00\n      dup1\n      revert\n    tag_94:\n      pop\n      tag_95\n      tag_96\n      jump\t// in\n    tag_95:\n      mload(0x40)\n      tag_97\n      swap2\n      swap1\n      tag_37\n      jump\t// in\n    tag_97:\n      mload(0x40)\n      dup1\n      swap2\n      sub\n      swap1\n      return\n        /* \"Documents/GitHub/ReCrypto/src/contracts/RecryUsdcSwap.sol\":240:268  uint public maxSupply    = 0 */\n    tag_19:\n      callvalue\n      dup1\n      iszero\n      tag_98\n      jumpi\n      0x00\n      dup1\n      revert\n    tag_98:\n      pop\n      tag_99\n      tag_100\n      jump\t// in\n    tag_99:\n      mload(0x40)\n      tag_101\n      swap2\n      swap1\n      tag_37\n      jump\t// in\n    tag_101:\n      mload(0x40)\n      dup1\n      swap2\n      sub\n      swap1\n      return\n        /* \"Documents/GitHub/ReCrypto/src/contracts/RecryUsdcSwap.sol\":1959:2111  function getRecryTotalValue() public view returns(uint _value)\r... */\n    tag_20:\n      callvalue\n      dup1\n      iszero\n      tag_102\n      jumpi\n      0x00\n      dup1\n      revert\n    tag_102:\n      pop\n      tag_103\n      tag_104\n      jump\t// in\n    tag_103:\n      mload(0x40)\n      tag_105\n      swap2\n      swap1\n      tag_37\n      jump\t// in\n    tag_105:\n      mload(0x40)\n      dup1\n      swap2\n      sub\n      swap1\n      return\n        /* \"Documents/GitHub/ReCrypto/src/contracts/RecryUsdcSwap.sol\":1651:1789  function getRecryValue() public view returns(uint _value)\r... */\n    tag_21:\n      callvalue\n      dup1\n      iszero\n      tag_106\n      jumpi\n      0x00\n      dup1\n      revert\n    tag_106:\n      pop\n      tag_107\n      tag_108\n      jump\t// in\n    tag_107:\n      mload(0x40)\n      tag_109\n      swap2\n      swap1\n      tag_37\n      jump\t// in\n    tag_109:\n      mload(0x40)\n      dup1\n      swap2\n      sub\n      swap1\n      return\n        /* \"Documents/GitHub/ReCrypto/src/contracts/RecryUsdcSwap.sol\":4289:4917  function sellRecryForUsdc(uint _amount) public payable{\r... */\n    tag_22:\n      tag_110\n      0x04\n      dup1\n      calldatasize\n      sub\n      dup2\n      add\n      swap1\n      tag_111\n      swap2\n      swap1\n      tag_40\n      jump\t// in\n    tag_111:\n      tag_112\n      jump\t// in\n    tag_110:\n      stop\n        /* \"Documents/GitHub/ReCrypto/src/contracts/RecryUsdcSwap.sol\":2507:2614  function getProtocolGain() public view returns(uint _value)\r... */\n    tag_23:\n      callvalue\n      dup1\n      iszero\n      tag_113\n      jumpi\n      0x00\n      dup1\n      revert\n    tag_113:\n      pop\n      tag_114\n      tag_115\n      jump\t// in\n    tag_114:\n      mload(0x40)\n      tag_116\n      swap2\n      swap1\n      tag_37\n      jump\t// in\n    tag_116:\n      mload(0x40)\n      dup1\n      swap2\n      sub\n      swap1\n      return\n        /* \"Documents/GitHub/ReCrypto/src/contracts/RecryUsdcSwap.sol\":1795:1953  function getRecryPrice() public view returns(uint _value)\r... */\n    tag_24:\n      callvalue\n      dup1\n      iszero\n      tag_117\n      jumpi\n      0x00\n      dup1\n      revert\n    tag_117:\n      pop\n      tag_118\n      tag_119\n      jump\t// in\n    tag_118:\n      mload(0x40)\n      tag_120\n      swap2\n      swap1\n      tag_37\n      jump\t// in\n    tag_120:\n      mload(0x40)\n      dup1\n      swap2\n      sub\n      swap1\n      return\n        /* \"Documents/GitHub/ReCrypto/src/contracts/RecryUsdcSwap.sol\":177:203  ReCryptoToken public recry */\n    tag_30:\n      0x01\n      0x00\n      swap1\n      sload\n      swap1\n      0x0100\n      exp\n      swap1\n      div\n      0xffffffffffffffffffffffffffffffffffffffff\n      and\n      dup2\n      jump\t// out\n        /* \"Documents/GitHub/ReCrypto/src/contracts/RecryUsdcSwap.sol\":311:339  uint public protocolGain = 0 */\n    tag_35:\n      sload(0x04)\n      dup2\n      jump\t// out\n        /* \"Documents/GitHub/ReCrypto/src/contracts/RecryUsdcSwap.sol\":1435:1643  function withdrawRecry(uint _amount) public payable isOwner{\r... */\n    tag_41:\n        /* \"Documents/GitHub/ReCrypto/src/contracts/RecryUsdcSwap.sol\":558:563  owner */\n      0x00\n      dup1\n      sload\n      swap1\n      0x0100\n      exp\n      swap1\n      div\n      0xffffffffffffffffffffffffffffffffffffffff\n      and\n        /* \"Documents/GitHub/ReCrypto/src/contracts/RecryUsdcSwap.sol\":544:563  msg.sender == owner */\n      0xffffffffffffffffffffffffffffffffffffffff\n      and\n        /* \"Documents/GitHub/ReCrypto/src/contracts/RecryUsdcSwap.sol\":544:554  msg.sender */\n      caller\n        /* \"Documents/GitHub/ReCrypto/src/contracts/RecryUsdcSwap.sol\":544:563  msg.sender == owner */\n      0xffffffffffffffffffffffffffffffffffffffff\n      and\n      eq\n        /* \"Documents/GitHub/ReCrypto/src/contracts/RecryUsdcSwap.sol\":536:587  require(msg.sender == owner, \"Caller is not owner\") */\n      tag_122\n      jumpi\n      mload(0x40)\n      0x08c379a000000000000000000000000000000000000000000000000000000000\n      dup2\n      mstore\n      0x04\n      add\n      tag_123\n      swap1\n      tag_124\n      jump\t// in\n    tag_123:\n      mload(0x40)\n      dup1\n      swap2\n      sub\n      swap1\n      revert\n    tag_122:\n        /* \"Documents/GitHub/ReCrypto/src/contracts/RecryUsdcSwap.sol\":1546:1553  _amount */\n      dup1\n        /* \"Documents/GitHub/ReCrypto/src/contracts/RecryUsdcSwap.sol\":1513:1518  recry */\n      0x01\n      0x00\n      swap1\n      sload\n      swap1\n      0x0100\n      exp\n      swap1\n      div\n      0xffffffffffffffffffffffffffffffffffffffff\n      and\n        /* \"Documents/GitHub/ReCrypto/src/contracts/RecryUsdcSwap.sol\":1513:1528  recry.balanceOf */\n      0xffffffffffffffffffffffffffffffffffffffff\n      and\n      0x70a08231\n        /* \"Documents/GitHub/ReCrypto/src/contracts/RecryUsdcSwap.sol\":1537:1541  this */\n      address\n        /* \"Documents/GitHub/ReCrypto/src/contracts/RecryUsdcSwap.sol\":1513:1543  recry.balanceOf(address(this)) */\n      mload(0x40)\n      dup3\n      0xffffffff\n      and\n      0xe0\n      shl\n      dup2\n      mstore\n      0x04\n      add\n      tag_126\n      swap2\n      swap1\n      tag_81\n      jump\t// in\n    tag_126:\n      0x20\n      mload(0x40)\n      dup1\n      dup4\n      sub\n      dup2\n      dup7\n      dup1\n      extcodesize\n      iszero\n      dup1\n      iszero\n      tag_127\n      jumpi\n      0x00\n      dup1\n      revert\n    tag_127:\n      pop\n      gas\n      staticcall\n      iszero\n      dup1\n      iszero\n      tag_129\n      jumpi\n      returndatasize\n      0x00\n      dup1\n      returndatacopy\n      revert(0x00, returndatasize)\n    tag_129:\n      pop\n      pop\n      pop\n      pop\n      mload(0x40)\n      returndatasize\n      not(0x1f)\n      0x1f\n      dup3\n      add\n      and\n      dup3\n      add\n      dup1\n      0x40\n      mstore\n      pop\n      dup2\n      add\n      swap1\n      tag_130\n      swap2\n      swap1\n      tag_131\n      jump\t// in\n    tag_130:\n        /* \"Documents/GitHub/ReCrypto/src/contracts/RecryUsdcSwap.sol\":1513:1553  recry.balanceOf(address(this)) > _amount */\n      gt\n        /* \"Documents/GitHub/ReCrypto/src/contracts/RecryUsdcSwap.sol\":1505:1585  require(recry.balanceOf(address(this)) > _amount, \"no enough recry to withdraw\") */\n      tag_132\n      jumpi\n      mload(0x40)\n      0x08c379a000000000000000000000000000000000000000000000000000000000\n      dup2\n      mstore\n      0x04\n      add\n      tag_133\n      swap1\n      tag_134\n      jump\t// in\n    tag_133:\n      mload(0x40)\n      dup1\n      swap2\n      sub\n      swap1\n      revert\n    tag_132:\n        /* \"Documents/GitHub/ReCrypto/src/contracts/RecryUsdcSwap.sol\":1604:1609  recry */\n      0x01\n      0x00\n      swap1\n      sload\n      swap1\n      0x0100\n      exp\n      swap1\n      div\n      0xffffffffffffffffffffffffffffffffffffffff\n      and\n        /* \"Documents/GitHub/ReCrypto/src/contracts/RecryUsdcSwap.sol\":1604:1618  recry.transfer */\n      0xffffffffffffffffffffffffffffffffffffffff\n      and\n      0xa9059cbb\n        /* \"Documents/GitHub/ReCrypto/src/contracts/RecryUsdcSwap.sol\":1619:1624  owner */\n      0x00\n      dup1\n      sload\n      swap1\n      0x0100\n      exp\n      swap1\n      div\n      0xffffffffffffffffffffffffffffffffffffffff\n      and\n        /* \"Documents/GitHub/ReCrypto/src/contracts/RecryUsdcSwap.sol\":1626:1633  _amount */\n      dup4\n        /* \"Documents/GitHub/ReCrypto/src/contracts/RecryUsdcSwap.sol\":1604:1634  recry.transfer(owner, _amount) */\n      mload(0x40)\n      dup4\n      0xffffffff\n      and\n      0xe0\n      shl\n      dup2\n      mstore\n      0x04\n      add\n      tag_135\n      swap3\n      swap2\n      swap1\n      tag_136\n      jump\t// in\n    tag_135:\n      0x20\n      mload(0x40)\n      dup1\n      dup4\n      sub\n      dup2\n      0x00\n      dup8\n      dup1\n      extcodesize\n      iszero\n      dup1\n      iszero\n      tag_137\n      jumpi\n      0x00\n      dup1\n      revert\n    tag_137:\n      pop\n      gas\n      call\n      iszero\n      dup1\n      iszero\n      tag_139\n      jumpi\n      returndatasize\n      0x00\n      dup1\n      returndatacopy\n      revert(0x00, returndatasize)\n    tag_139:\n      pop\n      pop\n      pop\n      pop\n      mload(0x40)\n      returndatasize\n      not(0x1f)\n      0x1f\n      dup3\n      add\n      and\n      dup3\n      add\n      dup1\n      0x40\n      mstore\n      pop\n      dup2\n      add\n      swap1\n      tag_140\n      swap2\n      swap1\n      tag_141\n      jump\t// in\n    tag_140:\n        /* \"Documents/GitHub/ReCrypto/src/contracts/RecryUsdcSwap.sol\":1596:1635  require(recry.transfer(owner, _amount)) */\n      tag_142\n      jumpi\n      0x00\n      dup1\n      revert\n    tag_142:\n        /* \"Documents/GitHub/ReCrypto/src/contracts/RecryUsdcSwap.sol\":1435:1643  function withdrawRecry(uint _amount) public payable isOwner{\r... */\n      pop\n      jump\t// out\n        /* \"Documents/GitHub/ReCrypto/src/contracts/RecryUsdcSwap.sol\":1112:1211  function changeProtocolGain(uint _amount) public isOwner {\r... */\n    tag_45:\n        /* \"Documents/GitHub/ReCrypto/src/contracts/RecryUsdcSwap.sol\":558:563  owner */\n      0x00\n      dup1\n      sload\n      swap1\n      0x0100\n      exp\n      swap1\n      div\n      0xffffffffffffffffffffffffffffffffffffffff\n      and\n        /* \"Documents/GitHub/ReCrypto/src/contracts/RecryUsdcSwap.sol\":544:563  msg.sender == owner */\n      0xffffffffffffffffffffffffffffffffffffffff\n      and\n        /* \"Documents/GitHub/ReCrypto/src/contracts/RecryUsdcSwap.sol\":544:554  msg.sender */\n      caller\n        /* \"Documents/GitHub/ReCrypto/src/contracts/RecryUsdcSwap.sol\":544:563  msg.sender == owner */\n      0xffffffffffffffffffffffffffffffffffffffff\n      and\n      eq\n        /* \"Documents/GitHub/ReCrypto/src/contracts/RecryUsdcSwap.sol\":536:587  require(msg.sender == owner, \"Caller is not owner\") */\n      tag_144\n      jumpi\n      mload(0x40)\n      0x08c379a000000000000000000000000000000000000000000000000000000000\n      dup2\n      mstore\n      0x04\n      add\n      tag_145\n      swap1\n      tag_124\n      jump\t// in\n    tag_145:\n      mload(0x40)\n      dup1\n      swap2\n      sub\n      swap1\n      revert\n    tag_144:\n        /* \"Documents/GitHub/ReCrypto/src/contracts/RecryUsdcSwap.sol\":1196:1203  _amount */\n      dup1\n        /* \"Documents/GitHub/ReCrypto/src/contracts/RecryUsdcSwap.sol\":1181:1193  protocolGain */\n      0x04\n        /* \"Documents/GitHub/ReCrypto/src/contracts/RecryUsdcSwap.sol\":1181:1203  protocolGain = _amount */\n      dup2\n      swap1\n      sstore\n      pop\n        /* \"Documents/GitHub/ReCrypto/src/contracts/RecryUsdcSwap.sol\":1112:1211  function changeProtocolGain(uint _amount) public isOwner {\r... */\n      pop\n      jump\t// out\n        /* \"Documents/GitHub/ReCrypto/src/contracts/RecryUsdcSwap.sol\":994:1104  function addProtocolGain(uint _amount) public isOwner {\r... */\n    tag_49:\n        /* \"Documents/GitHub/ReCrypto/src/contracts/RecryUsdcSwap.sol\":558:563  owner */\n      0x00\n      dup1\n      sload\n      swap1\n      0x0100\n      exp\n      swap1\n      div\n      0xffffffffffffffffffffffffffffffffffffffff\n      and\n        /* \"Documents/GitHub/ReCrypto/src/contracts/RecryUsdcSwap.sol\":544:563  msg.sender == owner */\n      0xffffffffffffffffffffffffffffffffffffffff\n      and\n        /* \"Documents/GitHub/ReCrypto/src/contracts/RecryUsdcSwap.sol\":544:554  msg.sender */\n      caller\n        /* \"Documents/GitHub/ReCrypto/src/contracts/RecryUsdcSwap.sol\":544:563  msg.sender == owner */\n      0xffffffffffffffffffffffffffffffffffffffff\n      and\n      eq\n        /* \"Documents/GitHub/ReCrypto/src/contracts/RecryUsdcSwap.sol\":536:587  require(msg.sender == owner, \"Caller is not owner\") */\n      tag_148\n      jumpi\n      mload(0x40)\n      0x08c379a000000000000000000000000000000000000000000000000000000000\n      dup2\n      mstore\n      0x04\n      add\n      tag_149\n      swap1\n      tag_124\n      jump\t// in\n    tag_149:\n      mload(0x40)\n      dup1\n      swap2\n      sub\n      swap1\n      revert\n    tag_148:\n        /* \"Documents/GitHub/ReCrypto/src/contracts/RecryUsdcSwap.sol\":1089:1096  _amount */\n      dup1\n        /* \"Documents/GitHub/ReCrypto/src/contracts/RecryUsdcSwap.sol\":1074:1086  protocolGain */\n      sload(0x04)\n        /* \"Documents/GitHub/ReCrypto/src/contracts/RecryUsdcSwap.sol\":1074:1096  protocolGain + _amount */\n      tag_151\n      swap2\n      swap1\n      tag_152\n      jump\t// in\n    tag_151:\n        /* \"Documents/GitHub/ReCrypto/src/contracts/RecryUsdcSwap.sol\":1059:1071  protocolGain */\n      0x04\n        /* \"Documents/GitHub/ReCrypto/src/contracts/RecryUsdcSwap.sol\":1059:1096  protocolGain = protocolGain + _amount */\n      dup2\n      swap1\n      sstore\n      pop\n        /* \"Documents/GitHub/ReCrypto/src/contracts/RecryUsdcSwap.sol\":994:1104  function addProtocolGain(uint _amount) public isOwner {\r... */\n      pop\n      jump\t// out\n        /* \"Documents/GitHub/ReCrypto/src/contracts/RecryUsdcSwap.sol\":2622:2865  function isOwnerX() public view returns(bool _value)\r... */\n    tag_52:\n        /* \"Documents/GitHub/ReCrypto/src/contracts/RecryUsdcSwap.sol\":2662:2673  bool _value */\n      0x00\n        /* \"Documents/GitHub/ReCrypto/src/contracts/RecryUsdcSwap.sol\":2713:2718  owner */\n      dup1\n      0x00\n      swap1\n      sload\n      swap1\n      0x0100\n      exp\n      swap1\n      div\n      0xffffffffffffffffffffffffffffffffffffffff\n      and\n        /* \"Documents/GitHub/ReCrypto/src/contracts/RecryUsdcSwap.sol\":2699:2718  msg.sender == owner */\n      0xffffffffffffffffffffffffffffffffffffffff\n      and\n        /* \"Documents/GitHub/ReCrypto/src/contracts/RecryUsdcSwap.sol\":2699:2709  msg.sender */\n      caller\n        /* \"Documents/GitHub/ReCrypto/src/contracts/RecryUsdcSwap.sol\":2699:2718  msg.sender == owner */\n      0xffffffffffffffffffffffffffffffffffffffff\n      and\n      eq\n        /* \"Documents/GitHub/ReCrypto/src/contracts/RecryUsdcSwap.sol\":2695:2858  if (msg.sender == owner)\r... */\n      iszero\n      tag_154\n      jumpi\n        /* \"Documents/GitHub/ReCrypto/src/contracts/RecryUsdcSwap.sol\":2759:2763  true */\n      0x01\n        /* \"Documents/GitHub/ReCrypto/src/contracts/RecryUsdcSwap.sol\":2752:2763  return true */\n      swap1\n      pop\n      jump(tag_153)\n        /* \"Documents/GitHub/ReCrypto/src/contracts/RecryUsdcSwap.sol\":2695:2858  if (msg.sender == owner)\r... */\n    tag_154:\n        /* \"Documents/GitHub/ReCrypto/src/contracts/RecryUsdcSwap.sol\":2837:2842  false */\n      0x00\n        /* \"Documents/GitHub/ReCrypto/src/contracts/RecryUsdcSwap.sol\":2830:2842  return false */\n      swap1\n      pop\n        /* \"Documents/GitHub/ReCrypto/src/contracts/RecryUsdcSwap.sol\":2622:2865  function isOwnerX() public view returns(bool _value)\r... */\n    tag_153:\n      swap1\n      jump\t// out\n        /* \"Documents/GitHub/ReCrypto/src/contracts/RecryUsdcSwap.sol\":2233:2363  function getRecryMaxAvailable() public view returns(uint _value)\r... */\n    tag_57:\n        /* \"Documents/GitHub/ReCrypto/src/contracts/RecryUsdcSwap.sol\":2285:2296  uint _value */\n      0x00\n        /* \"Documents/GitHub/ReCrypto/src/contracts/RecryUsdcSwap.sol\":2325:2330  recry */\n      0x01\n      0x00\n      swap1\n      sload\n      swap1\n      0x0100\n      exp\n      swap1\n      div\n      0xffffffffffffffffffffffffffffffffffffffff\n      and\n        /* \"Documents/GitHub/ReCrypto/src/contracts/RecryUsdcSwap.sol\":2325:2340  recry.balanceOf */\n      0xffffffffffffffffffffffffffffffffffffffff\n      and\n      0x70a08231\n        /* \"Documents/GitHub/ReCrypto/src/contracts/RecryUsdcSwap.sol\":2349:2353  this */\n      address\n        /* \"Documents/GitHub/ReCrypto/src/contracts/RecryUsdcSwap.sol\":2325:2355  recry.balanceOf(address(this)) */\n      mload(0x40)\n      dup3\n      0xffffffff\n      and\n      0xe0\n      shl\n      dup2\n      mstore\n      0x04\n      add\n      tag_157\n      swap2\n      swap1\n      tag_81\n      jump\t// in\n    tag_157:\n      0x20\n      mload(0x40)\n      dup1\n      dup4\n      sub\n      dup2\n      dup7\n      dup1\n      extcodesize\n      iszero\n      dup1\n      iszero\n      tag_158\n      jumpi\n      0x00\n      dup1\n      revert\n    tag_158:\n      pop\n      gas\n      staticcall\n      iszero\n      dup1\n      iszero\n      tag_160\n      jumpi\n      returndatasize\n      0x00\n      dup1\n      returndatacopy\n      revert(0x00, returndatasize)\n    tag_160:\n      pop\n      pop\n      pop\n      pop\n      mload(0x40)\n      returndatasize\n      not(0x1f)\n      0x1f\n      dup3\n      add\n      and\n      dup3\n      add\n      dup1\n      0x40\n      mstore\n      pop\n      dup2\n      add\n      swap1\n      tag_161\n      swap2\n      swap1\n      tag_131\n      jump\t// in\n    tag_161:\n        /* \"Documents/GitHub/ReCrypto/src/contracts/RecryUsdcSwap.sol\":2318:2355  return recry.balanceOf(address(this)) */\n      swap1\n      pop\n        /* \"Documents/GitHub/ReCrypto/src/contracts/RecryUsdcSwap.sol\":2233:2363  function getRecryMaxAvailable() public view returns(uint _value)\r... */\n      swap1\n      jump\t// out\n        /* \"Documents/GitHub/ReCrypto/src/contracts/RecryUsdcSwap.sol\":3083:4281  function buyRecryWithUsdc(uint _amount) public payable{\r... */\n    tag_61:\n        /* \"Documents/GitHub/ReCrypto/src/contracts/RecryUsdcSwap.sol\":3190:3203  uint qtyToBuy */\n      0x00\n        /* \"Documents/GitHub/ReCrypto/src/contracts/RecryUsdcSwap.sol\":3216:3231  getRecryValue() */\n      tag_163\n        /* \"Documents/GitHub/ReCrypto/src/contracts/RecryUsdcSwap.sol\":3216:3229  getRecryValue */\n      tag_108\n        /* \"Documents/GitHub/ReCrypto/src/contracts/RecryUsdcSwap.sol\":3216:3231  getRecryValue() */\n      jump\t// in\n    tag_163:\n        /* \"Documents/GitHub/ReCrypto/src/contracts/RecryUsdcSwap.sol\":3206:3213  _amount */\n      dup3\n        /* \"Documents/GitHub/ReCrypto/src/contracts/RecryUsdcSwap.sol\":3206:3231  _amount / getRecryValue() */\n      tag_164\n      swap2\n      swap1\n      tag_165\n      jump\t// in\n    tag_164:\n        /* \"Documents/GitHub/ReCrypto/src/contracts/RecryUsdcSwap.sol\":3190:3231  uint qtyToBuy = _amount / getRecryValue() */\n      swap1\n      pop\n        /* \"Documents/GitHub/ReCrypto/src/contracts/RecryUsdcSwap.sol\":3260:3261  0 */\n      0x00\n        /* \"Documents/GitHub/ReCrypto/src/contracts/RecryUsdcSwap.sol\":3250:3257  _amount */\n      dup3\n        /* \"Documents/GitHub/ReCrypto/src/contracts/RecryUsdcSwap.sol\":3250:3261  _amount > 0 */\n      gt\n        /* \"Documents/GitHub/ReCrypto/src/contracts/RecryUsdcSwap.sol\":3242:3284  require(_amount > 0, \"amount cannot be 0\") */\n      tag_166\n      jumpi\n      mload(0x40)\n      0x08c379a000000000000000000000000000000000000000000000000000000000\n      dup2\n      mstore\n      0x04\n      add\n      tag_167\n      swap1\n      tag_168\n      jump\t// in\n    tag_167:\n      mload(0x40)\n      dup1\n      swap2\n      sub\n      swap1\n      revert\n    tag_166:\n        /* \"Documents/GitHub/ReCrypto/src/contracts/RecryUsdcSwap.sol\":3337:3345  qtyToBuy */\n      dup1\n        /* \"Documents/GitHub/ReCrypto/src/contracts/RecryUsdcSwap.sol\":3303:3308  recry */\n      0x01\n      0x00\n      swap1\n      sload\n      swap1\n      0x0100\n      exp\n      swap1\n      div\n      0xffffffffffffffffffffffffffffffffffffffff\n      and\n        /* \"Documents/GitHub/ReCrypto/src/contracts/RecryUsdcSwap.sol\":3303:3318  recry.balanceOf */\n      0xffffffffffffffffffffffffffffffffffffffff\n      and\n      0x70a08231\n        /* \"Documents/GitHub/ReCrypto/src/contracts/RecryUsdcSwap.sol\":3327:3331  this */\n      address\n        /* \"Documents/GitHub/ReCrypto/src/contracts/RecryUsdcSwap.sol\":3303:3333  recry.balanceOf(address(this)) */\n      mload(0x40)\n      dup3\n      0xffffffff\n      and\n      0xe0\n      shl\n      dup2\n      mstore\n      0x04\n      add\n      tag_169\n      swap2\n      swap1\n      tag_81\n      jump\t// in\n    tag_169:\n      0x20\n      mload(0x40)\n      dup1\n      dup4\n      sub\n      dup2\n      dup7\n      dup1\n      extcodesize\n      iszero\n      dup1\n      iszero\n      tag_170\n      jumpi\n      0x00\n      dup1\n      revert\n    tag_170:\n      pop\n      gas\n      staticcall\n      iszero\n      dup1\n      iszero\n      tag_172\n      jumpi\n      returndatasize\n      0x00\n      dup1\n      returndatacopy\n      revert(0x00, returndatasize)\n    tag_172:\n      pop\n      pop\n      pop\n      pop\n      mload(0x40)\n      returndatasize\n      not(0x1f)\n      0x1f\n      dup3\n      add\n      and\n      dup3\n      add\n      dup1\n      0x40\n      mstore\n      pop\n      dup2\n      add\n      swap1\n      tag_173\n      swap2\n      swap1\n      tag_131\n      jump\t// in\n    tag_173:\n        /* \"Documents/GitHub/ReCrypto/src/contracts/RecryUsdcSwap.sol\":3303:3345  recry.balanceOf(address(this)) >= qtyToBuy */\n      lt\n      iszero\n        /* \"Documents/GitHub/ReCrypto/src/contracts/RecryUsdcSwap.sol\":3295:3373  require(recry.balanceOf(address(this)) >= qtyToBuy , \"no enough recry to buy\") */\n      tag_174\n      jumpi\n      mload(0x40)\n      0x08c379a000000000000000000000000000000000000000000000000000000000\n      dup2\n      mstore\n      0x04\n      add\n      tag_175\n      swap1\n      tag_176\n      jump\t// in\n    tag_175:\n      mload(0x40)\n      dup1\n      swap2\n      sub\n      swap1\n      revert\n    tag_174:\n        /* \"Documents/GitHub/ReCrypto/src/contracts/RecryUsdcSwap.sol\":3384:3400  uint maxRecharge */\n      0x00\n        /* \"Documents/GitHub/ReCrypto/src/contracts/RecryUsdcSwap.sol\":3418:3439  getUsdcMaxAvailable() */\n      tag_177\n        /* \"Documents/GitHub/ReCrypto/src/contracts/RecryUsdcSwap.sol\":3418:3437  getUsdcMaxAvailable */\n      tag_96\n        /* \"Documents/GitHub/ReCrypto/src/contracts/RecryUsdcSwap.sol\":3418:3439  getUsdcMaxAvailable() */\n      jump\t// in\n    tag_177:\n        /* \"Documents/GitHub/ReCrypto/src/contracts/RecryUsdcSwap.sol\":3403:3415  protocolGain */\n      sload(0x04)\n        /* \"Documents/GitHub/ReCrypto/src/contracts/RecryUsdcSwap.sol\":3403:3439  protocolGain - getUsdcMaxAvailable() */\n      tag_178\n      swap2\n      swap1\n      tag_179\n      jump\t// in\n    tag_178:\n        /* \"Documents/GitHub/ReCrypto/src/contracts/RecryUsdcSwap.sol\":3384:3439  uint maxRecharge = protocolGain - getUsdcMaxAvailable() */\n      swap1\n      pop\n        /* \"Documents/GitHub/ReCrypto/src/contracts/RecryUsdcSwap.sol\":3468:3469  0 */\n      0x00\n        /* \"Documents/GitHub/ReCrypto/src/contracts/RecryUsdcSwap.sol\":3454:3465  maxRecharge */\n      dup2\n        /* \"Documents/GitHub/ReCrypto/src/contracts/RecryUsdcSwap.sol\":3454:3469  maxRecharge > 0 */\n      gt\n        /* \"Documents/GitHub/ReCrypto/src/contracts/RecryUsdcSwap.sol\":3450:4151  if (maxRecharge > 0)\r... */\n      iszero\n      tag_180\n      jumpi\n        /* \"Documents/GitHub/ReCrypto/src/contracts/RecryUsdcSwap.sol\":3594:3605  maxRecharge */\n      dup1\n        /* \"Documents/GitHub/ReCrypto/src/contracts/RecryUsdcSwap.sol\":3584:3591  _amount */\n      dup4\n        /* \"Documents/GitHub/ReCrypto/src/contracts/RecryUsdcSwap.sol\":3584:3605  _amount > maxRecharge */\n      gt\n        /* \"Documents/GitHub/ReCrypto/src/contracts/RecryUsdcSwap.sol\":3580:3967  if (_amount > maxRecharge)\r... */\n      iszero\n      tag_181\n      jumpi\n        /* \"Documents/GitHub/ReCrypto/src/contracts/RecryUsdcSwap.sol\":3655:3659  usdc */\n      0x02\n      0x00\n      swap1\n      sload\n      swap1\n      0x0100\n      exp\n      swap1\n      div\n      0xffffffffffffffffffffffffffffffffffffffff\n      and\n        /* \"Documents/GitHub/ReCrypto/src/contracts/RecryUsdcSwap.sol\":3655:3672  usdc.transferFrom */\n      0xffffffffffffffffffffffffffffffffffffffff\n      and\n      0x23b872dd\n        /* \"Documents/GitHub/ReCrypto/src/contracts/RecryUsdcSwap.sol\":3673:3683  msg.sender */\n      caller\n        /* \"Documents/GitHub/ReCrypto/src/contracts/RecryUsdcSwap.sol\":3693:3697  this */\n      address\n        /* \"Documents/GitHub/ReCrypto/src/contracts/RecryUsdcSwap.sol\":3700:3711  maxRecharge */\n      dup5\n        /* \"Documents/GitHub/ReCrypto/src/contracts/RecryUsdcSwap.sol\":3655:3712  usdc.transferFrom(msg.sender, address(this), maxRecharge) */\n      mload(0x40)\n      dup5\n      0xffffffff\n      and\n      0xe0\n      shl\n      dup2\n      mstore\n      0x04\n      add\n      tag_182\n      swap4\n      swap3\n      swap2\n      swap1\n      tag_183\n      jump\t// in\n    tag_182:\n      0x20\n      mload(0x40)\n      dup1\n      dup4\n      sub\n      dup2\n      0x00\n      dup8\n      dup1\n      extcodesize\n      iszero\n      dup1\n      iszero\n      tag_184\n      jumpi\n      0x00\n      dup1\n      revert\n    tag_184:\n      pop\n      gas\n      call\n      iszero\n      dup1\n      iszero\n      tag_186\n      jumpi\n      returndatasize\n      0x00\n      dup1\n      returndatacopy\n      revert(0x00, returndatasize)\n    tag_186:\n      pop\n      pop\n      pop\n      pop\n      mload(0x40)\n      returndatasize\n      not(0x1f)\n      0x1f\n      dup3\n      add\n      and\n      dup3\n      add\n      dup1\n      0x40\n      mstore\n      pop\n      dup2\n      add\n      swap1\n      tag_187\n      swap2\n      swap1\n      tag_141\n      jump\t// in\n    tag_187:\n        /* \"Documents/GitHub/ReCrypto/src/contracts/RecryUsdcSwap.sol\":3647:3713  require(usdc.transferFrom(msg.sender, address(this), maxRecharge)) */\n      tag_188\n      jumpi\n      0x00\n      dup1\n      revert\n    tag_188:\n        /* \"Documents/GitHub/ReCrypto/src/contracts/RecryUsdcSwap.sol\":3746:3750  usdc */\n      0x02\n      0x00\n      swap1\n      sload\n      swap1\n      0x0100\n      exp\n      swap1\n      div\n      0xffffffffffffffffffffffffffffffffffffffff\n      and\n        /* \"Documents/GitHub/ReCrypto/src/contracts/RecryUsdcSwap.sol\":3746:3763  usdc.transferFrom */\n      0xffffffffffffffffffffffffffffffffffffffff\n      and\n      0x23b872dd\n        /* \"Documents/GitHub/ReCrypto/src/contracts/RecryUsdcSwap.sol\":3764:3774  msg.sender */\n      caller\n        /* \"Documents/GitHub/ReCrypto/src/contracts/RecryUsdcSwap.sol\":3776:3781  owner */\n      0x00\n      dup1\n      sload\n      swap1\n      0x0100\n      exp\n      swap1\n      div\n      0xffffffffffffffffffffffffffffffffffffffff\n      and\n        /* \"Documents/GitHub/ReCrypto/src/contracts/RecryUsdcSwap.sol\":3791:3802  maxRecharge */\n      dup5\n        /* \"Documents/GitHub/ReCrypto/src/contracts/RecryUsdcSwap.sol\":3783:3790  _amount */\n      dup8\n        /* \"Documents/GitHub/ReCrypto/src/contracts/RecryUsdcSwap.sol\":3783:3802  _amount-maxRecharge */\n      tag_189\n      swap2\n      swap1\n      tag_179\n      jump\t// in\n    tag_189:\n        /* \"Documents/GitHub/ReCrypto/src/contracts/RecryUsdcSwap.sol\":3746:3803  usdc.transferFrom(msg.sender, owner, _amount-maxRecharge) */\n      mload(0x40)\n      dup5\n      0xffffffff\n      and\n      0xe0\n      shl\n      dup2\n      mstore\n      0x04\n      add\n      tag_190\n      swap4\n      swap3\n      swap2\n      swap1\n      tag_183\n      jump\t// in\n    tag_190:\n      0x20\n      mload(0x40)\n      dup1\n      dup4\n      sub\n      dup2\n      0x00\n      dup8\n      dup1\n      extcodesize\n      iszero\n      dup1\n      iszero\n      tag_191\n      jumpi\n      0x00\n      dup1\n      revert\n    tag_191:\n      pop\n      gas\n      call\n      iszero\n      dup1\n      iszero\n      tag_193\n      jumpi\n      returndatasize\n      0x00\n      dup1\n      returndatacopy\n      revert(0x00, returndatasize)\n    tag_193:\n      pop\n      pop\n      pop\n      pop\n      mload(0x40)\n      returndatasize\n      not(0x1f)\n      0x1f\n      dup3\n      add\n      and\n      dup3\n      add\n      dup1\n      0x40\n      mstore\n      pop\n      dup2\n      add\n      swap1\n      tag_194\n      swap2\n      swap1\n      tag_141\n      jump\t// in\n    tag_194:\n        /* \"Documents/GitHub/ReCrypto/src/contracts/RecryUsdcSwap.sol\":3738:3804  require(usdc.transferFrom(msg.sender, owner, _amount-maxRecharge)) */\n      tag_195\n      jumpi\n      0x00\n      dup1\n      revert\n    tag_195:\n        /* \"Documents/GitHub/ReCrypto/src/contracts/RecryUsdcSwap.sol\":3580:3967  if (_amount > maxRecharge)\r... */\n      jump(tag_196)\n    tag_181:\n        /* \"Documents/GitHub/ReCrypto/src/contracts/RecryUsdcSwap.sol\":3893:3897  usdc */\n      0x02\n      0x00\n      swap1\n      sload\n      swap1\n      0x0100\n      exp\n      swap1\n      div\n      0xffffffffffffffffffffffffffffffffffffffff\n      and\n        /* \"Documents/GitHub/ReCrypto/src/contracts/RecryUsdcSwap.sol\":3893:3910  usdc.transferFrom */\n      0xffffffffffffffffffffffffffffffffffffffff\n      and\n      0x23b872dd\n        /* \"Documents/GitHub/ReCrypto/src/contracts/RecryUsdcSwap.sol\":3911:3921  msg.sender */\n      caller\n        /* \"Documents/GitHub/ReCrypto/src/contracts/RecryUsdcSwap.sol\":3931:3935  this */\n      address\n        /* \"Documents/GitHub/ReCrypto/src/contracts/RecryUsdcSwap.sol\":3938:3945  _amount */\n      dup7\n        /* \"Documents/GitHub/ReCrypto/src/contracts/RecryUsdcSwap.sol\":3893:3946  usdc.transferFrom(msg.sender, address(this), _amount) */\n      mload(0x40)\n      dup5\n      0xffffffff\n      and\n      0xe0\n      shl\n      dup2\n      mstore\n      0x04\n      add\n      tag_197\n      swap4\n      swap3\n      swap2\n      swap1\n      tag_183\n      jump\t// in\n    tag_197:\n      0x20\n      mload(0x40)\n      dup1\n      dup4\n      sub\n      dup2\n      0x00\n      dup8\n      dup1\n      extcodesize\n      iszero\n      dup1\n      iszero\n      tag_198\n      jumpi\n      0x00\n      dup1\n      revert\n    tag_198:\n      pop\n      gas\n      call\n      iszero\n      dup1\n      iszero\n      tag_200\n      jumpi\n      returndatasize\n      0x00\n      dup1\n      returndatacopy\n      revert(0x00, returndatasize)\n    tag_200:\n      pop\n      pop\n      pop\n      pop\n      mload(0x40)\n      returndatasize\n      not(0x1f)\n      0x1f\n      dup3\n      add\n      and\n      dup3\n      add\n      dup1\n      0x40\n      mstore\n      pop\n      dup2\n      add\n      swap1\n      tag_201\n      swap2\n      swap1\n      tag_141\n      jump\t// in\n    tag_201:\n        /* \"Documents/GitHub/ReCrypto/src/contracts/RecryUsdcSwap.sol\":3885:3947  require(usdc.transferFrom(msg.sender, address(this), _amount)) */\n      tag_202\n      jumpi\n      0x00\n      dup1\n      revert\n    tag_202:\n        /* \"Documents/GitHub/ReCrypto/src/contracts/RecryUsdcSwap.sol\":3580:3967  if (_amount > maxRecharge)\r... */\n    tag_196:\n        /* \"Documents/GitHub/ReCrypto/src/contracts/RecryUsdcSwap.sol\":3450:4151  if (maxRecharge > 0)\r... */\n      jump(tag_203)\n    tag_180:\n        /* \"Documents/GitHub/ReCrypto/src/contracts/RecryUsdcSwap.sol\":4092:4096  usdc */\n      0x02\n      0x00\n      swap1\n      sload\n      swap1\n      0x0100\n      exp\n      swap1\n      div\n      0xffffffffffffffffffffffffffffffffffffffff\n      and\n        /* \"Documents/GitHub/ReCrypto/src/contracts/RecryUsdcSwap.sol\":4092:4109  usdc.transferFrom */\n      0xffffffffffffffffffffffffffffffffffffffff\n      and\n      0x23b872dd\n        /* \"Documents/GitHub/ReCrypto/src/contracts/RecryUsdcSwap.sol\":4110:4120  msg.sender */\n      caller\n        /* \"Documents/GitHub/ReCrypto/src/contracts/RecryUsdcSwap.sol\":4122:4127  owner */\n      0x00\n      dup1\n      sload\n      swap1\n      0x0100\n      exp\n      swap1\n      div\n      0xffffffffffffffffffffffffffffffffffffffff\n      and\n        /* \"Documents/GitHub/ReCrypto/src/contracts/RecryUsdcSwap.sol\":4129:4136  _amount */\n      dup7\n        /* \"Documents/GitHub/ReCrypto/src/contracts/RecryUsdcSwap.sol\":4092:4137  usdc.transferFrom(msg.sender, owner, _amount) */\n      mload(0x40)\n      dup5\n      0xffffffff\n      and\n      0xe0\n      shl\n      dup2\n      mstore\n      0x04\n      add\n      tag_204\n      swap4\n      swap3\n      swap2\n      swap1\n      tag_183\n      jump\t// in\n    tag_204:\n      0x20\n      mload(0x40)\n      dup1\n      dup4\n      sub\n      dup2\n      0x00\n      dup8\n      dup1\n      extcodesize\n      iszero\n      dup1\n      iszero\n      tag_205\n      jumpi\n      0x00\n      dup1\n      revert\n    tag_205:\n      pop\n      gas\n      call\n      iszero\n      dup1\n      iszero\n      tag_207\n      jumpi\n      returndatasize\n      0x00\n      dup1\n      returndatacopy\n      revert(0x00, returndatasize)\n    tag_207:\n      pop\n      pop\n      pop\n      pop\n      mload(0x40)\n      returndatasize\n      not(0x1f)\n      0x1f\n      dup3\n      add\n      and\n      dup3\n      add\n      dup1\n      0x40\n      mstore\n      pop\n      dup2\n      add\n      swap1\n      tag_208\n      swap2\n      swap1\n      tag_141\n      jump\t// in\n    tag_208:\n        /* \"Documents/GitHub/ReCrypto/src/contracts/RecryUsdcSwap.sol\":4084:4138  require(usdc.transferFrom(msg.sender, owner, _amount)) */\n      tag_209\n      jumpi\n      0x00\n      dup1\n      revert\n    tag_209:\n        /* \"Documents/GitHub/ReCrypto/src/contracts/RecryUsdcSwap.sol\":3450:4151  if (maxRecharge > 0)\r... */\n    tag_203:\n        /* \"Documents/GitHub/ReCrypto/src/contracts/RecryUsdcSwap.sol\":4211:4216  recry */\n      0x01\n      0x00\n      swap1\n      sload\n      swap1\n      0x0100\n      exp\n      swap1\n      div\n      0xffffffffffffffffffffffffffffffffffffffff\n      and\n        /* \"Documents/GitHub/ReCrypto/src/contracts/RecryUsdcSwap.sol\":4211:4229  recry.transferFrom */\n      0xffffffffffffffffffffffffffffffffffffffff\n      and\n      0x23b872dd\n        /* \"Documents/GitHub/ReCrypto/src/contracts/RecryUsdcSwap.sol\":4238:4242  this */\n      address\n        /* \"Documents/GitHub/ReCrypto/src/contracts/RecryUsdcSwap.sol\":4245:4255  msg.sender */\n      caller\n        /* \"Documents/GitHub/ReCrypto/src/contracts/RecryUsdcSwap.sol\":4257:4264  _amount */\n      dup7\n        /* \"Documents/GitHub/ReCrypto/src/contracts/RecryUsdcSwap.sol\":4211:4265  recry.transferFrom(address(this), msg.sender, _amount) */\n      mload(0x40)\n      dup5\n      0xffffffff\n      and\n      0xe0\n      shl\n      dup2\n      mstore\n      0x04\n      add\n      tag_210\n      swap4\n      swap3\n      swap2\n      swap1\n      tag_183\n      jump\t// in\n    tag_210:\n      0x20\n      mload(0x40)\n      dup1\n      dup4\n      sub\n      dup2\n      0x00\n      dup8\n      dup1\n      extcodesize\n      iszero\n      dup1\n      iszero\n      tag_211\n      jumpi\n      0x00\n      dup1\n      revert\n    tag_211:\n      pop\n      gas\n      call\n      iszero\n      dup1\n      iszero\n      tag_213\n      jumpi\n      returndatasize\n      0x00\n      dup1\n      returndatacopy\n      revert(0x00, returndatasize)\n    tag_213:\n      pop\n      pop\n      pop\n      pop\n      mload(0x40)\n      returndatasize\n      not(0x1f)\n      0x1f\n      dup3\n      add\n      and\n      dup3\n      add\n      dup1\n      0x40\n      mstore\n      pop\n      dup2\n      add\n      swap1\n      tag_214\n      swap2\n      swap1\n      tag_141\n      jump\t// in\n    tag_214:\n      pop\n        /* \"Documents/GitHub/ReCrypto/src/contracts/RecryUsdcSwap.sol\":3137:4281  {\r... */\n      pop\n      pop\n        /* \"Documents/GitHub/ReCrypto/src/contracts/RecryUsdcSwap.sol\":3083:4281  function buyRecryWithUsdc(uint _amount) public payable{\r... */\n      pop\n      jump\t// out\n        /* \"Documents/GitHub/ReCrypto/src/contracts/RecryUsdcSwap.sol\":210:231  UsdcToken public usdc */\n    tag_64:\n      0x02\n      0x00\n      swap1\n      sload\n      swap1\n      0x0100\n      exp\n      swap1\n      div\n      0xffffffffffffffffffffffffffffffffffffffff\n      and\n      dup2\n      jump\t// out\n        /* \"Documents/GitHub/ReCrypto/src/contracts/RecryUsdcSwap.sol\":892:986  function changeRecrySupply(uint _amount) public isOwner {\r... */\n    tag_70:\n        /* \"Documents/GitHub/ReCrypto/src/contracts/RecryUsdcSwap.sol\":558:563  owner */\n      0x00\n      dup1\n      sload\n      swap1\n      0x0100\n      exp\n      swap1\n      div\n      0xffffffffffffffffffffffffffffffffffffffff\n      and\n        /* \"Documents/GitHub/ReCrypto/src/contracts/RecryUsdcSwap.sol\":544:563  msg.sender == owner */\n      0xffffffffffffffffffffffffffffffffffffffff\n      and\n        /* \"Documents/GitHub/ReCrypto/src/contracts/RecryUsdcSwap.sol\":544:554  msg.sender */\n      caller\n        /* \"Documents/GitHub/ReCrypto/src/contracts/RecryUsdcSwap.sol\":544:563  msg.sender == owner */\n      0xffffffffffffffffffffffffffffffffffffffff\n      and\n      eq\n        /* \"Documents/GitHub/ReCrypto/src/contracts/RecryUsdcSwap.sol\":536:587  require(msg.sender == owner, \"Caller is not owner\") */\n      tag_216\n      jumpi\n      mload(0x40)\n      0x08c379a000000000000000000000000000000000000000000000000000000000\n      dup2\n      mstore\n      0x04\n      add\n      tag_217\n      swap1\n      tag_124\n      jump\t// in\n    tag_217:\n      mload(0x40)\n      dup1\n      swap2\n      sub\n      swap1\n      revert\n    tag_216:\n        /* \"Documents/GitHub/ReCrypto/src/contracts/RecryUsdcSwap.sol\":971:978  _amount */\n      dup1\n        /* \"Documents/GitHub/ReCrypto/src/contracts/RecryUsdcSwap.sol\":959:968  maxSupply */\n      0x03\n        /* \"Documents/GitHub/ReCrypto/src/contracts/RecryUsdcSwap.sol\":959:978  maxSupply = _amount */\n      dup2\n      swap1\n      sstore\n      pop\n        /* \"Documents/GitHub/ReCrypto/src/contracts/RecryUsdcSwap.sol\":892:986  function changeRecrySupply(uint _amount) public isOwner {\r... */\n      pop\n      jump\t// out\n        /* \"Documents/GitHub/ReCrypto/src/contracts/RecryUsdcSwap.sol\":615:884  function addRecrySupply(uint _amount) public payable isOwner {\r... */\n    tag_73:\n        /* \"Documents/GitHub/ReCrypto/src/contracts/RecryUsdcSwap.sol\":558:563  owner */\n      0x00\n      dup1\n      sload\n      swap1\n      0x0100\n      exp\n      swap1\n      div\n      0xffffffffffffffffffffffffffffffffffffffff\n      and\n        /* \"Documents/GitHub/ReCrypto/src/contracts/RecryUsdcSwap.sol\":544:563  msg.sender == owner */\n      0xffffffffffffffffffffffffffffffffffffffff\n      and\n        /* \"Documents/GitHub/ReCrypto/src/contracts/RecryUsdcSwap.sol\":544:554  msg.sender */\n      caller\n        /* \"Documents/GitHub/ReCrypto/src/contracts/RecryUsdcSwap.sol\":544:563  msg.sender == owner */\n      0xffffffffffffffffffffffffffffffffffffffff\n      and\n      eq\n        /* \"Documents/GitHub/ReCrypto/src/contracts/RecryUsdcSwap.sol\":536:587  require(msg.sender == owner, \"Caller is not owner\") */\n      tag_220\n      jumpi\n      mload(0x40)\n      0x08c379a000000000000000000000000000000000000000000000000000000000\n      dup2\n      mstore\n      0x04\n      add\n      tag_221\n      swap1\n      tag_124\n      jump\t// in\n    tag_221:\n      mload(0x40)\n      dup1\n      swap2\n      sub\n      swap1\n      revert\n    tag_220:\n        /* \"Documents/GitHub/ReCrypto/src/contracts/RecryUsdcSwap.sol\":726:733  _amount */\n      dup1\n        /* \"Documents/GitHub/ReCrypto/src/contracts/RecryUsdcSwap.sol\":695:700  recry */\n      0x01\n      0x00\n      swap1\n      sload\n      swap1\n      0x0100\n      exp\n      swap1\n      div\n      0xffffffffffffffffffffffffffffffffffffffff\n      and\n        /* \"Documents/GitHub/ReCrypto/src/contracts/RecryUsdcSwap.sol\":695:710  recry.balanceOf */\n      0xffffffffffffffffffffffffffffffffffffffff\n      and\n      0x70a08231\n        /* \"Documents/GitHub/ReCrypto/src/contracts/RecryUsdcSwap.sol\":711:721  msg.sender */\n      caller\n        /* \"Documents/GitHub/ReCrypto/src/contracts/RecryUsdcSwap.sol\":695:722  recry.balanceOf(msg.sender) */\n      mload(0x40)\n      dup3\n      0xffffffff\n      and\n      0xe0\n      shl\n      dup2\n      mstore\n      0x04\n      add\n      tag_223\n      swap2\n      swap1\n      tag_81\n      jump\t// in\n    tag_223:\n      0x20\n      mload(0x40)\n      dup1\n      dup4\n      sub\n      dup2\n      dup7\n      dup1\n      extcodesize\n      iszero\n      dup1\n      iszero\n      tag_224\n      jumpi\n      0x00\n      dup1\n      revert\n    tag_224:\n      pop\n      gas\n      staticcall\n      iszero\n      dup1\n      iszero\n      tag_226\n      jumpi\n      returndatasize\n      0x00\n      dup1\n      returndatacopy\n      revert(0x00, returndatasize)\n    tag_226:\n      pop\n      pop\n      pop\n      pop\n      mload(0x40)\n      returndatasize\n      not(0x1f)\n      0x1f\n      dup3\n      add\n      and\n      dup3\n      add\n      dup1\n      0x40\n      mstore\n      pop\n      dup2\n      add\n      swap1\n      tag_227\n      swap2\n      swap1\n      tag_131\n      jump\t// in\n    tag_227:\n        /* \"Documents/GitHub/ReCrypto/src/contracts/RecryUsdcSwap.sol\":695:733  recry.balanceOf(msg.sender) >= _amount */\n      lt\n      iszero\n        /* \"Documents/GitHub/ReCrypto/src/contracts/RecryUsdcSwap.sol\":687:761  require(recry.balanceOf(msg.sender) >= _amount , \"no enough recry to add\") */\n      tag_228\n      jumpi\n      mload(0x40)\n      0x08c379a000000000000000000000000000000000000000000000000000000000\n      dup2\n      mstore\n      0x04\n      add\n      tag_229\n      swap1\n      tag_230\n      jump\t// in\n    tag_229:\n      mload(0x40)\n      dup1\n      swap2\n      sub\n      swap1\n      revert\n    tag_228:\n        /* \"Documents/GitHub/ReCrypto/src/contracts/RecryUsdcSwap.sol\":780:785  recry */\n      0x01\n      0x00\n      swap1\n      sload\n      swap1\n      0x0100\n      exp\n      swap1\n      div\n      0xffffffffffffffffffffffffffffffffffffffff\n      and\n        /* \"Documents/GitHub/ReCrypto/src/contracts/RecryUsdcSwap.sol\":780:798  recry.transferFrom */\n      0xffffffffffffffffffffffffffffffffffffffff\n      and\n      0x23b872dd\n        /* \"Documents/GitHub/ReCrypto/src/contracts/RecryUsdcSwap.sol\":799:809  msg.sender */\n      caller\n        /* \"Documents/GitHub/ReCrypto/src/contracts/RecryUsdcSwap.sol\":818:822  this */\n      address\n        /* \"Documents/GitHub/ReCrypto/src/contracts/RecryUsdcSwap.sol\":825:832  _amount */\n      dup5\n        /* \"Documents/GitHub/ReCrypto/src/contracts/RecryUsdcSwap.sol\":780:833  recry.transferFrom(msg.sender,address(this), _amount) */\n      mload(0x40)\n      dup5\n      0xffffffff\n      and\n      0xe0\n      shl\n      dup2\n      mstore\n      0x04\n      add\n      tag_231\n      swap4\n      swap3\n      swap2\n      swap1\n      tag_183\n      jump\t// in\n    tag_231:\n      0x20\n      mload(0x40)\n      dup1\n      dup4\n      sub\n      dup2\n      0x00\n      dup8\n      dup1\n      extcodesize\n      iszero\n      dup1\n      iszero\n      tag_232\n      jumpi\n      0x00\n      dup1\n      revert\n    tag_232:\n      pop\n      gas\n      call\n      iszero\n      dup1\n      iszero\n      tag_234\n      jumpi\n      returndatasize\n      0x00\n      dup1\n      returndatacopy\n      revert(0x00, returndatasize)\n    tag_234:\n      pop\n      pop\n      pop\n      pop\n      mload(0x40)\n      returndatasize\n      not(0x1f)\n      0x1f\n      dup3\n      add\n      and\n      dup3\n      add\n      dup1\n      0x40\n      mstore\n      pop\n      dup2\n      add\n      swap1\n      tag_235\n      swap2\n      swap1\n      tag_141\n      jump\t// in\n    tag_235:\n        /* \"Documents/GitHub/ReCrypto/src/contracts/RecryUsdcSwap.sol\":772:834  require(recry.transferFrom(msg.sender,address(this), _amount)) */\n      tag_236\n      jumpi\n      0x00\n      dup1\n      revert\n    tag_236:\n        /* \"Documents/GitHub/ReCrypto/src/contracts/RecryUsdcSwap.sol\":869:876  _amount */\n      dup1\n        /* \"Documents/GitHub/ReCrypto/src/contracts/RecryUsdcSwap.sol\":857:866  maxSupply */\n      sload(0x03)\n        /* \"Documents/GitHub/ReCrypto/src/contracts/RecryUsdcSwap.sol\":857:876  maxSupply + _amount */\n      tag_237\n      swap2\n      swap1\n      tag_152\n      jump\t// in\n    tag_237:\n        /* \"Documents/GitHub/ReCrypto/src/contracts/RecryUsdcSwap.sol\":845:854  maxSupply */\n      0x03\n        /* \"Documents/GitHub/ReCrypto/src/contracts/RecryUsdcSwap.sol\":845:876  maxSupply = maxSupply + _amount */\n      dup2\n      swap1\n      sstore\n      pop\n        /* \"Documents/GitHub/ReCrypto/src/contracts/RecryUsdcSwap.sol\":615:884  function addRecrySupply(uint _amount) public payable isOwner {\r... */\n      pop\n      jump\t// out\n        /* \"Documents/GitHub/ReCrypto/src/contracts/RecryUsdcSwap.sol\":1223:1427  function withdrawUsdc(uint _amount) public payable isOwner{\r... */\n    tag_76:\n        /* \"Documents/GitHub/ReCrypto/src/contracts/RecryUsdcSwap.sol\":558:563  owner */\n      0x00\n      dup1\n      sload\n      swap1\n      0x0100\n      exp\n      swap1\n      div\n      0xffffffffffffffffffffffffffffffffffffffff\n      and\n        /* \"Documents/GitHub/ReCrypto/src/contracts/RecryUsdcSwap.sol\":544:563  msg.sender == owner */\n      0xffffffffffffffffffffffffffffffffffffffff\n      and\n        /* \"Documents/GitHub/ReCrypto/src/contracts/RecryUsdcSwap.sol\":544:554  msg.sender */\n      caller\n        /* \"Documents/GitHub/ReCrypto/src/contracts/RecryUsdcSwap.sol\":544:563  msg.sender == owner */\n      0xffffffffffffffffffffffffffffffffffffffff\n      and\n      eq\n        /* \"Documents/GitHub/ReCrypto/src/contracts/RecryUsdcSwap.sol\":536:587  require(msg.sender == owner, \"Caller is not owner\") */\n      tag_239\n      jumpi\n      mload(0x40)\n      0x08c379a000000000000000000000000000000000000000000000000000000000\n      dup2\n      mstore\n      0x04\n      add\n      tag_240\n      swap1\n      tag_124\n      jump\t// in\n    tag_240:\n      mload(0x40)\n      dup1\n      swap2\n      sub\n      swap1\n      revert\n    tag_239:\n        /* \"Documents/GitHub/ReCrypto/src/contracts/RecryUsdcSwap.sol\":1332:1339  _amount */\n      dup1\n        /* \"Documents/GitHub/ReCrypto/src/contracts/RecryUsdcSwap.sol\":1300:1304  usdc */\n      0x02\n      0x00\n      swap1\n      sload\n      swap1\n      0x0100\n      exp\n      swap1\n      div\n      0xffffffffffffffffffffffffffffffffffffffff\n      and\n        /* \"Documents/GitHub/ReCrypto/src/contracts/RecryUsdcSwap.sol\":1300:1314  usdc.balanceOf */\n      0xffffffffffffffffffffffffffffffffffffffff\n      and\n      0x70a08231\n        /* \"Documents/GitHub/ReCrypto/src/contracts/RecryUsdcSwap.sol\":1323:1327  this */\n      address\n        /* \"Documents/GitHub/ReCrypto/src/contracts/RecryUsdcSwap.sol\":1300:1329  usdc.balanceOf(address(this)) */\n      mload(0x40)\n      dup3\n      0xffffffff\n      and\n      0xe0\n      shl\n      dup2\n      mstore\n      0x04\n      add\n      tag_242\n      swap2\n      swap1\n      tag_81\n      jump\t// in\n    tag_242:\n      0x20\n      mload(0x40)\n      dup1\n      dup4\n      sub\n      dup2\n      dup7\n      dup1\n      extcodesize\n      iszero\n      dup1\n      iszero\n      tag_243\n      jumpi\n      0x00\n      dup1\n      revert\n    tag_243:\n      pop\n      gas\n      staticcall\n      iszero\n      dup1\n      iszero\n      tag_245\n      jumpi\n      returndatasize\n      0x00\n      dup1\n      returndatacopy\n      revert(0x00, returndatasize)\n    tag_245:\n      pop\n      pop\n      pop\n      pop\n      mload(0x40)\n      returndatasize\n      not(0x1f)\n      0x1f\n      dup3\n      add\n      and\n      dup3\n      add\n      dup1\n      0x40\n      mstore\n      pop\n      dup2\n      add\n      swap1\n      tag_246\n      swap2\n      swap1\n      tag_131\n      jump\t// in\n    tag_246:\n        /* \"Documents/GitHub/ReCrypto/src/contracts/RecryUsdcSwap.sol\":1300:1339  usdc.balanceOf(address(this)) > _amount */\n      gt\n        /* \"Documents/GitHub/ReCrypto/src/contracts/RecryUsdcSwap.sol\":1292:1370  require(usdc.balanceOf(address(this)) > _amount, \"no enough usdc to withdraw\") */\n      tag_247\n      jumpi\n      mload(0x40)\n      0x08c379a000000000000000000000000000000000000000000000000000000000\n      dup2\n      mstore\n      0x04\n      add\n      tag_248\n      swap1\n      tag_249\n      jump\t// in\n    tag_248:\n      mload(0x40)\n      dup1\n      swap2\n      sub\n      swap1\n      revert\n    tag_247:\n        /* \"Documents/GitHub/ReCrypto/src/contracts/RecryUsdcSwap.sol\":1389:1393  usdc */\n      0x02\n      0x00\n      swap1\n      sload\n      swap1\n      0x0100\n      exp\n      swap1\n      div\n      0xffffffffffffffffffffffffffffffffffffffff\n      and\n        /* \"Documents/GitHub/ReCrypto/src/contracts/RecryUsdcSwap.sol\":1389:1402  usdc.transfer */\n      0xffffffffffffffffffffffffffffffffffffffff\n      and\n      0xa9059cbb\n        /* \"Documents/GitHub/ReCrypto/src/contracts/RecryUsdcSwap.sol\":1403:1408  owner */\n      0x00\n      dup1\n      sload\n      swap1\n      0x0100\n      exp\n      swap1\n      div\n      0xffffffffffffffffffffffffffffffffffffffff\n      and\n        /* \"Documents/GitHub/ReCrypto/src/contracts/RecryUsdcSwap.sol\":1410:1417  _amount */\n      dup4\n        /* \"Documents/GitHub/ReCrypto/src/contracts/RecryUsdcSwap.sol\":1389:1418  usdc.transfer(owner, _amount) */\n      mload(0x40)\n      dup4\n      0xffffffff\n      and\n      0xe0\n      shl\n      dup2\n      mstore\n      0x04\n      add\n      tag_250\n      swap3\n      swap2\n      swap1\n      tag_136\n      jump\t// in\n    tag_250:\n      0x20\n      mload(0x40)\n      dup1\n      dup4\n      sub\n      dup2\n      0x00\n      dup8\n      dup1\n      extcodesize\n      iszero\n      dup1\n      iszero\n      tag_251\n      jumpi\n      0x00\n      dup1\n      revert\n    tag_251:\n      pop\n      gas\n      call\n      iszero\n      dup1\n      iszero\n      tag_253\n      jumpi\n      returndatasize\n      0x00\n      dup1\n      returndatacopy\n      revert(0x00, returndatasize)\n    tag_253:\n      pop\n      pop\n      pop\n      pop\n      mload(0x40)\n      returndatasize\n      not(0x1f)\n      0x1f\n      dup3\n      add\n      and\n      dup3\n      add\n      dup1\n      0x40\n      mstore\n      pop\n      dup2\n      add\n      swap1\n      tag_254\n      swap2\n      swap1\n      tag_141\n      jump\t// in\n    tag_254:\n        /* \"Documents/GitHub/ReCrypto/src/contracts/RecryUsdcSwap.sol\":1381:1419  require(usdc.transfer(owner, _amount)) */\n      tag_255\n      jumpi\n      0x00\n      dup1\n      revert\n    tag_255:\n        /* \"Documents/GitHub/ReCrypto/src/contracts/RecryUsdcSwap.sol\":1223:1427  function withdrawUsdc(uint _amount) public payable isOwner{\r... */\n      pop\n      jump\t// out\n        /* \"Documents/GitHub/ReCrypto/src/contracts/RecryUsdcSwap.sol\":2871:2973  function getSender() public view returns(address _value)\r... */\n    tag_79:\n        /* \"Documents/GitHub/ReCrypto/src/contracts/RecryUsdcSwap.sol\":2912:2926  address _value */\n      0x00\n        /* \"Documents/GitHub/ReCrypto/src/contracts/RecryUsdcSwap.sol\":2955:2965  msg.sender */\n      caller\n        /* \"Documents/GitHub/ReCrypto/src/contracts/RecryUsdcSwap.sol\":2948:2965  return msg.sender */\n      swap1\n      pop\n        /* \"Documents/GitHub/ReCrypto/src/contracts/RecryUsdcSwap.sol\":2871:2973  function getSender() public view returns(address _value)\r... */\n      swap1\n      jump\t// out\n        /* \"Documents/GitHub/ReCrypto/src/contracts/RecryUsdcSwap.sol\":2119:2225  function getRecryMaxSupply() public view returns(uint _value)\r... */\n    tag_84:\n        /* \"Documents/GitHub/ReCrypto/src/contracts/RecryUsdcSwap.sol\":2168:2179  uint _value */\n      0x00\n        /* \"Documents/GitHub/ReCrypto/src/contracts/RecryUsdcSwap.sol\":2208:2217  maxSupply */\n      sload(0x03)\n        /* \"Documents/GitHub/ReCrypto/src/contracts/RecryUsdcSwap.sol\":2201:2217  return maxSupply */\n      swap1\n      pop\n        /* \"Documents/GitHub/ReCrypto/src/contracts/RecryUsdcSwap.sol\":2119:2225  function getRecryMaxSupply() public view returns(uint _value)\r... */\n      swap1\n      jump\t// out\n        /* \"Documents/GitHub/ReCrypto/src/contracts/RecryUsdcSwap.sol\":2979:3075  function getOwner() public view returns(address _value)\r... */\n    tag_88:\n        /* \"Documents/GitHub/ReCrypto/src/contracts/RecryUsdcSwap.sol\":3019:3033  address _value */\n      0x00\n        /* \"Documents/GitHub/ReCrypto/src/contracts/RecryUsdcSwap.sol\":3062:3067  owner */\n      dup1\n      0x00\n      swap1\n      sload\n      swap1\n      0x0100\n      exp\n      swap1\n      div\n      0xffffffffffffffffffffffffffffffffffffffff\n      and\n        /* \"Documents/GitHub/ReCrypto/src/contracts/RecryUsdcSwap.sol\":3055:3067  return owner */\n      swap1\n      pop\n        /* \"Documents/GitHub/ReCrypto/src/contracts/RecryUsdcSwap.sol\":2979:3075  function getOwner() public view returns(address _value)\r... */\n      swap1\n      jump\t// out\n        /* \"Documents/GitHub/ReCrypto/src/contracts/RecryUsdcSwap.sol\":150:170  address public owner */\n    tag_92:\n      0x00\n      dup1\n      sload\n      swap1\n      0x0100\n      exp\n      swap1\n      div\n      0xffffffffffffffffffffffffffffffffffffffff\n      and\n      dup2\n      jump\t// out\n        /* \"Documents/GitHub/ReCrypto/src/contracts/RecryUsdcSwap.sol\":2371:2499  function getUsdcMaxAvailable() public view returns(uint _value)\r... */\n    tag_96:\n        /* \"Documents/GitHub/ReCrypto/src/contracts/RecryUsdcSwap.sol\":2422:2433  uint _value */\n      0x00\n        /* \"Documents/GitHub/ReCrypto/src/contracts/RecryUsdcSwap.sol\":2462:2466  usdc */\n      0x02\n      0x00\n      swap1\n      sload\n      swap1\n      0x0100\n      exp\n      swap1\n      div\n      0xffffffffffffffffffffffffffffffffffffffff\n      and\n        /* \"Documents/GitHub/ReCrypto/src/contracts/RecryUsdcSwap.sol\":2462:2476  usdc.balanceOf */\n      0xffffffffffffffffffffffffffffffffffffffff\n      and\n      0x70a08231\n        /* \"Documents/GitHub/ReCrypto/src/contracts/RecryUsdcSwap.sol\":2485:2489  this */\n      address\n        /* \"Documents/GitHub/ReCrypto/src/contracts/RecryUsdcSwap.sol\":2462:2491  usdc.balanceOf(address(this)) */\n      mload(0x40)\n      dup3\n      0xffffffff\n      and\n      0xe0\n      shl\n      dup2\n      mstore\n      0x04\n      add\n      tag_260\n      swap2\n      swap1\n      tag_81\n      jump\t// in\n    tag_260:\n      0x20\n      mload(0x40)\n      dup1\n      dup4\n      sub\n      dup2\n      dup7\n      dup1\n      extcodesize\n      iszero\n      dup1\n      iszero\n      tag_261\n      jumpi\n      0x00\n      dup1\n      revert\n    tag_261:\n      pop\n      gas\n      staticcall\n      iszero\n      dup1\n      iszero\n      tag_263\n      jumpi\n      returndatasize\n      0x00\n      dup1\n      returndatacopy\n      revert(0x00, returndatasize)\n    tag_263:\n      pop\n      pop\n      pop\n      pop\n      mload(0x40)\n      returndatasize\n      not(0x1f)\n      0x1f\n      dup3\n      add\n      and\n      dup3\n      add\n      dup1\n      0x40\n      mstore\n      pop\n      dup2\n      add\n      swap1\n      tag_264\n      swap2\n      swap1\n      tag_131\n      jump\t// in\n    tag_264:\n        /* \"Documents/GitHub/ReCrypto/src/contracts/RecryUsdcSwap.sol\":2455:2491  return usdc.balanceOf(address(this)) */\n      swap1\n      pop\n        /* \"Documents/GitHub/ReCrypto/src/contracts/RecryUsdcSwap.sol\":2371:2499  function getUsdcMaxAvailable() public view returns(uint _value)\r... */\n      swap1\n      jump\t// out\n        /* \"Documents/GitHub/ReCrypto/src/contracts/RecryUsdcSwap.sol\":240:268  uint public maxSupply    = 0 */\n    tag_100:\n      sload(0x03)\n      dup2\n      jump\t// out\n        /* \"Documents/GitHub/ReCrypto/src/contracts/RecryUsdcSwap.sol\":1959:2111  function getRecryTotalValue() public view returns(uint _value)\r... */\n    tag_104:\n        /* \"Documents/GitHub/ReCrypto/src/contracts/RecryUsdcSwap.sol\":2009:2020  uint _value */\n      0x00\n        /* \"Documents/GitHub/ReCrypto/src/contracts/RecryUsdcSwap.sol\":2076:2081  recry */\n      0x01\n      0x00\n      swap1\n      sload\n      swap1\n      0x0100\n      exp\n      swap1\n      div\n      0xffffffffffffffffffffffffffffffffffffffff\n      and\n        /* \"Documents/GitHub/ReCrypto/src/contracts/RecryUsdcSwap.sol\":2076:2091  recry.balanceOf */\n      0xffffffffffffffffffffffffffffffffffffffff\n      and\n      0x70a08231\n        /* \"Documents/GitHub/ReCrypto/src/contracts/RecryUsdcSwap.sol\":2092:2102  msg.sender */\n      caller\n        /* \"Documents/GitHub/ReCrypto/src/contracts/RecryUsdcSwap.sol\":2076:2103  recry.balanceOf(msg.sender) */\n      mload(0x40)\n      dup3\n      0xffffffff\n      and\n      0xe0\n      shl\n      dup2\n      mstore\n      0x04\n      add\n      tag_266\n      swap2\n      swap1\n      tag_81\n      jump\t// in\n    tag_266:\n      0x20\n      mload(0x40)\n      dup1\n      dup4\n      sub\n      dup2\n      dup7\n      dup1\n      extcodesize\n      iszero\n      dup1\n      iszero\n      tag_267\n      jumpi\n      0x00\n      dup1\n      revert\n    tag_267:\n      pop\n      gas\n      staticcall\n      iszero\n      dup1\n      iszero\n      tag_269\n      jumpi\n      returndatasize\n      0x00\n      dup1\n      returndatacopy\n      revert(0x00, returndatasize)\n    tag_269:\n      pop\n      pop\n      pop\n      pop\n      mload(0x40)\n      returndatasize\n      not(0x1f)\n      0x1f\n      dup3\n      add\n      and\n      dup3\n      add\n      dup1\n      0x40\n      mstore\n      pop\n      dup2\n      add\n      swap1\n      tag_270\n      swap2\n      swap1\n      tag_131\n      jump\t// in\n    tag_270:\n        /* \"Documents/GitHub/ReCrypto/src/contracts/RecryUsdcSwap.sol\":2058:2073  getRecryValue() */\n      tag_271\n        /* \"Documents/GitHub/ReCrypto/src/contracts/RecryUsdcSwap.sol\":2058:2071  getRecryValue */\n      tag_108\n        /* \"Documents/GitHub/ReCrypto/src/contracts/RecryUsdcSwap.sol\":2058:2073  getRecryValue() */\n      jump\t// in\n    tag_271:\n        /* \"Documents/GitHub/ReCrypto/src/contracts/RecryUsdcSwap.sol\":2058:2103  getRecryValue() * recry.balanceOf(msg.sender) */\n      tag_272\n      swap2\n      swap1\n      tag_273\n      jump\t// in\n    tag_272:\n        /* \"Documents/GitHub/ReCrypto/src/contracts/RecryUsdcSwap.sol\":2049:2103  _value = getRecryValue() * recry.balanceOf(msg.sender) */\n      swap1\n      pop\n        /* \"Documents/GitHub/ReCrypto/src/contracts/RecryUsdcSwap.sol\":1959:2111  function getRecryTotalValue() public view returns(uint _value)\r... */\n      swap1\n      jump\t// out\n        /* \"Documents/GitHub/ReCrypto/src/contracts/RecryUsdcSwap.sol\":1651:1789  function getRecryValue() public view returns(uint _value)\r... */\n    tag_108:\n        /* \"Documents/GitHub/ReCrypto/src/contracts/RecryUsdcSwap.sol\":1696:1707  uint _value */\n      0x00\n        /* \"Documents/GitHub/ReCrypto/src/contracts/RecryUsdcSwap.sol\":1771:1780  maxSupply */\n      sload(0x03)\n        /* \"Documents/GitHub/ReCrypto/src/contracts/RecryUsdcSwap.sol\":1757:1769  protocolGain */\n      sload(0x04)\n        /* \"Documents/GitHub/ReCrypto/src/contracts/RecryUsdcSwap.sol\":1747:1756  maxSupply */\n      sload(0x03)\n        /* \"Documents/GitHub/ReCrypto/src/contracts/RecryUsdcSwap.sol\":1747:1769  maxSupply+protocolGain */\n      tag_275\n      swap2\n      swap1\n      tag_152\n      jump\t// in\n    tag_275:\n        /* \"Documents/GitHub/ReCrypto/src/contracts/RecryUsdcSwap.sol\":1746:1780  (maxSupply+protocolGain)/maxSupply */\n      tag_276\n      swap2\n      swap1\n      tag_165\n      jump\t// in\n    tag_276:\n        /* \"Documents/GitHub/ReCrypto/src/contracts/RecryUsdcSwap.sol\":1736:1781  _value = ((maxSupply+protocolGain)/maxSupply) */\n      swap1\n      pop\n        /* \"Documents/GitHub/ReCrypto/src/contracts/RecryUsdcSwap.sol\":1651:1789  function getRecryValue() public view returns(uint _value)\r... */\n      swap1\n      jump\t// out\n        /* \"Documents/GitHub/ReCrypto/src/contracts/RecryUsdcSwap.sol\":4289:4917  function sellRecryForUsdc(uint _amount) public payable{\r... */\n    tag_112:\n        /* \"Documents/GitHub/ReCrypto/src/contracts/RecryUsdcSwap.sol\":4396:4410  uint qtyToSell */\n      0x00\n        /* \"Documents/GitHub/ReCrypto/src/contracts/RecryUsdcSwap.sol\":4423:4438  getRecryValue() */\n      tag_278\n        /* \"Documents/GitHub/ReCrypto/src/contracts/RecryUsdcSwap.sol\":4423:4436  getRecryValue */\n      tag_108\n        /* \"Documents/GitHub/ReCrypto/src/contracts/RecryUsdcSwap.sol\":4423:4438  getRecryValue() */\n      jump\t// in\n    tag_278:\n        /* \"Documents/GitHub/ReCrypto/src/contracts/RecryUsdcSwap.sol\":4413:4420  _amount */\n      dup3\n        /* \"Documents/GitHub/ReCrypto/src/contracts/RecryUsdcSwap.sol\":4413:4438  _amount * getRecryValue() */\n      tag_279\n      swap2\n      swap1\n      tag_273\n      jump\t// in\n    tag_279:\n        /* \"Documents/GitHub/ReCrypto/src/contracts/RecryUsdcSwap.sol\":4396:4438  uint qtyToSell = _amount * getRecryValue() */\n      swap1\n      pop\n        /* \"Documents/GitHub/ReCrypto/src/contracts/RecryUsdcSwap.sol\":4467:4468  0 */\n      0x00\n        /* \"Documents/GitHub/ReCrypto/src/contracts/RecryUsdcSwap.sol\":4457:4464  _amount */\n      dup3\n        /* \"Documents/GitHub/ReCrypto/src/contracts/RecryUsdcSwap.sol\":4457:4468  _amount > 0 */\n      gt\n        /* \"Documents/GitHub/ReCrypto/src/contracts/RecryUsdcSwap.sol\":4449:4491  require(_amount > 0, \"amount cannot be 0\") */\n      tag_280\n      jumpi\n      mload(0x40)\n      0x08c379a000000000000000000000000000000000000000000000000000000000\n      dup2\n      mstore\n      0x04\n      add\n      tag_281\n      swap1\n      tag_168\n      jump\t// in\n    tag_281:\n      mload(0x40)\n      dup1\n      swap2\n      sub\n      swap1\n      revert\n    tag_280:\n        /* \"Documents/GitHub/ReCrypto/src/contracts/RecryUsdcSwap.sol\":4541:4548  _amount */\n      dup2\n        /* \"Documents/GitHub/ReCrypto/src/contracts/RecryUsdcSwap.sol\":4510:4515  recry */\n      0x01\n      0x00\n      swap1\n      sload\n      swap1\n      0x0100\n      exp\n      swap1\n      div\n      0xffffffffffffffffffffffffffffffffffffffff\n      and\n        /* \"Documents/GitHub/ReCrypto/src/contracts/RecryUsdcSwap.sol\":4510:4525  recry.balanceOf */\n      0xffffffffffffffffffffffffffffffffffffffff\n      and\n      0x70a08231\n        /* \"Documents/GitHub/ReCrypto/src/contracts/RecryUsdcSwap.sol\":4526:4536  msg.sender */\n      caller\n        /* \"Documents/GitHub/ReCrypto/src/contracts/RecryUsdcSwap.sol\":4510:4537  recry.balanceOf(msg.sender) */\n      mload(0x40)\n      dup3\n      0xffffffff\n      and\n      0xe0\n      shl\n      dup2\n      mstore\n      0x04\n      add\n      tag_282\n      swap2\n      swap1\n      tag_81\n      jump\t// in\n    tag_282:\n      0x20\n      mload(0x40)\n      dup1\n      dup4\n      sub\n      dup2\n      dup7\n      dup1\n      extcodesize\n      iszero\n      dup1\n      iszero\n      tag_283\n      jumpi\n      0x00\n      dup1\n      revert\n    tag_283:\n      pop\n      gas\n      staticcall\n      iszero\n      dup1\n      iszero\n      tag_285\n      jumpi\n      returndatasize\n      0x00\n      dup1\n      returndatacopy\n      revert(0x00, returndatasize)\n    tag_285:\n      pop\n      pop\n      pop\n      pop\n      mload(0x40)\n      returndatasize\n      not(0x1f)\n      0x1f\n      dup3\n      add\n      and\n      dup3\n      add\n      dup1\n      0x40\n      mstore\n      pop\n      dup2\n      add\n      swap1\n      tag_286\n      swap2\n      swap1\n      tag_131\n      jump\t// in\n    tag_286:\n        /* \"Documents/GitHub/ReCrypto/src/contracts/RecryUsdcSwap.sol\":4510:4548  recry.balanceOf(msg.sender) >= _amount */\n      lt\n      iszero\n        /* \"Documents/GitHub/ReCrypto/src/contracts/RecryUsdcSwap.sol\":4502:4577  require(recry.balanceOf(msg.sender) >= _amount , \"no enough recry to sell\") */\n      tag_287\n      jumpi\n      mload(0x40)\n      0x08c379a000000000000000000000000000000000000000000000000000000000\n      dup2\n      mstore\n      0x04\n      add\n      tag_288\n      swap1\n      tag_289\n      jump\t// in\n    tag_288:\n      mload(0x40)\n      dup1\n      swap2\n      sub\n      swap1\n      revert\n    tag_287:\n        /* \"Documents/GitHub/ReCrypto/src/contracts/RecryUsdcSwap.sol\":4621:4630  qtyToSell */\n      dup1\n        /* \"Documents/GitHub/ReCrypto/src/contracts/RecryUsdcSwap.sol\":4596:4617  getUsdcMaxAvailable() */\n      tag_290\n        /* \"Documents/GitHub/ReCrypto/src/contracts/RecryUsdcSwap.sol\":4596:4615  getUsdcMaxAvailable */\n      tag_96\n        /* \"Documents/GitHub/ReCrypto/src/contracts/RecryUsdcSwap.sol\":4596:4617  getUsdcMaxAvailable() */\n      jump\t// in\n    tag_290:\n        /* \"Documents/GitHub/ReCrypto/src/contracts/RecryUsdcSwap.sol\":4596:4630  getUsdcMaxAvailable() >= qtyToSell */\n      lt\n      iszero\n        /* \"Documents/GitHub/ReCrypto/src/contracts/RecryUsdcSwap.sol\":4588:4658  require(getUsdcMaxAvailable() >= qtyToSell , \"no enough usdc to swap\") */\n      tag_291\n      jumpi\n      mload(0x40)\n      0x08c379a000000000000000000000000000000000000000000000000000000000\n      dup2\n      mstore\n      0x04\n      add\n      tag_292\n      swap1\n      tag_293\n      jump\t// in\n    tag_292:\n      mload(0x40)\n      dup1\n      swap2\n      sub\n      swap1\n      revert\n    tag_291:\n        /* \"Documents/GitHub/ReCrypto/src/contracts/RecryUsdcSwap.sol\":4738:4743  recry */\n      0x01\n      0x00\n      swap1\n      sload\n      swap1\n      0x0100\n      exp\n      swap1\n      div\n      0xffffffffffffffffffffffffffffffffffffffff\n      and\n        /* \"Documents/GitHub/ReCrypto/src/contracts/RecryUsdcSwap.sol\":4738:4756  recry.transferFrom */\n      0xffffffffffffffffffffffffffffffffffffffff\n      and\n      0x23b872dd\n        /* \"Documents/GitHub/ReCrypto/src/contracts/RecryUsdcSwap.sol\":4757:4767  msg.sender */\n      caller\n        /* \"Documents/GitHub/ReCrypto/src/contracts/RecryUsdcSwap.sol\":4777:4781  this */\n      address\n        /* \"Documents/GitHub/ReCrypto/src/contracts/RecryUsdcSwap.sol\":4784:4791  _amount */\n      dup6\n        /* \"Documents/GitHub/ReCrypto/src/contracts/RecryUsdcSwap.sol\":4738:4792  recry.transferFrom(msg.sender, address(this), _amount) */\n      mload(0x40)\n      dup5\n      0xffffffff\n      and\n      0xe0\n      shl\n      dup2\n      mstore\n      0x04\n      add\n      tag_294\n      swap4\n      swap3\n      swap2\n      swap1\n      tag_183\n      jump\t// in\n    tag_294:\n      0x20\n      mload(0x40)\n      dup1\n      dup4\n      sub\n      dup2\n      0x00\n      dup8\n      dup1\n      extcodesize\n      iszero\n      dup1\n      iszero\n      tag_295\n      jumpi\n      0x00\n      dup1\n      revert\n    tag_295:\n      pop\n      gas\n      call\n      iszero\n      dup1\n      iszero\n      tag_297\n      jumpi\n      returndatasize\n      0x00\n      dup1\n      returndatacopy\n      revert(0x00, returndatasize)\n    tag_297:\n      pop\n      pop\n      pop\n      pop\n      mload(0x40)\n      returndatasize\n      not(0x1f)\n      0x1f\n      dup3\n      add\n      and\n      dup3\n      add\n      dup1\n      0x40\n      mstore\n      pop\n      dup2\n      add\n      swap1\n      tag_298\n      swap2\n      swap1\n      tag_141\n      jump\t// in\n    tag_298:\n        /* \"Documents/GitHub/ReCrypto/src/contracts/RecryUsdcSwap.sol\":4730:4793  require(recry.transferFrom(msg.sender, address(this), _amount)) */\n      tag_299\n      jumpi\n      0x00\n      dup1\n      revert\n    tag_299:\n        /* \"Documents/GitHub/ReCrypto/src/contracts/RecryUsdcSwap.sol\":4844:4848  usdc */\n      0x02\n      0x00\n      swap1\n      sload\n      swap1\n      0x0100\n      exp\n      swap1\n      div\n      0xffffffffffffffffffffffffffffffffffffffff\n      and\n        /* \"Documents/GitHub/ReCrypto/src/contracts/RecryUsdcSwap.sol\":4844:4861  usdc.transferFrom */\n      0xffffffffffffffffffffffffffffffffffffffff\n      and\n      0x23b872dd\n        /* \"Documents/GitHub/ReCrypto/src/contracts/RecryUsdcSwap.sol\":4870:4874  this */\n      address\n        /* \"Documents/GitHub/ReCrypto/src/contracts/RecryUsdcSwap.sol\":4877:4887  msg.sender */\n      caller\n        /* \"Documents/GitHub/ReCrypto/src/contracts/RecryUsdcSwap.sol\":4889:4898  qtyToSell */\n      dup5\n        /* \"Documents/GitHub/ReCrypto/src/contracts/RecryUsdcSwap.sol\":4844:4899  usdc.transferFrom(address(this), msg.sender, qtyToSell) */\n      mload(0x40)\n      dup5\n      0xffffffff\n      and\n      0xe0\n      shl\n      dup2\n      mstore\n      0x04\n      add\n      tag_300\n      swap4\n      swap3\n      swap2\n      swap1\n      tag_183\n      jump\t// in\n    tag_300:\n      0x20\n      mload(0x40)\n      dup1\n      dup4\n      sub\n      dup2\n      0x00\n      dup8\n      dup1\n      extcodesize\n      iszero\n      dup1\n      iszero\n      tag_301\n      jumpi\n      0x00\n      dup1\n      revert\n    tag_301:\n      pop\n      gas\n      call\n      iszero\n      dup1\n      iszero\n      tag_303\n      jumpi\n      returndatasize\n      0x00\n      dup1\n      returndatacopy\n      revert(0x00, returndatasize)\n    tag_303:\n      pop\n      pop\n      pop\n      pop\n      mload(0x40)\n      returndatasize\n      not(0x1f)\n      0x1f\n      dup3\n      add\n      and\n      dup3\n      add\n      dup1\n      0x40\n      mstore\n      pop\n      dup2\n      add\n      swap1\n      tag_304\n      swap2\n      swap1\n      tag_141\n      jump\t// in\n    tag_304:\n      pop\n        /* \"Documents/GitHub/ReCrypto/src/contracts/RecryUsdcSwap.sol\":4343:4917  {\r... */\n      pop\n        /* \"Documents/GitHub/ReCrypto/src/contracts/RecryUsdcSwap.sol\":4289:4917  function sellRecryForUsdc(uint _amount) public payable{\r... */\n      pop\n      jump\t// out\n        /* \"Documents/GitHub/ReCrypto/src/contracts/RecryUsdcSwap.sol\":2507:2614  function getProtocolGain() public view returns(uint _value)\r... */\n    tag_115:\n        /* \"Documents/GitHub/ReCrypto/src/contracts/RecryUsdcSwap.sol\":2554:2565  uint _value */\n      0x00\n        /* \"Documents/GitHub/ReCrypto/src/contracts/RecryUsdcSwap.sol\":2594:2606  protocolGain */\n      sload(0x04)\n        /* \"Documents/GitHub/ReCrypto/src/contracts/RecryUsdcSwap.sol\":2587:2606  return protocolGain */\n      swap1\n      pop\n        /* \"Documents/GitHub/ReCrypto/src/contracts/RecryUsdcSwap.sol\":2507:2614  function getProtocolGain() public view returns(uint _value)\r... */\n      swap1\n      jump\t// out\n        /* \"Documents/GitHub/ReCrypto/src/contracts/RecryUsdcSwap.sol\":1795:1953  function getRecryPrice() public view returns(uint _value)\r... */\n    tag_119:\n        /* \"Documents/GitHub/ReCrypto/src/contracts/RecryUsdcSwap.sol\":1840:1851  uint _value */\n      0x00\n        /* \"Documents/GitHub/ReCrypto/src/contracts/RecryUsdcSwap.sol\":1926:1945  1000000000000000000 */\n      0x0de0b6b3a7640000\n        /* \"Documents/GitHub/ReCrypto/src/contracts/RecryUsdcSwap.sol\":1915:1924  maxSupply */\n      sload(0x03)\n        /* \"Documents/GitHub/ReCrypto/src/contracts/RecryUsdcSwap.sol\":1901:1913  protocolGain */\n      sload(0x04)\n        /* \"Documents/GitHub/ReCrypto/src/contracts/RecryUsdcSwap.sol\":1891:1900  maxSupply */\n      sload(0x03)\n        /* \"Documents/GitHub/ReCrypto/src/contracts/RecryUsdcSwap.sol\":1891:1913  maxSupply+protocolGain */\n      tag_307\n      swap2\n      swap1\n      tag_152\n      jump\t// in\n    tag_307:\n        /* \"Documents/GitHub/ReCrypto/src/contracts/RecryUsdcSwap.sol\":1890:1924  (maxSupply+protocolGain)/maxSupply */\n      tag_308\n      swap2\n      swap1\n      tag_165\n      jump\t// in\n    tag_308:\n        /* \"Documents/GitHub/ReCrypto/src/contracts/RecryUsdcSwap.sol\":1889:1945  ((maxSupply+protocolGain)/maxSupply)*1000000000000000000 */\n      tag_309\n      swap2\n      swap1\n      tag_273\n      jump\t// in\n    tag_309:\n        /* \"Documents/GitHub/ReCrypto/src/contracts/RecryUsdcSwap.sol\":1880:1945  _value = ((maxSupply+protocolGain)/maxSupply)*1000000000000000000 */\n      swap1\n      pop\n        /* \"Documents/GitHub/ReCrypto/src/contracts/RecryUsdcSwap.sol\":1795:1953  function getRecryPrice() public view returns(uint _value)\r... */\n      swap1\n      jump\t// out\n        /* \"#utility.yul\":7:144   */\n    tag_311:\n        /* \"#utility.yul\":61:66   */\n      0x00\n        /* \"#utility.yul\":92:98   */\n      dup2\n        /* \"#utility.yul\":86:99   */\n      mload\n        /* \"#utility.yul\":77:99   */\n      swap1\n      pop\n        /* \"#utility.yul\":108:138   */\n      tag_313\n        /* \"#utility.yul\":132:137   */\n      dup2\n        /* \"#utility.yul\":108:138   */\n      tag_314\n      jump\t// in\n    tag_313:\n        /* \"#utility.yul\":7:144   */\n      swap3\n      swap2\n      pop\n      pop\n      jump\t// out\n        /* \"#utility.yul\":150:289   */\n    tag_315:\n        /* \"#utility.yul\":196:201   */\n      0x00\n        /* \"#utility.yul\":234:240   */\n      dup2\n        /* \"#utility.yul\":221:241   */\n      calldataload\n        /* \"#utility.yul\":212:241   */\n      swap1\n      pop\n        /* \"#utility.yul\":250:283   */\n      tag_317\n        /* \"#utility.yul\":277:282   */\n      dup2\n        /* \"#utility.yul\":250:283   */\n      tag_318\n      jump\t// in\n    tag_317:\n        /* \"#utility.yul\":150:289   */\n      swap3\n      swap2\n      pop\n      pop\n      jump\t// out\n        /* \"#utility.yul\":295:438   */\n    tag_319:\n        /* \"#utility.yul\":352:357   */\n      0x00\n        /* \"#utility.yul\":383:389   */\n      dup2\n        /* \"#utility.yul\":377:390   */\n      mload\n        /* \"#utility.yul\":368:390   */\n      swap1\n      pop\n        /* \"#utility.yul\":399:432   */\n      tag_321\n        /* \"#utility.yul\":426:431   */\n      dup2\n        /* \"#utility.yul\":399:432   */\n      tag_318\n      jump\t// in\n    tag_321:\n        /* \"#utility.yul\":295:438   */\n      swap3\n      swap2\n      pop\n      pop\n      jump\t// out\n        /* \"#utility.yul\":444:789   */\n    tag_141:\n        /* \"#utility.yul\":511:517   */\n      0x00\n        /* \"#utility.yul\":560:562   */\n      0x20\n        /* \"#utility.yul\":548:557   */\n      dup3\n        /* \"#utility.yul\":539:546   */\n      dup5\n        /* \"#utility.yul\":535:558   */\n      sub\n        /* \"#utility.yul\":531:563   */\n      slt\n        /* \"#utility.yul\":528:647   */\n      iszero\n      tag_323\n      jumpi\n        /* \"#utility.yul\":566:645   */\n      tag_324\n      tag_325\n      jump\t// in\n    tag_324:\n        /* \"#utility.yul\":528:647   */\n    tag_323:\n        /* \"#utility.yul\":686:687   */\n      0x00\n        /* \"#utility.yul\":711:772   */\n      tag_326\n        /* \"#utility.yul\":764:771   */\n      dup5\n        /* \"#utility.yul\":755:761   */\n      dup3\n        /* \"#utility.yul\":744:753   */\n      dup6\n        /* \"#utility.yul\":740:762   */\n      add\n        /* \"#utility.yul\":711:772   */\n      tag_311\n      jump\t// in\n    tag_326:\n        /* \"#utility.yul\":701:772   */\n      swap2\n      pop\n        /* \"#utility.yul\":657:782   */\n      pop\n        /* \"#utility.yul\":444:789   */\n      swap3\n      swap2\n      pop\n      pop\n      jump\t// out\n        /* \"#utility.yul\":795:1124   */\n    tag_40:\n        /* \"#utility.yul\":854:860   */\n      0x00\n        /* \"#utility.yul\":903:905   */\n      0x20\n        /* \"#utility.yul\":891:900   */\n      dup3\n        /* \"#utility.yul\":882:889   */\n      dup5\n        /* \"#utility.yul\":878:901   */\n      sub\n        /* \"#utility.yul\":874:906   */\n      slt\n        /* \"#utility.yul\":871:990   */\n      iszero\n      tag_328\n      jumpi\n        /* \"#utility.yul\":909:988   */\n      tag_329\n      tag_325\n      jump\t// in\n    tag_329:\n        /* \"#utility.yul\":871:990   */\n    tag_328:\n        /* \"#utility.yul\":1029:1030   */\n      0x00\n        /* \"#utility.yul\":1054:1107   */\n      tag_330\n        /* \"#utility.yul\":1099:1106   */\n      dup5\n        /* \"#utility.yul\":1090:1096   */\n      dup3\n        /* \"#utility.yul\":1079:1088   */\n      dup6\n        /* \"#utility.yul\":1075:1097   */\n      add\n        /* \"#utility.yul\":1054:1107   */\n      tag_315\n      jump\t// in\n    tag_330:\n        /* \"#utility.yul\":1044:1107   */\n      swap2\n      pop\n        /* \"#utility.yul\":1000:1117   */\n      pop\n        /* \"#utility.yul\":795:1124   */\n      swap3\n      swap2\n      pop\n      pop\n      jump\t// out\n        /* \"#utility.yul\":1130:1481   */\n    tag_131:\n        /* \"#utility.yul\":1200:1206   */\n      0x00\n        /* \"#utility.yul\":1249:1251   */\n      0x20\n        /* \"#utility.yul\":1237:1246   */\n      dup3\n        /* \"#utility.yul\":1228:1235   */\n      dup5\n        /* \"#utility.yul\":1224:1247   */\n      sub\n        /* \"#utility.yul\":1220:1252   */\n      slt\n        /* \"#utility.yul\":1217:1336   */\n      iszero\n      tag_332\n      jumpi\n        /* \"#utility.yul\":1255:1334   */\n      tag_333\n      tag_325\n      jump\t// in\n    tag_333:\n        /* \"#utility.yul\":1217:1336   */\n    tag_332:\n        /* \"#utility.yul\":1375:1376   */\n      0x00\n        /* \"#utility.yul\":1400:1464   */\n      tag_334\n        /* \"#utility.yul\":1456:1463   */\n      dup5\n        /* \"#utility.yul\":1447:1453   */\n      dup3\n        /* \"#utility.yul\":1436:1445   */\n      dup6\n        /* \"#utility.yul\":1432:1454   */\n      add\n        /* \"#utility.yul\":1400:1464   */\n      tag_319\n      jump\t// in\n    tag_334:\n        /* \"#utility.yul\":1390:1464   */\n      swap2\n      pop\n        /* \"#utility.yul\":1346:1474   */\n      pop\n        /* \"#utility.yul\":1130:1481   */\n      swap3\n      swap2\n      pop\n      pop\n      jump\t// out\n        /* \"#utility.yul\":1487:1605   */\n    tag_335:\n        /* \"#utility.yul\":1574:1598   */\n      tag_337\n        /* \"#utility.yul\":1592:1597   */\n      dup2\n        /* \"#utility.yul\":1574:1598   */\n      tag_338\n      jump\t// in\n    tag_337:\n        /* \"#utility.yul\":1569:1572   */\n      dup3\n        /* \"#utility.yul\":1562:1599   */\n      mstore\n        /* \"#utility.yul\":1487:1605   */\n      pop\n      pop\n      jump\t// out\n        /* \"#utility.yul\":1611:1720   */\n    tag_339:\n        /* \"#utility.yul\":1692:1713   */\n      tag_341\n        /* \"#utility.yul\":1707:1712   */\n      dup2\n        /* \"#utility.yul\":1692:1713   */\n      tag_342\n      jump\t// in\n    tag_341:\n        /* \"#utility.yul\":1687:1690   */\n      dup3\n        /* \"#utility.yul\":1680:1714   */\n      mstore\n        /* \"#utility.yul\":1611:1720   */\n      pop\n      pop\n      jump\t// out\n        /* \"#utility.yul\":1726:1899   */\n    tag_343:\n        /* \"#utility.yul\":1834:1892   */\n      tag_345\n        /* \"#utility.yul\":1886:1891   */\n      dup2\n        /* \"#utility.yul\":1834:1892   */\n      tag_346\n      jump\t// in\n    tag_345:\n        /* \"#utility.yul\":1829:1832   */\n      dup3\n        /* \"#utility.yul\":1822:1893   */\n      mstore\n        /* \"#utility.yul\":1726:1899   */\n      pop\n      pop\n      jump\t// out\n        /* \"#utility.yul\":1905:2072   */\n    tag_347:\n        /* \"#utility.yul\":2010:2065   */\n      tag_349\n        /* \"#utility.yul\":2059:2064   */\n      dup2\n        /* \"#utility.yul\":2010:2065   */\n      tag_350\n      jump\t// in\n    tag_349:\n        /* \"#utility.yul\":2005:2008   */\n      dup3\n        /* \"#utility.yul\":1998:2066   */\n      mstore\n        /* \"#utility.yul\":1905:2072   */\n      pop\n      pop\n      jump\t// out\n        /* \"#utility.yul\":2078:2444   */\n    tag_351:\n        /* \"#utility.yul\":2220:2223   */\n      0x00\n        /* \"#utility.yul\":2241:2308   */\n      tag_353\n        /* \"#utility.yul\":2305:2307   */\n      0x13\n        /* \"#utility.yul\":2300:2303   */\n      dup4\n        /* \"#utility.yul\":2241:2308   */\n      tag_354\n      jump\t// in\n    tag_353:\n        /* \"#utility.yul\":2234:2308   */\n      swap2\n      pop\n        /* \"#utility.yul\":2317:2410   */\n      tag_355\n        /* \"#utility.yul\":2406:2409   */\n      dup3\n        /* \"#utility.yul\":2317:2410   */\n      tag_356\n      jump\t// in\n    tag_355:\n        /* \"#utility.yul\":2435:2437   */\n      0x20\n        /* \"#utility.yul\":2430:2433   */\n      dup3\n        /* \"#utility.yul\":2426:2438   */\n      add\n        /* \"#utility.yul\":2419:2438   */\n      swap1\n      pop\n        /* \"#utility.yul\":2078:2444   */\n      swap2\n      swap1\n      pop\n      jump\t// out\n        /* \"#utility.yul\":2450:2816   */\n    tag_357:\n        /* \"#utility.yul\":2592:2595   */\n      0x00\n        /* \"#utility.yul\":2613:2680   */\n      tag_359\n        /* \"#utility.yul\":2677:2679   */\n      0x17\n        /* \"#utility.yul\":2672:2675   */\n      dup4\n        /* \"#utility.yul\":2613:2680   */\n      tag_354\n      jump\t// in\n    tag_359:\n        /* \"#utility.yul\":2606:2680   */\n      swap2\n      pop\n        /* \"#utility.yul\":2689:2782   */\n      tag_360\n        /* \"#utility.yul\":2778:2781   */\n      dup3\n        /* \"#utility.yul\":2689:2782   */\n      tag_361\n      jump\t// in\n    tag_360:\n        /* \"#utility.yul\":2807:2809   */\n      0x20\n        /* \"#utility.yul\":2802:2805   */\n      dup3\n        /* \"#utility.yul\":2798:2810   */\n      add\n        /* \"#utility.yul\":2791:2810   */\n      swap1\n      pop\n        /* \"#utility.yul\":2450:2816   */\n      swap2\n      swap1\n      pop\n      jump\t// out\n        /* \"#utility.yul\":2822:3188   */\n    tag_362:\n        /* \"#utility.yul\":2964:2967   */\n      0x00\n        /* \"#utility.yul\":2985:3052   */\n      tag_364\n        /* \"#utility.yul\":3049:3051   */\n      0x16\n        /* \"#utility.yul\":3044:3047   */\n      dup4\n        /* \"#utility.yul\":2985:3052   */\n      tag_354\n      jump\t// in\n    tag_364:\n        /* \"#utility.yul\":2978:3052   */\n      swap2\n      pop\n        /* \"#utility.yul\":3061:3154   */\n      tag_365\n        /* \"#utility.yul\":3150:3153   */\n      dup3\n        /* \"#utility.yul\":3061:3154   */\n      tag_366\n      jump\t// in\n    tag_365:\n        /* \"#utility.yul\":3179:3181   */\n      0x20\n        /* \"#utility.yul\":3174:3177   */\n      dup3\n        /* \"#utility.yul\":3170:3182   */\n      add\n        /* \"#utility.yul\":3163:3182   */\n      swap1\n      pop\n        /* \"#utility.yul\":2822:3188   */\n      swap2\n      swap1\n      pop\n      jump\t// out\n        /* \"#utility.yul\":3194:3560   */\n    tag_367:\n        /* \"#utility.yul\":3336:3339   */\n      0x00\n        /* \"#utility.yul\":3357:3424   */\n      tag_369\n        /* \"#utility.yul\":3421:3423   */\n      0x16\n        /* \"#utility.yul\":3416:3419   */\n      dup4\n        /* \"#utility.yul\":3357:3424   */\n      tag_354\n      jump\t// in\n    tag_369:\n        /* \"#utility.yul\":3350:3424   */\n      swap2\n      pop\n        /* \"#utility.yul\":3433:3526   */\n      tag_370\n        /* \"#utility.yul\":3522:3525   */\n      dup3\n        /* \"#utility.yul\":3433:3526   */\n      tag_371\n      jump\t// in\n    tag_370:\n        /* \"#utility.yul\":3551:3553   */\n      0x20\n        /* \"#utility.yul\":3546:3549   */\n      dup3\n        /* \"#utility.yul\":3542:3554   */\n      add\n        /* \"#utility.yul\":3535:3554   */\n      swap1\n      pop\n        /* \"#utility.yul\":3194:3560   */\n      swap2\n      swap1\n      pop\n      jump\t// out\n        /* \"#utility.yul\":3566:3932   */\n    tag_372:\n        /* \"#utility.yul\":3708:3711   */\n      0x00\n        /* \"#utility.yul\":3729:3796   */\n      tag_374\n        /* \"#utility.yul\":3793:3795   */\n      0x1a\n        /* \"#utility.yul\":3788:3791   */\n      dup4\n        /* \"#utility.yul\":3729:3796   */\n      tag_354\n      jump\t// in\n    tag_374:\n        /* \"#utility.yul\":3722:3796   */\n      swap2\n      pop\n        /* \"#utility.yul\":3805:3898   */\n      tag_375\n        /* \"#utility.yul\":3894:3897   */\n      dup3\n        /* \"#utility.yul\":3805:3898   */\n      tag_376\n      jump\t// in\n    tag_375:\n        /* \"#utility.yul\":3923:3925   */\n      0x20\n        /* \"#utility.yul\":3918:3921   */\n      dup3\n        /* \"#utility.yul\":3914:3926   */\n      add\n        /* \"#utility.yul\":3907:3926   */\n      swap1\n      pop\n        /* \"#utility.yul\":3566:3932   */\n      swap2\n      swap1\n      pop\n      jump\t// out\n        /* \"#utility.yul\":3938:4304   */\n    tag_377:\n        /* \"#utility.yul\":4080:4083   */\n      0x00\n        /* \"#utility.yul\":4101:4168   */\n      tag_379\n        /* \"#utility.yul\":4165:4167   */\n      0x1b\n        /* \"#utility.yul\":4160:4163   */\n      dup4\n        /* \"#utility.yul\":4101:4168   */\n      tag_354\n      jump\t// in\n    tag_379:\n        /* \"#utility.yul\":4094:4168   */\n      swap2\n      pop\n        /* \"#utility.yul\":4177:4270   */\n      tag_380\n        /* \"#utility.yul\":4266:4269   */\n      dup3\n        /* \"#utility.yul\":4177:4270   */\n      tag_381\n      jump\t// in\n    tag_380:\n        /* \"#utility.yul\":4295:4297   */\n      0x20\n        /* \"#utility.yul\":4290:4293   */\n      dup3\n        /* \"#utility.yul\":4286:4298   */\n      add\n        /* \"#utility.yul\":4279:4298   */\n      swap1\n      pop\n        /* \"#utility.yul\":3938:4304   */\n      swap2\n      swap1\n      pop\n      jump\t// out\n        /* \"#utility.yul\":4310:4676   */\n    tag_382:\n        /* \"#utility.yul\":4452:4455   */\n      0x00\n        /* \"#utility.yul\":4473:4540   */\n      tag_384\n        /* \"#utility.yul\":4537:4539   */\n      0x16\n        /* \"#utility.yul\":4532:4535   */\n      dup4\n        /* \"#utility.yul\":4473:4540   */\n      tag_354\n      jump\t// in\n    tag_384:\n        /* \"#utility.yul\":4466:4540   */\n      swap2\n      pop\n        /* \"#utility.yul\":4549:4642   */\n      tag_385\n        /* \"#utility.yul\":4638:4641   */\n      dup3\n        /* \"#utility.yul\":4549:4642   */\n      tag_386\n      jump\t// in\n    tag_385:\n        /* \"#utility.yul\":4667:4669   */\n      0x20\n        /* \"#utility.yul\":4662:4665   */\n      dup3\n        /* \"#utility.yul\":4658:4670   */\n      add\n        /* \"#utility.yul\":4651:4670   */\n      swap1\n      pop\n        /* \"#utility.yul\":4310:4676   */\n      swap2\n      swap1\n      pop\n      jump\t// out\n        /* \"#utility.yul\":4682:5048   */\n    tag_387:\n        /* \"#utility.yul\":4824:4827   */\n      0x00\n        /* \"#utility.yul\":4845:4912   */\n      tag_389\n        /* \"#utility.yul\":4909:4911   */\n      0x12\n        /* \"#utility.yul\":4904:4907   */\n      dup4\n        /* \"#utility.yul\":4845:4912   */\n      tag_354\n      jump\t// in\n    tag_389:\n        /* \"#utility.yul\":4838:4912   */\n      swap2\n      pop\n        /* \"#utility.yul\":4921:5014   */\n      tag_390\n        /* \"#utility.yul\":5010:5013   */\n      dup3\n        /* \"#utility.yul\":4921:5014   */\n      tag_391\n      jump\t// in\n    tag_390:\n        /* \"#utility.yul\":5039:5041   */\n      0x20\n        /* \"#utility.yul\":5034:5037   */\n      dup3\n        /* \"#utility.yul\":5030:5042   */\n      add\n        /* \"#utility.yul\":5023:5042   */\n      swap1\n      pop\n        /* \"#utility.yul\":4682:5048   */\n      swap2\n      swap1\n      pop\n      jump\t// out\n        /* \"#utility.yul\":5054:5172   */\n    tag_392:\n        /* \"#utility.yul\":5141:5165   */\n      tag_394\n        /* \"#utility.yul\":5159:5164   */\n      dup2\n        /* \"#utility.yul\":5141:5165   */\n      tag_395\n      jump\t// in\n    tag_394:\n        /* \"#utility.yul\":5136:5139   */\n      dup3\n        /* \"#utility.yul\":5129:5166   */\n      mstore\n        /* \"#utility.yul\":5054:5172   */\n      pop\n      pop\n      jump\t// out\n        /* \"#utility.yul\":5178:5400   */\n    tag_81:\n        /* \"#utility.yul\":5271:5275   */\n      0x00\n        /* \"#utility.yul\":5309:5311   */\n      0x20\n        /* \"#utility.yul\":5298:5307   */\n      dup3\n        /* \"#utility.yul\":5294:5312   */\n      add\n        /* \"#utility.yul\":5286:5312   */\n      swap1\n      pop\n        /* \"#utility.yul\":5322:5393   */\n      tag_397\n        /* \"#utility.yul\":5390:5391   */\n      0x00\n        /* \"#utility.yul\":5379:5388   */\n      dup4\n        /* \"#utility.yul\":5375:5392   */\n      add\n        /* \"#utility.yul\":5366:5372   */\n      dup5\n        /* \"#utility.yul\":5322:5393   */\n      tag_335\n      jump\t// in\n    tag_397:\n        /* \"#utility.yul\":5178:5400   */\n      swap3\n      swap2\n      pop\n      pop\n      jump\t// out\n        /* \"#utility.yul\":5406:5848   */\n    tag_183:\n        /* \"#utility.yul\":5555:5559   */\n      0x00\n        /* \"#utility.yul\":5593:5595   */\n      0x60\n        /* \"#utility.yul\":5582:5591   */\n      dup3\n        /* \"#utility.yul\":5578:5596   */\n      add\n        /* \"#utility.yul\":5570:5596   */\n      swap1\n      pop\n        /* \"#utility.yul\":5606:5677   */\n      tag_399\n        /* \"#utility.yul\":5674:5675   */\n      0x00\n        /* \"#utility.yul\":5663:5672   */\n      dup4\n        /* \"#utility.yul\":5659:5676   */\n      add\n        /* \"#utility.yul\":5650:5656   */\n      dup7\n        /* \"#utility.yul\":5606:5677   */\n      tag_335\n      jump\t// in\n    tag_399:\n        /* \"#utility.yul\":5687:5759   */\n      tag_400\n        /* \"#utility.yul\":5755:5757   */\n      0x20\n        /* \"#utility.yul\":5744:5753   */\n      dup4\n        /* \"#utility.yul\":5740:5758   */\n      add\n        /* \"#utility.yul\":5731:5737   */\n      dup6\n        /* \"#utility.yul\":5687:5759   */\n      tag_335\n      jump\t// in\n    tag_400:\n        /* \"#utility.yul\":5769:5841   */\n      tag_401\n        /* \"#utility.yul\":5837:5839   */\n      0x40\n        /* \"#utility.yul\":5826:5835   */\n      dup4\n        /* \"#utility.yul\":5822:5840   */\n      add\n        /* \"#utility.yul\":5813:5819   */\n      dup5\n        /* \"#utility.yul\":5769:5841   */\n      tag_392\n      jump\t// in\n    tag_401:\n        /* \"#utility.yul\":5406:5848   */\n      swap5\n      swap4\n      pop\n      pop\n      pop\n      pop\n      jump\t// out\n        /* \"#utility.yul\":5854:6186   */\n    tag_136:\n        /* \"#utility.yul\":5975:5979   */\n      0x00\n        /* \"#utility.yul\":6013:6015   */\n      0x40\n        /* \"#utility.yul\":6002:6011   */\n      dup3\n        /* \"#utility.yul\":5998:6016   */\n      add\n        /* \"#utility.yul\":5990:6016   */\n      swap1\n      pop\n        /* \"#utility.yul\":6026:6097   */\n      tag_403\n        /* \"#utility.yul\":6094:6095   */\n      0x00\n        /* \"#utility.yul\":6083:6092   */\n      dup4\n        /* \"#utility.yul\":6079:6096   */\n      add\n        /* \"#utility.yul\":6070:6076   */\n      dup6\n        /* \"#utility.yul\":6026:6097   */\n      tag_335\n      jump\t// in\n    tag_403:\n        /* \"#utility.yul\":6107:6179   */\n      tag_404\n        /* \"#utility.yul\":6175:6177   */\n      0x20\n        /* \"#utility.yul\":6164:6173   */\n      dup4\n        /* \"#utility.yul\":6160:6178   */\n      add\n        /* \"#utility.yul\":6151:6157   */\n      dup5\n        /* \"#utility.yul\":6107:6179   */\n      tag_392\n      jump\t// in\n    tag_404:\n        /* \"#utility.yul\":5854:6186   */\n      swap4\n      swap3\n      pop\n      pop\n      pop\n      jump\t// out\n        /* \"#utility.yul\":6192:6402   */\n    tag_54:\n        /* \"#utility.yul\":6279:6283   */\n      0x00\n        /* \"#utility.yul\":6317:6319   */\n      0x20\n        /* \"#utility.yul\":6306:6315   */\n      dup3\n        /* \"#utility.yul\":6302:6320   */\n      add\n        /* \"#utility.yul\":6294:6320   */\n      swap1\n      pop\n        /* \"#utility.yul\":6330:6395   */\n      tag_406\n        /* \"#utility.yul\":6392:6393   */\n      0x00\n        /* \"#utility.yul\":6381:6390   */\n      dup4\n        /* \"#utility.yul\":6377:6394   */\n      add\n        /* \"#utility.yul\":6368:6374   */\n      dup5\n        /* \"#utility.yul\":6330:6395   */\n      tag_339\n      jump\t// in\n    tag_406:\n        /* \"#utility.yul\":6192:6402   */\n      swap3\n      swap2\n      pop\n      pop\n      jump\t// out\n        /* \"#utility.yul\":6408:6672   */\n    tag_32:\n        /* \"#utility.yul\":6522:6526   */\n      0x00\n        /* \"#utility.yul\":6560:6562   */\n      0x20\n        /* \"#utility.yul\":6549:6558   */\n      dup3\n        /* \"#utility.yul\":6545:6563   */\n      add\n        /* \"#utility.yul\":6537:6563   */\n      swap1\n      pop\n        /* \"#utility.yul\":6573:6665   */\n      tag_408\n        /* \"#utility.yul\":6662:6663   */\n      0x00\n        /* \"#utility.yul\":6651:6660   */\n      dup4\n        /* \"#utility.yul\":6647:6664   */\n      add\n        /* \"#utility.yul\":6638:6644   */\n      dup5\n        /* \"#utility.yul\":6573:6665   */\n      tag_343\n      jump\t// in\n    tag_408:\n        /* \"#utility.yul\":6408:6672   */\n      swap3\n      swap2\n      pop\n      pop\n      jump\t// out\n        /* \"#utility.yul\":6678:6936   */\n    tag_66:\n        /* \"#utility.yul\":6789:6793   */\n      0x00\n        /* \"#utility.yul\":6827:6829   */\n      0x20\n        /* \"#utility.yul\":6816:6825   */\n      dup3\n        /* \"#utility.yul\":6812:6830   */\n      add\n        /* \"#utility.yul\":6804:6830   */\n      swap1\n      pop\n        /* \"#utility.yul\":6840:6929   */\n      tag_410\n        /* \"#utility.yul\":6926:6927   */\n      0x00\n        /* \"#utility.yul\":6915:6924   */\n      dup4\n        /* \"#utility.yul\":6911:6928   */\n      add\n        /* \"#utility.yul\":6902:6908   */\n      dup5\n        /* \"#utility.yul\":6840:6929   */\n      tag_347\n      jump\t// in\n    tag_410:\n        /* \"#utility.yul\":6678:6936   */\n      swap3\n      swap2\n      pop\n      pop\n      jump\t// out\n        /* \"#utility.yul\":6942:7361   */\n    tag_124:\n        /* \"#utility.yul\":7108:7112   */\n      0x00\n        /* \"#utility.yul\":7146:7148   */\n      0x20\n        /* \"#utility.yul\":7135:7144   */\n      dup3\n        /* \"#utility.yul\":7131:7149   */\n      add\n        /* \"#utility.yul\":7123:7149   */\n      swap1\n      pop\n        /* \"#utility.yul\":7195:7204   */\n      dup2\n        /* \"#utility.yul\":7189:7193   */\n      dup2\n        /* \"#utility.yul\":7185:7205   */\n      sub\n        /* \"#utility.yul\":7181:7182   */\n      0x00\n        /* \"#utility.yul\":7170:7179   */\n      dup4\n        /* \"#utility.yul\":7166:7183   */\n      add\n        /* \"#utility.yul\":7159:7206   */\n      mstore\n        /* \"#utility.yul\":7223:7354   */\n      tag_412\n        /* \"#utility.yul\":7349:7353   */\n      dup2\n        /* \"#utility.yul\":7223:7354   */\n      tag_351\n      jump\t// in\n    tag_412:\n        /* \"#utility.yul\":7215:7354   */\n      swap1\n      pop\n        /* \"#utility.yul\":6942:7361   */\n      swap2\n      swap1\n      pop\n      jump\t// out\n        /* \"#utility.yul\":7367:7786   */\n    tag_289:\n        /* \"#utility.yul\":7533:7537   */\n      0x00\n        /* \"#utility.yul\":7571:7573   */\n      0x20\n        /* \"#utility.yul\":7560:7569   */\n      dup3\n        /* \"#utility.yul\":7556:7574   */\n      add\n        /* \"#utility.yul\":7548:7574   */\n      swap1\n      pop\n        /* \"#utility.yul\":7620:7629   */\n      dup2\n        /* \"#utility.yul\":7614:7618   */\n      dup2\n        /* \"#utility.yul\":7610:7630   */\n      sub\n        /* \"#utility.yul\":7606:7607   */\n      0x00\n        /* \"#utility.yul\":7595:7604   */\n      dup4\n        /* \"#utility.yul\":7591:7608   */\n      add\n        /* \"#utility.yul\":7584:7631   */\n      mstore\n        /* \"#utility.yul\":7648:7779   */\n      tag_414\n        /* \"#utility.yul\":7774:7778   */\n      dup2\n        /* \"#utility.yul\":7648:7779   */\n      tag_357\n      jump\t// in\n    tag_414:\n        /* \"#utility.yul\":7640:7779   */\n      swap1\n      pop\n        /* \"#utility.yul\":7367:7786   */\n      swap2\n      swap1\n      pop\n      jump\t// out\n        /* \"#utility.yul\":7792:8211   */\n    tag_293:\n        /* \"#utility.yul\":7958:7962   */\n      0x00\n        /* \"#utility.yul\":7996:7998   */\n      0x20\n        /* \"#utility.yul\":7985:7994   */\n      dup3\n        /* \"#utility.yul\":7981:7999   */\n      add\n        /* \"#utility.yul\":7973:7999   */\n      swap1\n      pop\n        /* \"#utility.yul\":8045:8054   */\n      dup2\n        /* \"#utility.yul\":8039:8043   */\n      dup2\n        /* \"#utility.yul\":8035:8055   */\n      sub\n        /* \"#utility.yul\":8031:8032   */\n      0x00\n        /* \"#utility.yul\":8020:8029   */\n      dup4\n        /* \"#utility.yul\":8016:8033   */\n      add\n        /* \"#utility.yul\":8009:8056   */\n      mstore\n        /* \"#utility.yul\":8073:8204   */\n      tag_416\n        /* \"#utility.yul\":8199:8203   */\n      dup2\n        /* \"#utility.yul\":8073:8204   */\n      tag_362\n      jump\t// in\n    tag_416:\n        /* \"#utility.yul\":8065:8204   */\n      swap1\n      pop\n        /* \"#utility.yul\":7792:8211   */\n      swap2\n      swap1\n      pop\n      jump\t// out\n        /* \"#utility.yul\":8217:8636   */\n    tag_230:\n        /* \"#utility.yul\":8383:8387   */\n      0x00\n        /* \"#utility.yul\":8421:8423   */\n      0x20\n        /* \"#utility.yul\":8410:8419   */\n      dup3\n        /* \"#utility.yul\":8406:8424   */\n      add\n        /* \"#utility.yul\":8398:8424   */\n      swap1\n      pop\n        /* \"#utility.yul\":8470:8479   */\n      dup2\n        /* \"#utility.yul\":8464:8468   */\n      dup2\n        /* \"#utility.yul\":8460:8480   */\n      sub\n        /* \"#utility.yul\":8456:8457   */\n      0x00\n        /* \"#utility.yul\":8445:8454   */\n      dup4\n        /* \"#utility.yul\":8441:8458   */\n      add\n        /* \"#utility.yul\":8434:8481   */\n      mstore\n        /* \"#utility.yul\":8498:8629   */\n      tag_418\n        /* \"#utility.yul\":8624:8628   */\n      dup2\n        /* \"#utility.yul\":8498:8629   */\n      tag_367\n      jump\t// in\n    tag_418:\n        /* \"#utility.yul\":8490:8629   */\n      swap1\n      pop\n        /* \"#utility.yul\":8217:8636   */\n      swap2\n      swap1\n      pop\n      jump\t// out\n        /* \"#utility.yul\":8642:9061   */\n    tag_249:\n        /* \"#utility.yul\":8808:8812   */\n      0x00\n        /* \"#utility.yul\":8846:8848   */\n      0x20\n        /* \"#utility.yul\":8835:8844   */\n      dup3\n        /* \"#utility.yul\":8831:8849   */\n      add\n        /* \"#utility.yul\":8823:8849   */\n      swap1\n      pop\n        /* \"#utility.yul\":8895:8904   */\n      dup2\n        /* \"#utility.yul\":8889:8893   */\n      dup2\n        /* \"#utility.yul\":8885:8905   */\n      sub\n        /* \"#utility.yul\":8881:8882   */\n      0x00\n        /* \"#utility.yul\":8870:8879   */\n      dup4\n        /* \"#utility.yul\":8866:8883   */\n      add\n        /* \"#utility.yul\":8859:8906   */\n      mstore\n        /* \"#utility.yul\":8923:9054   */\n      tag_420\n        /* \"#utility.yul\":9049:9053   */\n      dup2\n        /* \"#utility.yul\":8923:9054   */\n      tag_372\n      jump\t// in\n    tag_420:\n        /* \"#utility.yul\":8915:9054   */\n      swap1\n      pop\n        /* \"#utility.yul\":8642:9061   */\n      swap2\n      swap1\n      pop\n      jump\t// out\n        /* \"#utility.yul\":9067:9486   */\n    tag_134:\n        /* \"#utility.yul\":9233:9237   */\n      0x00\n        /* \"#utility.yul\":9271:9273   */\n      0x20\n        /* \"#utility.yul\":9260:9269   */\n      dup3\n        /* \"#utility.yul\":9256:9274   */\n      add\n        /* \"#utility.yul\":9248:9274   */\n      swap1\n      pop\n        /* \"#utility.yul\":9320:9329   */\n      dup2\n        /* \"#utility.yul\":9314:9318   */\n      dup2\n        /* \"#utility.yul\":9310:9330   */\n      sub\n        /* \"#utility.yul\":9306:9307   */\n      0x00\n        /* \"#utility.yul\":9295:9304   */\n      dup4\n        /* \"#utility.yul\":9291:9308   */\n      add\n        /* \"#utility.yul\":9284:9331   */\n      mstore\n        /* \"#utility.yul\":9348:9479   */\n      tag_422\n        /* \"#utility.yul\":9474:9478   */\n      dup2\n        /* \"#utility.yul\":9348:9479   */\n      tag_377\n      jump\t// in\n    tag_422:\n        /* \"#utility.yul\":9340:9479   */\n      swap1\n      pop\n        /* \"#utility.yul\":9067:9486   */\n      swap2\n      swap1\n      pop\n      jump\t// out\n        /* \"#utility.yul\":9492:9911   */\n    tag_176:\n        /* \"#utility.yul\":9658:9662   */\n      0x00\n        /* \"#utility.yul\":9696:9698   */\n      0x20\n        /* \"#utility.yul\":9685:9694   */\n      dup3\n        /* \"#utility.yul\":9681:9699   */\n      add\n        /* \"#utility.yul\":9673:9699   */\n      swap1\n      pop\n        /* \"#utility.yul\":9745:9754   */\n      dup2\n        /* \"#utility.yul\":9739:9743   */\n      dup2\n        /* \"#utility.yul\":9735:9755   */\n      sub\n        /* \"#utility.yul\":9731:9732   */\n      0x00\n        /* \"#utility.yul\":9720:9729   */\n      dup4\n        /* \"#utility.yul\":9716:9733   */\n      add\n        /* \"#utility.yul\":9709:9756   */\n      mstore\n        /* \"#utility.yul\":9773:9904   */\n      tag_424\n        /* \"#utility.yul\":9899:9903   */\n      dup2\n        /* \"#utility.yul\":9773:9904   */\n      tag_382\n      jump\t// in\n    tag_424:\n        /* \"#utility.yul\":9765:9904   */\n      swap1\n      pop\n        /* \"#utility.yul\":9492:9911   */\n      swap2\n      swap1\n      pop\n      jump\t// out\n        /* \"#utility.yul\":9917:10336   */\n    tag_168:\n        /* \"#utility.yul\":10083:10087   */\n      0x00\n        /* \"#utility.yul\":10121:10123   */\n      0x20\n        /* \"#utility.yul\":10110:10119   */\n      dup3\n        /* \"#utility.yul\":10106:10124   */\n      add\n        /* \"#utility.yul\":10098:10124   */\n      swap1\n      pop\n        /* \"#utility.yul\":10170:10179   */\n      dup2\n        /* \"#utility.yul\":10164:10168   */\n      dup2\n        /* \"#utility.yul\":10160:10180   */\n      sub\n        /* \"#utility.yul\":10156:10157   */\n      0x00\n        /* \"#utility.yul\":10145:10154   */\n      dup4\n        /* \"#utility.yul\":10141:10158   */\n      add\n        /* \"#utility.yul\":10134:10181   */\n      mstore\n        /* \"#utility.yul\":10198:10329   */\n      tag_426\n        /* \"#utility.yul\":10324:10328   */\n      dup2\n        /* \"#utility.yul\":10198:10329   */\n      tag_387\n      jump\t// in\n    tag_426:\n        /* \"#utility.yul\":10190:10329   */\n      swap1\n      pop\n        /* \"#utility.yul\":9917:10336   */\n      swap2\n      swap1\n      pop\n      jump\t// out\n        /* \"#utility.yul\":10342:10564   */\n    tag_37:\n        /* \"#utility.yul\":10435:10439   */\n      0x00\n        /* \"#utility.yul\":10473:10475   */\n      0x20\n        /* \"#utility.yul\":10462:10471   */\n      dup3\n        /* \"#utility.yul\":10458:10476   */\n      add\n        /* \"#utility.yul\":10450:10476   */\n      swap1\n      pop\n        /* \"#utility.yul\":10486:10557   */\n      tag_428\n        /* \"#utility.yul\":10554:10555   */\n      0x00\n        /* \"#utility.yul\":10543:10552   */\n      dup4\n        /* \"#utility.yul\":10539:10556   */\n      add\n        /* \"#utility.yul\":10530:10536   */\n      dup5\n        /* \"#utility.yul\":10486:10557   */\n      tag_392\n      jump\t// in\n    tag_428:\n        /* \"#utility.yul\":10342:10564   */\n      swap3\n      swap2\n      pop\n      pop\n      jump\t// out\n        /* \"#utility.yul\":10651:10820   */\n    tag_354:\n        /* \"#utility.yul\":10735:10746   */\n      0x00\n        /* \"#utility.yul\":10769:10775   */\n      dup3\n        /* \"#utility.yul\":10764:10767   */\n      dup3\n        /* \"#utility.yul\":10757:10776   */\n      mstore\n        /* \"#utility.yul\":10809:10813   */\n      0x20\n        /* \"#utility.yul\":10804:10807   */\n      dup3\n        /* \"#utility.yul\":10800:10814   */\n      add\n        /* \"#utility.yul\":10785:10814   */\n      swap1\n      pop\n        /* \"#utility.yul\":10651:10820   */\n      swap3\n      swap2\n      pop\n      pop\n      jump\t// out\n        /* \"#utility.yul\":10826:11131   */\n    tag_152:\n        /* \"#utility.yul\":10866:10869   */\n      0x00\n        /* \"#utility.yul\":10885:10905   */\n      tag_433\n        /* \"#utility.yul\":10903:10904   */\n      dup3\n        /* \"#utility.yul\":10885:10905   */\n      tag_395\n      jump\t// in\n    tag_433:\n        /* \"#utility.yul\":10880:10905   */\n      swap2\n      pop\n        /* \"#utility.yul\":10919:10939   */\n      tag_434\n        /* \"#utility.yul\":10937:10938   */\n      dup4\n        /* \"#utility.yul\":10919:10939   */\n      tag_395\n      jump\t// in\n    tag_434:\n        /* \"#utility.yul\":10914:10939   */\n      swap3\n      pop\n        /* \"#utility.yul\":11073:11074   */\n      dup3\n        /* \"#utility.yul\":11005:11071   */\n      0xffffffffffffffffffffffffffffffffffffffffffffffffffffffffffffffff\n        /* \"#utility.yul\":11001:11075   */\n      sub\n        /* \"#utility.yul\":10998:10999   */\n      dup3\n        /* \"#utility.yul\":10995:11076   */\n      gt\n        /* \"#utility.yul\":10992:11099   */\n      iszero\n      tag_435\n      jumpi\n        /* \"#utility.yul\":11079:11097   */\n      tag_436\n      tag_437\n      jump\t// in\n    tag_436:\n        /* \"#utility.yul\":10992:11099   */\n    tag_435:\n        /* \"#utility.yul\":11123:11124   */\n      dup3\n        /* \"#utility.yul\":11120:11121   */\n      dup3\n        /* \"#utility.yul\":11116:11125   */\n      add\n        /* \"#utility.yul\":11109:11125   */\n      swap1\n      pop\n        /* \"#utility.yul\":10826:11131   */\n      swap3\n      swap2\n      pop\n      pop\n      jump\t// out\n        /* \"#utility.yul\":11137:11322   */\n    tag_165:\n        /* \"#utility.yul\":11177:11178   */\n      0x00\n        /* \"#utility.yul\":11194:11214   */\n      tag_439\n        /* \"#utility.yul\":11212:11213   */\n      dup3\n        /* \"#utility.yul\":11194:11214   */\n      tag_395\n      jump\t// in\n    tag_439:\n        /* \"#utility.yul\":11189:11214   */\n      swap2\n      pop\n        /* \"#utility.yul\":11228:11248   */\n      tag_440\n        /* \"#utility.yul\":11246:11247   */\n      dup4\n        /* \"#utility.yul\":11228:11248   */\n      tag_395\n      jump\t// in\n    tag_440:\n        /* \"#utility.yul\":11223:11248   */\n      swap3\n      pop\n        /* \"#utility.yul\":11267:11268   */\n      dup3\n        /* \"#utility.yul\":11257:11292   */\n      tag_441\n      jumpi\n        /* \"#utility.yul\":11272:11290   */\n      tag_442\n      tag_443\n      jump\t// in\n    tag_442:\n        /* \"#utility.yul\":11257:11292   */\n    tag_441:\n        /* \"#utility.yul\":11314:11315   */\n      dup3\n        /* \"#utility.yul\":11311:11312   */\n      dup3\n        /* \"#utility.yul\":11307:11316   */\n      div\n        /* \"#utility.yul\":11302:11316   */\n      swap1\n      pop\n        /* \"#utility.yul\":11137:11322   */\n      swap3\n      swap2\n      pop\n      pop\n      jump\t// out\n        /* \"#utility.yul\":11328:11676   */\n    tag_273:\n        /* \"#utility.yul\":11368:11375   */\n      0x00\n        /* \"#utility.yul\":11391:11411   */\n      tag_445\n        /* \"#utility.yul\":11409:11410   */\n      dup3\n        /* \"#utility.yul\":11391:11411   */\n      tag_395\n      jump\t// in\n    tag_445:\n        /* \"#utility.yul\":11386:11411   */\n      swap2\n      pop\n        /* \"#utility.yul\":11425:11445   */\n      tag_446\n        /* \"#utility.yul\":11443:11444   */\n      dup4\n        /* \"#utility.yul\":11425:11445   */\n      tag_395\n      jump\t// in\n    tag_446:\n        /* \"#utility.yul\":11420:11445   */\n      swap3\n      pop\n        /* \"#utility.yul\":11613:11614   */\n      dup2\n        /* \"#utility.yul\":11545:11611   */\n      0xffffffffffffffffffffffffffffffffffffffffffffffffffffffffffffffff\n        /* \"#utility.yul\":11541:11615   */\n      div\n        /* \"#utility.yul\":11538:11539   */\n      dup4\n        /* \"#utility.yul\":11535:11616   */\n      gt\n        /* \"#utility.yul\":11530:11531   */\n      dup3\n        /* \"#utility.yul\":11523:11532   */\n      iszero\n        /* \"#utility.yul\":11516:11533   */\n      iszero\n        /* \"#utility.yul\":11512:11617   */\n      and\n        /* \"#utility.yul\":11509:11640   */\n      iszero\n      tag_447\n      jumpi\n        /* \"#utility.yul\":11620:11638   */\n      tag_448\n      tag_437\n      jump\t// in\n    tag_448:\n        /* \"#utility.yul\":11509:11640   */\n    tag_447:\n        /* \"#utility.yul\":11668:11669   */\n      dup3\n        /* \"#utility.yul\":11665:11666   */\n      dup3\n        /* \"#utility.yul\":11661:11670   */\n      mul\n        /* \"#utility.yul\":11650:11670   */\n      swap1\n      pop\n        /* \"#utility.yul\":11328:11676   */\n      swap3\n      swap2\n      pop\n      pop\n      jump\t// out\n        /* \"#utility.yul\":11682:11873   */\n    tag_179:\n        /* \"#utility.yul\":11722:11726   */\n      0x00\n        /* \"#utility.yul\":11742:11762   */\n      tag_450\n        /* \"#utility.yul\":11760:11761   */\n      dup3\n        /* \"#utility.yul\":11742:11762   */\n      tag_395\n      jump\t// in\n    tag_450:\n        /* \"#utility.yul\":11737:11762   */\n      swap2\n      pop\n        /* \"#utility.yul\":11776:11796   */\n      tag_451\n        /* \"#utility.yul\":11794:11795   */\n      dup4\n        /* \"#utility.yul\":11776:11796   */\n      tag_395\n      jump\t// in\n    tag_451:\n        /* \"#utility.yul\":11771:11796   */\n      swap3\n      pop\n        /* \"#utility.yul\":11815:11816   */\n      dup3\n        /* \"#utility.yul\":11812:11813   */\n      dup3\n        /* \"#utility.yul\":11809:11817   */\n      lt\n        /* \"#utility.yul\":11806:11840   */\n      iszero\n      tag_452\n      jumpi\n        /* \"#utility.yul\":11820:11838   */\n      tag_453\n      tag_437\n      jump\t// in\n    tag_453:\n        /* \"#utility.yul\":11806:11840   */\n    tag_452:\n        /* \"#utility.yul\":11865:11866   */\n      dup3\n        /* \"#utility.yul\":11862:11863   */\n      dup3\n        /* \"#utility.yul\":11858:11867   */\n      sub\n        /* \"#utility.yul\":11850:11867   */\n      swap1\n      pop\n        /* \"#utility.yul\":11682:11873   */\n      swap3\n      swap2\n      pop\n      pop\n      jump\t// out\n        /* \"#utility.yul\":11879:11975   */\n    tag_338:\n        /* \"#utility.yul\":11916:11923   */\n      0x00\n        /* \"#utility.yul\":11945:11969   */\n      tag_455\n        /* \"#utility.yul\":11963:11968   */\n      dup3\n        /* \"#utility.yul\":11945:11969   */\n      tag_456\n      jump\t// in\n    tag_455:\n        /* \"#utility.yul\":11934:11969   */\n      swap1\n      pop\n        /* \"#utility.yul\":11879:11975   */\n      swap2\n      swap1\n      pop\n      jump\t// out\n        /* \"#utility.yul\":11981:12071   */\n    tag_342:\n        /* \"#utility.yul\":12015:12022   */\n      0x00\n        /* \"#utility.yul\":12058:12063   */\n      dup2\n        /* \"#utility.yul\":12051:12064   */\n      iszero\n        /* \"#utility.yul\":12044:12065   */\n      iszero\n        /* \"#utility.yul\":12033:12065   */\n      swap1\n      pop\n        /* \"#utility.yul\":11981:12071   */\n      swap2\n      swap1\n      pop\n      jump\t// out\n        /* \"#utility.yul\":12077:12203   */\n    tag_456:\n        /* \"#utility.yul\":12114:12121   */\n      0x00\n        /* \"#utility.yul\":12154:12196   */\n      0xffffffffffffffffffffffffffffffffffffffff\n        /* \"#utility.yul\":12147:12152   */\n      dup3\n        /* \"#utility.yul\":12143:12197   */\n      and\n        /* \"#utility.yul\":12132:12197   */\n      swap1\n      pop\n        /* \"#utility.yul\":12077:12203   */\n      swap2\n      swap1\n      pop\n      jump\t// out\n        /* \"#utility.yul\":12209:12286   */\n    tag_395:\n        /* \"#utility.yul\":12246:12253   */\n      0x00\n        /* \"#utility.yul\":12275:12280   */\n      dup2\n        /* \"#utility.yul\":12264:12280   */\n      swap1\n      pop\n        /* \"#utility.yul\":12209:12286   */\n      swap2\n      swap1\n      pop\n      jump\t// out\n        /* \"#utility.yul\":12292:12439   */\n    tag_346:\n        /* \"#utility.yul\":12363:12372   */\n      0x00\n        /* \"#utility.yul\":12396:12433   */\n      tag_461\n        /* \"#utility.yul\":12427:12432   */\n      dup3\n        /* \"#utility.yul\":12396:12433   */\n      tag_462\n      jump\t// in\n    tag_461:\n        /* \"#utility.yul\":12383:12433   */\n      swap1\n      pop\n        /* \"#utility.yul\":12292:12439   */\n      swap2\n      swap1\n      pop\n      jump\t// out\n        /* \"#utility.yul\":12445:12589   */\n    tag_350:\n        /* \"#utility.yul\":12513:12522   */\n      0x00\n        /* \"#utility.yul\":12546:12583   */\n      tag_464\n        /* \"#utility.yul\":12577:12582   */\n      dup3\n        /* \"#utility.yul\":12546:12583   */\n      tag_462\n      jump\t// in\n    tag_464:\n        /* \"#utility.yul\":12533:12583   */\n      swap1\n      pop\n        /* \"#utility.yul\":12445:12589   */\n      swap2\n      swap1\n      pop\n      jump\t// out\n        /* \"#utility.yul\":12595:12721   */\n    tag_462:\n        /* \"#utility.yul\":12645:12654   */\n      0x00\n        /* \"#utility.yul\":12678:12715   */\n      tag_466\n        /* \"#utility.yul\":12709:12714   */\n      dup3\n        /* \"#utility.yul\":12678:12715   */\n      tag_467\n      jump\t// in\n    tag_466:\n        /* \"#utility.yul\":12665:12715   */\n      swap1\n      pop\n        /* \"#utility.yul\":12595:12721   */\n      swap2\n      swap1\n      pop\n      jump\t// out\n        /* \"#utility.yul\":12727:12840   */\n    tag_467:\n        /* \"#utility.yul\":12777:12786   */\n      0x00\n        /* \"#utility.yul\":12810:12834   */\n      tag_469\n        /* \"#utility.yul\":12828:12833   */\n      dup3\n        /* \"#utility.yul\":12810:12834   */\n      tag_456\n      jump\t// in\n    tag_469:\n        /* \"#utility.yul\":12797:12834   */\n      swap1\n      pop\n        /* \"#utility.yul\":12727:12840   */\n      swap2\n      swap1\n      pop\n      jump\t// out\n        /* \"#utility.yul\":12846:13026   */\n    tag_437:\n        /* \"#utility.yul\":12894:12971   */\n      0x4e487b7100000000000000000000000000000000000000000000000000000000\n        /* \"#utility.yul\":12891:12892   */\n      0x00\n        /* \"#utility.yul\":12884:12972   */\n      mstore\n        /* \"#utility.yul\":12991:12995   */\n      0x11\n        /* \"#utility.yul\":12988:12989   */\n      0x04\n        /* \"#utility.yul\":12981:12996   */\n      mstore\n        /* \"#utility.yul\":13015:13019   */\n      0x24\n        /* \"#utility.yul\":13012:13013   */\n      0x00\n        /* \"#utility.yul\":13005:13020   */\n      revert\n        /* \"#utility.yul\":13032:13212   */\n    tag_443:\n        /* \"#utility.yul\":13080:13157   */\n      0x4e487b7100000000000000000000000000000000000000000000000000000000\n        /* \"#utility.yul\":13077:13078   */\n      0x00\n        /* \"#utility.yul\":13070:13158   */\n      mstore\n        /* \"#utility.yul\":13177:13181   */\n      0x12\n        /* \"#utility.yul\":13174:13175   */\n      0x04\n        /* \"#utility.yul\":13167:13182   */\n      mstore\n        /* \"#utility.yul\":13201:13205   */\n      0x24\n        /* \"#utility.yul\":13198:13199   */\n      0x00\n        /* \"#utility.yul\":13191:13206   */\n      revert\n        /* \"#utility.yul\":13341:13458   */\n    tag_325:\n        /* \"#utility.yul\":13450:13451   */\n      0x00\n        /* \"#utility.yul\":13447:13448   */\n      dup1\n        /* \"#utility.yul\":13440:13452   */\n      revert\n        /* \"#utility.yul\":13464:13633   */\n    tag_356:\n        /* \"#utility.yul\":13604:13625   */\n      0x43616c6c6572206973206e6f74206f776e657200000000000000000000000000\n        /* \"#utility.yul\":13600:13601   */\n      0x00\n        /* \"#utility.yul\":13592:13598   */\n      dup3\n        /* \"#utility.yul\":13588:13602   */\n      add\n        /* \"#utility.yul\":13581:13626   */\n      mstore\n        /* \"#utility.yul\":13464:13633   */\n      pop\n      jump\t// out\n        /* \"#utility.yul\":13639:13812   */\n    tag_361:\n        /* \"#utility.yul\":13779:13804   */\n      0x6e6f20656e6f75676820726563727920746f2073656c6c000000000000000000\n        /* \"#utility.yul\":13775:13776   */\n      0x00\n        /* \"#utility.yul\":13767:13773   */\n      dup3\n        /* \"#utility.yul\":13763:13777   */\n      add\n        /* \"#utility.yul\":13756:13805   */\n      mstore\n        /* \"#utility.yul\":13639:13812   */\n      pop\n      jump\t// out\n        /* \"#utility.yul\":13818:13990   */\n    tag_366:\n        /* \"#utility.yul\":13958:13982   */\n      0x6e6f20656e6f756768207573646320746f207377617000000000000000000000\n        /* \"#utility.yul\":13954:13955   */\n      0x00\n        /* \"#utility.yul\":13946:13952   */\n      dup3\n        /* \"#utility.yul\":13942:13956   */\n      add\n        /* \"#utility.yul\":13935:13983   */\n      mstore\n        /* \"#utility.yul\":13818:13990   */\n      pop\n      jump\t// out\n        /* \"#utility.yul\":13996:14168   */\n    tag_371:\n        /* \"#utility.yul\":14136:14160   */\n      0x6e6f20656e6f75676820726563727920746f2061646400000000000000000000\n        /* \"#utility.yul\":14132:14133   */\n      0x00\n        /* \"#utility.yul\":14124:14130   */\n      dup3\n        /* \"#utility.yul\":14120:14134   */\n      add\n        /* \"#utility.yul\":14113:14161   */\n      mstore\n        /* \"#utility.yul\":13996:14168   */\n      pop\n      jump\t// out\n        /* \"#utility.yul\":14174:14350   */\n    tag_376:\n        /* \"#utility.yul\":14314:14342   */\n      0x6e6f20656e6f756768207573646320746f207769746864726177000000000000\n        /* \"#utility.yul\":14310:14311   */\n      0x00\n        /* \"#utility.yul\":14302:14308   */\n      dup3\n        /* \"#utility.yul\":14298:14312   */\n      add\n        /* \"#utility.yul\":14291:14343   */\n      mstore\n        /* \"#utility.yul\":14174:14350   */\n      pop\n      jump\t// out\n        /* \"#utility.yul\":14356:14533   */\n    tag_381:\n        /* \"#utility.yul\":14496:14525   */\n      0x6e6f20656e6f75676820726563727920746f2077697468647261770000000000\n        /* \"#utility.yul\":14492:14493   */\n      0x00\n        /* \"#utility.yul\":14484:14490   */\n      dup3\n        /* \"#utility.yul\":14480:14494   */\n      add\n        /* \"#utility.yul\":14473:14526   */\n      mstore\n        /* \"#utility.yul\":14356:14533   */\n      pop\n      jump\t// out\n        /* \"#utility.yul\":14539:14711   */\n    tag_386:\n        /* \"#utility.yul\":14679:14703   */\n      0x6e6f20656e6f75676820726563727920746f2062757900000000000000000000\n        /* \"#utility.yul\":14675:14676   */\n      0x00\n        /* \"#utility.yul\":14667:14673   */\n      dup3\n        /* \"#utility.yul\":14663:14677   */\n      add\n        /* \"#utility.yul\":14656:14704   */\n      mstore\n        /* \"#utility.yul\":14539:14711   */\n      pop\n      jump\t// out\n        /* \"#utility.yul\":14717:14885   */\n    tag_391:\n        /* \"#utility.yul\":14857:14877   */\n      0x616d6f756e742063616e6e6f7420626520300000000000000000000000000000\n        /* \"#utility.yul\":14853:14854   */\n      0x00\n        /* \"#utility.yul\":14845:14851   */\n      dup3\n        /* \"#utility.yul\":14841:14855   */\n      add\n        /* \"#utility.yul\":14834:14878   */\n      mstore\n        /* \"#utility.yul\":14717:14885   */\n      pop\n      jump\t// out\n        /* \"#utility.yul\":14891:15007   */\n    tag_314:\n        /* \"#utility.yul\":14961:14982   */\n      tag_484\n        /* \"#utility.yul\":14976:14981   */\n      dup2\n        /* \"#utility.yul\":14961:14982   */\n      tag_342\n      jump\t// in\n    tag_484:\n        /* \"#utility.yul\":14954:14959   */\n      dup2\n        /* \"#utility.yul\":14951:14983   */\n      eq\n        /* \"#utility.yul\":14941:15001   */\n      tag_485\n      jumpi\n        /* \"#utility.yul\":14997:14998   */\n      0x00\n        /* \"#utility.yul\":14994:14995   */\n      dup1\n        /* \"#utility.yul\":14987:14999   */\n      revert\n        /* \"#utility.yul\":14941:15001   */\n    tag_485:\n        /* \"#utility.yul\":14891:15007   */\n      pop\n      jump\t// out\n        /* \"#utility.yul\":15013:15135   */\n    tag_318:\n        /* \"#utility.yul\":15086:15110   */\n      tag_487\n        /* \"#utility.yul\":15104:15109   */\n      dup2\n        /* \"#utility.yul\":15086:15110   */\n      tag_395\n      jump\t// in\n    tag_487:\n        /* \"#utility.yul\":15079:15084   */\n      dup2\n        /* \"#utility.yul\":15076:15111   */\n      eq\n        /* \"#utility.yul\":15066:15129   */\n      tag_488\n      jumpi\n        /* \"#utility.yul\":15125:15126   */\n      0x00\n        /* \"#utility.yul\":15122:15123   */\n      dup1\n        /* \"#utility.yul\":15115:15127   */\n      revert\n        /* \"#utility.yul\":15066:15129   */\n    tag_488:\n        /* \"#utility.yul\":15013:15135   */\n      pop\n      jump\t// out\n\n    auxdata: 0xa2646970667358221220c8ccc4ed1cbd6ae81b42ff93195dd25be8c9955854d9ed44956c36f9bde86f0664736f6c63430008070033\n}\n",
				"bytecode": {
					"linkReferences": {},
					"object": "6080604052600060035560006004553480156200001b57600080fd5b50604051620023aa380380620023aa833981810160405281019062000041919062000139565b81600160006101000a81548173ffffffffffffffffffffffffffffffffffffffff021916908373ffffffffffffffffffffffffffffffffffffffff16021790555080600260006101000a81548173ffffffffffffffffffffffffffffffffffffffff021916908373ffffffffffffffffffffffffffffffffffffffff160217905550336000806101000a81548173ffffffffffffffffffffffffffffffffffffffff021916908373ffffffffffffffffffffffffffffffffffffffff160217905550505062000215565b6000815190506200011c81620001e1565b92915050565b6000815190506200013381620001fb565b92915050565b60008060408385031215620001535762000152620001dc565b5b600062000163858286016200010b565b9250506020620001768582860162000122565b9150509250929050565b60006200018d82620001bc565b9050919050565b6000620001a18262000180565b9050919050565b6000620001b58262000180565b9050919050565b600073ffffffffffffffffffffffffffffffffffffffff82169050919050565b600080fd5b620001ec8162000194565b8114620001f857600080fd5b50565b6200020681620001a8565b81146200021257600080fd5b50565b61218580620002256000396000f3fe6080604052600436106101405760003560e01c80635b06dece116100b6578063d5abeb011161006f578063d5abeb01146103de578063d60a904e14610409578063ddf5b66c14610434578063e37398d81461045f578063ecb9417c1461047b578063f1a376b6146104a657610140565b80635b06dece146102eb5780635e01eb5a146103075780637741eb9214610332578063893d20e81461035d5780638da5cb5b14610388578063b42ca291146103b357610140565b8063277181271161010857806327718127146102095780632bd160bc1461023457806333b3c3f71461025f5780633e413bee1461027b5780634bd2f33d146102a65780634cd60eb3146102cf57610140565b80630b468779146101455780630b6e87f71461017057806310d9744f1461019b578063112ed6e2146101b75780631ded4ad9146101e0575b600080fd5b34801561015157600080fd5b5061015a6104d1565b6040516101679190611c6f565b60405180910390f35b34801561017c57600080fd5b506101856104f7565b6040516101929190611da5565b60405180910390f35b6101b560048036038101906101b09190611a1c565b6104fd565b005b3480156101c357600080fd5b506101de60048036038101906101d99190611a1c565b610752565b005b3480156101ec57600080fd5b5061020760048036038101906102029190611a1c565b6107ea565b005b34801561021557600080fd5b5061021e61088f565b60405161022b9190611c54565b60405180910390f35b34801561024057600080fd5b506102496108f7565b6040516102569190611da5565b60405180910390f35b61027960048036038101906102749190611a1c565b6109a9565b005b34801561028757600080fd5b50610290610f10565b60405161029d9190611c8a565b60405180910390f35b3480156102b257600080fd5b506102cd60048036038101906102c89190611a1c565b610f36565b005b6102e960048036038101906102e49190611a1c565b610fce565b005b61030560048036038101906103009190611a1c565b61121a565b005b34801561031357600080fd5b5061031c61146f565b6040516103299190611bd9565b60405180910390f35b34801561033e57600080fd5b50610347611477565b6040516103549190611da5565b60405180910390f35b34801561036957600080fd5b50610372611481565b60405161037f9190611bd9565b60405180910390f35b34801561039457600080fd5b5061039d6114aa565b6040516103aa9190611bd9565b60405180910390f35b3480156103bf57600080fd5b506103c86114ce565b6040516103d59190611da5565b60405180910390f35b3480156103ea57600080fd5b506103f3611580565b6040516104009190611da5565b60405180910390f35b34801561041557600080fd5b5061041e611586565b60405161042b9190611da5565b60405180910390f35b34801561044057600080fd5b5061044961164a565b6040516104569190611da5565b60405180910390f35b61047960048036038101906104749190611a1c565b61166e565b005b34801561048757600080fd5b5061049061196f565b60405161049d9190611da5565b60405180910390f35b3480156104b257600080fd5b506104bb611979565b6040516104c89190611da5565b60405180910390f35b600160009054906101000a900473ffffffffffffffffffffffffffffffffffffffff1681565b60045481565b60008054906101000a900473ffffffffffffffffffffffffffffffffffffffff1673ffffffffffffffffffffffffffffffffffffffff163373ffffffffffffffffffffffffffffffffffffffff161461058b576040517f08c379a000000000000000000000000000000000000000000000000000000000815260040161058290611ca5565b60405180910390fd5b80600160009054906101000a900473ffffffffffffffffffffffffffffffffffffffff1673ffffffffffffffffffffffffffffffffffffffff166370a08231306040518263ffffffff1660e01b81526004016105e79190611bd9565b60206040518083038186803b1580156105ff57600080fd5b505afa158015610613573d6000803e3d6000fd5b505050506040513d601f19601f820116820180604052508101906106379190611a49565b11610677576040517f08c379a000000000000000000000000000000000000000000000000000000000815260040161066e90611d45565b60405180910390fd5b600160009054906101000a900473ffffffffffffffffffffffffffffffffffffffff1673ffffffffffffffffffffffffffffffffffffffff1663a9059cbb60008054906101000a900473ffffffffffffffffffffffffffffffffffffffff16836040518363ffffffff1660e01b81526004016106f4929190611c2b565b602060405180830381600087803b15801561070e57600080fd5b505af1158015610722573d6000803e3d6000fd5b505050506040513d601f19601f8201168201806040525081019061074691906119ef565b61074f57600080fd5b50565b60008054906101000a900473ffffffffffffffffffffffffffffffffffffffff1673ffffffffffffffffffffffffffffffffffffffff163373ffffffffffffffffffffffffffffffffffffffff16146107e0576040517f08c379a00000000000000000000000000000000000000000000000000000000081526004016107d790611ca5565b60405180910390fd5b8060048190555050565b60008054906101000a900473ffffffffffffffffffffffffffffffffffffffff1673ffffffffffffffffffffffffffffffffffffffff163373ffffffffffffffffffffffffffffffffffffffff1614610878576040517f08c379a000000000000000000000000000000000000000000000000000000000815260040161086f90611ca5565b60405180910390fd5b806004546108869190611dd1565b60048190555050565b60008060009054906101000a900473ffffffffffffffffffffffffffffffffffffffff1673ffffffffffffffffffffffffffffffffffffffff163373ffffffffffffffffffffffffffffffffffffffff1614156108ef57600190506108f4565b600090505b90565b6000600160009054906101000a900473ffffffffffffffffffffffffffffffffffffffff1673ffffffffffffffffffffffffffffffffffffffff166370a08231306040518263ffffffff1660e01b81526004016109549190611bd9565b60206040518083038186803b15801561096c57600080fd5b505afa158015610980573d6000803e3d6000fd5b505050506040513d601f19601f820116820180604052508101906109a49190611a49565b905090565b60006109b361164a565b826109be9190611e27565b905060008211610a03576040517f08c379a00000000000000000000000000000000000000000000000000000000081526004016109fa90611d85565b60405180910390fd5b80600160009054906101000a900473ffffffffffffffffffffffffffffffffffffffff1673ffffffffffffffffffffffffffffffffffffffff166370a08231306040518263ffffffff1660e01b8152600401610a5f9190611bd9565b60206040518083038186803b158015610a7757600080fd5b505afa158015610a8b573d6000803e3d6000fd5b505050506040513d601f19601f82011682018060405250810190610aaf9190611a49565b1015610af0576040517f08c379a0000000000000000000000000000000000000000000000000000000008152600401610ae790611d65565b60405180910390fd5b6000610afa6114ce565b600454610b079190611eb2565b90506000811115610d7e5780831115610cbe57600260009054906101000a900473ffffffffffffffffffffffffffffffffffffffff1673ffffffffffffffffffffffffffffffffffffffff166323b872dd3330846040518463ffffffff1660e01b8152600401610b7993929190611bf4565b602060405180830381600087803b158015610b9357600080fd5b505af1158015610ba7573d6000803e3d6000fd5b505050506040513d601f19601f82011682018060405250810190610bcb91906119ef565b610bd457600080fd5b600260009054906101000a900473ffffffffffffffffffffffffffffffffffffffff1673ffffffffffffffffffffffffffffffffffffffff166323b872dd3360008054906101000a900473ffffffffffffffffffffffffffffffffffffffff168487610c409190611eb2565b6040518463ffffffff1660e01b8152600401610c5e93929190611bf4565b602060405180830381600087803b158015610c7857600080fd5b505af1158015610c8c573d6000803e3d6000fd5b505050506040513d601f19601f82011682018060405250810190610cb091906119ef565b610cb957600080fd5b610d79565b600260009054906101000a900473ffffffffffffffffffffffffffffffffffffffff1673ffffffffffffffffffffffffffffffffffffffff166323b872dd3330866040518463ffffffff1660e01b8152600401610d1d93929190611bf4565b602060405180830381600087803b158015610d3757600080fd5b505af1158015610d4b573d6000803e3d6000fd5b505050506040513d601f19601f82011682018060405250810190610d6f91906119ef565b610d7857600080fd5b5b610e59565b600260009054906101000a900473ffffffffffffffffffffffffffffffffffffffff1673ffffffffffffffffffffffffffffffffffffffff166323b872dd3360008054906101000a900473ffffffffffffffffffffffffffffffffffffffff16866040518463ffffffff1660e01b8152600401610dfd93929190611bf4565b602060405180830381600087803b158015610e1757600080fd5b505af1158015610e2b573d6000803e3d6000fd5b505050506040513d601f19601f82011682018060405250810190610e4f91906119ef565b610e5857600080fd5b5b600160009054906101000a900473ffffffffffffffffffffffffffffffffffffffff1673ffffffffffffffffffffffffffffffffffffffff166323b872dd3033866040518463ffffffff1660e01b8152600401610eb893929190611bf4565b602060405180830381600087803b158015610ed257600080fd5b505af1158015610ee6573d6000803e3d6000fd5b505050506040513d601f19601f82011682018060405250810190610f0a91906119ef565b50505050565b600260009054906101000a900473ffffffffffffffffffffffffffffffffffffffff1681565b60008054906101000a900473ffffffffffffffffffffffffffffffffffffffff1673ffffffffffffffffffffffffffffffffffffffff163373ffffffffffffffffffffffffffffffffffffffff1614610fc4576040517f08c379a0000000000000000000000000000000000000000000000000000000008152600401610fbb90611ca5565b60405180910390fd5b8060038190555050565b60008054906101000a900473ffffffffffffffffffffffffffffffffffffffff1673ffffffffffffffffffffffffffffffffffffffff163373ffffffffffffffffffffffffffffffffffffffff161461105c576040517f08c379a000000000000000000000000000000000000000000000000000000000815260040161105390611ca5565b60405180910390fd5b80600160009054906101000a900473ffffffffffffffffffffffffffffffffffffffff1673ffffffffffffffffffffffffffffffffffffffff166370a08231336040518263ffffffff1660e01b81526004016110b89190611bd9565b60206040518083038186803b1580156110d057600080fd5b505afa1580156110e4573d6000803e3d6000fd5b505050506040513d601f19601f820116820180604052508101906111089190611a49565b1015611149576040517f08c379a000000000000000000000000000000000000000000000000000000000815260040161114090611d05565b60405180910390fd5b600160009054906101000a900473ffffffffffffffffffffffffffffffffffffffff1673ffffffffffffffffffffffffffffffffffffffff166323b872dd3330846040518463ffffffff1660e01b81526004016111a893929190611bf4565b602060405180830381600087803b1580156111c257600080fd5b505af11580156111d6573d6000803e3d6000fd5b505050506040513d601f19601f820116820180604052508101906111fa91906119ef565b61120357600080fd5b806003546112119190611dd1565b60038190555050565b60008054906101000a900473ffffffffffffffffffffffffffffffffffffffff1673ffffffffffffffffffffffffffffffffffffffff163373ffffffffffffffffffffffffffffffffffffffff16146112a8576040517f08c379a000000000000000000000000000000000000000000000000000000000815260040161129f90611ca5565b60405180910390fd5b80600260009054906101000a900473ffffffffffffffffffffffffffffffffffffffff1673ffffffffffffffffffffffffffffffffffffffff166370a08231306040518263ffffffff1660e01b81526004016113049190611bd9565b60206040518083038186803b15801561131c57600080fd5b505afa158015611330573d6000803e3d6000fd5b505050506040513d601f19601f820116820180604052508101906113549190611a49565b11611394576040517f08c379a000000000000000000000000000000000000000000000000000000000815260040161138b90611d25565b60405180910390fd5b600260009054906101000a900473ffffffffffffffffffffffffffffffffffffffff1673ffffffffffffffffffffffffffffffffffffffff1663a9059cbb60008054906101000a900473ffffffffffffffffffffffffffffffffffffffff16836040518363ffffffff1660e01b8152600401611411929190611c2b565b602060405180830381600087803b15801561142b57600080fd5b505af115801561143f573d6000803e3d6000fd5b505050506040513d601f19601f8201168201806040525081019061146391906119ef565b61146c57600080fd5b50565b600033905090565b6000600354905090565b60008060009054906101000a900473ffffffffffffffffffffffffffffffffffffffff16905090565b60008054906101000a900473ffffffffffffffffffffffffffffffffffffffff1681565b6000600260009054906101000a900473ffffffffffffffffffffffffffffffffffffffff1673ffffffffffffffffffffffffffffffffffffffff166370a08231306040518263ffffffff1660e01b815260040161152b9190611bd9565b60206040518083038186803b15801561154357600080fd5b505afa158015611557573d6000803e3d6000fd5b505050506040513d601f19601f8201168201806040525081019061157b9190611a49565b905090565b60035481565b6000600160009054906101000a900473ffffffffffffffffffffffffffffffffffffffff1673ffffffffffffffffffffffffffffffffffffffff166370a08231336040518263ffffffff1660e01b81526004016115e39190611bd9565b60206040518083038186803b1580156115fb57600080fd5b505afa15801561160f573d6000803e3d6000fd5b505050506040513d601f19601f820116820180604052508101906116339190611a49565b61163b61164a565b6116459190611e58565b905090565b600060035460045460035461165f9190611dd1565b6116699190611e27565b905090565b600061167861164a565b826116839190611e58565b9050600082116116c8576040517f08c379a00000000000000000000000000000000000000000000000000000000081526004016116bf90611d85565b60405180910390fd5b81600160009054906101000a900473ffffffffffffffffffffffffffffffffffffffff1673ffffffffffffffffffffffffffffffffffffffff166370a08231336040518263ffffffff1660e01b81526004016117249190611bd9565b60206040518083038186803b15801561173c57600080fd5b505afa158015611750573d6000803e3d6000fd5b505050506040513d601f19601f820116820180604052508101906117749190611a49565b10156117b5576040517f08c379a00000000000000000000000000000000000000000000000000000000081526004016117ac90611cc5565b60405180910390fd5b806117be6114ce565b10156117ff576040517f08c379a00000000000000000000000000000000000000000000000000000000081526004016117f690611ce5565b60405180910390fd5b600160009054906101000a900473ffffffffffffffffffffffffffffffffffffffff1673ffffffffffffffffffffffffffffffffffffffff166323b872dd3330856040518463ffffffff1660e01b815260040161185e93929190611bf4565b602060405180830381600087803b15801561187857600080fd5b505af115801561188c573d6000803e3d6000fd5b505050506040513d601f19601f820116820180604052508101906118b091906119ef565b6118b957600080fd5b600260009054906101000a900473ffffffffffffffffffffffffffffffffffffffff1673ffffffffffffffffffffffffffffffffffffffff166323b872dd3033846040518463ffffffff1660e01b815260040161191893929190611bf4565b602060405180830381600087803b15801561193257600080fd5b505af1158015611946573d6000803e3d6000fd5b505050506040513d601f19601f8201168201806040525081019061196a91906119ef565b505050565b6000600454905090565b6000670de0b6b3a76400006003546004546003546119979190611dd1565b6119a19190611e27565b6119ab9190611e58565b905090565b6000815190506119bf81612121565b92915050565b6000813590506119d481612138565b92915050565b6000815190506119e981612138565b92915050565b600060208284031215611a0557611a04611fd4565b5b6000611a13848285016119b0565b91505092915050565b600060208284031215611a3257611a31611fd4565b5b6000611a40848285016119c5565b91505092915050565b600060208284031215611a5f57611a5e611fd4565b5b6000611a6d848285016119da565b91505092915050565b611a7f81611ee6565b82525050565b611a8e81611ef8565b82525050565b611a9d81611f2e565b82525050565b611aac81611f40565b82525050565b6000611abf601383611dc0565b9150611aca82611fd9565b602082019050919050565b6000611ae2601783611dc0565b9150611aed82612002565b602082019050919050565b6000611b05601683611dc0565b9150611b108261202b565b602082019050919050565b6000611b28601683611dc0565b9150611b3382612054565b602082019050919050565b6000611b4b601a83611dc0565b9150611b568261207d565b602082019050919050565b6000611b6e601b83611dc0565b9150611b79826120a6565b602082019050919050565b6000611b91601683611dc0565b9150611b9c826120cf565b602082019050919050565b6000611bb4601283611dc0565b9150611bbf826120f8565b602082019050919050565b611bd381611f24565b82525050565b6000602082019050611bee6000830184611a76565b92915050565b6000606082019050611c096000830186611a76565b611c166020830185611a76565b611c236040830184611bca565b949350505050565b6000604082019050611c406000830185611a76565b611c4d6020830184611bca565b9392505050565b6000602082019050611c696000830184611a85565b92915050565b6000602082019050611c846000830184611a94565b92915050565b6000602082019050611c9f6000830184611aa3565b92915050565b60006020820190508181036000830152611cbe81611ab2565b9050919050565b60006020820190508181036000830152611cde81611ad5565b9050919050565b60006020820190508181036000830152611cfe81611af8565b9050919050565b60006020820190508181036000830152611d1e81611b1b565b9050919050565b60006020820190508181036000830152611d3e81611b3e565b9050919050565b60006020820190508181036000830152611d5e81611b61565b9050919050565b60006020820190508181036000830152611d7e81611b84565b9050919050565b60006020820190508181036000830152611d9e81611ba7565b9050919050565b6000602082019050611dba6000830184611bca565b92915050565b600082825260208201905092915050565b6000611ddc82611f24565b9150611de783611f24565b9250827fffffffffffffffffffffffffffffffffffffffffffffffffffffffffffffffff03821115611e1c57611e1b611f76565b5b828201905092915050565b6000611e3282611f24565b9150611e3d83611f24565b925082611e4d57611e4c611fa5565b5b828204905092915050565b6000611e6382611f24565b9150611e6e83611f24565b9250817fffffffffffffffffffffffffffffffffffffffffffffffffffffffffffffffff0483118215151615611ea757611ea6611f76565b5b828202905092915050565b6000611ebd82611f24565b9150611ec883611f24565b925082821015611edb57611eda611f76565b5b828203905092915050565b6000611ef182611f04565b9050919050565b60008115159050919050565b600073ffffffffffffffffffffffffffffffffffffffff82169050919050565b6000819050919050565b6000611f3982611f52565b9050919050565b6000611f4b82611f52565b9050919050565b6000611f5d82611f64565b9050919050565b6000611f6f82611f04565b9050919050565b7f4e487b7100000000000000000000000000000000000000000000000000000000600052601160045260246000fd5b7f4e487b7100000000000000000000000000000000000000000000000000000000600052601260045260246000fd5b600080fd5b7f43616c6c6572206973206e6f74206f776e657200000000000000000000000000600082015250565b7f6e6f20656e6f75676820726563727920746f2073656c6c000000000000000000600082015250565b7f6e6f20656e6f756768207573646320746f207377617000000000000000000000600082015250565b7f6e6f20656e6f75676820726563727920746f2061646400000000000000000000600082015250565b7f6e6f20656e6f756768207573646320746f207769746864726177000000000000600082015250565b7f6e6f20656e6f75676820726563727920746f2077697468647261770000000000600082015250565b7f6e6f20656e6f75676820726563727920746f2062757900000000000000000000600082015250565b7f616d6f756e742063616e6e6f7420626520300000000000000000000000000000600082015250565b61212a81611ef8565b811461213557600080fd5b50565b61214181611f24565b811461214c57600080fd5b5056fea2646970667358221220c8ccc4ed1cbd6ae81b42ff93195dd25be8c9955854d9ed44956c36f9bde86f0664736f6c63430008070033",
					"opcodes": "PUSH1 0x80 PUSH1 0x40 MSTORE PUSH1 0x0 PUSH1 0x3 SSTORE PUSH1 0x0 PUSH1 0x4 SSTORE CALLVALUE DUP1 ISZERO PUSH3 0x1B JUMPI PUSH1 0x0 DUP1 REVERT JUMPDEST POP PUSH1 0x40 MLOAD PUSH3 0x23AA CODESIZE SUB DUP1 PUSH3 0x23AA DUP4 CODECOPY DUP2 DUP2 ADD PUSH1 0x40 MSTORE DUP2 ADD SWAP1 PUSH3 0x41 SWAP2 SWAP1 PUSH3 0x139 JUMP JUMPDEST DUP2 PUSH1 0x1 PUSH1 0x0 PUSH2 0x100 EXP DUP2 SLOAD DUP2 PUSH20 0xFFFFFFFFFFFFFFFFFFFFFFFFFFFFFFFFFFFFFFFF MUL NOT AND SWAP1 DUP4 PUSH20 0xFFFFFFFFFFFFFFFFFFFFFFFFFFFFFFFFFFFFFFFF AND MUL OR SWAP1 SSTORE POP DUP1 PUSH1 0x2 PUSH1 0x0 PUSH2 0x100 EXP DUP2 SLOAD DUP2 PUSH20 0xFFFFFFFFFFFFFFFFFFFFFFFFFFFFFFFFFFFFFFFF MUL NOT AND SWAP1 DUP4 PUSH20 0xFFFFFFFFFFFFFFFFFFFFFFFFFFFFFFFFFFFFFFFF AND MUL OR SWAP1 SSTORE POP CALLER PUSH1 0x0 DUP1 PUSH2 0x100 EXP DUP2 SLOAD DUP2 PUSH20 0xFFFFFFFFFFFFFFFFFFFFFFFFFFFFFFFFFFFFFFFF MUL NOT AND SWAP1 DUP4 PUSH20 0xFFFFFFFFFFFFFFFFFFFFFFFFFFFFFFFFFFFFFFFF AND MUL OR SWAP1 SSTORE POP POP POP PUSH3 0x215 JUMP JUMPDEST PUSH1 0x0 DUP2 MLOAD SWAP1 POP PUSH3 0x11C DUP2 PUSH3 0x1E1 JUMP JUMPDEST SWAP3 SWAP2 POP POP JUMP JUMPDEST PUSH1 0x0 DUP2 MLOAD SWAP1 POP PUSH3 0x133 DUP2 PUSH3 0x1FB JUMP JUMPDEST SWAP3 SWAP2 POP POP JUMP JUMPDEST PUSH1 0x0 DUP1 PUSH1 0x40 DUP4 DUP6 SUB SLT ISZERO PUSH3 0x153 JUMPI PUSH3 0x152 PUSH3 0x1DC JUMP JUMPDEST JUMPDEST PUSH1 0x0 PUSH3 0x163 DUP6 DUP3 DUP7 ADD PUSH3 0x10B JUMP JUMPDEST SWAP3 POP POP PUSH1 0x20 PUSH3 0x176 DUP6 DUP3 DUP7 ADD PUSH3 0x122 JUMP JUMPDEST SWAP2 POP POP SWAP3 POP SWAP3 SWAP1 POP JUMP JUMPDEST PUSH1 0x0 PUSH3 0x18D DUP3 PUSH3 0x1BC JUMP JUMPDEST SWAP1 POP SWAP2 SWAP1 POP JUMP JUMPDEST PUSH1 0x0 PUSH3 0x1A1 DUP3 PUSH3 0x180 JUMP JUMPDEST SWAP1 POP SWAP2 SWAP1 POP JUMP JUMPDEST PUSH1 0x0 PUSH3 0x1B5 DUP3 PUSH3 0x180 JUMP JUMPDEST SWAP1 POP SWAP2 SWAP1 POP JUMP JUMPDEST PUSH1 0x0 PUSH20 0xFFFFFFFFFFFFFFFFFFFFFFFFFFFFFFFFFFFFFFFF DUP3 AND SWAP1 POP SWAP2 SWAP1 POP JUMP JUMPDEST PUSH1 0x0 DUP1 REVERT JUMPDEST PUSH3 0x1EC DUP2 PUSH3 0x194 JUMP JUMPDEST DUP2 EQ PUSH3 0x1F8 JUMPI PUSH1 0x0 DUP1 REVERT JUMPDEST POP JUMP JUMPDEST PUSH3 0x206 DUP2 PUSH3 0x1A8 JUMP JUMPDEST DUP2 EQ PUSH3 0x212 JUMPI PUSH1 0x0 DUP1 REVERT JUMPDEST POP JUMP JUMPDEST PUSH2 0x2185 DUP1 PUSH3 0x225 PUSH1 0x0 CODECOPY PUSH1 0x0 RETURN INVALID PUSH1 0x80 PUSH1 0x40 MSTORE PUSH1 0x4 CALLDATASIZE LT PUSH2 0x140 JUMPI PUSH1 0x0 CALLDATALOAD PUSH1 0xE0 SHR DUP1 PUSH4 0x5B06DECE GT PUSH2 0xB6 JUMPI DUP1 PUSH4 0xD5ABEB01 GT PUSH2 0x6F JUMPI DUP1 PUSH4 0xD5ABEB01 EQ PUSH2 0x3DE JUMPI DUP1 PUSH4 0xD60A904E EQ PUSH2 0x409 JUMPI DUP1 PUSH4 0xDDF5B66C EQ PUSH2 0x434 JUMPI DUP1 PUSH4 0xE37398D8 EQ PUSH2 0x45F JUMPI DUP1 PUSH4 0xECB9417C EQ PUSH2 0x47B JUMPI DUP1 PUSH4 0xF1A376B6 EQ PUSH2 0x4A6 JUMPI PUSH2 0x140 JUMP JUMPDEST DUP1 PUSH4 0x5B06DECE EQ PUSH2 0x2EB JUMPI DUP1 PUSH4 0x5E01EB5A EQ PUSH2 0x307 JUMPI DUP1 PUSH4 0x7741EB92 EQ PUSH2 0x332 JUMPI DUP1 PUSH4 0x893D20E8 EQ PUSH2 0x35D JUMPI DUP1 PUSH4 0x8DA5CB5B EQ PUSH2 0x388 JUMPI DUP1 PUSH4 0xB42CA291 EQ PUSH2 0x3B3 JUMPI PUSH2 0x140 JUMP JUMPDEST DUP1 PUSH4 0x27718127 GT PUSH2 0x108 JUMPI DUP1 PUSH4 0x27718127 EQ PUSH2 0x209 JUMPI DUP1 PUSH4 0x2BD160BC EQ PUSH2 0x234 JUMPI DUP1 PUSH4 0x33B3C3F7 EQ PUSH2 0x25F JUMPI DUP1 PUSH4 0x3E413BEE EQ PUSH2 0x27B JUMPI DUP1 PUSH4 0x4BD2F33D EQ PUSH2 0x2A6 JUMPI DUP1 PUSH4 0x4CD60EB3 EQ PUSH2 0x2CF JUMPI PUSH2 0x140 JUMP JUMPDEST DUP1 PUSH4 0xB468779 EQ PUSH2 0x145 JUMPI DUP1 PUSH4 0xB6E87F7 EQ PUSH2 0x170 JUMPI DUP1 PUSH4 0x10D9744F EQ PUSH2 0x19B JUMPI DUP1 PUSH4 0x112ED6E2 EQ PUSH2 0x1B7 JUMPI DUP1 PUSH4 0x1DED4AD9 EQ PUSH2 0x1E0 JUMPI JUMPDEST PUSH1 0x0 DUP1 REVERT JUMPDEST CALLVALUE DUP1 ISZERO PUSH2 0x151 JUMPI PUSH1 0x0 DUP1 REVERT JUMPDEST POP PUSH2 0x15A PUSH2 0x4D1 JUMP JUMPDEST PUSH1 0x40 MLOAD PUSH2 0x167 SWAP2 SWAP1 PUSH2 0x1C6F JUMP JUMPDEST PUSH1 0x40 MLOAD DUP1 SWAP2 SUB SWAP1 RETURN JUMPDEST CALLVALUE DUP1 ISZERO PUSH2 0x17C JUMPI PUSH1 0x0 DUP1 REVERT JUMPDEST POP PUSH2 0x185 PUSH2 0x4F7 JUMP JUMPDEST PUSH1 0x40 MLOAD PUSH2 0x192 SWAP2 SWAP1 PUSH2 0x1DA5 JUMP JUMPDEST PUSH1 0x40 MLOAD DUP1 SWAP2 SUB SWAP1 RETURN JUMPDEST PUSH2 0x1B5 PUSH1 0x4 DUP1 CALLDATASIZE SUB DUP2 ADD SWAP1 PUSH2 0x1B0 SWAP2 SWAP1 PUSH2 0x1A1C JUMP JUMPDEST PUSH2 0x4FD JUMP JUMPDEST STOP JUMPDEST CALLVALUE DUP1 ISZERO PUSH2 0x1C3 JUMPI PUSH1 0x0 DUP1 REVERT JUMPDEST POP PUSH2 0x1DE PUSH1 0x4 DUP1 CALLDATASIZE SUB DUP2 ADD SWAP1 PUSH2 0x1D9 SWAP2 SWAP1 PUSH2 0x1A1C JUMP JUMPDEST PUSH2 0x752 JUMP JUMPDEST STOP JUMPDEST CALLVALUE DUP1 ISZERO PUSH2 0x1EC JUMPI PUSH1 0x0 DUP1 REVERT JUMPDEST POP PUSH2 0x207 PUSH1 0x4 DUP1 CALLDATASIZE SUB DUP2 ADD SWAP1 PUSH2 0x202 SWAP2 SWAP1 PUSH2 0x1A1C JUMP JUMPDEST PUSH2 0x7EA JUMP JUMPDEST STOP JUMPDEST CALLVALUE DUP1 ISZERO PUSH2 0x215 JUMPI PUSH1 0x0 DUP1 REVERT JUMPDEST POP PUSH2 0x21E PUSH2 0x88F JUMP JUMPDEST PUSH1 0x40 MLOAD PUSH2 0x22B SWAP2 SWAP1 PUSH2 0x1C54 JUMP JUMPDEST PUSH1 0x40 MLOAD DUP1 SWAP2 SUB SWAP1 RETURN JUMPDEST CALLVALUE DUP1 ISZERO PUSH2 0x240 JUMPI PUSH1 0x0 DUP1 REVERT JUMPDEST POP PUSH2 0x249 PUSH2 0x8F7 JUMP JUMPDEST PUSH1 0x40 MLOAD PUSH2 0x256 SWAP2 SWAP1 PUSH2 0x1DA5 JUMP JUMPDEST PUSH1 0x40 MLOAD DUP1 SWAP2 SUB SWAP1 RETURN JUMPDEST PUSH2 0x279 PUSH1 0x4 DUP1 CALLDATASIZE SUB DUP2 ADD SWAP1 PUSH2 0x274 SWAP2 SWAP1 PUSH2 0x1A1C JUMP JUMPDEST PUSH2 0x9A9 JUMP JUMPDEST STOP JUMPDEST CALLVALUE DUP1 ISZERO PUSH2 0x287 JUMPI PUSH1 0x0 DUP1 REVERT JUMPDEST POP PUSH2 0x290 PUSH2 0xF10 JUMP JUMPDEST PUSH1 0x40 MLOAD PUSH2 0x29D SWAP2 SWAP1 PUSH2 0x1C8A JUMP JUMPDEST PUSH1 0x40 MLOAD DUP1 SWAP2 SUB SWAP1 RETURN JUMPDEST CALLVALUE DUP1 ISZERO PUSH2 0x2B2 JUMPI PUSH1 0x0 DUP1 REVERT JUMPDEST POP PUSH2 0x2CD PUSH1 0x4 DUP1 CALLDATASIZE SUB DUP2 ADD SWAP1 PUSH2 0x2C8 SWAP2 SWAP1 PUSH2 0x1A1C JUMP JUMPDEST PUSH2 0xF36 JUMP JUMPDEST STOP JUMPDEST PUSH2 0x2E9 PUSH1 0x4 DUP1 CALLDATASIZE SUB DUP2 ADD SWAP1 PUSH2 0x2E4 SWAP2 SWAP1 PUSH2 0x1A1C JUMP JUMPDEST PUSH2 0xFCE JUMP JUMPDEST STOP JUMPDEST PUSH2 0x305 PUSH1 0x4 DUP1 CALLDATASIZE SUB DUP2 ADD SWAP1 PUSH2 0x300 SWAP2 SWAP1 PUSH2 0x1A1C JUMP JUMPDEST PUSH2 0x121A JUMP JUMPDEST STOP JUMPDEST CALLVALUE DUP1 ISZERO PUSH2 0x313 JUMPI PUSH1 0x0 DUP1 REVERT JUMPDEST POP PUSH2 0x31C PUSH2 0x146F JUMP JUMPDEST PUSH1 0x40 MLOAD PUSH2 0x329 SWAP2 SWAP1 PUSH2 0x1BD9 JUMP JUMPDEST PUSH1 0x40 MLOAD DUP1 SWAP2 SUB SWAP1 RETURN JUMPDEST CALLVALUE DUP1 ISZERO PUSH2 0x33E JUMPI PUSH1 0x0 DUP1 REVERT JUMPDEST POP PUSH2 0x347 PUSH2 0x1477 JUMP JUMPDEST PUSH1 0x40 MLOAD PUSH2 0x354 SWAP2 SWAP1 PUSH2 0x1DA5 JUMP JUMPDEST PUSH1 0x40 MLOAD DUP1 SWAP2 SUB SWAP1 RETURN JUMPDEST CALLVALUE DUP1 ISZERO PUSH2 0x369 JUMPI PUSH1 0x0 DUP1 REVERT JUMPDEST POP PUSH2 0x372 PUSH2 0x1481 JUMP JUMPDEST PUSH1 0x40 MLOAD PUSH2 0x37F SWAP2 SWAP1 PUSH2 0x1BD9 JUMP JUMPDEST PUSH1 0x40 MLOAD DUP1 SWAP2 SUB SWAP1 RETURN JUMPDEST CALLVALUE DUP1 ISZERO PUSH2 0x394 JUMPI PUSH1 0x0 DUP1 REVERT JUMPDEST POP PUSH2 0x39D PUSH2 0x14AA JUMP JUMPDEST PUSH1 0x40 MLOAD PUSH2 0x3AA SWAP2 SWAP1 PUSH2 0x1BD9 JUMP JUMPDEST PUSH1 0x40 MLOAD DUP1 SWAP2 SUB SWAP1 RETURN JUMPDEST CALLVALUE DUP1 ISZERO PUSH2 0x3BF JUMPI PUSH1 0x0 DUP1 REVERT JUMPDEST POP PUSH2 0x3C8 PUSH2 0x14CE JUMP JUMPDEST PUSH1 0x40 MLOAD PUSH2 0x3D5 SWAP2 SWAP1 PUSH2 0x1DA5 JUMP JUMPDEST PUSH1 0x40 MLOAD DUP1 SWAP2 SUB SWAP1 RETURN JUMPDEST CALLVALUE DUP1 ISZERO PUSH2 0x3EA JUMPI PUSH1 0x0 DUP1 REVERT JUMPDEST POP PUSH2 0x3F3 PUSH2 0x1580 JUMP JUMPDEST PUSH1 0x40 MLOAD PUSH2 0x400 SWAP2 SWAP1 PUSH2 0x1DA5 JUMP JUMPDEST PUSH1 0x40 MLOAD DUP1 SWAP2 SUB SWAP1 RETURN JUMPDEST CALLVALUE DUP1 ISZERO PUSH2 0x415 JUMPI PUSH1 0x0 DUP1 REVERT JUMPDEST POP PUSH2 0x41E PUSH2 0x1586 JUMP JUMPDEST PUSH1 0x40 MLOAD PUSH2 0x42B SWAP2 SWAP1 PUSH2 0x1DA5 JUMP JUMPDEST PUSH1 0x40 MLOAD DUP1 SWAP2 SUB SWAP1 RETURN JUMPDEST CALLVALUE DUP1 ISZERO PUSH2 0x440 JUMPI PUSH1 0x0 DUP1 REVERT JUMPDEST POP PUSH2 0x449 PUSH2 0x164A JUMP JUMPDEST PUSH1 0x40 MLOAD PUSH2 0x456 SWAP2 SWAP1 PUSH2 0x1DA5 JUMP JUMPDEST PUSH1 0x40 MLOAD DUP1 SWAP2 SUB SWAP1 RETURN JUMPDEST PUSH2 0x479 PUSH1 0x4 DUP1 CALLDATASIZE SUB DUP2 ADD SWAP1 PUSH2 0x474 SWAP2 SWAP1 PUSH2 0x1A1C JUMP JUMPDEST PUSH2 0x166E JUMP JUMPDEST STOP JUMPDEST CALLVALUE DUP1 ISZERO PUSH2 0x487 JUMPI PUSH1 0x0 DUP1 REVERT JUMPDEST POP PUSH2 0x490 PUSH2 0x196F JUMP JUMPDEST PUSH1 0x40 MLOAD PUSH2 0x49D SWAP2 SWAP1 PUSH2 0x1DA5 JUMP JUMPDEST PUSH1 0x40 MLOAD DUP1 SWAP2 SUB SWAP1 RETURN JUMPDEST CALLVALUE DUP1 ISZERO PUSH2 0x4B2 JUMPI PUSH1 0x0 DUP1 REVERT JUMPDEST POP PUSH2 0x4BB PUSH2 0x1979 JUMP JUMPDEST PUSH1 0x40 MLOAD PUSH2 0x4C8 SWAP2 SWAP1 PUSH2 0x1DA5 JUMP JUMPDEST PUSH1 0x40 MLOAD DUP1 SWAP2 SUB SWAP1 RETURN JUMPDEST PUSH1 0x1 PUSH1 0x0 SWAP1 SLOAD SWAP1 PUSH2 0x100 EXP SWAP1 DIV PUSH20 0xFFFFFFFFFFFFFFFFFFFFFFFFFFFFFFFFFFFFFFFF AND DUP2 JUMP JUMPDEST PUSH1 0x4 SLOAD DUP2 JUMP JUMPDEST PUSH1 0x0 DUP1 SLOAD SWAP1 PUSH2 0x100 EXP SWAP1 DIV PUSH20 0xFFFFFFFFFFFFFFFFFFFFFFFFFFFFFFFFFFFFFFFF AND PUSH20 0xFFFFFFFFFFFFFFFFFFFFFFFFFFFFFFFFFFFFFFFF AND CALLER PUSH20 0xFFFFFFFFFFFFFFFFFFFFFFFFFFFFFFFFFFFFFFFF AND EQ PUSH2 0x58B JUMPI PUSH1 0x40 MLOAD PUSH32 0x8C379A000000000000000000000000000000000000000000000000000000000 DUP2 MSTORE PUSH1 0x4 ADD PUSH2 0x582 SWAP1 PUSH2 0x1CA5 JUMP JUMPDEST PUSH1 0x40 MLOAD DUP1 SWAP2 SUB SWAP1 REVERT JUMPDEST DUP1 PUSH1 0x1 PUSH1 0x0 SWAP1 SLOAD SWAP1 PUSH2 0x100 EXP SWAP1 DIV PUSH20 0xFFFFFFFFFFFFFFFFFFFFFFFFFFFFFFFFFFFFFFFF AND PUSH20 0xFFFFFFFFFFFFFFFFFFFFFFFFFFFFFFFFFFFFFFFF AND PUSH4 0x70A08231 ADDRESS PUSH1 0x40 MLOAD DUP3 PUSH4 0xFFFFFFFF AND PUSH1 0xE0 SHL DUP2 MSTORE PUSH1 0x4 ADD PUSH2 0x5E7 SWAP2 SWAP1 PUSH2 0x1BD9 JUMP JUMPDEST PUSH1 0x20 PUSH1 0x40 MLOAD DUP1 DUP4 SUB DUP2 DUP7 DUP1 EXTCODESIZE ISZERO DUP1 ISZERO PUSH2 0x5FF JUMPI PUSH1 0x0 DUP1 REVERT JUMPDEST POP GAS STATICCALL ISZERO DUP1 ISZERO PUSH2 0x613 JUMPI RETURNDATASIZE PUSH1 0x0 DUP1 RETURNDATACOPY RETURNDATASIZE PUSH1 0x0 REVERT JUMPDEST POP POP POP POP PUSH1 0x40 MLOAD RETURNDATASIZE PUSH1 0x1F NOT PUSH1 0x1F DUP3 ADD AND DUP3 ADD DUP1 PUSH1 0x40 MSTORE POP DUP2 ADD SWAP1 PUSH2 0x637 SWAP2 SWAP1 PUSH2 0x1A49 JUMP JUMPDEST GT PUSH2 0x677 JUMPI PUSH1 0x40 MLOAD PUSH32 0x8C379A000000000000000000000000000000000000000000000000000000000 DUP2 MSTORE PUSH1 0x4 ADD PUSH2 0x66E SWAP1 PUSH2 0x1D45 JUMP JUMPDEST PUSH1 0x40 MLOAD DUP1 SWAP2 SUB SWAP1 REVERT JUMPDEST PUSH1 0x1 PUSH1 0x0 SWAP1 SLOAD SWAP1 PUSH2 0x100 EXP SWAP1 DIV PUSH20 0xFFFFFFFFFFFFFFFFFFFFFFFFFFFFFFFFFFFFFFFF AND PUSH20 0xFFFFFFFFFFFFFFFFFFFFFFFFFFFFFFFFFFFFFFFF AND PUSH4 0xA9059CBB PUSH1 0x0 DUP1 SLOAD SWAP1 PUSH2 0x100 EXP SWAP1 DIV PUSH20 0xFFFFFFFFFFFFFFFFFFFFFFFFFFFFFFFFFFFFFFFF AND DUP4 PUSH1 0x40 MLOAD DUP4 PUSH4 0xFFFFFFFF AND PUSH1 0xE0 SHL DUP2 MSTORE PUSH1 0x4 ADD PUSH2 0x6F4 SWAP3 SWAP2 SWAP1 PUSH2 0x1C2B JUMP JUMPDEST PUSH1 0x20 PUSH1 0x40 MLOAD DUP1 DUP4 SUB DUP2 PUSH1 0x0 DUP8 DUP1 EXTCODESIZE ISZERO DUP1 ISZERO PUSH2 0x70E JUMPI PUSH1 0x0 DUP1 REVERT JUMPDEST POP GAS CALL ISZERO DUP1 ISZERO PUSH2 0x722 JUMPI RETURNDATASIZE PUSH1 0x0 DUP1 RETURNDATACOPY RETURNDATASIZE PUSH1 0x0 REVERT JUMPDEST POP POP POP POP PUSH1 0x40 MLOAD RETURNDATASIZE PUSH1 0x1F NOT PUSH1 0x1F DUP3 ADD AND DUP3 ADD DUP1 PUSH1 0x40 MSTORE POP DUP2 ADD SWAP1 PUSH2 0x746 SWAP2 SWAP1 PUSH2 0x19EF JUMP JUMPDEST PUSH2 0x74F JUMPI PUSH1 0x0 DUP1 REVERT JUMPDEST POP JUMP JUMPDEST PUSH1 0x0 DUP1 SLOAD SWAP1 PUSH2 0x100 EXP SWAP1 DIV PUSH20 0xFFFFFFFFFFFFFFFFFFFFFFFFFFFFFFFFFFFFFFFF AND PUSH20 0xFFFFFFFFFFFFFFFFFFFFFFFFFFFFFFFFFFFFFFFF AND CALLER PUSH20 0xFFFFFFFFFFFFFFFFFFFFFFFFFFFFFFFFFFFFFFFF AND EQ PUSH2 0x7E0 JUMPI PUSH1 0x40 MLOAD PUSH32 0x8C379A000000000000000000000000000000000000000000000000000000000 DUP2 MSTORE PUSH1 0x4 ADD PUSH2 0x7D7 SWAP1 PUSH2 0x1CA5 JUMP JUMPDEST PUSH1 0x40 MLOAD DUP1 SWAP2 SUB SWAP1 REVERT JUMPDEST DUP1 PUSH1 0x4 DUP2 SWAP1 SSTORE POP POP JUMP JUMPDEST PUSH1 0x0 DUP1 SLOAD SWAP1 PUSH2 0x100 EXP SWAP1 DIV PUSH20 0xFFFFFFFFFFFFFFFFFFFFFFFFFFFFFFFFFFFFFFFF AND PUSH20 0xFFFFFFFFFFFFFFFFFFFFFFFFFFFFFFFFFFFFFFFF AND CALLER PUSH20 0xFFFFFFFFFFFFFFFFFFFFFFFFFFFFFFFFFFFFFFFF AND EQ PUSH2 0x878 JUMPI PUSH1 0x40 MLOAD PUSH32 0x8C379A000000000000000000000000000000000000000000000000000000000 DUP2 MSTORE PUSH1 0x4 ADD PUSH2 0x86F SWAP1 PUSH2 0x1CA5 JUMP JUMPDEST PUSH1 0x40 MLOAD DUP1 SWAP2 SUB SWAP1 REVERT JUMPDEST DUP1 PUSH1 0x4 SLOAD PUSH2 0x886 SWAP2 SWAP1 PUSH2 0x1DD1 JUMP JUMPDEST PUSH1 0x4 DUP2 SWAP1 SSTORE POP POP JUMP JUMPDEST PUSH1 0x0 DUP1 PUSH1 0x0 SWAP1 SLOAD SWAP1 PUSH2 0x100 EXP SWAP1 DIV PUSH20 0xFFFFFFFFFFFFFFFFFFFFFFFFFFFFFFFFFFFFFFFF AND PUSH20 0xFFFFFFFFFFFFFFFFFFFFFFFFFFFFFFFFFFFFFFFF AND CALLER PUSH20 0xFFFFFFFFFFFFFFFFFFFFFFFFFFFFFFFFFFFFFFFF AND EQ ISZERO PUSH2 0x8EF JUMPI PUSH1 0x1 SWAP1 POP PUSH2 0x8F4 JUMP JUMPDEST PUSH1 0x0 SWAP1 POP JUMPDEST SWAP1 JUMP JUMPDEST PUSH1 0x0 PUSH1 0x1 PUSH1 0x0 SWAP1 SLOAD SWAP1 PUSH2 0x100 EXP SWAP1 DIV PUSH20 0xFFFFFFFFFFFFFFFFFFFFFFFFFFFFFFFFFFFFFFFF AND PUSH20 0xFFFFFFFFFFFFFFFFFFFFFFFFFFFFFFFFFFFFFFFF AND PUSH4 0x70A08231 ADDRESS PUSH1 0x40 MLOAD DUP3 PUSH4 0xFFFFFFFF AND PUSH1 0xE0 SHL DUP2 MSTORE PUSH1 0x4 ADD PUSH2 0x954 SWAP2 SWAP1 PUSH2 0x1BD9 JUMP JUMPDEST PUSH1 0x20 PUSH1 0x40 MLOAD DUP1 DUP4 SUB DUP2 DUP7 DUP1 EXTCODESIZE ISZERO DUP1 ISZERO PUSH2 0x96C JUMPI PUSH1 0x0 DUP1 REVERT JUMPDEST POP GAS STATICCALL ISZERO DUP1 ISZERO PUSH2 0x980 JUMPI RETURNDATASIZE PUSH1 0x0 DUP1 RETURNDATACOPY RETURNDATASIZE PUSH1 0x0 REVERT JUMPDEST POP POP POP POP PUSH1 0x40 MLOAD RETURNDATASIZE PUSH1 0x1F NOT PUSH1 0x1F DUP3 ADD AND DUP3 ADD DUP1 PUSH1 0x40 MSTORE POP DUP2 ADD SWAP1 PUSH2 0x9A4 SWAP2 SWAP1 PUSH2 0x1A49 JUMP JUMPDEST SWAP1 POP SWAP1 JUMP JUMPDEST PUSH1 0x0 PUSH2 0x9B3 PUSH2 0x164A JUMP JUMPDEST DUP3 PUSH2 0x9BE SWAP2 SWAP1 PUSH2 0x1E27 JUMP JUMPDEST SWAP1 POP PUSH1 0x0 DUP3 GT PUSH2 0xA03 JUMPI PUSH1 0x40 MLOAD PUSH32 0x8C379A000000000000000000000000000000000000000000000000000000000 DUP2 MSTORE PUSH1 0x4 ADD PUSH2 0x9FA SWAP1 PUSH2 0x1D85 JUMP JUMPDEST PUSH1 0x40 MLOAD DUP1 SWAP2 SUB SWAP1 REVERT JUMPDEST DUP1 PUSH1 0x1 PUSH1 0x0 SWAP1 SLOAD SWAP1 PUSH2 0x100 EXP SWAP1 DIV PUSH20 0xFFFFFFFFFFFFFFFFFFFFFFFFFFFFFFFFFFFFFFFF AND PUSH20 0xFFFFFFFFFFFFFFFFFFFFFFFFFFFFFFFFFFFFFFFF AND PUSH4 0x70A08231 ADDRESS PUSH1 0x40 MLOAD DUP3 PUSH4 0xFFFFFFFF AND PUSH1 0xE0 SHL DUP2 MSTORE PUSH1 0x4 ADD PUSH2 0xA5F SWAP2 SWAP1 PUSH2 0x1BD9 JUMP JUMPDEST PUSH1 0x20 PUSH1 0x40 MLOAD DUP1 DUP4 SUB DUP2 DUP7 DUP1 EXTCODESIZE ISZERO DUP1 ISZERO PUSH2 0xA77 JUMPI PUSH1 0x0 DUP1 REVERT JUMPDEST POP GAS STATICCALL ISZERO DUP1 ISZERO PUSH2 0xA8B JUMPI RETURNDATASIZE PUSH1 0x0 DUP1 RETURNDATACOPY RETURNDATASIZE PUSH1 0x0 REVERT JUMPDEST POP POP POP POP PUSH1 0x40 MLOAD RETURNDATASIZE PUSH1 0x1F NOT PUSH1 0x1F DUP3 ADD AND DUP3 ADD DUP1 PUSH1 0x40 MSTORE POP DUP2 ADD SWAP1 PUSH2 0xAAF SWAP2 SWAP1 PUSH2 0x1A49 JUMP JUMPDEST LT ISZERO PUSH2 0xAF0 JUMPI PUSH1 0x40 MLOAD PUSH32 0x8C379A000000000000000000000000000000000000000000000000000000000 DUP2 MSTORE PUSH1 0x4 ADD PUSH2 0xAE7 SWAP1 PUSH2 0x1D65 JUMP JUMPDEST PUSH1 0x40 MLOAD DUP1 SWAP2 SUB SWAP1 REVERT JUMPDEST PUSH1 0x0 PUSH2 0xAFA PUSH2 0x14CE JUMP JUMPDEST PUSH1 0x4 SLOAD PUSH2 0xB07 SWAP2 SWAP1 PUSH2 0x1EB2 JUMP JUMPDEST SWAP1 POP PUSH1 0x0 DUP2 GT ISZERO PUSH2 0xD7E JUMPI DUP1 DUP4 GT ISZERO PUSH2 0xCBE JUMPI PUSH1 0x2 PUSH1 0x0 SWAP1 SLOAD SWAP1 PUSH2 0x100 EXP SWAP1 DIV PUSH20 0xFFFFFFFFFFFFFFFFFFFFFFFFFFFFFFFFFFFFFFFF AND PUSH20 0xFFFFFFFFFFFFFFFFFFFFFFFFFFFFFFFFFFFFFFFF AND PUSH4 0x23B872DD CALLER ADDRESS DUP5 PUSH1 0x40 MLOAD DUP5 PUSH4 0xFFFFFFFF AND PUSH1 0xE0 SHL DUP2 MSTORE PUSH1 0x4 ADD PUSH2 0xB79 SWAP4 SWAP3 SWAP2 SWAP1 PUSH2 0x1BF4 JUMP JUMPDEST PUSH1 0x20 PUSH1 0x40 MLOAD DUP1 DUP4 SUB DUP2 PUSH1 0x0 DUP8 DUP1 EXTCODESIZE ISZERO DUP1 ISZERO PUSH2 0xB93 JUMPI PUSH1 0x0 DUP1 REVERT JUMPDEST POP GAS CALL ISZERO DUP1 ISZERO PUSH2 0xBA7 JUMPI RETURNDATASIZE PUSH1 0x0 DUP1 RETURNDATACOPY RETURNDATASIZE PUSH1 0x0 REVERT JUMPDEST POP POP POP POP PUSH1 0x40 MLOAD RETURNDATASIZE PUSH1 0x1F NOT PUSH1 0x1F DUP3 ADD AND DUP3 ADD DUP1 PUSH1 0x40 MSTORE POP DUP2 ADD SWAP1 PUSH2 0xBCB SWAP2 SWAP1 PUSH2 0x19EF JUMP JUMPDEST PUSH2 0xBD4 JUMPI PUSH1 0x0 DUP1 REVERT JUMPDEST PUSH1 0x2 PUSH1 0x0 SWAP1 SLOAD SWAP1 PUSH2 0x100 EXP SWAP1 DIV PUSH20 0xFFFFFFFFFFFFFFFFFFFFFFFFFFFFFFFFFFFFFFFF AND PUSH20 0xFFFFFFFFFFFFFFFFFFFFFFFFFFFFFFFFFFFFFFFF AND PUSH4 0x23B872DD CALLER PUSH1 0x0 DUP1 SLOAD SWAP1 PUSH2 0x100 EXP SWAP1 DIV PUSH20 0xFFFFFFFFFFFFFFFFFFFFFFFFFFFFFFFFFFFFFFFF AND DUP5 DUP8 PUSH2 0xC40 SWAP2 SWAP1 PUSH2 0x1EB2 JUMP JUMPDEST PUSH1 0x40 MLOAD DUP5 PUSH4 0xFFFFFFFF AND PUSH1 0xE0 SHL DUP2 MSTORE PUSH1 0x4 ADD PUSH2 0xC5E SWAP4 SWAP3 SWAP2 SWAP1 PUSH2 0x1BF4 JUMP JUMPDEST PUSH1 0x20 PUSH1 0x40 MLOAD DUP1 DUP4 SUB DUP2 PUSH1 0x0 DUP8 DUP1 EXTCODESIZE ISZERO DUP1 ISZERO PUSH2 0xC78 JUMPI PUSH1 0x0 DUP1 REVERT JUMPDEST POP GAS CALL ISZERO DUP1 ISZERO PUSH2 0xC8C JUMPI RETURNDATASIZE PUSH1 0x0 DUP1 RETURNDATACOPY RETURNDATASIZE PUSH1 0x0 REVERT JUMPDEST POP POP POP POP PUSH1 0x40 MLOAD RETURNDATASIZE PUSH1 0x1F NOT PUSH1 0x1F DUP3 ADD AND DUP3 ADD DUP1 PUSH1 0x40 MSTORE POP DUP2 ADD SWAP1 PUSH2 0xCB0 SWAP2 SWAP1 PUSH2 0x19EF JUMP JUMPDEST PUSH2 0xCB9 JUMPI PUSH1 0x0 DUP1 REVERT JUMPDEST PUSH2 0xD79 JUMP JUMPDEST PUSH1 0x2 PUSH1 0x0 SWAP1 SLOAD SWAP1 PUSH2 0x100 EXP SWAP1 DIV PUSH20 0xFFFFFFFFFFFFFFFFFFFFFFFFFFFFFFFFFFFFFFFF AND PUSH20 0xFFFFFFFFFFFFFFFFFFFFFFFFFFFFFFFFFFFFFFFF AND PUSH4 0x23B872DD CALLER ADDRESS DUP7 PUSH1 0x40 MLOAD DUP5 PUSH4 0xFFFFFFFF AND PUSH1 0xE0 SHL DUP2 MSTORE PUSH1 0x4 ADD PUSH2 0xD1D SWAP4 SWAP3 SWAP2 SWAP1 PUSH2 0x1BF4 JUMP JUMPDEST PUSH1 0x20 PUSH1 0x40 MLOAD DUP1 DUP4 SUB DUP2 PUSH1 0x0 DUP8 DUP1 EXTCODESIZE ISZERO DUP1 ISZERO PUSH2 0xD37 JUMPI PUSH1 0x0 DUP1 REVERT JUMPDEST POP GAS CALL ISZERO DUP1 ISZERO PUSH2 0xD4B JUMPI RETURNDATASIZE PUSH1 0x0 DUP1 RETURNDATACOPY RETURNDATASIZE PUSH1 0x0 REVERT JUMPDEST POP POP POP POP PUSH1 0x40 MLOAD RETURNDATASIZE PUSH1 0x1F NOT PUSH1 0x1F DUP3 ADD AND DUP3 ADD DUP1 PUSH1 0x40 MSTORE POP DUP2 ADD SWAP1 PUSH2 0xD6F SWAP2 SWAP1 PUSH2 0x19EF JUMP JUMPDEST PUSH2 0xD78 JUMPI PUSH1 0x0 DUP1 REVERT JUMPDEST JUMPDEST PUSH2 0xE59 JUMP JUMPDEST PUSH1 0x2 PUSH1 0x0 SWAP1 SLOAD SWAP1 PUSH2 0x100 EXP SWAP1 DIV PUSH20 0xFFFFFFFFFFFFFFFFFFFFFFFFFFFFFFFFFFFFFFFF AND PUSH20 0xFFFFFFFFFFFFFFFFFFFFFFFFFFFFFFFFFFFFFFFF AND PUSH4 0x23B872DD CALLER PUSH1 0x0 DUP1 SLOAD SWAP1 PUSH2 0x100 EXP SWAP1 DIV PUSH20 0xFFFFFFFFFFFFFFFFFFFFFFFFFFFFFFFFFFFFFFFF AND DUP7 PUSH1 0x40 MLOAD DUP5 PUSH4 0xFFFFFFFF AND PUSH1 0xE0 SHL DUP2 MSTORE PUSH1 0x4 ADD PUSH2 0xDFD SWAP4 SWAP3 SWAP2 SWAP1 PUSH2 0x1BF4 JUMP JUMPDEST PUSH1 0x20 PUSH1 0x40 MLOAD DUP1 DUP4 SUB DUP2 PUSH1 0x0 DUP8 DUP1 EXTCODESIZE ISZERO DUP1 ISZERO PUSH2 0xE17 JUMPI PUSH1 0x0 DUP1 REVERT JUMPDEST POP GAS CALL ISZERO DUP1 ISZERO PUSH2 0xE2B JUMPI RETURNDATASIZE PUSH1 0x0 DUP1 RETURNDATACOPY RETURNDATASIZE PUSH1 0x0 REVERT JUMPDEST POP POP POP POP PUSH1 0x40 MLOAD RETURNDATASIZE PUSH1 0x1F NOT PUSH1 0x1F DUP3 ADD AND DUP3 ADD DUP1 PUSH1 0x40 MSTORE POP DUP2 ADD SWAP1 PUSH2 0xE4F SWAP2 SWAP1 PUSH2 0x19EF JUMP JUMPDEST PUSH2 0xE58 JUMPI PUSH1 0x0 DUP1 REVERT JUMPDEST JUMPDEST PUSH1 0x1 PUSH1 0x0 SWAP1 SLOAD SWAP1 PUSH2 0x100 EXP SWAP1 DIV PUSH20 0xFFFFFFFFFFFFFFFFFFFFFFFFFFFFFFFFFFFFFFFF AND PUSH20 0xFFFFFFFFFFFFFFFFFFFFFFFFFFFFFFFFFFFFFFFF AND PUSH4 0x23B872DD ADDRESS CALLER DUP7 PUSH1 0x40 MLOAD DUP5 PUSH4 0xFFFFFFFF AND PUSH1 0xE0 SHL DUP2 MSTORE PUSH1 0x4 ADD PUSH2 0xEB8 SWAP4 SWAP3 SWAP2 SWAP1 PUSH2 0x1BF4 JUMP JUMPDEST PUSH1 0x20 PUSH1 0x40 MLOAD DUP1 DUP4 SUB DUP2 PUSH1 0x0 DUP8 DUP1 EXTCODESIZE ISZERO DUP1 ISZERO PUSH2 0xED2 JUMPI PUSH1 0x0 DUP1 REVERT JUMPDEST POP GAS CALL ISZERO DUP1 ISZERO PUSH2 0xEE6 JUMPI RETURNDATASIZE PUSH1 0x0 DUP1 RETURNDATACOPY RETURNDATASIZE PUSH1 0x0 REVERT JUMPDEST POP POP POP POP PUSH1 0x40 MLOAD RETURNDATASIZE PUSH1 0x1F NOT PUSH1 0x1F DUP3 ADD AND DUP3 ADD DUP1 PUSH1 0x40 MSTORE POP DUP2 ADD SWAP1 PUSH2 0xF0A SWAP2 SWAP1 PUSH2 0x19EF JUMP JUMPDEST POP POP POP POP JUMP JUMPDEST PUSH1 0x2 PUSH1 0x0 SWAP1 SLOAD SWAP1 PUSH2 0x100 EXP SWAP1 DIV PUSH20 0xFFFFFFFFFFFFFFFFFFFFFFFFFFFFFFFFFFFFFFFF AND DUP2 JUMP JUMPDEST PUSH1 0x0 DUP1 SLOAD SWAP1 PUSH2 0x100 EXP SWAP1 DIV PUSH20 0xFFFFFFFFFFFFFFFFFFFFFFFFFFFFFFFFFFFFFFFF AND PUSH20 0xFFFFFFFFFFFFFFFFFFFFFFFFFFFFFFFFFFFFFFFF AND CALLER PUSH20 0xFFFFFFFFFFFFFFFFFFFFFFFFFFFFFFFFFFFFFFFF AND EQ PUSH2 0xFC4 JUMPI PUSH1 0x40 MLOAD PUSH32 0x8C379A000000000000000000000000000000000000000000000000000000000 DUP2 MSTORE PUSH1 0x4 ADD PUSH2 0xFBB SWAP1 PUSH2 0x1CA5 JUMP JUMPDEST PUSH1 0x40 MLOAD DUP1 SWAP2 SUB SWAP1 REVERT JUMPDEST DUP1 PUSH1 0x3 DUP2 SWAP1 SSTORE POP POP JUMP JUMPDEST PUSH1 0x0 DUP1 SLOAD SWAP1 PUSH2 0x100 EXP SWAP1 DIV PUSH20 0xFFFFFFFFFFFFFFFFFFFFFFFFFFFFFFFFFFFFFFFF AND PUSH20 0xFFFFFFFFFFFFFFFFFFFFFFFFFFFFFFFFFFFFFFFF AND CALLER PUSH20 0xFFFFFFFFFFFFFFFFFFFFFFFFFFFFFFFFFFFFFFFF AND EQ PUSH2 0x105C JUMPI PUSH1 0x40 MLOAD PUSH32 0x8C379A000000000000000000000000000000000000000000000000000000000 DUP2 MSTORE PUSH1 0x4 ADD PUSH2 0x1053 SWAP1 PUSH2 0x1CA5 JUMP JUMPDEST PUSH1 0x40 MLOAD DUP1 SWAP2 SUB SWAP1 REVERT JUMPDEST DUP1 PUSH1 0x1 PUSH1 0x0 SWAP1 SLOAD SWAP1 PUSH2 0x100 EXP SWAP1 DIV PUSH20 0xFFFFFFFFFFFFFFFFFFFFFFFFFFFFFFFFFFFFFFFF AND PUSH20 0xFFFFFFFFFFFFFFFFFFFFFFFFFFFFFFFFFFFFFFFF AND PUSH4 0x70A08231 CALLER PUSH1 0x40 MLOAD DUP3 PUSH4 0xFFFFFFFF AND PUSH1 0xE0 SHL DUP2 MSTORE PUSH1 0x4 ADD PUSH2 0x10B8 SWAP2 SWAP1 PUSH2 0x1BD9 JUMP JUMPDEST PUSH1 0x20 PUSH1 0x40 MLOAD DUP1 DUP4 SUB DUP2 DUP7 DUP1 EXTCODESIZE ISZERO DUP1 ISZERO PUSH2 0x10D0 JUMPI PUSH1 0x0 DUP1 REVERT JUMPDEST POP GAS STATICCALL ISZERO DUP1 ISZERO PUSH2 0x10E4 JUMPI RETURNDATASIZE PUSH1 0x0 DUP1 RETURNDATACOPY RETURNDATASIZE PUSH1 0x0 REVERT JUMPDEST POP POP POP POP PUSH1 0x40 MLOAD RETURNDATASIZE PUSH1 0x1F NOT PUSH1 0x1F DUP3 ADD AND DUP3 ADD DUP1 PUSH1 0x40 MSTORE POP DUP2 ADD SWAP1 PUSH2 0x1108 SWAP2 SWAP1 PUSH2 0x1A49 JUMP JUMPDEST LT ISZERO PUSH2 0x1149 JUMPI PUSH1 0x40 MLOAD PUSH32 0x8C379A000000000000000000000000000000000000000000000000000000000 DUP2 MSTORE PUSH1 0x4 ADD PUSH2 0x1140 SWAP1 PUSH2 0x1D05 JUMP JUMPDEST PUSH1 0x40 MLOAD DUP1 SWAP2 SUB SWAP1 REVERT JUMPDEST PUSH1 0x1 PUSH1 0x0 SWAP1 SLOAD SWAP1 PUSH2 0x100 EXP SWAP1 DIV PUSH20 0xFFFFFFFFFFFFFFFFFFFFFFFFFFFFFFFFFFFFFFFF AND PUSH20 0xFFFFFFFFFFFFFFFFFFFFFFFFFFFFFFFFFFFFFFFF AND PUSH4 0x23B872DD CALLER ADDRESS DUP5 PUSH1 0x40 MLOAD DUP5 PUSH4 0xFFFFFFFF AND PUSH1 0xE0 SHL DUP2 MSTORE PUSH1 0x4 ADD PUSH2 0x11A8 SWAP4 SWAP3 SWAP2 SWAP1 PUSH2 0x1BF4 JUMP JUMPDEST PUSH1 0x20 PUSH1 0x40 MLOAD DUP1 DUP4 SUB DUP2 PUSH1 0x0 DUP8 DUP1 EXTCODESIZE ISZERO DUP1 ISZERO PUSH2 0x11C2 JUMPI PUSH1 0x0 DUP1 REVERT JUMPDEST POP GAS CALL ISZERO DUP1 ISZERO PUSH2 0x11D6 JUMPI RETURNDATASIZE PUSH1 0x0 DUP1 RETURNDATACOPY RETURNDATASIZE PUSH1 0x0 REVERT JUMPDEST POP POP POP POP PUSH1 0x40 MLOAD RETURNDATASIZE PUSH1 0x1F NOT PUSH1 0x1F DUP3 ADD AND DUP3 ADD DUP1 PUSH1 0x40 MSTORE POP DUP2 ADD SWAP1 PUSH2 0x11FA SWAP2 SWAP1 PUSH2 0x19EF JUMP JUMPDEST PUSH2 0x1203 JUMPI PUSH1 0x0 DUP1 REVERT JUMPDEST DUP1 PUSH1 0x3 SLOAD PUSH2 0x1211 SWAP2 SWAP1 PUSH2 0x1DD1 JUMP JUMPDEST PUSH1 0x3 DUP2 SWAP1 SSTORE POP POP JUMP JUMPDEST PUSH1 0x0 DUP1 SLOAD SWAP1 PUSH2 0x100 EXP SWAP1 DIV PUSH20 0xFFFFFFFFFFFFFFFFFFFFFFFFFFFFFFFFFFFFFFFF AND PUSH20 0xFFFFFFFFFFFFFFFFFFFFFFFFFFFFFFFFFFFFFFFF AND CALLER PUSH20 0xFFFFFFFFFFFFFFFFFFFFFFFFFFFFFFFFFFFFFFFF AND EQ PUSH2 0x12A8 JUMPI PUSH1 0x40 MLOAD PUSH32 0x8C379A000000000000000000000000000000000000000000000000000000000 DUP2 MSTORE PUSH1 0x4 ADD PUSH2 0x129F SWAP1 PUSH2 0x1CA5 JUMP JUMPDEST PUSH1 0x40 MLOAD DUP1 SWAP2 SUB SWAP1 REVERT JUMPDEST DUP1 PUSH1 0x2 PUSH1 0x0 SWAP1 SLOAD SWAP1 PUSH2 0x100 EXP SWAP1 DIV PUSH20 0xFFFFFFFFFFFFFFFFFFFFFFFFFFFFFFFFFFFFFFFF AND PUSH20 0xFFFFFFFFFFFFFFFFFFFFFFFFFFFFFFFFFFFFFFFF AND PUSH4 0x70A08231 ADDRESS PUSH1 0x40 MLOAD DUP3 PUSH4 0xFFFFFFFF AND PUSH1 0xE0 SHL DUP2 MSTORE PUSH1 0x4 ADD PUSH2 0x1304 SWAP2 SWAP1 PUSH2 0x1BD9 JUMP JUMPDEST PUSH1 0x20 PUSH1 0x40 MLOAD DUP1 DUP4 SUB DUP2 DUP7 DUP1 EXTCODESIZE ISZERO DUP1 ISZERO PUSH2 0x131C JUMPI PUSH1 0x0 DUP1 REVERT JUMPDEST POP GAS STATICCALL ISZERO DUP1 ISZERO PUSH2 0x1330 JUMPI RETURNDATASIZE PUSH1 0x0 DUP1 RETURNDATACOPY RETURNDATASIZE PUSH1 0x0 REVERT JUMPDEST POP POP POP POP PUSH1 0x40 MLOAD RETURNDATASIZE PUSH1 0x1F NOT PUSH1 0x1F DUP3 ADD AND DUP3 ADD DUP1 PUSH1 0x40 MSTORE POP DUP2 ADD SWAP1 PUSH2 0x1354 SWAP2 SWAP1 PUSH2 0x1A49 JUMP JUMPDEST GT PUSH2 0x1394 JUMPI PUSH1 0x40 MLOAD PUSH32 0x8C379A000000000000000000000000000000000000000000000000000000000 DUP2 MSTORE PUSH1 0x4 ADD PUSH2 0x138B SWAP1 PUSH2 0x1D25 JUMP JUMPDEST PUSH1 0x40 MLOAD DUP1 SWAP2 SUB SWAP1 REVERT JUMPDEST PUSH1 0x2 PUSH1 0x0 SWAP1 SLOAD SWAP1 PUSH2 0x100 EXP SWAP1 DIV PUSH20 0xFFFFFFFFFFFFFFFFFFFFFFFFFFFFFFFFFFFFFFFF AND PUSH20 0xFFFFFFFFFFFFFFFFFFFFFFFFFFFFFFFFFFFFFFFF AND PUSH4 0xA9059CBB PUSH1 0x0 DUP1 SLOAD SWAP1 PUSH2 0x100 EXP SWAP1 DIV PUSH20 0xFFFFFFFFFFFFFFFFFFFFFFFFFFFFFFFFFFFFFFFF AND DUP4 PUSH1 0x40 MLOAD DUP4 PUSH4 0xFFFFFFFF AND PUSH1 0xE0 SHL DUP2 MSTORE PUSH1 0x4 ADD PUSH2 0x1411 SWAP3 SWAP2 SWAP1 PUSH2 0x1C2B JUMP JUMPDEST PUSH1 0x20 PUSH1 0x40 MLOAD DUP1 DUP4 SUB DUP2 PUSH1 0x0 DUP8 DUP1 EXTCODESIZE ISZERO DUP1 ISZERO PUSH2 0x142B JUMPI PUSH1 0x0 DUP1 REVERT JUMPDEST POP GAS CALL ISZERO DUP1 ISZERO PUSH2 0x143F JUMPI RETURNDATASIZE PUSH1 0x0 DUP1 RETURNDATACOPY RETURNDATASIZE PUSH1 0x0 REVERT JUMPDEST POP POP POP POP PUSH1 0x40 MLOAD RETURNDATASIZE PUSH1 0x1F NOT PUSH1 0x1F DUP3 ADD AND DUP3 ADD DUP1 PUSH1 0x40 MSTORE POP DUP2 ADD SWAP1 PUSH2 0x1463 SWAP2 SWAP1 PUSH2 0x19EF JUMP JUMPDEST PUSH2 0x146C JUMPI PUSH1 0x0 DUP1 REVERT JUMPDEST POP JUMP JUMPDEST PUSH1 0x0 CALLER SWAP1 POP SWAP1 JUMP JUMPDEST PUSH1 0x0 PUSH1 0x3 SLOAD SWAP1 POP SWAP1 JUMP JUMPDEST PUSH1 0x0 DUP1 PUSH1 0x0 SWAP1 SLOAD SWAP1 PUSH2 0x100 EXP SWAP1 DIV PUSH20 0xFFFFFFFFFFFFFFFFFFFFFFFFFFFFFFFFFFFFFFFF AND SWAP1 POP SWAP1 JUMP JUMPDEST PUSH1 0x0 DUP1 SLOAD SWAP1 PUSH2 0x100 EXP SWAP1 DIV PUSH20 0xFFFFFFFFFFFFFFFFFFFFFFFFFFFFFFFFFFFFFFFF AND DUP2 JUMP JUMPDEST PUSH1 0x0 PUSH1 0x2 PUSH1 0x0 SWAP1 SLOAD SWAP1 PUSH2 0x100 EXP SWAP1 DIV PUSH20 0xFFFFFFFFFFFFFFFFFFFFFFFFFFFFFFFFFFFFFFFF AND PUSH20 0xFFFFFFFFFFFFFFFFFFFFFFFFFFFFFFFFFFFFFFFF AND PUSH4 0x70A08231 ADDRESS PUSH1 0x40 MLOAD DUP3 PUSH4 0xFFFFFFFF AND PUSH1 0xE0 SHL DUP2 MSTORE PUSH1 0x4 ADD PUSH2 0x152B SWAP2 SWAP1 PUSH2 0x1BD9 JUMP JUMPDEST PUSH1 0x20 PUSH1 0x40 MLOAD DUP1 DUP4 SUB DUP2 DUP7 DUP1 EXTCODESIZE ISZERO DUP1 ISZERO PUSH2 0x1543 JUMPI PUSH1 0x0 DUP1 REVERT JUMPDEST POP GAS STATICCALL ISZERO DUP1 ISZERO PUSH2 0x1557 JUMPI RETURNDATASIZE PUSH1 0x0 DUP1 RETURNDATACOPY RETURNDATASIZE PUSH1 0x0 REVERT JUMPDEST POP POP POP POP PUSH1 0x40 MLOAD RETURNDATASIZE PUSH1 0x1F NOT PUSH1 0x1F DUP3 ADD AND DUP3 ADD DUP1 PUSH1 0x40 MSTORE POP DUP2 ADD SWAP1 PUSH2 0x157B SWAP2 SWAP1 PUSH2 0x1A49 JUMP JUMPDEST SWAP1 POP SWAP1 JUMP JUMPDEST PUSH1 0x3 SLOAD DUP2 JUMP JUMPDEST PUSH1 0x0 PUSH1 0x1 PUSH1 0x0 SWAP1 SLOAD SWAP1 PUSH2 0x100 EXP SWAP1 DIV PUSH20 0xFFFFFFFFFFFFFFFFFFFFFFFFFFFFFFFFFFFFFFFF AND PUSH20 0xFFFFFFFFFFFFFFFFFFFFFFFFFFFFFFFFFFFFFFFF AND PUSH4 0x70A08231 CALLER PUSH1 0x40 MLOAD DUP3 PUSH4 0xFFFFFFFF AND PUSH1 0xE0 SHL DUP2 MSTORE PUSH1 0x4 ADD PUSH2 0x15E3 SWAP2 SWAP1 PUSH2 0x1BD9 JUMP JUMPDEST PUSH1 0x20 PUSH1 0x40 MLOAD DUP1 DUP4 SUB DUP2 DUP7 DUP1 EXTCODESIZE ISZERO DUP1 ISZERO PUSH2 0x15FB JUMPI PUSH1 0x0 DUP1 REVERT JUMPDEST POP GAS STATICCALL ISZERO DUP1 ISZERO PUSH2 0x160F JUMPI RETURNDATASIZE PUSH1 0x0 DUP1 RETURNDATACOPY RETURNDATASIZE PUSH1 0x0 REVERT JUMPDEST POP POP POP POP PUSH1 0x40 MLOAD RETURNDATASIZE PUSH1 0x1F NOT PUSH1 0x1F DUP3 ADD AND DUP3 ADD DUP1 PUSH1 0x40 MSTORE POP DUP2 ADD SWAP1 PUSH2 0x1633 SWAP2 SWAP1 PUSH2 0x1A49 JUMP JUMPDEST PUSH2 0x163B PUSH2 0x164A JUMP JUMPDEST PUSH2 0x1645 SWAP2 SWAP1 PUSH2 0x1E58 JUMP JUMPDEST SWAP1 POP SWAP1 JUMP JUMPDEST PUSH1 0x0 PUSH1 0x3 SLOAD PUSH1 0x4 SLOAD PUSH1 0x3 SLOAD PUSH2 0x165F SWAP2 SWAP1 PUSH2 0x1DD1 JUMP JUMPDEST PUSH2 0x1669 SWAP2 SWAP1 PUSH2 0x1E27 JUMP JUMPDEST SWAP1 POP SWAP1 JUMP JUMPDEST PUSH1 0x0 PUSH2 0x1678 PUSH2 0x164A JUMP JUMPDEST DUP3 PUSH2 0x1683 SWAP2 SWAP1 PUSH2 0x1E58 JUMP JUMPDEST SWAP1 POP PUSH1 0x0 DUP3 GT PUSH2 0x16C8 JUMPI PUSH1 0x40 MLOAD PUSH32 0x8C379A000000000000000000000000000000000000000000000000000000000 DUP2 MSTORE PUSH1 0x4 ADD PUSH2 0x16BF SWAP1 PUSH2 0x1D85 JUMP JUMPDEST PUSH1 0x40 MLOAD DUP1 SWAP2 SUB SWAP1 REVERT JUMPDEST DUP2 PUSH1 0x1 PUSH1 0x0 SWAP1 SLOAD SWAP1 PUSH2 0x100 EXP SWAP1 DIV PUSH20 0xFFFFFFFFFFFFFFFFFFFFFFFFFFFFFFFFFFFFFFFF AND PUSH20 0xFFFFFFFFFFFFFFFFFFFFFFFFFFFFFFFFFFFFFFFF AND PUSH4 0x70A08231 CALLER PUSH1 0x40 MLOAD DUP3 PUSH4 0xFFFFFFFF AND PUSH1 0xE0 SHL DUP2 MSTORE PUSH1 0x4 ADD PUSH2 0x1724 SWAP2 SWAP1 PUSH2 0x1BD9 JUMP JUMPDEST PUSH1 0x20 PUSH1 0x40 MLOAD DUP1 DUP4 SUB DUP2 DUP7 DUP1 EXTCODESIZE ISZERO DUP1 ISZERO PUSH2 0x173C JUMPI PUSH1 0x0 DUP1 REVERT JUMPDEST POP GAS STATICCALL ISZERO DUP1 ISZERO PUSH2 0x1750 JUMPI RETURNDATASIZE PUSH1 0x0 DUP1 RETURNDATACOPY RETURNDATASIZE PUSH1 0x0 REVERT JUMPDEST POP POP POP POP PUSH1 0x40 MLOAD RETURNDATASIZE PUSH1 0x1F NOT PUSH1 0x1F DUP3 ADD AND DUP3 ADD DUP1 PUSH1 0x40 MSTORE POP DUP2 ADD SWAP1 PUSH2 0x1774 SWAP2 SWAP1 PUSH2 0x1A49 JUMP JUMPDEST LT ISZERO PUSH2 0x17B5 JUMPI PUSH1 0x40 MLOAD PUSH32 0x8C379A000000000000000000000000000000000000000000000000000000000 DUP2 MSTORE PUSH1 0x4 ADD PUSH2 0x17AC SWAP1 PUSH2 0x1CC5 JUMP JUMPDEST PUSH1 0x40 MLOAD DUP1 SWAP2 SUB SWAP1 REVERT JUMPDEST DUP1 PUSH2 0x17BE PUSH2 0x14CE JUMP JUMPDEST LT ISZERO PUSH2 0x17FF JUMPI PUSH1 0x40 MLOAD PUSH32 0x8C379A000000000000000000000000000000000000000000000000000000000 DUP2 MSTORE PUSH1 0x4 ADD PUSH2 0x17F6 SWAP1 PUSH2 0x1CE5 JUMP JUMPDEST PUSH1 0x40 MLOAD DUP1 SWAP2 SUB SWAP1 REVERT JUMPDEST PUSH1 0x1 PUSH1 0x0 SWAP1 SLOAD SWAP1 PUSH2 0x100 EXP SWAP1 DIV PUSH20 0xFFFFFFFFFFFFFFFFFFFFFFFFFFFFFFFFFFFFFFFF AND PUSH20 0xFFFFFFFFFFFFFFFFFFFFFFFFFFFFFFFFFFFFFFFF AND PUSH4 0x23B872DD CALLER ADDRESS DUP6 PUSH1 0x40 MLOAD DUP5 PUSH4 0xFFFFFFFF AND PUSH1 0xE0 SHL DUP2 MSTORE PUSH1 0x4 ADD PUSH2 0x185E SWAP4 SWAP3 SWAP2 SWAP1 PUSH2 0x1BF4 JUMP JUMPDEST PUSH1 0x20 PUSH1 0x40 MLOAD DUP1 DUP4 SUB DUP2 PUSH1 0x0 DUP8 DUP1 EXTCODESIZE ISZERO DUP1 ISZERO PUSH2 0x1878 JUMPI PUSH1 0x0 DUP1 REVERT JUMPDEST POP GAS CALL ISZERO DUP1 ISZERO PUSH2 0x188C JUMPI RETURNDATASIZE PUSH1 0x0 DUP1 RETURNDATACOPY RETURNDATASIZE PUSH1 0x0 REVERT JUMPDEST POP POP POP POP PUSH1 0x40 MLOAD RETURNDATASIZE PUSH1 0x1F NOT PUSH1 0x1F DUP3 ADD AND DUP3 ADD DUP1 PUSH1 0x40 MSTORE POP DUP2 ADD SWAP1 PUSH2 0x18B0 SWAP2 SWAP1 PUSH2 0x19EF JUMP JUMPDEST PUSH2 0x18B9 JUMPI PUSH1 0x0 DUP1 REVERT JUMPDEST PUSH1 0x2 PUSH1 0x0 SWAP1 SLOAD SWAP1 PUSH2 0x100 EXP SWAP1 DIV PUSH20 0xFFFFFFFFFFFFFFFFFFFFFFFFFFFFFFFFFFFFFFFF AND PUSH20 0xFFFFFFFFFFFFFFFFFFFFFFFFFFFFFFFFFFFFFFFF AND PUSH4 0x23B872DD ADDRESS CALLER DUP5 PUSH1 0x40 MLOAD DUP5 PUSH4 0xFFFFFFFF AND PUSH1 0xE0 SHL DUP2 MSTORE PUSH1 0x4 ADD PUSH2 0x1918 SWAP4 SWAP3 SWAP2 SWAP1 PUSH2 0x1BF4 JUMP JUMPDEST PUSH1 0x20 PUSH1 0x40 MLOAD DUP1 DUP4 SUB DUP2 PUSH1 0x0 DUP8 DUP1 EXTCODESIZE ISZERO DUP1 ISZERO PUSH2 0x1932 JUMPI PUSH1 0x0 DUP1 REVERT JUMPDEST POP GAS CALL ISZERO DUP1 ISZERO PUSH2 0x1946 JUMPI RETURNDATASIZE PUSH1 0x0 DUP1 RETURNDATACOPY RETURNDATASIZE PUSH1 0x0 REVERT JUMPDEST POP POP POP POP PUSH1 0x40 MLOAD RETURNDATASIZE PUSH1 0x1F NOT PUSH1 0x1F DUP3 ADD AND DUP3 ADD DUP1 PUSH1 0x40 MSTORE POP DUP2 ADD SWAP1 PUSH2 0x196A SWAP2 SWAP1 PUSH2 0x19EF JUMP JUMPDEST POP POP POP JUMP JUMPDEST PUSH1 0x0 PUSH1 0x4 SLOAD SWAP1 POP SWAP1 JUMP JUMPDEST PUSH1 0x0 PUSH8 0xDE0B6B3A7640000 PUSH1 0x3 SLOAD PUSH1 0x4 SLOAD PUSH1 0x3 SLOAD PUSH2 0x1997 SWAP2 SWAP1 PUSH2 0x1DD1 JUMP JUMPDEST PUSH2 0x19A1 SWAP2 SWAP1 PUSH2 0x1E27 JUMP JUMPDEST PUSH2 0x19AB SWAP2 SWAP1 PUSH2 0x1E58 JUMP JUMPDEST SWAP1 POP SWAP1 JUMP JUMPDEST PUSH1 0x0 DUP2 MLOAD SWAP1 POP PUSH2 0x19BF DUP2 PUSH2 0x2121 JUMP JUMPDEST SWAP3 SWAP2 POP POP JUMP JUMPDEST PUSH1 0x0 DUP2 CALLDATALOAD SWAP1 POP PUSH2 0x19D4 DUP2 PUSH2 0x2138 JUMP JUMPDEST SWAP3 SWAP2 POP POP JUMP JUMPDEST PUSH1 0x0 DUP2 MLOAD SWAP1 POP PUSH2 0x19E9 DUP2 PUSH2 0x2138 JUMP JUMPDEST SWAP3 SWAP2 POP POP JUMP JUMPDEST PUSH1 0x0 PUSH1 0x20 DUP3 DUP5 SUB SLT ISZERO PUSH2 0x1A05 JUMPI PUSH2 0x1A04 PUSH2 0x1FD4 JUMP JUMPDEST JUMPDEST PUSH1 0x0 PUSH2 0x1A13 DUP5 DUP3 DUP6 ADD PUSH2 0x19B0 JUMP JUMPDEST SWAP2 POP POP SWAP3 SWAP2 POP POP JUMP JUMPDEST PUSH1 0x0 PUSH1 0x20 DUP3 DUP5 SUB SLT ISZERO PUSH2 0x1A32 JUMPI PUSH2 0x1A31 PUSH2 0x1FD4 JUMP JUMPDEST JUMPDEST PUSH1 0x0 PUSH2 0x1A40 DUP5 DUP3 DUP6 ADD PUSH2 0x19C5 JUMP JUMPDEST SWAP2 POP POP SWAP3 SWAP2 POP POP JUMP JUMPDEST PUSH1 0x0 PUSH1 0x20 DUP3 DUP5 SUB SLT ISZERO PUSH2 0x1A5F JUMPI PUSH2 0x1A5E PUSH2 0x1FD4 JUMP JUMPDEST JUMPDEST PUSH1 0x0 PUSH2 0x1A6D DUP5 DUP3 DUP6 ADD PUSH2 0x19DA JUMP JUMPDEST SWAP2 POP POP SWAP3 SWAP2 POP POP JUMP JUMPDEST PUSH2 0x1A7F DUP2 PUSH2 0x1EE6 JUMP JUMPDEST DUP3 MSTORE POP POP JUMP JUMPDEST PUSH2 0x1A8E DUP2 PUSH2 0x1EF8 JUMP JUMPDEST DUP3 MSTORE POP POP JUMP JUMPDEST PUSH2 0x1A9D DUP2 PUSH2 0x1F2E JUMP JUMPDEST DUP3 MSTORE POP POP JUMP JUMPDEST PUSH2 0x1AAC DUP2 PUSH2 0x1F40 JUMP JUMPDEST DUP3 MSTORE POP POP JUMP JUMPDEST PUSH1 0x0 PUSH2 0x1ABF PUSH1 0x13 DUP4 PUSH2 0x1DC0 JUMP JUMPDEST SWAP2 POP PUSH2 0x1ACA DUP3 PUSH2 0x1FD9 JUMP JUMPDEST PUSH1 0x20 DUP3 ADD SWAP1 POP SWAP2 SWAP1 POP JUMP JUMPDEST PUSH1 0x0 PUSH2 0x1AE2 PUSH1 0x17 DUP4 PUSH2 0x1DC0 JUMP JUMPDEST SWAP2 POP PUSH2 0x1AED DUP3 PUSH2 0x2002 JUMP JUMPDEST PUSH1 0x20 DUP3 ADD SWAP1 POP SWAP2 SWAP1 POP JUMP JUMPDEST PUSH1 0x0 PUSH2 0x1B05 PUSH1 0x16 DUP4 PUSH2 0x1DC0 JUMP JUMPDEST SWAP2 POP PUSH2 0x1B10 DUP3 PUSH2 0x202B JUMP JUMPDEST PUSH1 0x20 DUP3 ADD SWAP1 POP SWAP2 SWAP1 POP JUMP JUMPDEST PUSH1 0x0 PUSH2 0x1B28 PUSH1 0x16 DUP4 PUSH2 0x1DC0 JUMP JUMPDEST SWAP2 POP PUSH2 0x1B33 DUP3 PUSH2 0x2054 JUMP JUMPDEST PUSH1 0x20 DUP3 ADD SWAP1 POP SWAP2 SWAP1 POP JUMP JUMPDEST PUSH1 0x0 PUSH2 0x1B4B PUSH1 0x1A DUP4 PUSH2 0x1DC0 JUMP JUMPDEST SWAP2 POP PUSH2 0x1B56 DUP3 PUSH2 0x207D JUMP JUMPDEST PUSH1 0x20 DUP3 ADD SWAP1 POP SWAP2 SWAP1 POP JUMP JUMPDEST PUSH1 0x0 PUSH2 0x1B6E PUSH1 0x1B DUP4 PUSH2 0x1DC0 JUMP JUMPDEST SWAP2 POP PUSH2 0x1B79 DUP3 PUSH2 0x20A6 JUMP JUMPDEST PUSH1 0x20 DUP3 ADD SWAP1 POP SWAP2 SWAP1 POP JUMP JUMPDEST PUSH1 0x0 PUSH2 0x1B91 PUSH1 0x16 DUP4 PUSH2 0x1DC0 JUMP JUMPDEST SWAP2 POP PUSH2 0x1B9C DUP3 PUSH2 0x20CF JUMP JUMPDEST PUSH1 0x20 DUP3 ADD SWAP1 POP SWAP2 SWAP1 POP JUMP JUMPDEST PUSH1 0x0 PUSH2 0x1BB4 PUSH1 0x12 DUP4 PUSH2 0x1DC0 JUMP JUMPDEST SWAP2 POP PUSH2 0x1BBF DUP3 PUSH2 0x20F8 JUMP JUMPDEST PUSH1 0x20 DUP3 ADD SWAP1 POP SWAP2 SWAP1 POP JUMP JUMPDEST PUSH2 0x1BD3 DUP2 PUSH2 0x1F24 JUMP JUMPDEST DUP3 MSTORE POP POP JUMP JUMPDEST PUSH1 0x0 PUSH1 0x20 DUP3 ADD SWAP1 POP PUSH2 0x1BEE PUSH1 0x0 DUP4 ADD DUP5 PUSH2 0x1A76 JUMP JUMPDEST SWAP3 SWAP2 POP POP JUMP JUMPDEST PUSH1 0x0 PUSH1 0x60 DUP3 ADD SWAP1 POP PUSH2 0x1C09 PUSH1 0x0 DUP4 ADD DUP7 PUSH2 0x1A76 JUMP JUMPDEST PUSH2 0x1C16 PUSH1 0x20 DUP4 ADD DUP6 PUSH2 0x1A76 JUMP JUMPDEST PUSH2 0x1C23 PUSH1 0x40 DUP4 ADD DUP5 PUSH2 0x1BCA JUMP JUMPDEST SWAP5 SWAP4 POP POP POP POP JUMP JUMPDEST PUSH1 0x0 PUSH1 0x40 DUP3 ADD SWAP1 POP PUSH2 0x1C40 PUSH1 0x0 DUP4 ADD DUP6 PUSH2 0x1A76 JUMP JUMPDEST PUSH2 0x1C4D PUSH1 0x20 DUP4 ADD DUP5 PUSH2 0x1BCA JUMP JUMPDEST SWAP4 SWAP3 POP POP POP JUMP JUMPDEST PUSH1 0x0 PUSH1 0x20 DUP3 ADD SWAP1 POP PUSH2 0x1C69 PUSH1 0x0 DUP4 ADD DUP5 PUSH2 0x1A85 JUMP JUMPDEST SWAP3 SWAP2 POP POP JUMP JUMPDEST PUSH1 0x0 PUSH1 0x20 DUP3 ADD SWAP1 POP PUSH2 0x1C84 PUSH1 0x0 DUP4 ADD DUP5 PUSH2 0x1A94 JUMP JUMPDEST SWAP3 SWAP2 POP POP JUMP JUMPDEST PUSH1 0x0 PUSH1 0x20 DUP3 ADD SWAP1 POP PUSH2 0x1C9F PUSH1 0x0 DUP4 ADD DUP5 PUSH2 0x1AA3 JUMP JUMPDEST SWAP3 SWAP2 POP POP JUMP JUMPDEST PUSH1 0x0 PUSH1 0x20 DUP3 ADD SWAP1 POP DUP2 DUP2 SUB PUSH1 0x0 DUP4 ADD MSTORE PUSH2 0x1CBE DUP2 PUSH2 0x1AB2 JUMP JUMPDEST SWAP1 POP SWAP2 SWAP1 POP JUMP JUMPDEST PUSH1 0x0 PUSH1 0x20 DUP3 ADD SWAP1 POP DUP2 DUP2 SUB PUSH1 0x0 DUP4 ADD MSTORE PUSH2 0x1CDE DUP2 PUSH2 0x1AD5 JUMP JUMPDEST SWAP1 POP SWAP2 SWAP1 POP JUMP JUMPDEST PUSH1 0x0 PUSH1 0x20 DUP3 ADD SWAP1 POP DUP2 DUP2 SUB PUSH1 0x0 DUP4 ADD MSTORE PUSH2 0x1CFE DUP2 PUSH2 0x1AF8 JUMP JUMPDEST SWAP1 POP SWAP2 SWAP1 POP JUMP JUMPDEST PUSH1 0x0 PUSH1 0x20 DUP3 ADD SWAP1 POP DUP2 DUP2 SUB PUSH1 0x0 DUP4 ADD MSTORE PUSH2 0x1D1E DUP2 PUSH2 0x1B1B JUMP JUMPDEST SWAP1 POP SWAP2 SWAP1 POP JUMP JUMPDEST PUSH1 0x0 PUSH1 0x20 DUP3 ADD SWAP1 POP DUP2 DUP2 SUB PUSH1 0x0 DUP4 ADD MSTORE PUSH2 0x1D3E DUP2 PUSH2 0x1B3E JUMP JUMPDEST SWAP1 POP SWAP2 SWAP1 POP JUMP JUMPDEST PUSH1 0x0 PUSH1 0x20 DUP3 ADD SWAP1 POP DUP2 DUP2 SUB PUSH1 0x0 DUP4 ADD MSTORE PUSH2 0x1D5E DUP2 PUSH2 0x1B61 JUMP JUMPDEST SWAP1 POP SWAP2 SWAP1 POP JUMP JUMPDEST PUSH1 0x0 PUSH1 0x20 DUP3 ADD SWAP1 POP DUP2 DUP2 SUB PUSH1 0x0 DUP4 ADD MSTORE PUSH2 0x1D7E DUP2 PUSH2 0x1B84 JUMP JUMPDEST SWAP1 POP SWAP2 SWAP1 POP JUMP JUMPDEST PUSH1 0x0 PUSH1 0x20 DUP3 ADD SWAP1 POP DUP2 DUP2 SUB PUSH1 0x0 DUP4 ADD MSTORE PUSH2 0x1D9E DUP2 PUSH2 0x1BA7 JUMP JUMPDEST SWAP1 POP SWAP2 SWAP1 POP JUMP JUMPDEST PUSH1 0x0 PUSH1 0x20 DUP3 ADD SWAP1 POP PUSH2 0x1DBA PUSH1 0x0 DUP4 ADD DUP5 PUSH2 0x1BCA JUMP JUMPDEST SWAP3 SWAP2 POP POP JUMP JUMPDEST PUSH1 0x0 DUP3 DUP3 MSTORE PUSH1 0x20 DUP3 ADD SWAP1 POP SWAP3 SWAP2 POP POP JUMP JUMPDEST PUSH1 0x0 PUSH2 0x1DDC DUP3 PUSH2 0x1F24 JUMP JUMPDEST SWAP2 POP PUSH2 0x1DE7 DUP4 PUSH2 0x1F24 JUMP JUMPDEST SWAP3 POP DUP3 PUSH32 0xFFFFFFFFFFFFFFFFFFFFFFFFFFFFFFFFFFFFFFFFFFFFFFFFFFFFFFFFFFFFFFFF SUB DUP3 GT ISZERO PUSH2 0x1E1C JUMPI PUSH2 0x1E1B PUSH2 0x1F76 JUMP JUMPDEST JUMPDEST DUP3 DUP3 ADD SWAP1 POP SWAP3 SWAP2 POP POP JUMP JUMPDEST PUSH1 0x0 PUSH2 0x1E32 DUP3 PUSH2 0x1F24 JUMP JUMPDEST SWAP2 POP PUSH2 0x1E3D DUP4 PUSH2 0x1F24 JUMP JUMPDEST SWAP3 POP DUP3 PUSH2 0x1E4D JUMPI PUSH2 0x1E4C PUSH2 0x1FA5 JUMP JUMPDEST JUMPDEST DUP3 DUP3 DIV SWAP1 POP SWAP3 SWAP2 POP POP JUMP JUMPDEST PUSH1 0x0 PUSH2 0x1E63 DUP3 PUSH2 0x1F24 JUMP JUMPDEST SWAP2 POP PUSH2 0x1E6E DUP4 PUSH2 0x1F24 JUMP JUMPDEST SWAP3 POP DUP2 PUSH32 0xFFFFFFFFFFFFFFFFFFFFFFFFFFFFFFFFFFFFFFFFFFFFFFFFFFFFFFFFFFFFFFFF DIV DUP4 GT DUP3 ISZERO ISZERO AND ISZERO PUSH2 0x1EA7 JUMPI PUSH2 0x1EA6 PUSH2 0x1F76 JUMP JUMPDEST JUMPDEST DUP3 DUP3 MUL SWAP1 POP SWAP3 SWAP2 POP POP JUMP JUMPDEST PUSH1 0x0 PUSH2 0x1EBD DUP3 PUSH2 0x1F24 JUMP JUMPDEST SWAP2 POP PUSH2 0x1EC8 DUP4 PUSH2 0x1F24 JUMP JUMPDEST SWAP3 POP DUP3 DUP3 LT ISZERO PUSH2 0x1EDB JUMPI PUSH2 0x1EDA PUSH2 0x1F76 JUMP JUMPDEST JUMPDEST DUP3 DUP3 SUB SWAP1 POP SWAP3 SWAP2 POP POP JUMP JUMPDEST PUSH1 0x0 PUSH2 0x1EF1 DUP3 PUSH2 0x1F04 JUMP JUMPDEST SWAP1 POP SWAP2 SWAP1 POP JUMP JUMPDEST PUSH1 0x0 DUP2 ISZERO ISZERO SWAP1 POP SWAP2 SWAP1 POP JUMP JUMPDEST PUSH1 0x0 PUSH20 0xFFFFFFFFFFFFFFFFFFFFFFFFFFFFFFFFFFFFFFFF DUP3 AND SWAP1 POP SWAP2 SWAP1 POP JUMP JUMPDEST PUSH1 0x0 DUP2 SWAP1 POP SWAP2 SWAP1 POP JUMP JUMPDEST PUSH1 0x0 PUSH2 0x1F39 DUP3 PUSH2 0x1F52 JUMP JUMPDEST SWAP1 POP SWAP2 SWAP1 POP JUMP JUMPDEST PUSH1 0x0 PUSH2 0x1F4B DUP3 PUSH2 0x1F52 JUMP JUMPDEST SWAP1 POP SWAP2 SWAP1 POP JUMP JUMPDEST PUSH1 0x0 PUSH2 0x1F5D DUP3 PUSH2 0x1F64 JUMP JUMPDEST SWAP1 POP SWAP2 SWAP1 POP JUMP JUMPDEST PUSH1 0x0 PUSH2 0x1F6F DUP3 PUSH2 0x1F04 JUMP JUMPDEST SWAP1 POP SWAP2 SWAP1 POP JUMP JUMPDEST PUSH32 0x4E487B7100000000000000000000000000000000000000000000000000000000 PUSH1 0x0 MSTORE PUSH1 0x11 PUSH1 0x4 MSTORE PUSH1 0x24 PUSH1 0x0 REVERT JUMPDEST PUSH32 0x4E487B7100000000000000000000000000000000000000000000000000000000 PUSH1 0x0 MSTORE PUSH1 0x12 PUSH1 0x4 MSTORE PUSH1 0x24 PUSH1 0x0 REVERT JUMPDEST PUSH1 0x0 DUP1 REVERT JUMPDEST PUSH32 0x43616C6C6572206973206E6F74206F776E657200000000000000000000000000 PUSH1 0x0 DUP3 ADD MSTORE POP JUMP JUMPDEST PUSH32 0x6E6F20656E6F75676820726563727920746F2073656C6C000000000000000000 PUSH1 0x0 DUP3 ADD MSTORE POP JUMP JUMPDEST PUSH32 0x6E6F20656E6F756768207573646320746F207377617000000000000000000000 PUSH1 0x0 DUP3 ADD MSTORE POP JUMP JUMPDEST PUSH32 0x6E6F20656E6F75676820726563727920746F2061646400000000000000000000 PUSH1 0x0 DUP3 ADD MSTORE POP JUMP JUMPDEST PUSH32 0x6E6F20656E6F756768207573646320746F207769746864726177000000000000 PUSH1 0x0 DUP3 ADD MSTORE POP JUMP JUMPDEST PUSH32 0x6E6F20656E6F75676820726563727920746F2077697468647261770000000000 PUSH1 0x0 DUP3 ADD MSTORE POP JUMP JUMPDEST PUSH32 0x6E6F20656E6F75676820726563727920746F2062757900000000000000000000 PUSH1 0x0 DUP3 ADD MSTORE POP JUMP JUMPDEST PUSH32 0x616D6F756E742063616E6E6F7420626520300000000000000000000000000000 PUSH1 0x0 DUP3 ADD MSTORE POP JUMP JUMPDEST PUSH2 0x212A DUP2 PUSH2 0x1EF8 JUMP JUMPDEST DUP2 EQ PUSH2 0x2135 JUMPI PUSH1 0x0 DUP1 REVERT JUMPDEST POP JUMP JUMPDEST PUSH2 0x2141 DUP2 PUSH2 0x1F24 JUMP JUMPDEST DUP2 EQ PUSH2 0x214C JUMPI PUSH1 0x0 DUP1 REVERT JUMPDEST POP JUMP INVALID LOG2 PUSH5 0x6970667358 0x22 SLT KECCAK256 0xC8 0xCC 0xC4 0xED SHR 0xBD PUSH11 0xE81B42FF93195DD25BE8C9 SWAP6 PC SLOAD 0xD9 0xED DIFFICULTY SWAP6 PUSH13 0x36F9BDE86F0664736F6C634300 ADDMOD SMOD STOP CALLER "
				},
				"gasEstimates": {
					"creation": {
						"codeDepositCost": "1716200",
						"executionCost": "infinite",
						"totalCost": "infinite"
					},
					"external": {
						"addProtocolGain(uint256)": "infinite",
						"addRecrySupply(uint256)": "infinite",
						"buyRecryWithUsdc(uint256)": "infinite",
						"changeProtocolGain(uint256)": "24777",
						"changeRecrySupply(uint256)": "24798",
						"getOwner()": "2611",
						"getProtocolGain()": "2547",
						"getRecryMaxAvailable()": "infinite",
						"getRecryMaxSupply()": "2504",
						"getRecryPrice()": "infinite",
						"getRecryTotalValue()": "infinite",
						"getRecryValue()": "infinite",
						"getSender()": "430",
						"getUsdcMaxAvailable()": "infinite",
						"isOwnerX()": "2550",
						"maxSupply()": "2451",
						"owner()": "2622",
						"protocolGain()": "2475",
						"recry()": "2624",
						"sellRecryForUsdc(uint256)": "infinite",
						"usdc()": "2689",
						"withdrawRecry(uint256)": "infinite",
						"withdrawUsdc(uint256)": "infinite"
					}
				},
				"methodIdentifiers": {
					"addProtocolGain(uint256)": "1ded4ad9",
					"addRecrySupply(uint256)": "4cd60eb3",
					"buyRecryWithUsdc(uint256)": "33b3c3f7",
					"changeProtocolGain(uint256)": "112ed6e2",
					"changeRecrySupply(uint256)": "4bd2f33d",
					"getOwner()": "893d20e8",
					"getProtocolGain()": "ecb9417c",
					"getRecryMaxAvailable()": "2bd160bc",
					"getRecryMaxSupply()": "7741eb92",
					"getRecryPrice()": "f1a376b6",
					"getRecryTotalValue()": "d60a904e",
					"getRecryValue()": "ddf5b66c",
					"getSender()": "5e01eb5a",
					"getUsdcMaxAvailable()": "b42ca291",
					"isOwnerX()": "27718127",
					"maxSupply()": "d5abeb01",
					"owner()": "8da5cb5b",
					"protocolGain()": "0b6e87f7",
					"recry()": "0b468779",
					"sellRecryForUsdc(uint256)": "e37398d8",
					"usdc()": "3e413bee",
					"withdrawRecry(uint256)": "10d9744f",
					"withdrawUsdc(uint256)": "5b06dece"
				}
			},
			"storageLayout": {
				"storage": [
					{
						"astId": 364,
						"contract": "Documents/GitHub/ReCrypto/src/contracts/RecryUsdcSwap.sol:RecryUsdcSwap",
						"label": "owner",
						"offset": 0,
						"slot": "0",
						"type": "t_address"
					},
					{
						"astId": 367,
						"contract": "Documents/GitHub/ReCrypto/src/contracts/RecryUsdcSwap.sol:RecryUsdcSwap",
						"label": "recry",
						"offset": 0,
						"slot": "1",
						"type": "t_contract(ReCryptoToken)358"
					},
					{
						"astId": 370,
						"contract": "Documents/GitHub/ReCrypto/src/contracts/RecryUsdcSwap.sol:RecryUsdcSwap",
						"label": "usdc",
						"offset": 0,
						"slot": "2",
						"type": "t_contract(UsdcToken)1032"
					},
					{
						"astId": 373,
						"contract": "Documents/GitHub/ReCrypto/src/contracts/RecryUsdcSwap.sol:RecryUsdcSwap",
						"label": "maxSupply",
						"offset": 0,
						"slot": "3",
						"type": "t_uint256"
					},
					{
						"astId": 376,
						"contract": "Documents/GitHub/ReCrypto/src/contracts/RecryUsdcSwap.sol:RecryUsdcSwap",
						"label": "protocolGain",
						"offset": 0,
						"slot": "4",
						"type": "t_uint256"
					}
				],
				"types": {
					"t_address": {
						"encoding": "inplace",
						"label": "address",
						"numberOfBytes": "20"
					},
					"t_contract(ReCryptoToken)358": {
						"encoding": "inplace",
						"label": "contract ReCryptoToken",
						"numberOfBytes": "20"
					},
					"t_contract(UsdcToken)1032": {
						"encoding": "inplace",
						"label": "contract UsdcToken",
						"numberOfBytes": "20"
					},
					"t_uint256": {
						"encoding": "inplace",
						"label": "uint256",
						"numberOfBytes": "32"
					}
				}
			},
			"userdoc": {
				"kind": "user",
				"methods": {},
				"version": 1
			}
		}
	}
}