{
	"Documents/GitHub/ReCrypto/src/contracts/RecryUsdcSwap.sol": {
		"RecryUsdcSwap": {
			"abi": [
				{
					"inputs": [
						{
							"internalType": "contract ReCryptoToken",
							"name": "_recry",
							"type": "address"
						},
						{
							"internalType": "contract UsdcToken",
							"name": "_usdc",
							"type": "address"
						}
					],
					"stateMutability": "nonpayable",
					"type": "constructor"
				},
				{
					"inputs": [
						{
							"internalType": "uint256",
							"name": "_amount",
							"type": "uint256"
						}
					],
					"name": "addProtocolGain",
					"outputs": [],
					"stateMutability": "nonpayable",
					"type": "function"
				},
				{
					"inputs": [
						{
							"internalType": "uint256",
							"name": "_amount",
							"type": "uint256"
						}
					],
					"name": "addRecrySupply",
					"outputs": [],
					"stateMutability": "payable",
					"type": "function"
				},
				{
					"inputs": [
						{
							"internalType": "uint256",
							"name": "_amount",
							"type": "uint256"
						}
					],
					"name": "buyRecryWithUsdc",
					"outputs": [],
					"stateMutability": "payable",
					"type": "function"
				},
				{
					"inputs": [
						{
							"internalType": "uint256",
							"name": "_amount",
							"type": "uint256"
						}
					],
					"name": "changeProtocolGain",
					"outputs": [],
					"stateMutability": "nonpayable",
					"type": "function"
				},
				{
					"inputs": [
						{
							"internalType": "uint256",
							"name": "_amount",
							"type": "uint256"
						}
					],
					"name": "changeRecrySupply",
					"outputs": [],
					"stateMutability": "nonpayable",
					"type": "function"
				},
				{
					"inputs": [],
					"name": "getOwner",
					"outputs": [
						{
							"internalType": "address",
							"name": "_value",
							"type": "address"
						}
					],
					"stateMutability": "view",
					"type": "function"
				},
				{
					"inputs": [],
					"name": "getProtocolGain",
					"outputs": [
						{
							"internalType": "uint256",
							"name": "_value",
							"type": "uint256"
						}
					],
					"stateMutability": "view",
					"type": "function"
				},
				{
					"inputs": [],
					"name": "getRecryMaxAvailable",
					"outputs": [
						{
							"internalType": "uint256",
							"name": "_value",
							"type": "uint256"
						}
					],
					"stateMutability": "view",
					"type": "function"
				},
				{
					"inputs": [],
					"name": "getRecryMaxSupply",
					"outputs": [
						{
							"internalType": "uint256",
							"name": "_value",
							"type": "uint256"
						}
					],
					"stateMutability": "view",
					"type": "function"
				},
				{
					"inputs": [],
					"name": "getRecryPrice",
					"outputs": [
						{
							"internalType": "uint256",
							"name": "_value",
							"type": "uint256"
						}
					],
					"stateMutability": "view",
					"type": "function"
				},
				{
					"inputs": [],
					"name": "getRecryTotalValue",
					"outputs": [
						{
							"internalType": "uint256",
							"name": "_value",
							"type": "uint256"
						}
					],
					"stateMutability": "view",
					"type": "function"
				},
				{
					"inputs": [],
					"name": "getRecryValue",
					"outputs": [
						{
							"internalType": "uint256",
							"name": "_value",
							"type": "uint256"
						}
					],
					"stateMutability": "view",
					"type": "function"
				},
				{
					"inputs": [],
					"name": "getSender",
					"outputs": [
						{
							"internalType": "address",
							"name": "_value",
							"type": "address"
						}
					],
					"stateMutability": "view",
					"type": "function"
				},
				{
					"inputs": [],
					"name": "getUsdcMaxAvailable",
					"outputs": [
						{
							"internalType": "uint256",
							"name": "_value",
							"type": "uint256"
						}
					],
					"stateMutability": "view",
					"type": "function"
				},
				{
					"inputs": [],
					"name": "isOwnerX",
					"outputs": [
						{
							"internalType": "bool",
							"name": "_value",
							"type": "bool"
						}
					],
					"stateMutability": "view",
					"type": "function"
				},
				{
					"inputs": [],
					"name": "maxSupply",
					"outputs": [
						{
							"internalType": "uint256",
							"name": "",
							"type": "uint256"
						}
					],
					"stateMutability": "view",
					"type": "function"
				},
				{
					"inputs": [],
					"name": "owner",
					"outputs": [
						{
							"internalType": "address",
							"name": "",
							"type": "address"
						}
					],
					"stateMutability": "view",
					"type": "function"
				},
				{
					"inputs": [],
					"name": "protocolGain",
					"outputs": [
						{
							"internalType": "uint256",
							"name": "",
							"type": "uint256"
						}
					],
					"stateMutability": "view",
					"type": "function"
				},
				{
					"inputs": [],
					"name": "recry",
					"outputs": [
						{
							"internalType": "contract ReCryptoToken",
							"name": "",
							"type": "address"
						}
					],
					"stateMutability": "view",
					"type": "function"
				},
				{
					"inputs": [
						{
							"internalType": "uint256",
							"name": "_amount",
							"type": "uint256"
						}
					],
					"name": "sellRecryForUsdc",
					"outputs": [],
					"stateMutability": "payable",
					"type": "function"
				},
				{
					"inputs": [],
					"name": "usdc",
					"outputs": [
						{
							"internalType": "contract UsdcToken",
							"name": "",
							"type": "address"
						}
					],
					"stateMutability": "view",
					"type": "function"
				},
				{
					"inputs": [
						{
							"internalType": "uint256",
							"name": "_amount",
							"type": "uint256"
						}
					],
					"name": "withdrawRecry",
					"outputs": [],
					"stateMutability": "payable",
					"type": "function"
				},
				{
					"inputs": [
						{
							"internalType": "uint256",
							"name": "_amount",
							"type": "uint256"
						}
					],
					"name": "withdrawUsdc",
					"outputs": [],
					"stateMutability": "payable",
					"type": "function"
				}
			],
			"devdoc": {
				"kind": "dev",
				"methods": {},
				"version": 1
			},
			"evm": {
				"assembly": "    /* \"Documents/GitHub/ReCrypto/src/contracts/RecryUsdcSwap.sol\":120:4963  contract RecryUsdcSwap {\r... */\n  mstore(0x40, 0x80)\n    /* \"Documents/GitHub/ReCrypto/src/contracts/RecryUsdcSwap.sol\":267:268  0 */\n  0x00\n    /* \"Documents/GitHub/ReCrypto/src/contracts/RecryUsdcSwap.sol\":240:268  uint public maxSupply    = 0 */\n  0x03\n  sstore\n    /* \"Documents/GitHub/ReCrypto/src/contracts/RecryUsdcSwap.sol\":338:339  0 */\n  0x00\n    /* \"Documents/GitHub/ReCrypto/src/contracts/RecryUsdcSwap.sol\":311:339  uint public protocolGain = 0 */\n  0x04\n  sstore\n    /* \"Documents/GitHub/ReCrypto/src/contracts/RecryUsdcSwap.sol\":364:500  constructor(ReCryptoToken _recry, UsdcToken _usdc) {\r... */\n  callvalue\n  dup1\n  iszero\n  tag_1\n  jumpi\n  0x00\n  dup1\n  revert\ntag_1:\n  pop\n  mload(0x40)\n  sub(codesize, bytecodeSize)\n  dup1\n  bytecodeSize\n  dup4\n  codecopy\n  dup2\n  dup2\n  add\n  0x40\n  mstore\n  dup2\n  add\n  swap1\n  tag_2\n  swap2\n  swap1\n  tag_3\n  jump\t// in\ntag_2:\n    /* \"Documents/GitHub/ReCrypto/src/contracts/RecryUsdcSwap.sol\":434:440  _recry */\n  dup2\n    /* \"Documents/GitHub/ReCrypto/src/contracts/RecryUsdcSwap.sol\":426:431  recry */\n  0x01\n  0x00\n    /* \"Documents/GitHub/ReCrypto/src/contracts/RecryUsdcSwap.sol\":426:440  recry = _recry */\n  0x0100\n  exp\n  dup2\n  sload\n  dup2\n  0xffffffffffffffffffffffffffffffffffffffff\n  mul\n  not\n  and\n  swap1\n  dup4\n  0xffffffffffffffffffffffffffffffffffffffff\n  and\n  mul\n  or\n  swap1\n  sstore\n  pop\n    /* \"Documents/GitHub/ReCrypto/src/contracts/RecryUsdcSwap.sol\":458:463  _usdc */\n  dup1\n    /* \"Documents/GitHub/ReCrypto/src/contracts/RecryUsdcSwap.sol\":451:455  usdc */\n  0x02\n  0x00\n    /* \"Documents/GitHub/ReCrypto/src/contracts/RecryUsdcSwap.sol\":451:463  usdc = _usdc */\n  0x0100\n  exp\n  dup2\n  sload\n  dup2\n  0xffffffffffffffffffffffffffffffffffffffff\n  mul\n  not\n  and\n  swap1\n  dup4\n  0xffffffffffffffffffffffffffffffffffffffff\n  and\n  mul\n  or\n  swap1\n  sstore\n  pop\n    /* \"Documents/GitHub/ReCrypto/src/contracts/RecryUsdcSwap.sol\":482:492  msg.sender */\n  caller\n    /* \"Documents/GitHub/ReCrypto/src/contracts/RecryUsdcSwap.sol\":474:479  owner */\n  0x00\n  dup1\n    /* \"Documents/GitHub/ReCrypto/src/contracts/RecryUsdcSwap.sol\":474:492  owner = msg.sender */\n  0x0100\n  exp\n  dup2\n  sload\n  dup2\n  0xffffffffffffffffffffffffffffffffffffffff\n  mul\n  not\n  and\n  swap1\n  dup4\n  0xffffffffffffffffffffffffffffffffffffffff\n  and\n  mul\n  or\n  swap1\n  sstore\n  pop\n    /* \"Documents/GitHub/ReCrypto/src/contracts/RecryUsdcSwap.sol\":364:500  constructor(ReCryptoToken _recry, UsdcToken _usdc) {\r... */\n  pop\n  pop\n    /* \"Documents/GitHub/ReCrypto/src/contracts/RecryUsdcSwap.sol\":120:4963  contract RecryUsdcSwap {\r... */\n  jump(tag_6)\n    /* \"#utility.yul\":7:192   */\ntag_8:\n    /* \"#utility.yul\":85:90   */\n  0x00\n    /* \"#utility.yul\":116:122   */\n  dup2\n    /* \"#utility.yul\":110:123   */\n  mload\n    /* \"#utility.yul\":101:123   */\n  swap1\n  pop\n    /* \"#utility.yul\":132:186   */\n  tag_10\n    /* \"#utility.yul\":180:185   */\n  dup2\n    /* \"#utility.yul\":132:186   */\n  tag_11\n  jump\t// in\ntag_10:\n    /* \"#utility.yul\":7:192   */\n  swap3\n  swap2\n  pop\n  pop\n  jump\t// out\n    /* \"#utility.yul\":198:377   */\ntag_12:\n    /* \"#utility.yul\":273:278   */\n  0x00\n    /* \"#utility.yul\":304:310   */\n  dup2\n    /* \"#utility.yul\":298:311   */\n  mload\n    /* \"#utility.yul\":289:311   */\n  swap1\n  pop\n    /* \"#utility.yul\":320:371   */\n  tag_14\n    /* \"#utility.yul\":365:370   */\n  dup2\n    /* \"#utility.yul\":320:371   */\n  tag_15\n  jump\t// in\ntag_14:\n    /* \"#utility.yul\":198:377   */\n  swap3\n  swap2\n  pop\n  pop\n  jump\t// out\n    /* \"#utility.yul\":383:968   */\ntag_3:\n    /* \"#utility.yul\":501:507   */\n  0x00\n    /* \"#utility.yul\":509:515   */\n  dup1\n    /* \"#utility.yul\":558:560   */\n  0x40\n    /* \"#utility.yul\":546:555   */\n  dup4\n    /* \"#utility.yul\":537:544   */\n  dup6\n    /* \"#utility.yul\":533:556   */\n  sub\n    /* \"#utility.yul\":529:561   */\n  slt\n    /* \"#utility.yul\":526:645   */\n  iszero\n  tag_17\n  jumpi\n    /* \"#utility.yul\":564:643   */\n  tag_18\n  tag_19\n  jump\t// in\ntag_18:\n    /* \"#utility.yul\":526:645   */\ntag_17:\n    /* \"#utility.yul\":684:685   */\n  0x00\n    /* \"#utility.yul\":709:794   */\n  tag_20\n    /* \"#utility.yul\":786:793   */\n  dup6\n    /* \"#utility.yul\":777:783   */\n  dup3\n    /* \"#utility.yul\":766:775   */\n  dup7\n    /* \"#utility.yul\":762:784   */\n  add\n    /* \"#utility.yul\":709:794   */\n  tag_8\n  jump\t// in\ntag_20:\n    /* \"#utility.yul\":699:794   */\n  swap3\n  pop\n    /* \"#utility.yul\":655:804   */\n  pop\n    /* \"#utility.yul\":843:845   */\n  0x20\n    /* \"#utility.yul\":869:951   */\n  tag_21\n    /* \"#utility.yul\":943:950   */\n  dup6\n    /* \"#utility.yul\":934:940   */\n  dup3\n    /* \"#utility.yul\":923:932   */\n  dup7\n    /* \"#utility.yul\":919:941   */\n  add\n    /* \"#utility.yul\":869:951   */\n  tag_12\n  jump\t// in\ntag_21:\n    /* \"#utility.yul\":859:951   */\n  swap2\n  pop\n    /* \"#utility.yul\":814:961   */\n  pop\n    /* \"#utility.yul\":383:968   */\n  swap3\n  pop\n  swap3\n  swap1\n  pop\n  jump\t// out\n    /* \"#utility.yul\":1055:1151   */\ntag_24:\n    /* \"#utility.yul\":1092:1099   */\n  0x00\n    /* \"#utility.yul\":1121:1145   */\n  tag_26\n    /* \"#utility.yul\":1139:1144   */\n  dup3\n    /* \"#utility.yul\":1121:1145   */\n  tag_27\n  jump\t// in\ntag_26:\n    /* \"#utility.yul\":1110:1145   */\n  swap1\n  pop\n    /* \"#utility.yul\":1055:1151   */\n  swap2\n  swap1\n  pop\n  jump\t// out\n    /* \"#utility.yul\":1157:1274   */\ntag_28:\n    /* \"#utility.yul\":1215:1222   */\n  0x00\n    /* \"#utility.yul\":1244:1268   */\n  tag_30\n    /* \"#utility.yul\":1262:1267   */\n  dup3\n    /* \"#utility.yul\":1244:1268   */\n  tag_24\n  jump\t// in\ntag_30:\n    /* \"#utility.yul\":1233:1268   */\n  swap1\n  pop\n    /* \"#utility.yul\":1157:1274   */\n  swap2\n  swap1\n  pop\n  jump\t// out\n    /* \"#utility.yul\":1280:1394   */\ntag_31:\n    /* \"#utility.yul\":1335:1342   */\n  0x00\n    /* \"#utility.yul\":1364:1388   */\n  tag_33\n    /* \"#utility.yul\":1382:1387   */\n  dup3\n    /* \"#utility.yul\":1364:1388   */\n  tag_24\n  jump\t// in\ntag_33:\n    /* \"#utility.yul\":1353:1388   */\n  swap1\n  pop\n    /* \"#utility.yul\":1280:1394   */\n  swap2\n  swap1\n  pop\n  jump\t// out\n    /* \"#utility.yul\":1400:1526   */\ntag_27:\n    /* \"#utility.yul\":1437:1444   */\n  0x00\n    /* \"#utility.yul\":1477:1519   */\n  0xffffffffffffffffffffffffffffffffffffffff\n    /* \"#utility.yul\":1470:1475   */\n  dup3\n    /* \"#utility.yul\":1466:1520   */\n  and\n    /* \"#utility.yul\":1455:1520   */\n  swap1\n  pop\n    /* \"#utility.yul\":1400:1526   */\n  swap2\n  swap1\n  pop\n  jump\t// out\n    /* \"#utility.yul\":1655:1772   */\ntag_19:\n    /* \"#utility.yul\":1764:1765   */\n  0x00\n    /* \"#utility.yul\":1761:1762   */\n  dup1\n    /* \"#utility.yul\":1754:1766   */\n  revert\n    /* \"#utility.yul\":1778:1942   */\ntag_11:\n    /* \"#utility.yul\":1872:1917   */\n  tag_39\n    /* \"#utility.yul\":1911:1916   */\n  dup2\n    /* \"#utility.yul\":1872:1917   */\n  tag_28\n  jump\t// in\ntag_39:\n    /* \"#utility.yul\":1865:1870   */\n  dup2\n    /* \"#utility.yul\":1862:1918   */\n  eq\n    /* \"#utility.yul\":1852:1936   */\n  tag_40\n  jumpi\n    /* \"#utility.yul\":1932:1933   */\n  0x00\n    /* \"#utility.yul\":1929:1930   */\n  dup1\n    /* \"#utility.yul\":1922:1934   */\n  revert\n    /* \"#utility.yul\":1852:1936   */\ntag_40:\n    /* \"#utility.yul\":1778:1942   */\n  pop\n  jump\t// out\n    /* \"#utility.yul\":1948:2106   */\ntag_15:\n    /* \"#utility.yul\":2039:2081   */\n  tag_42\n    /* \"#utility.yul\":2075:2080   */\n  dup2\n    /* \"#utility.yul\":2039:2081   */\n  tag_31\n  jump\t// in\ntag_42:\n    /* \"#utility.yul\":2032:2037   */\n  dup2\n    /* \"#utility.yul\":2029:2082   */\n  eq\n    /* \"#utility.yul\":2019:2100   */\n  tag_43\n  jumpi\n    /* \"#utility.yul\":2096:2097   */\n  0x00\n    /* \"#utility.yul\":2093:2094   */\n  dup1\n    /* \"#utility.yul\":2086:2098   */\n  revert\n    /* \"#utility.yul\":2019:2100   */\ntag_43:\n    /* \"#utility.yul\":1948:2106   */\n  pop\n  jump\t// out\n    /* \"Documents/GitHub/ReCrypto/src/contracts/RecryUsdcSwap.sol\":120:4963  contract RecryUsdcSwap {\r... */\ntag_6:\n  dataSize(sub_0)\n  dup1\n  dataOffset(sub_0)\n  0x00\n  codecopy\n  0x00\n  return\nstop\n\nsub_0: assembly {\n        /* \"Documents/GitHub/ReCrypto/src/contracts/RecryUsdcSwap.sol\":120:4963  contract RecryUsdcSwap {\r... */\n      mstore(0x40, 0x80)\n      jumpi(tag_1, lt(calldatasize, 0x04))\n      shr(0xe0, calldataload(0x00))\n      dup1\n      0x5b06dece\n      gt\n      tag_25\n      jumpi\n      dup1\n      0xd5abeb01\n      gt\n      tag_26\n      jumpi\n      dup1\n      0xd5abeb01\n      eq\n      tag_19\n      jumpi\n      dup1\n      0xd60a904e\n      eq\n      tag_20\n      jumpi\n      dup1\n      0xddf5b66c\n      eq\n      tag_21\n      jumpi\n      dup1\n      0xe37398d8\n      eq\n      tag_22\n      jumpi\n      dup1\n      0xecb9417c\n      eq\n      tag_23\n      jumpi\n      dup1\n      0xf1a376b6\n      eq\n      tag_24\n      jumpi\n      jump(tag_1)\n    tag_26:\n      dup1\n      0x5b06dece\n      eq\n      tag_13\n      jumpi\n      dup1\n      0x5e01eb5a\n      eq\n      tag_14\n      jumpi\n      dup1\n      0x7741eb92\n      eq\n      tag_15\n      jumpi\n      dup1\n      0x893d20e8\n      eq\n      tag_16\n      jumpi\n      dup1\n      0x8da5cb5b\n      eq\n      tag_17\n      jumpi\n      dup1\n      0xb42ca291\n      eq\n      tag_18\n      jumpi\n      jump(tag_1)\n    tag_25:\n      dup1\n      0x27718127\n      gt\n      tag_27\n      jumpi\n      dup1\n      0x27718127\n      eq\n      tag_7\n      jumpi\n      dup1\n      0x2bd160bc\n      eq\n      tag_8\n      jumpi\n      dup1\n      0x33b3c3f7\n      eq\n      tag_9\n      jumpi\n      dup1\n      0x3e413bee\n      eq\n      tag_10\n      jumpi\n      dup1\n      0x4bd2f33d\n      eq\n      tag_11\n      jumpi\n      dup1\n      0x4cd60eb3\n      eq\n      tag_12\n      jumpi\n      jump(tag_1)\n    tag_27:\n      dup1\n      0x0b468779\n      eq\n      tag_2\n      jumpi\n      dup1\n      0x0b6e87f7\n      eq\n      tag_3\n      jumpi\n      dup1\n      0x10d9744f\n      eq\n      tag_4\n      jumpi\n      dup1\n      0x112ed6e2\n      eq\n      tag_5\n      jumpi\n      dup1\n      0x1ded4ad9\n      eq\n      tag_6\n      jumpi\n    tag_1:\n      0x00\n      dup1\n      revert\n        /* \"Documents/GitHub/ReCrypto/src/contracts/RecryUsdcSwap.sol\":177:203  ReCryptoToken public recry */\n    tag_2:\n      callvalue\n      dup1\n      iszero\n      tag_28\n      jumpi\n      0x00\n      dup1\n      revert\n    tag_28:\n      pop\n      tag_29\n      tag_30\n      jump\t// in\n    tag_29:\n      mload(0x40)\n      tag_31\n      swap2\n      swap1\n      tag_32\n      jump\t// in\n    tag_31:\n      mload(0x40)\n      dup1\n      swap2\n      sub\n      swap1\n      return\n        /* \"Documents/GitHub/ReCrypto/src/contracts/RecryUsdcSwap.sol\":311:339  uint public protocolGain = 0 */\n    tag_3:\n      callvalue\n      dup1\n      iszero\n      tag_33\n      jumpi\n      0x00\n      dup1\n      revert\n    tag_33:\n      pop\n      tag_34\n      tag_35\n      jump\t// in\n    tag_34:\n      mload(0x40)\n      tag_36\n      swap2\n      swap1\n      tag_37\n      jump\t// in\n    tag_36:\n      mload(0x40)\n      dup1\n      swap2\n      sub\n      swap1\n      return\n        /* \"Documents/GitHub/ReCrypto/src/contracts/RecryUsdcSwap.sol\":1455:1682  function withdrawRecry(uint _amount) public payable isOwner{\r... */\n    tag_4:\n      tag_38\n      0x04\n      dup1\n      calldatasize\n      sub\n      dup2\n      add\n      swap1\n      tag_39\n      swap2\n      swap1\n      tag_40\n      jump\t// in\n    tag_39:\n      tag_41\n      jump\t// in\n    tag_38:\n      stop\n        /* \"Documents/GitHub/ReCrypto/src/contracts/RecryUsdcSwap.sol\":1113:1212  function changeProtocolGain(uint _amount) public isOwner {\r... */\n    tag_5:\n      callvalue\n      dup1\n      iszero\n      tag_42\n      jumpi\n      0x00\n      dup1\n      revert\n    tag_42:\n      pop\n      tag_43\n      0x04\n      dup1\n      calldatasize\n      sub\n      dup2\n      add\n      swap1\n      tag_44\n      swap2\n      swap1\n      tag_40\n      jump\t// in\n    tag_44:\n      tag_45\n      jump\t// in\n    tag_43:\n      stop\n        /* \"Documents/GitHub/ReCrypto/src/contracts/RecryUsdcSwap.sol\":995:1105  function addProtocolGain(uint _amount) public isOwner {\r... */\n    tag_6:\n      callvalue\n      dup1\n      iszero\n      tag_46\n      jumpi\n      0x00\n      dup1\n      revert\n    tag_46:\n      pop\n      tag_47\n      0x04\n      dup1\n      calldatasize\n      sub\n      dup2\n      add\n      swap1\n      tag_48\n      swap2\n      swap1\n      tag_40\n      jump\t// in\n    tag_48:\n      tag_49\n      jump\t// in\n    tag_47:\n      stop\n        /* \"Documents/GitHub/ReCrypto/src/contracts/RecryUsdcSwap.sol\":2661:2904  function isOwnerX() public view returns(bool _value)\r... */\n    tag_7:\n      callvalue\n      dup1\n      iszero\n      tag_50\n      jumpi\n      0x00\n      dup1\n      revert\n    tag_50:\n      pop\n      tag_51\n      tag_52\n      jump\t// in\n    tag_51:\n      mload(0x40)\n      tag_53\n      swap2\n      swap1\n      tag_54\n      jump\t// in\n    tag_53:\n      mload(0x40)\n      dup1\n      swap2\n      sub\n      swap1\n      return\n        /* \"Documents/GitHub/ReCrypto/src/contracts/RecryUsdcSwap.sol\":2272:2402  function getRecryMaxAvailable() public view returns(uint _value)\r... */\n    tag_8:\n      callvalue\n      dup1\n      iszero\n      tag_55\n      jumpi\n      0x00\n      dup1\n      revert\n    tag_55:\n      pop\n      tag_56\n      tag_57\n      jump\t// in\n    tag_56:\n      mload(0x40)\n      tag_58\n      swap2\n      swap1\n      tag_37\n      jump\t// in\n    tag_58:\n      mload(0x40)\n      dup1\n      swap2\n      sub\n      swap1\n      return\n        /* \"Documents/GitHub/ReCrypto/src/contracts/RecryUsdcSwap.sol\":3122:4320  function buyRecryWithUsdc(uint _amount) public payable{\r... */\n    tag_9:\n      tag_59\n      0x04\n      dup1\n      calldatasize\n      sub\n      dup2\n      add\n      swap1\n      tag_60\n      swap2\n      swap1\n      tag_40\n      jump\t// in\n    tag_60:\n      tag_61\n      jump\t// in\n    tag_59:\n      stop\n        /* \"Documents/GitHub/ReCrypto/src/contracts/RecryUsdcSwap.sol\":210:231  UsdcToken public usdc */\n    tag_10:\n      callvalue\n      dup1\n      iszero\n      tag_62\n      jumpi\n      0x00\n      dup1\n      revert\n    tag_62:\n      pop\n      tag_63\n      tag_64\n      jump\t// in\n    tag_63:\n      mload(0x40)\n      tag_65\n      swap2\n      swap1\n      tag_66\n      jump\t// in\n    tag_65:\n      mload(0x40)\n      dup1\n      swap2\n      sub\n      swap1\n      return\n        /* \"Documents/GitHub/ReCrypto/src/contracts/RecryUsdcSwap.sol\":893:987  function changeRecrySupply(uint _amount) public isOwner {\r... */\n    tag_11:\n      callvalue\n      dup1\n      iszero\n      tag_67\n      jumpi\n      0x00\n      dup1\n      revert\n    tag_67:\n      pop\n      tag_68\n      0x04\n      dup1\n      calldatasize\n      sub\n      dup2\n      add\n      swap1\n      tag_69\n      swap2\n      swap1\n      tag_40\n      jump\t// in\n    tag_69:\n      tag_70\n      jump\t// in\n    tag_68:\n      stop\n        /* \"Documents/GitHub/ReCrypto/src/contracts/RecryUsdcSwap.sol\":615:885  function addRecrySupply(uint _amount) public payable isOwner {\r... */\n    tag_12:\n      tag_71\n      0x04\n      dup1\n      calldatasize\n      sub\n      dup2\n      add\n      swap1\n      tag_72\n      swap2\n      swap1\n      tag_40\n      jump\t// in\n    tag_72:\n      tag_73\n      jump\t// in\n    tag_71:\n      stop\n        /* \"Documents/GitHub/ReCrypto/src/contracts/RecryUsdcSwap.sol\":1224:1447  function withdrawUsdc(uint _amount) public payable isOwner{\r... */\n    tag_13:\n      tag_74\n      0x04\n      dup1\n      calldatasize\n      sub\n      dup2\n      add\n      swap1\n      tag_75\n      swap2\n      swap1\n      tag_40\n      jump\t// in\n    tag_75:\n      tag_76\n      jump\t// in\n    tag_74:\n      stop\n        /* \"Documents/GitHub/ReCrypto/src/contracts/RecryUsdcSwap.sol\":2910:3012  function getSender() public view returns(address _value)\r... */\n    tag_14:\n      callvalue\n      dup1\n      iszero\n      tag_77\n      jumpi\n      0x00\n      dup1\n      revert\n    tag_77:\n      pop\n      tag_78\n      tag_79\n      jump\t// in\n    tag_78:\n      mload(0x40)\n      tag_80\n      swap2\n      swap1\n      tag_81\n      jump\t// in\n    tag_80:\n      mload(0x40)\n      dup1\n      swap2\n      sub\n      swap1\n      return\n        /* \"Documents/GitHub/ReCrypto/src/contracts/RecryUsdcSwap.sol\":2158:2264  function getRecryMaxSupply() public view returns(uint _value)\r... */\n    tag_15:\n      callvalue\n      dup1\n      iszero\n      tag_82\n      jumpi\n      0x00\n      dup1\n      revert\n    tag_82:\n      pop\n      tag_83\n      tag_84\n      jump\t// in\n    tag_83:\n      mload(0x40)\n      tag_85\n      swap2\n      swap1\n      tag_37\n      jump\t// in\n    tag_85:\n      mload(0x40)\n      dup1\n      swap2\n      sub\n      swap1\n      return\n        /* \"Documents/GitHub/ReCrypto/src/contracts/RecryUsdcSwap.sol\":3018:3114  function getOwner() public view returns(address _value)\r... */\n    tag_16:\n      callvalue\n      dup1\n      iszero\n      tag_86\n      jumpi\n      0x00\n      dup1\n      revert\n    tag_86:\n      pop\n      tag_87\n      tag_88\n      jump\t// in\n    tag_87:\n      mload(0x40)\n      tag_89\n      swap2\n      swap1\n      tag_81\n      jump\t// in\n    tag_89:\n      mload(0x40)\n      dup1\n      swap2\n      sub\n      swap1\n      return\n        /* \"Documents/GitHub/ReCrypto/src/contracts/RecryUsdcSwap.sol\":150:170  address public owner */\n    tag_17:\n      callvalue\n      dup1\n      iszero\n      tag_90\n      jumpi\n      0x00\n      dup1\n      revert\n    tag_90:\n      pop\n      tag_91\n      tag_92\n      jump\t// in\n    tag_91:\n      mload(0x40)\n      tag_93\n      swap2\n      swap1\n      tag_81\n      jump\t// in\n    tag_93:\n      mload(0x40)\n      dup1\n      swap2\n      sub\n      swap1\n      return\n        /* \"Documents/GitHub/ReCrypto/src/contracts/RecryUsdcSwap.sol\":2410:2538  function getUsdcMaxAvailable() public view returns(uint _value)\r... */\n    tag_18:\n      callvalue\n      dup1\n      iszero\n      tag_94\n      jumpi\n      0x00\n      dup1\n      revert\n    tag_94:\n      pop\n      tag_95\n      tag_96\n      jump\t// in\n    tag_95:\n      mload(0x40)\n      tag_97\n      swap2\n      swap1\n      tag_37\n      jump\t// in\n    tag_97:\n      mload(0x40)\n      dup1\n      swap2\n      sub\n      swap1\n      return\n        /* \"Documents/GitHub/ReCrypto/src/contracts/RecryUsdcSwap.sol\":240:268  uint public maxSupply    = 0 */\n    tag_19:\n      callvalue\n      dup1\n      iszero\n      tag_98\n      jumpi\n      0x00\n      dup1\n      revert\n    tag_98:\n      pop\n      tag_99\n      tag_100\n      jump\t// in\n    tag_99:\n      mload(0x40)\n      tag_101\n      swap2\n      swap1\n      tag_37\n      jump\t// in\n    tag_101:\n      mload(0x40)\n      dup1\n      swap2\n      sub\n      swap1\n      return\n        /* \"Documents/GitHub/ReCrypto/src/contracts/RecryUsdcSwap.sol\":1998:2150  function getRecryTotalValue() public view returns(uint _value)\r... */\n    tag_20:\n      callvalue\n      dup1\n      iszero\n      tag_102\n      jumpi\n      0x00\n      dup1\n      revert\n    tag_102:\n      pop\n      tag_103\n      tag_104\n      jump\t// in\n    tag_103:\n      mload(0x40)\n      tag_105\n      swap2\n      swap1\n      tag_37\n      jump\t// in\n    tag_105:\n      mload(0x40)\n      dup1\n      swap2\n      sub\n      swap1\n      return\n        /* \"Documents/GitHub/ReCrypto/src/contracts/RecryUsdcSwap.sol\":1690:1828  function getRecryValue() public view returns(uint _value)\r... */\n    tag_21:\n      callvalue\n      dup1\n      iszero\n      tag_106\n      jumpi\n      0x00\n      dup1\n      revert\n    tag_106:\n      pop\n      tag_107\n      tag_108\n      jump\t// in\n    tag_107:\n      mload(0x40)\n      tag_109\n      swap2\n      swap1\n      tag_37\n      jump\t// in\n    tag_109:\n      mload(0x40)\n      dup1\n      swap2\n      sub\n      swap1\n      return\n        /* \"Documents/GitHub/ReCrypto/src/contracts/RecryUsdcSwap.sol\":4328:4956  function sellRecryForUsdc(uint _amount) public payable{\r... */\n    tag_22:\n      tag_110\n      0x04\n      dup1\n      calldatasize\n      sub\n      dup2\n      add\n      swap1\n      tag_111\n      swap2\n      swap1\n      tag_40\n      jump\t// in\n    tag_111:\n      tag_112\n      jump\t// in\n    tag_110:\n      stop\n        /* \"Documents/GitHub/ReCrypto/src/contracts/RecryUsdcSwap.sol\":2546:2653  function getProtocolGain() public view returns(uint _value)\r... */\n    tag_23:\n      callvalue\n      dup1\n      iszero\n      tag_113\n      jumpi\n      0x00\n      dup1\n      revert\n    tag_113:\n      pop\n      tag_114\n      tag_115\n      jump\t// in\n    tag_114:\n      mload(0x40)\n      tag_116\n      swap2\n      swap1\n      tag_37\n      jump\t// in\n    tag_116:\n      mload(0x40)\n      dup1\n      swap2\n      sub\n      swap1\n      return\n        /* \"Documents/GitHub/ReCrypto/src/contracts/RecryUsdcSwap.sol\":1834:1992  function getRecryPrice() public view returns(uint _value)\r... */\n    tag_24:\n      callvalue\n      dup1\n      iszero\n      tag_117\n      jumpi\n      0x00\n      dup1\n      revert\n    tag_117:\n      pop\n      tag_118\n      tag_119\n      jump\t// in\n    tag_118:\n      mload(0x40)\n      tag_120\n      swap2\n      swap1\n      tag_37\n      jump\t// in\n    tag_120:\n      mload(0x40)\n      dup1\n      swap2\n      sub\n      swap1\n      return\n        /* \"Documents/GitHub/ReCrypto/src/contracts/RecryUsdcSwap.sol\":177:203  ReCryptoToken public recry */\n    tag_30:\n      0x01\n      0x00\n      swap1\n      sload\n      swap1\n      0x0100\n      exp\n      swap1\n      div\n      0xffffffffffffffffffffffffffffffffffffffff\n      and\n      dup2\n      jump\t// out\n        /* \"Documents/GitHub/ReCrypto/src/contracts/RecryUsdcSwap.sol\":311:339  uint public protocolGain = 0 */\n    tag_35:\n      sload(0x04)\n      dup2\n      jump\t// out\n        /* \"Documents/GitHub/ReCrypto/src/contracts/RecryUsdcSwap.sol\":1455:1682  function withdrawRecry(uint _amount) public payable isOwner{\r... */\n    tag_41:\n        /* \"Documents/GitHub/ReCrypto/src/contracts/RecryUsdcSwap.sol\":558:563  owner */\n      0x00\n      dup1\n      sload\n      swap1\n      0x0100\n      exp\n      swap1\n      div\n      0xffffffffffffffffffffffffffffffffffffffff\n      and\n        /* \"Documents/GitHub/ReCrypto/src/contracts/RecryUsdcSwap.sol\":544:563  msg.sender == owner */\n      0xffffffffffffffffffffffffffffffffffffffff\n      and\n        /* \"Documents/GitHub/ReCrypto/src/contracts/RecryUsdcSwap.sol\":544:554  msg.sender */\n      caller\n        /* \"Documents/GitHub/ReCrypto/src/contracts/RecryUsdcSwap.sol\":544:563  msg.sender == owner */\n      0xffffffffffffffffffffffffffffffffffffffff\n      and\n      eq\n        /* \"Documents/GitHub/ReCrypto/src/contracts/RecryUsdcSwap.sol\":536:587  require(msg.sender == owner, \"Caller is not owner\") */\n      tag_122\n      jumpi\n      mload(0x40)\n      0x08c379a000000000000000000000000000000000000000000000000000000000\n      dup2\n      mstore\n      0x04\n      add\n      tag_123\n      swap1\n      tag_124\n      jump\t// in\n    tag_123:\n      mload(0x40)\n      dup1\n      swap2\n      sub\n      swap1\n      revert\n    tag_122:\n        /* \"Documents/GitHub/ReCrypto/src/contracts/RecryUsdcSwap.sol\":1566:1573  _amount */\n      dup1\n        /* \"Documents/GitHub/ReCrypto/src/contracts/RecryUsdcSwap.sol\":1533:1538  recry */\n      0x01\n      0x00\n      swap1\n      sload\n      swap1\n      0x0100\n      exp\n      swap1\n      div\n      0xffffffffffffffffffffffffffffffffffffffff\n      and\n        /* \"Documents/GitHub/ReCrypto/src/contracts/RecryUsdcSwap.sol\":1533:1548  recry.balanceOf */\n      0xffffffffffffffffffffffffffffffffffffffff\n      and\n      0x70a08231\n        /* \"Documents/GitHub/ReCrypto/src/contracts/RecryUsdcSwap.sol\":1557:1561  this */\n      address\n        /* \"Documents/GitHub/ReCrypto/src/contracts/RecryUsdcSwap.sol\":1533:1563  recry.balanceOf(address(this)) */\n      mload(0x40)\n      dup3\n      0xffffffff\n      and\n      0xe0\n      shl\n      dup2\n      mstore\n      0x04\n      add\n      tag_126\n      swap2\n      swap1\n      tag_81\n      jump\t// in\n    tag_126:\n      0x20\n      mload(0x40)\n      dup1\n      dup4\n      sub\n      dup2\n      dup7\n      dup1\n      extcodesize\n      iszero\n      dup1\n      iszero\n      tag_127\n      jumpi\n      0x00\n      dup1\n      revert\n    tag_127:\n      pop\n      gas\n      staticcall\n      iszero\n      dup1\n      iszero\n      tag_129\n      jumpi\n      returndatasize\n      0x00\n      dup1\n      returndatacopy\n      revert(0x00, returndatasize)\n    tag_129:\n      pop\n      pop\n      pop\n      pop\n      mload(0x40)\n      returndatasize\n      not(0x1f)\n      0x1f\n      dup3\n      add\n      and\n      dup3\n      add\n      dup1\n      0x40\n      mstore\n      pop\n      dup2\n      add\n      swap1\n      tag_130\n      swap2\n      swap1\n      tag_131\n      jump\t// in\n    tag_130:\n        /* \"Documents/GitHub/ReCrypto/src/contracts/RecryUsdcSwap.sol\":1533:1573  recry.balanceOf(address(this)) > _amount */\n      gt\n        /* \"Documents/GitHub/ReCrypto/src/contracts/RecryUsdcSwap.sol\":1525:1605  require(recry.balanceOf(address(this)) > _amount, \"no enough recry to withdraw\") */\n      tag_132\n      jumpi\n      mload(0x40)\n      0x08c379a000000000000000000000000000000000000000000000000000000000\n      dup2\n      mstore\n      0x04\n      add\n      tag_133\n      swap1\n      tag_134\n      jump\t// in\n    tag_133:\n      mload(0x40)\n      dup1\n      swap2\n      sub\n      swap1\n      revert\n    tag_132:\n        /* \"Documents/GitHub/ReCrypto/src/contracts/RecryUsdcSwap.sol\":1624:1629  recry */\n      0x01\n      0x00\n      swap1\n      sload\n      swap1\n      0x0100\n      exp\n      swap1\n      div\n      0xffffffffffffffffffffffffffffffffffffffff\n      and\n        /* \"Documents/GitHub/ReCrypto/src/contracts/RecryUsdcSwap.sol\":1624:1642  recry.transferFrom */\n      0xffffffffffffffffffffffffffffffffffffffff\n      and\n      0x23b872dd\n        /* \"Documents/GitHub/ReCrypto/src/contracts/RecryUsdcSwap.sol\":1651:1655  this */\n      address\n        /* \"Documents/GitHub/ReCrypto/src/contracts/RecryUsdcSwap.sol\":1658:1663  owner */\n      0x00\n      dup1\n      sload\n      swap1\n      0x0100\n      exp\n      swap1\n      div\n      0xffffffffffffffffffffffffffffffffffffffff\n      and\n        /* \"Documents/GitHub/ReCrypto/src/contracts/RecryUsdcSwap.sol\":1665:1672  _amount */\n      dup5\n        /* \"Documents/GitHub/ReCrypto/src/contracts/RecryUsdcSwap.sol\":1624:1673  recry.transferFrom(address(this), owner, _amount) */\n      mload(0x40)\n      dup5\n      0xffffffff\n      and\n      0xe0\n      shl\n      dup2\n      mstore\n      0x04\n      add\n      tag_135\n      swap4\n      swap3\n      swap2\n      swap1\n      tag_136\n      jump\t// in\n    tag_135:\n      0x20\n      mload(0x40)\n      dup1\n      dup4\n      sub\n      dup2\n      0x00\n      dup8\n      dup1\n      extcodesize\n      iszero\n      dup1\n      iszero\n      tag_137\n      jumpi\n      0x00\n      dup1\n      revert\n    tag_137:\n      pop\n      gas\n      call\n      iszero\n      dup1\n      iszero\n      tag_139\n      jumpi\n      returndatasize\n      0x00\n      dup1\n      returndatacopy\n      revert(0x00, returndatasize)\n    tag_139:\n      pop\n      pop\n      pop\n      pop\n      mload(0x40)\n      returndatasize\n      not(0x1f)\n      0x1f\n      dup3\n      add\n      and\n      dup3\n      add\n      dup1\n      0x40\n      mstore\n      pop\n      dup2\n      add\n      swap1\n      tag_140\n      swap2\n      swap1\n      tag_141\n      jump\t// in\n    tag_140:\n        /* \"Documents/GitHub/ReCrypto/src/contracts/RecryUsdcSwap.sol\":1616:1674  require(recry.transferFrom(address(this), owner, _amount)) */\n      tag_142\n      jumpi\n      0x00\n      dup1\n      revert\n    tag_142:\n        /* \"Documents/GitHub/ReCrypto/src/contracts/RecryUsdcSwap.sol\":1455:1682  function withdrawRecry(uint _amount) public payable isOwner{\r... */\n      pop\n      jump\t// out\n        /* \"Documents/GitHub/ReCrypto/src/contracts/RecryUsdcSwap.sol\":1113:1212  function changeProtocolGain(uint _amount) public isOwner {\r... */\n    tag_45:\n        /* \"Documents/GitHub/ReCrypto/src/contracts/RecryUsdcSwap.sol\":558:563  owner */\n      0x00\n      dup1\n      sload\n      swap1\n      0x0100\n      exp\n      swap1\n      div\n      0xffffffffffffffffffffffffffffffffffffffff\n      and\n        /* \"Documents/GitHub/ReCrypto/src/contracts/RecryUsdcSwap.sol\":544:563  msg.sender == owner */\n      0xffffffffffffffffffffffffffffffffffffffff\n      and\n        /* \"Documents/GitHub/ReCrypto/src/contracts/RecryUsdcSwap.sol\":544:554  msg.sender */\n      caller\n        /* \"Documents/GitHub/ReCrypto/src/contracts/RecryUsdcSwap.sol\":544:563  msg.sender == owner */\n      0xffffffffffffffffffffffffffffffffffffffff\n      and\n      eq\n        /* \"Documents/GitHub/ReCrypto/src/contracts/RecryUsdcSwap.sol\":536:587  require(msg.sender == owner, \"Caller is not owner\") */\n      tag_144\n      jumpi\n      mload(0x40)\n      0x08c379a000000000000000000000000000000000000000000000000000000000\n      dup2\n      mstore\n      0x04\n      add\n      tag_145\n      swap1\n      tag_124\n      jump\t// in\n    tag_145:\n      mload(0x40)\n      dup1\n      swap2\n      sub\n      swap1\n      revert\n    tag_144:\n        /* \"Documents/GitHub/ReCrypto/src/contracts/RecryUsdcSwap.sol\":1197:1204  _amount */\n      dup1\n        /* \"Documents/GitHub/ReCrypto/src/contracts/RecryUsdcSwap.sol\":1182:1194  protocolGain */\n      0x04\n        /* \"Documents/GitHub/ReCrypto/src/contracts/RecryUsdcSwap.sol\":1182:1204  protocolGain = _amount */\n      dup2\n      swap1\n      sstore\n      pop\n        /* \"Documents/GitHub/ReCrypto/src/contracts/RecryUsdcSwap.sol\":1113:1212  function changeProtocolGain(uint _amount) public isOwner {\r... */\n      pop\n      jump\t// out\n        /* \"Documents/GitHub/ReCrypto/src/contracts/RecryUsdcSwap.sol\":995:1105  function addProtocolGain(uint _amount) public isOwner {\r... */\n    tag_49:\n        /* \"Documents/GitHub/ReCrypto/src/contracts/RecryUsdcSwap.sol\":558:563  owner */\n      0x00\n      dup1\n      sload\n      swap1\n      0x0100\n      exp\n      swap1\n      div\n      0xffffffffffffffffffffffffffffffffffffffff\n      and\n        /* \"Documents/GitHub/ReCrypto/src/contracts/RecryUsdcSwap.sol\":544:563  msg.sender == owner */\n      0xffffffffffffffffffffffffffffffffffffffff\n      and\n        /* \"Documents/GitHub/ReCrypto/src/contracts/RecryUsdcSwap.sol\":544:554  msg.sender */\n      caller\n        /* \"Documents/GitHub/ReCrypto/src/contracts/RecryUsdcSwap.sol\":544:563  msg.sender == owner */\n      0xffffffffffffffffffffffffffffffffffffffff\n      and\n      eq\n        /* \"Documents/GitHub/ReCrypto/src/contracts/RecryUsdcSwap.sol\":536:587  require(msg.sender == owner, \"Caller is not owner\") */\n      tag_148\n      jumpi\n      mload(0x40)\n      0x08c379a000000000000000000000000000000000000000000000000000000000\n      dup2\n      mstore\n      0x04\n      add\n      tag_149\n      swap1\n      tag_124\n      jump\t// in\n    tag_149:\n      mload(0x40)\n      dup1\n      swap2\n      sub\n      swap1\n      revert\n    tag_148:\n        /* \"Documents/GitHub/ReCrypto/src/contracts/RecryUsdcSwap.sol\":1090:1097  _amount */\n      dup1\n        /* \"Documents/GitHub/ReCrypto/src/contracts/RecryUsdcSwap.sol\":1075:1087  protocolGain */\n      sload(0x04)\n        /* \"Documents/GitHub/ReCrypto/src/contracts/RecryUsdcSwap.sol\":1075:1097  protocolGain + _amount */\n      tag_151\n      swap2\n      swap1\n      tag_152\n      jump\t// in\n    tag_151:\n        /* \"Documents/GitHub/ReCrypto/src/contracts/RecryUsdcSwap.sol\":1060:1072  protocolGain */\n      0x04\n        /* \"Documents/GitHub/ReCrypto/src/contracts/RecryUsdcSwap.sol\":1060:1097  protocolGain = protocolGain + _amount */\n      dup2\n      swap1\n      sstore\n      pop\n        /* \"Documents/GitHub/ReCrypto/src/contracts/RecryUsdcSwap.sol\":995:1105  function addProtocolGain(uint _amount) public isOwner {\r... */\n      pop\n      jump\t// out\n        /* \"Documents/GitHub/ReCrypto/src/contracts/RecryUsdcSwap.sol\":2661:2904  function isOwnerX() public view returns(bool _value)\r... */\n    tag_52:\n        /* \"Documents/GitHub/ReCrypto/src/contracts/RecryUsdcSwap.sol\":2701:2712  bool _value */\n      0x00\n        /* \"Documents/GitHub/ReCrypto/src/contracts/RecryUsdcSwap.sol\":2752:2757  owner */\n      dup1\n      0x00\n      swap1\n      sload\n      swap1\n      0x0100\n      exp\n      swap1\n      div\n      0xffffffffffffffffffffffffffffffffffffffff\n      and\n        /* \"Documents/GitHub/ReCrypto/src/contracts/RecryUsdcSwap.sol\":2738:2757  msg.sender == owner */\n      0xffffffffffffffffffffffffffffffffffffffff\n      and\n        /* \"Documents/GitHub/ReCrypto/src/contracts/RecryUsdcSwap.sol\":2738:2748  msg.sender */\n      caller\n        /* \"Documents/GitHub/ReCrypto/src/contracts/RecryUsdcSwap.sol\":2738:2757  msg.sender == owner */\n      0xffffffffffffffffffffffffffffffffffffffff\n      and\n      eq\n        /* \"Documents/GitHub/ReCrypto/src/contracts/RecryUsdcSwap.sol\":2734:2897  if (msg.sender == owner)\r... */\n      iszero\n      tag_154\n      jumpi\n        /* \"Documents/GitHub/ReCrypto/src/contracts/RecryUsdcSwap.sol\":2798:2802  true */\n      0x01\n        /* \"Documents/GitHub/ReCrypto/src/contracts/RecryUsdcSwap.sol\":2791:2802  return true */\n      swap1\n      pop\n      jump(tag_153)\n        /* \"Documents/GitHub/ReCrypto/src/contracts/RecryUsdcSwap.sol\":2734:2897  if (msg.sender == owner)\r... */\n    tag_154:\n        /* \"Documents/GitHub/ReCrypto/src/contracts/RecryUsdcSwap.sol\":2876:2881  false */\n      0x00\n        /* \"Documents/GitHub/ReCrypto/src/contracts/RecryUsdcSwap.sol\":2869:2881  return false */\n      swap1\n      pop\n        /* \"Documents/GitHub/ReCrypto/src/contracts/RecryUsdcSwap.sol\":2661:2904  function isOwnerX() public view returns(bool _value)\r... */\n    tag_153:\n      swap1\n      jump\t// out\n        /* \"Documents/GitHub/ReCrypto/src/contracts/RecryUsdcSwap.sol\":2272:2402  function getRecryMaxAvailable() public view returns(uint _value)\r... */\n    tag_57:\n        /* \"Documents/GitHub/ReCrypto/src/contracts/RecryUsdcSwap.sol\":2324:2335  uint _value */\n      0x00\n        /* \"Documents/GitHub/ReCrypto/src/contracts/RecryUsdcSwap.sol\":2364:2369  recry */\n      0x01\n      0x00\n      swap1\n      sload\n      swap1\n      0x0100\n      exp\n      swap1\n      div\n      0xffffffffffffffffffffffffffffffffffffffff\n      and\n        /* \"Documents/GitHub/ReCrypto/src/contracts/RecryUsdcSwap.sol\":2364:2379  recry.balanceOf */\n      0xffffffffffffffffffffffffffffffffffffffff\n      and\n      0x70a08231\n        /* \"Documents/GitHub/ReCrypto/src/contracts/RecryUsdcSwap.sol\":2388:2392  this */\n      address\n        /* \"Documents/GitHub/ReCrypto/src/contracts/RecryUsdcSwap.sol\":2364:2394  recry.balanceOf(address(this)) */\n      mload(0x40)\n      dup3\n      0xffffffff\n      and\n      0xe0\n      shl\n      dup2\n      mstore\n      0x04\n      add\n      tag_157\n      swap2\n      swap1\n      tag_81\n      jump\t// in\n    tag_157:\n      0x20\n      mload(0x40)\n      dup1\n      dup4\n      sub\n      dup2\n      dup7\n      dup1\n      extcodesize\n      iszero\n      dup1\n      iszero\n      tag_158\n      jumpi\n      0x00\n      dup1\n      revert\n    tag_158:\n      pop\n      gas\n      staticcall\n      iszero\n      dup1\n      iszero\n      tag_160\n      jumpi\n      returndatasize\n      0x00\n      dup1\n      returndatacopy\n      revert(0x00, returndatasize)\n    tag_160:\n      pop\n      pop\n      pop\n      pop\n      mload(0x40)\n      returndatasize\n      not(0x1f)\n      0x1f\n      dup3\n      add\n      and\n      dup3\n      add\n      dup1\n      0x40\n      mstore\n      pop\n      dup2\n      add\n      swap1\n      tag_161\n      swap2\n      swap1\n      tag_131\n      jump\t// in\n    tag_161:\n        /* \"Documents/GitHub/ReCrypto/src/contracts/RecryUsdcSwap.sol\":2357:2394  return recry.balanceOf(address(this)) */\n      swap1\n      pop\n        /* \"Documents/GitHub/ReCrypto/src/contracts/RecryUsdcSwap.sol\":2272:2402  function getRecryMaxAvailable() public view returns(uint _value)\r... */\n      swap1\n      jump\t// out\n        /* \"Documents/GitHub/ReCrypto/src/contracts/RecryUsdcSwap.sol\":3122:4320  function buyRecryWithUsdc(uint _amount) public payable{\r... */\n    tag_61:\n        /* \"Documents/GitHub/ReCrypto/src/contracts/RecryUsdcSwap.sol\":3229:3242  uint qtyToBuy */\n      0x00\n        /* \"Documents/GitHub/ReCrypto/src/contracts/RecryUsdcSwap.sol\":3255:3270  getRecryValue() */\n      tag_163\n        /* \"Documents/GitHub/ReCrypto/src/contracts/RecryUsdcSwap.sol\":3255:3268  getRecryValue */\n      tag_108\n        /* \"Documents/GitHub/ReCrypto/src/contracts/RecryUsdcSwap.sol\":3255:3270  getRecryValue() */\n      jump\t// in\n    tag_163:\n        /* \"Documents/GitHub/ReCrypto/src/contracts/RecryUsdcSwap.sol\":3245:3252  _amount */\n      dup3\n        /* \"Documents/GitHub/ReCrypto/src/contracts/RecryUsdcSwap.sol\":3245:3270  _amount / getRecryValue() */\n      tag_164\n      swap2\n      swap1\n      tag_165\n      jump\t// in\n    tag_164:\n        /* \"Documents/GitHub/ReCrypto/src/contracts/RecryUsdcSwap.sol\":3229:3270  uint qtyToBuy = _amount / getRecryValue() */\n      swap1\n      pop\n        /* \"Documents/GitHub/ReCrypto/src/contracts/RecryUsdcSwap.sol\":3299:3300  0 */\n      0x00\n        /* \"Documents/GitHub/ReCrypto/src/contracts/RecryUsdcSwap.sol\":3289:3296  _amount */\n      dup3\n        /* \"Documents/GitHub/ReCrypto/src/contracts/RecryUsdcSwap.sol\":3289:3300  _amount > 0 */\n      gt\n        /* \"Documents/GitHub/ReCrypto/src/contracts/RecryUsdcSwap.sol\":3281:3323  require(_amount > 0, \"amount cannot be 0\") */\n      tag_166\n      jumpi\n      mload(0x40)\n      0x08c379a000000000000000000000000000000000000000000000000000000000\n      dup2\n      mstore\n      0x04\n      add\n      tag_167\n      swap1\n      tag_168\n      jump\t// in\n    tag_167:\n      mload(0x40)\n      dup1\n      swap2\n      sub\n      swap1\n      revert\n    tag_166:\n        /* \"Documents/GitHub/ReCrypto/src/contracts/RecryUsdcSwap.sol\":3376:3384  qtyToBuy */\n      dup1\n        /* \"Documents/GitHub/ReCrypto/src/contracts/RecryUsdcSwap.sol\":3342:3347  recry */\n      0x01\n      0x00\n      swap1\n      sload\n      swap1\n      0x0100\n      exp\n      swap1\n      div\n      0xffffffffffffffffffffffffffffffffffffffff\n      and\n        /* \"Documents/GitHub/ReCrypto/src/contracts/RecryUsdcSwap.sol\":3342:3357  recry.balanceOf */\n      0xffffffffffffffffffffffffffffffffffffffff\n      and\n      0x70a08231\n        /* \"Documents/GitHub/ReCrypto/src/contracts/RecryUsdcSwap.sol\":3366:3370  this */\n      address\n        /* \"Documents/GitHub/ReCrypto/src/contracts/RecryUsdcSwap.sol\":3342:3372  recry.balanceOf(address(this)) */\n      mload(0x40)\n      dup3\n      0xffffffff\n      and\n      0xe0\n      shl\n      dup2\n      mstore\n      0x04\n      add\n      tag_169\n      swap2\n      swap1\n      tag_81\n      jump\t// in\n    tag_169:\n      0x20\n      mload(0x40)\n      dup1\n      dup4\n      sub\n      dup2\n      dup7\n      dup1\n      extcodesize\n      iszero\n      dup1\n      iszero\n      tag_170\n      jumpi\n      0x00\n      dup1\n      revert\n    tag_170:\n      pop\n      gas\n      staticcall\n      iszero\n      dup1\n      iszero\n      tag_172\n      jumpi\n      returndatasize\n      0x00\n      dup1\n      returndatacopy\n      revert(0x00, returndatasize)\n    tag_172:\n      pop\n      pop\n      pop\n      pop\n      mload(0x40)\n      returndatasize\n      not(0x1f)\n      0x1f\n      dup3\n      add\n      and\n      dup3\n      add\n      dup1\n      0x40\n      mstore\n      pop\n      dup2\n      add\n      swap1\n      tag_173\n      swap2\n      swap1\n      tag_131\n      jump\t// in\n    tag_173:\n        /* \"Documents/GitHub/ReCrypto/src/contracts/RecryUsdcSwap.sol\":3342:3384  recry.balanceOf(address(this)) >= qtyToBuy */\n      lt\n      iszero\n        /* \"Documents/GitHub/ReCrypto/src/contracts/RecryUsdcSwap.sol\":3334:3412  require(recry.balanceOf(address(this)) >= qtyToBuy , \"no enough recry to buy\") */\n      tag_174\n      jumpi\n      mload(0x40)\n      0x08c379a000000000000000000000000000000000000000000000000000000000\n      dup2\n      mstore\n      0x04\n      add\n      tag_175\n      swap1\n      tag_176\n      jump\t// in\n    tag_175:\n      mload(0x40)\n      dup1\n      swap2\n      sub\n      swap1\n      revert\n    tag_174:\n        /* \"Documents/GitHub/ReCrypto/src/contracts/RecryUsdcSwap.sol\":3423:3439  uint maxRecharge */\n      0x00\n        /* \"Documents/GitHub/ReCrypto/src/contracts/RecryUsdcSwap.sol\":3457:3478  getUsdcMaxAvailable() */\n      tag_177\n        /* \"Documents/GitHub/ReCrypto/src/contracts/RecryUsdcSwap.sol\":3457:3476  getUsdcMaxAvailable */\n      tag_96\n        /* \"Documents/GitHub/ReCrypto/src/contracts/RecryUsdcSwap.sol\":3457:3478  getUsdcMaxAvailable() */\n      jump\t// in\n    tag_177:\n        /* \"Documents/GitHub/ReCrypto/src/contracts/RecryUsdcSwap.sol\":3442:3454  protocolGain */\n      sload(0x04)\n        /* \"Documents/GitHub/ReCrypto/src/contracts/RecryUsdcSwap.sol\":3442:3478  protocolGain - getUsdcMaxAvailable() */\n      tag_178\n      swap2\n      swap1\n      tag_179\n      jump\t// in\n    tag_178:\n        /* \"Documents/GitHub/ReCrypto/src/contracts/RecryUsdcSwap.sol\":3423:3478  uint maxRecharge = protocolGain - getUsdcMaxAvailable() */\n      swap1\n      pop\n        /* \"Documents/GitHub/ReCrypto/src/contracts/RecryUsdcSwap.sol\":3507:3508  0 */\n      0x00\n        /* \"Documents/GitHub/ReCrypto/src/contracts/RecryUsdcSwap.sol\":3493:3504  maxRecharge */\n      dup2\n        /* \"Documents/GitHub/ReCrypto/src/contracts/RecryUsdcSwap.sol\":3493:3508  maxRecharge > 0 */\n      gt\n        /* \"Documents/GitHub/ReCrypto/src/contracts/RecryUsdcSwap.sol\":3489:4190  if (maxRecharge > 0)\r... */\n      iszero\n      tag_180\n      jumpi\n        /* \"Documents/GitHub/ReCrypto/src/contracts/RecryUsdcSwap.sol\":3633:3644  maxRecharge */\n      dup1\n        /* \"Documents/GitHub/ReCrypto/src/contracts/RecryUsdcSwap.sol\":3623:3630  _amount */\n      dup4\n        /* \"Documents/GitHub/ReCrypto/src/contracts/RecryUsdcSwap.sol\":3623:3644  _amount > maxRecharge */\n      gt\n        /* \"Documents/GitHub/ReCrypto/src/contracts/RecryUsdcSwap.sol\":3619:4006  if (_amount > maxRecharge)\r... */\n      iszero\n      tag_181\n      jumpi\n        /* \"Documents/GitHub/ReCrypto/src/contracts/RecryUsdcSwap.sol\":3694:3698  usdc */\n      0x02\n      0x00\n      swap1\n      sload\n      swap1\n      0x0100\n      exp\n      swap1\n      div\n      0xffffffffffffffffffffffffffffffffffffffff\n      and\n        /* \"Documents/GitHub/ReCrypto/src/contracts/RecryUsdcSwap.sol\":3694:3711  usdc.transferFrom */\n      0xffffffffffffffffffffffffffffffffffffffff\n      and\n      0x23b872dd\n        /* \"Documents/GitHub/ReCrypto/src/contracts/RecryUsdcSwap.sol\":3712:3722  msg.sender */\n      caller\n        /* \"Documents/GitHub/ReCrypto/src/contracts/RecryUsdcSwap.sol\":3732:3736  this */\n      address\n        /* \"Documents/GitHub/ReCrypto/src/contracts/RecryUsdcSwap.sol\":3739:3750  maxRecharge */\n      dup5\n        /* \"Documents/GitHub/ReCrypto/src/contracts/RecryUsdcSwap.sol\":3694:3751  usdc.transferFrom(msg.sender, address(this), maxRecharge) */\n      mload(0x40)\n      dup5\n      0xffffffff\n      and\n      0xe0\n      shl\n      dup2\n      mstore\n      0x04\n      add\n      tag_182\n      swap4\n      swap3\n      swap2\n      swap1\n      tag_136\n      jump\t// in\n    tag_182:\n      0x20\n      mload(0x40)\n      dup1\n      dup4\n      sub\n      dup2\n      0x00\n      dup8\n      dup1\n      extcodesize\n      iszero\n      dup1\n      iszero\n      tag_183\n      jumpi\n      0x00\n      dup1\n      revert\n    tag_183:\n      pop\n      gas\n      call\n      iszero\n      dup1\n      iszero\n      tag_185\n      jumpi\n      returndatasize\n      0x00\n      dup1\n      returndatacopy\n      revert(0x00, returndatasize)\n    tag_185:\n      pop\n      pop\n      pop\n      pop\n      mload(0x40)\n      returndatasize\n      not(0x1f)\n      0x1f\n      dup3\n      add\n      and\n      dup3\n      add\n      dup1\n      0x40\n      mstore\n      pop\n      dup2\n      add\n      swap1\n      tag_186\n      swap2\n      swap1\n      tag_141\n      jump\t// in\n    tag_186:\n        /* \"Documents/GitHub/ReCrypto/src/contracts/RecryUsdcSwap.sol\":3686:3752  require(usdc.transferFrom(msg.sender, address(this), maxRecharge)) */\n      tag_187\n      jumpi\n      0x00\n      dup1\n      revert\n    tag_187:\n        /* \"Documents/GitHub/ReCrypto/src/contracts/RecryUsdcSwap.sol\":3785:3789  usdc */\n      0x02\n      0x00\n      swap1\n      sload\n      swap1\n      0x0100\n      exp\n      swap1\n      div\n      0xffffffffffffffffffffffffffffffffffffffff\n      and\n        /* \"Documents/GitHub/ReCrypto/src/contracts/RecryUsdcSwap.sol\":3785:3802  usdc.transferFrom */\n      0xffffffffffffffffffffffffffffffffffffffff\n      and\n      0x23b872dd\n        /* \"Documents/GitHub/ReCrypto/src/contracts/RecryUsdcSwap.sol\":3803:3813  msg.sender */\n      caller\n        /* \"Documents/GitHub/ReCrypto/src/contracts/RecryUsdcSwap.sol\":3815:3820  owner */\n      0x00\n      dup1\n      sload\n      swap1\n      0x0100\n      exp\n      swap1\n      div\n      0xffffffffffffffffffffffffffffffffffffffff\n      and\n        /* \"Documents/GitHub/ReCrypto/src/contracts/RecryUsdcSwap.sol\":3830:3841  maxRecharge */\n      dup5\n        /* \"Documents/GitHub/ReCrypto/src/contracts/RecryUsdcSwap.sol\":3822:3829  _amount */\n      dup8\n        /* \"Documents/GitHub/ReCrypto/src/contracts/RecryUsdcSwap.sol\":3822:3841  _amount-maxRecharge */\n      tag_188\n      swap2\n      swap1\n      tag_179\n      jump\t// in\n    tag_188:\n        /* \"Documents/GitHub/ReCrypto/src/contracts/RecryUsdcSwap.sol\":3785:3842  usdc.transferFrom(msg.sender, owner, _amount-maxRecharge) */\n      mload(0x40)\n      dup5\n      0xffffffff\n      and\n      0xe0\n      shl\n      dup2\n      mstore\n      0x04\n      add\n      tag_189\n      swap4\n      swap3\n      swap2\n      swap1\n      tag_136\n      jump\t// in\n    tag_189:\n      0x20\n      mload(0x40)\n      dup1\n      dup4\n      sub\n      dup2\n      0x00\n      dup8\n      dup1\n      extcodesize\n      iszero\n      dup1\n      iszero\n      tag_190\n      jumpi\n      0x00\n      dup1\n      revert\n    tag_190:\n      pop\n      gas\n      call\n      iszero\n      dup1\n      iszero\n      tag_192\n      jumpi\n      returndatasize\n      0x00\n      dup1\n      returndatacopy\n      revert(0x00, returndatasize)\n    tag_192:\n      pop\n      pop\n      pop\n      pop\n      mload(0x40)\n      returndatasize\n      not(0x1f)\n      0x1f\n      dup3\n      add\n      and\n      dup3\n      add\n      dup1\n      0x40\n      mstore\n      pop\n      dup2\n      add\n      swap1\n      tag_193\n      swap2\n      swap1\n      tag_141\n      jump\t// in\n    tag_193:\n        /* \"Documents/GitHub/ReCrypto/src/contracts/RecryUsdcSwap.sol\":3777:3843  require(usdc.transferFrom(msg.sender, owner, _amount-maxRecharge)) */\n      tag_194\n      jumpi\n      0x00\n      dup1\n      revert\n    tag_194:\n        /* \"Documents/GitHub/ReCrypto/src/contracts/RecryUsdcSwap.sol\":3619:4006  if (_amount > maxRecharge)\r... */\n      jump(tag_195)\n    tag_181:\n        /* \"Documents/GitHub/ReCrypto/src/contracts/RecryUsdcSwap.sol\":3932:3936  usdc */\n      0x02\n      0x00\n      swap1\n      sload\n      swap1\n      0x0100\n      exp\n      swap1\n      div\n      0xffffffffffffffffffffffffffffffffffffffff\n      and\n        /* \"Documents/GitHub/ReCrypto/src/contracts/RecryUsdcSwap.sol\":3932:3949  usdc.transferFrom */\n      0xffffffffffffffffffffffffffffffffffffffff\n      and\n      0x23b872dd\n        /* \"Documents/GitHub/ReCrypto/src/contracts/RecryUsdcSwap.sol\":3950:3960  msg.sender */\n      caller\n        /* \"Documents/GitHub/ReCrypto/src/contracts/RecryUsdcSwap.sol\":3970:3974  this */\n      address\n        /* \"Documents/GitHub/ReCrypto/src/contracts/RecryUsdcSwap.sol\":3977:3984  _amount */\n      dup7\n        /* \"Documents/GitHub/ReCrypto/src/contracts/RecryUsdcSwap.sol\":3932:3985  usdc.transferFrom(msg.sender, address(this), _amount) */\n      mload(0x40)\n      dup5\n      0xffffffff\n      and\n      0xe0\n      shl\n      dup2\n      mstore\n      0x04\n      add\n      tag_196\n      swap4\n      swap3\n      swap2\n      swap1\n      tag_136\n      jump\t// in\n    tag_196:\n      0x20\n      mload(0x40)\n      dup1\n      dup4\n      sub\n      dup2\n      0x00\n      dup8\n      dup1\n      extcodesize\n      iszero\n      dup1\n      iszero\n      tag_197\n      jumpi\n      0x00\n      dup1\n      revert\n    tag_197:\n      pop\n      gas\n      call\n      iszero\n      dup1\n      iszero\n      tag_199\n      jumpi\n      returndatasize\n      0x00\n      dup1\n      returndatacopy\n      revert(0x00, returndatasize)\n    tag_199:\n      pop\n      pop\n      pop\n      pop\n      mload(0x40)\n      returndatasize\n      not(0x1f)\n      0x1f\n      dup3\n      add\n      and\n      dup3\n      add\n      dup1\n      0x40\n      mstore\n      pop\n      dup2\n      add\n      swap1\n      tag_200\n      swap2\n      swap1\n      tag_141\n      jump\t// in\n    tag_200:\n        /* \"Documents/GitHub/ReCrypto/src/contracts/RecryUsdcSwap.sol\":3924:3986  require(usdc.transferFrom(msg.sender, address(this), _amount)) */\n      tag_201\n      jumpi\n      0x00\n      dup1\n      revert\n    tag_201:\n        /* \"Documents/GitHub/ReCrypto/src/contracts/RecryUsdcSwap.sol\":3619:4006  if (_amount > maxRecharge)\r... */\n    tag_195:\n        /* \"Documents/GitHub/ReCrypto/src/contracts/RecryUsdcSwap.sol\":3489:4190  if (maxRecharge > 0)\r... */\n      jump(tag_202)\n    tag_180:\n        /* \"Documents/GitHub/ReCrypto/src/contracts/RecryUsdcSwap.sol\":4131:4135  usdc */\n      0x02\n      0x00\n      swap1\n      sload\n      swap1\n      0x0100\n      exp\n      swap1\n      div\n      0xffffffffffffffffffffffffffffffffffffffff\n      and\n        /* \"Documents/GitHub/ReCrypto/src/contracts/RecryUsdcSwap.sol\":4131:4148  usdc.transferFrom */\n      0xffffffffffffffffffffffffffffffffffffffff\n      and\n      0x23b872dd\n        /* \"Documents/GitHub/ReCrypto/src/contracts/RecryUsdcSwap.sol\":4149:4159  msg.sender */\n      caller\n        /* \"Documents/GitHub/ReCrypto/src/contracts/RecryUsdcSwap.sol\":4161:4166  owner */\n      0x00\n      dup1\n      sload\n      swap1\n      0x0100\n      exp\n      swap1\n      div\n      0xffffffffffffffffffffffffffffffffffffffff\n      and\n        /* \"Documents/GitHub/ReCrypto/src/contracts/RecryUsdcSwap.sol\":4168:4175  _amount */\n      dup7\n        /* \"Documents/GitHub/ReCrypto/src/contracts/RecryUsdcSwap.sol\":4131:4176  usdc.transferFrom(msg.sender, owner, _amount) */\n      mload(0x40)\n      dup5\n      0xffffffff\n      and\n      0xe0\n      shl\n      dup2\n      mstore\n      0x04\n      add\n      tag_203\n      swap4\n      swap3\n      swap2\n      swap1\n      tag_136\n      jump\t// in\n    tag_203:\n      0x20\n      mload(0x40)\n      dup1\n      dup4\n      sub\n      dup2\n      0x00\n      dup8\n      dup1\n      extcodesize\n      iszero\n      dup1\n      iszero\n      tag_204\n      jumpi\n      0x00\n      dup1\n      revert\n    tag_204:\n      pop\n      gas\n      call\n      iszero\n      dup1\n      iszero\n      tag_206\n      jumpi\n      returndatasize\n      0x00\n      dup1\n      returndatacopy\n      revert(0x00, returndatasize)\n    tag_206:\n      pop\n      pop\n      pop\n      pop\n      mload(0x40)\n      returndatasize\n      not(0x1f)\n      0x1f\n      dup3\n      add\n      and\n      dup3\n      add\n      dup1\n      0x40\n      mstore\n      pop\n      dup2\n      add\n      swap1\n      tag_207\n      swap2\n      swap1\n      tag_141\n      jump\t// in\n    tag_207:\n        /* \"Documents/GitHub/ReCrypto/src/contracts/RecryUsdcSwap.sol\":4123:4177  require(usdc.transferFrom(msg.sender, owner, _amount)) */\n      tag_208\n      jumpi\n      0x00\n      dup1\n      revert\n    tag_208:\n        /* \"Documents/GitHub/ReCrypto/src/contracts/RecryUsdcSwap.sol\":3489:4190  if (maxRecharge > 0)\r... */\n    tag_202:\n        /* \"Documents/GitHub/ReCrypto/src/contracts/RecryUsdcSwap.sol\":4250:4255  recry */\n      0x01\n      0x00\n      swap1\n      sload\n      swap1\n      0x0100\n      exp\n      swap1\n      div\n      0xffffffffffffffffffffffffffffffffffffffff\n      and\n        /* \"Documents/GitHub/ReCrypto/src/contracts/RecryUsdcSwap.sol\":4250:4268  recry.transferFrom */\n      0xffffffffffffffffffffffffffffffffffffffff\n      and\n      0x23b872dd\n        /* \"Documents/GitHub/ReCrypto/src/contracts/RecryUsdcSwap.sol\":4277:4281  this */\n      address\n        /* \"Documents/GitHub/ReCrypto/src/contracts/RecryUsdcSwap.sol\":4284:4294  msg.sender */\n      caller\n        /* \"Documents/GitHub/ReCrypto/src/contracts/RecryUsdcSwap.sol\":4296:4303  _amount */\n      dup7\n        /* \"Documents/GitHub/ReCrypto/src/contracts/RecryUsdcSwap.sol\":4250:4304  recry.transferFrom(address(this), msg.sender, _amount) */\n      mload(0x40)\n      dup5\n      0xffffffff\n      and\n      0xe0\n      shl\n      dup2\n      mstore\n      0x04\n      add\n      tag_209\n      swap4\n      swap3\n      swap2\n      swap1\n      tag_136\n      jump\t// in\n    tag_209:\n      0x20\n      mload(0x40)\n      dup1\n      dup4\n      sub\n      dup2\n      0x00\n      dup8\n      dup1\n      extcodesize\n      iszero\n      dup1\n      iszero\n      tag_210\n      jumpi\n      0x00\n      dup1\n      revert\n    tag_210:\n      pop\n      gas\n      call\n      iszero\n      dup1\n      iszero\n      tag_212\n      jumpi\n      returndatasize\n      0x00\n      dup1\n      returndatacopy\n      revert(0x00, returndatasize)\n    tag_212:\n      pop\n      pop\n      pop\n      pop\n      mload(0x40)\n      returndatasize\n      not(0x1f)\n      0x1f\n      dup3\n      add\n      and\n      dup3\n      add\n      dup1\n      0x40\n      mstore\n      pop\n      dup2\n      add\n      swap1\n      tag_213\n      swap2\n      swap1\n      tag_141\n      jump\t// in\n    tag_213:\n      pop\n        /* \"Documents/GitHub/ReCrypto/src/contracts/RecryUsdcSwap.sol\":3176:4320  {\r... */\n      pop\n      pop\n        /* \"Documents/GitHub/ReCrypto/src/contracts/RecryUsdcSwap.sol\":3122:4320  function buyRecryWithUsdc(uint _amount) public payable{\r... */\n      pop\n      jump\t// out\n        /* \"Documents/GitHub/ReCrypto/src/contracts/RecryUsdcSwap.sol\":210:231  UsdcToken public usdc */\n    tag_64:\n      0x02\n      0x00\n      swap1\n      sload\n      swap1\n      0x0100\n      exp\n      swap1\n      div\n      0xffffffffffffffffffffffffffffffffffffffff\n      and\n      dup2\n      jump\t// out\n        /* \"Documents/GitHub/ReCrypto/src/contracts/RecryUsdcSwap.sol\":893:987  function changeRecrySupply(uint _amount) public isOwner {\r... */\n    tag_70:\n        /* \"Documents/GitHub/ReCrypto/src/contracts/RecryUsdcSwap.sol\":558:563  owner */\n      0x00\n      dup1\n      sload\n      swap1\n      0x0100\n      exp\n      swap1\n      div\n      0xffffffffffffffffffffffffffffffffffffffff\n      and\n        /* \"Documents/GitHub/ReCrypto/src/contracts/RecryUsdcSwap.sol\":544:563  msg.sender == owner */\n      0xffffffffffffffffffffffffffffffffffffffff\n      and\n        /* \"Documents/GitHub/ReCrypto/src/contracts/RecryUsdcSwap.sol\":544:554  msg.sender */\n      caller\n        /* \"Documents/GitHub/ReCrypto/src/contracts/RecryUsdcSwap.sol\":544:563  msg.sender == owner */\n      0xffffffffffffffffffffffffffffffffffffffff\n      and\n      eq\n        /* \"Documents/GitHub/ReCrypto/src/contracts/RecryUsdcSwap.sol\":536:587  require(msg.sender == owner, \"Caller is not owner\") */\n      tag_215\n      jumpi\n      mload(0x40)\n      0x08c379a000000000000000000000000000000000000000000000000000000000\n      dup2\n      mstore\n      0x04\n      add\n      tag_216\n      swap1\n      tag_124\n      jump\t// in\n    tag_216:\n      mload(0x40)\n      dup1\n      swap2\n      sub\n      swap1\n      revert\n    tag_215:\n        /* \"Documents/GitHub/ReCrypto/src/contracts/RecryUsdcSwap.sol\":972:979  _amount */\n      dup1\n        /* \"Documents/GitHub/ReCrypto/src/contracts/RecryUsdcSwap.sol\":960:969  maxSupply */\n      0x03\n        /* \"Documents/GitHub/ReCrypto/src/contracts/RecryUsdcSwap.sol\":960:979  maxSupply = _amount */\n      dup2\n      swap1\n      sstore\n      pop\n        /* \"Documents/GitHub/ReCrypto/src/contracts/RecryUsdcSwap.sol\":893:987  function changeRecrySupply(uint _amount) public isOwner {\r... */\n      pop\n      jump\t// out\n        /* \"Documents/GitHub/ReCrypto/src/contracts/RecryUsdcSwap.sol\":615:885  function addRecrySupply(uint _amount) public payable isOwner {\r... */\n    tag_73:\n        /* \"Documents/GitHub/ReCrypto/src/contracts/RecryUsdcSwap.sol\":558:563  owner */\n      0x00\n      dup1\n      sload\n      swap1\n      0x0100\n      exp\n      swap1\n      div\n      0xffffffffffffffffffffffffffffffffffffffff\n      and\n        /* \"Documents/GitHub/ReCrypto/src/contracts/RecryUsdcSwap.sol\":544:563  msg.sender == owner */\n      0xffffffffffffffffffffffffffffffffffffffff\n      and\n        /* \"Documents/GitHub/ReCrypto/src/contracts/RecryUsdcSwap.sol\":544:554  msg.sender */\n      caller\n        /* \"Documents/GitHub/ReCrypto/src/contracts/RecryUsdcSwap.sol\":544:563  msg.sender == owner */\n      0xffffffffffffffffffffffffffffffffffffffff\n      and\n      eq\n        /* \"Documents/GitHub/ReCrypto/src/contracts/RecryUsdcSwap.sol\":536:587  require(msg.sender == owner, \"Caller is not owner\") */\n      tag_219\n      jumpi\n      mload(0x40)\n      0x08c379a000000000000000000000000000000000000000000000000000000000\n      dup2\n      mstore\n      0x04\n      add\n      tag_220\n      swap1\n      tag_124\n      jump\t// in\n    tag_220:\n      mload(0x40)\n      dup1\n      swap2\n      sub\n      swap1\n      revert\n    tag_219:\n        /* \"Documents/GitHub/ReCrypto/src/contracts/RecryUsdcSwap.sol\":726:733  _amount */\n      dup1\n        /* \"Documents/GitHub/ReCrypto/src/contracts/RecryUsdcSwap.sol\":695:700  recry */\n      0x01\n      0x00\n      swap1\n      sload\n      swap1\n      0x0100\n      exp\n      swap1\n      div\n      0xffffffffffffffffffffffffffffffffffffffff\n      and\n        /* \"Documents/GitHub/ReCrypto/src/contracts/RecryUsdcSwap.sol\":695:710  recry.balanceOf */\n      0xffffffffffffffffffffffffffffffffffffffff\n      and\n      0x70a08231\n        /* \"Documents/GitHub/ReCrypto/src/contracts/RecryUsdcSwap.sol\":711:721  msg.sender */\n      caller\n        /* \"Documents/GitHub/ReCrypto/src/contracts/RecryUsdcSwap.sol\":695:722  recry.balanceOf(msg.sender) */\n      mload(0x40)\n      dup3\n      0xffffffff\n      and\n      0xe0\n      shl\n      dup2\n      mstore\n      0x04\n      add\n      tag_222\n      swap2\n      swap1\n      tag_81\n      jump\t// in\n    tag_222:\n      0x20\n      mload(0x40)\n      dup1\n      dup4\n      sub\n      dup2\n      dup7\n      dup1\n      extcodesize\n      iszero\n      dup1\n      iszero\n      tag_223\n      jumpi\n      0x00\n      dup1\n      revert\n    tag_223:\n      pop\n      gas\n      staticcall\n      iszero\n      dup1\n      iszero\n      tag_225\n      jumpi\n      returndatasize\n      0x00\n      dup1\n      returndatacopy\n      revert(0x00, returndatasize)\n    tag_225:\n      pop\n      pop\n      pop\n      pop\n      mload(0x40)\n      returndatasize\n      not(0x1f)\n      0x1f\n      dup3\n      add\n      and\n      dup3\n      add\n      dup1\n      0x40\n      mstore\n      pop\n      dup2\n      add\n      swap1\n      tag_226\n      swap2\n      swap1\n      tag_131\n      jump\t// in\n    tag_226:\n        /* \"Documents/GitHub/ReCrypto/src/contracts/RecryUsdcSwap.sol\":695:733  recry.balanceOf(msg.sender) >= _amount */\n      lt\n      iszero\n        /* \"Documents/GitHub/ReCrypto/src/contracts/RecryUsdcSwap.sol\":687:761  require(recry.balanceOf(msg.sender) >= _amount , \"no enough recry to add\") */\n      tag_227\n      jumpi\n      mload(0x40)\n      0x08c379a000000000000000000000000000000000000000000000000000000000\n      dup2\n      mstore\n      0x04\n      add\n      tag_228\n      swap1\n      tag_229\n      jump\t// in\n    tag_228:\n      mload(0x40)\n      dup1\n      swap2\n      sub\n      swap1\n      revert\n    tag_227:\n        /* \"Documents/GitHub/ReCrypto/src/contracts/RecryUsdcSwap.sol\":780:785  recry */\n      0x01\n      0x00\n      swap1\n      sload\n      swap1\n      0x0100\n      exp\n      swap1\n      div\n      0xffffffffffffffffffffffffffffffffffffffff\n      and\n        /* \"Documents/GitHub/ReCrypto/src/contracts/RecryUsdcSwap.sol\":780:798  recry.transferFrom */\n      0xffffffffffffffffffffffffffffffffffffffff\n      and\n      0x23b872dd\n        /* \"Documents/GitHub/ReCrypto/src/contracts/RecryUsdcSwap.sol\":799:809  msg.sender */\n      caller\n        /* \"Documents/GitHub/ReCrypto/src/contracts/RecryUsdcSwap.sol\":819:823  this */\n      address\n        /* \"Documents/GitHub/ReCrypto/src/contracts/RecryUsdcSwap.sol\":826:833  _amount */\n      dup5\n        /* \"Documents/GitHub/ReCrypto/src/contracts/RecryUsdcSwap.sol\":780:834  recry.transferFrom(msg.sender, address(this), _amount) */\n      mload(0x40)\n      dup5\n      0xffffffff\n      and\n      0xe0\n      shl\n      dup2\n      mstore\n      0x04\n      add\n      tag_230\n      swap4\n      swap3\n      swap2\n      swap1\n      tag_136\n      jump\t// in\n    tag_230:\n      0x20\n      mload(0x40)\n      dup1\n      dup4\n      sub\n      dup2\n      0x00\n      dup8\n      dup1\n      extcodesize\n      iszero\n      dup1\n      iszero\n      tag_231\n      jumpi\n      0x00\n      dup1\n      revert\n    tag_231:\n      pop\n      gas\n      call\n      iszero\n      dup1\n      iszero\n      tag_233\n      jumpi\n      returndatasize\n      0x00\n      dup1\n      returndatacopy\n      revert(0x00, returndatasize)\n    tag_233:\n      pop\n      pop\n      pop\n      pop\n      mload(0x40)\n      returndatasize\n      not(0x1f)\n      0x1f\n      dup3\n      add\n      and\n      dup3\n      add\n      dup1\n      0x40\n      mstore\n      pop\n      dup2\n      add\n      swap1\n      tag_234\n      swap2\n      swap1\n      tag_141\n      jump\t// in\n    tag_234:\n        /* \"Documents/GitHub/ReCrypto/src/contracts/RecryUsdcSwap.sol\":772:835  require(recry.transferFrom(msg.sender, address(this), _amount)) */\n      tag_235\n      jumpi\n      0x00\n      dup1\n      revert\n    tag_235:\n        /* \"Documents/GitHub/ReCrypto/src/contracts/RecryUsdcSwap.sol\":870:877  _amount */\n      dup1\n        /* \"Documents/GitHub/ReCrypto/src/contracts/RecryUsdcSwap.sol\":858:867  maxSupply */\n      sload(0x03)\n        /* \"Documents/GitHub/ReCrypto/src/contracts/RecryUsdcSwap.sol\":858:877  maxSupply + _amount */\n      tag_236\n      swap2\n      swap1\n      tag_152\n      jump\t// in\n    tag_236:\n        /* \"Documents/GitHub/ReCrypto/src/contracts/RecryUsdcSwap.sol\":846:855  maxSupply */\n      0x03\n        /* \"Documents/GitHub/ReCrypto/src/contracts/RecryUsdcSwap.sol\":846:877  maxSupply = maxSupply + _amount */\n      dup2\n      swap1\n      sstore\n      pop\n        /* \"Documents/GitHub/ReCrypto/src/contracts/RecryUsdcSwap.sol\":615:885  function addRecrySupply(uint _amount) public payable isOwner {\r... */\n      pop\n      jump\t// out\n        /* \"Documents/GitHub/ReCrypto/src/contracts/RecryUsdcSwap.sol\":1224:1447  function withdrawUsdc(uint _amount) public payable isOwner{\r... */\n    tag_76:\n        /* \"Documents/GitHub/ReCrypto/src/contracts/RecryUsdcSwap.sol\":558:563  owner */\n      0x00\n      dup1\n      sload\n      swap1\n      0x0100\n      exp\n      swap1\n      div\n      0xffffffffffffffffffffffffffffffffffffffff\n      and\n        /* \"Documents/GitHub/ReCrypto/src/contracts/RecryUsdcSwap.sol\":544:563  msg.sender == owner */\n      0xffffffffffffffffffffffffffffffffffffffff\n      and\n        /* \"Documents/GitHub/ReCrypto/src/contracts/RecryUsdcSwap.sol\":544:554  msg.sender */\n      caller\n        /* \"Documents/GitHub/ReCrypto/src/contracts/RecryUsdcSwap.sol\":544:563  msg.sender == owner */\n      0xffffffffffffffffffffffffffffffffffffffff\n      and\n      eq\n        /* \"Documents/GitHub/ReCrypto/src/contracts/RecryUsdcSwap.sol\":536:587  require(msg.sender == owner, \"Caller is not owner\") */\n      tag_238\n      jumpi\n      mload(0x40)\n      0x08c379a000000000000000000000000000000000000000000000000000000000\n      dup2\n      mstore\n      0x04\n      add\n      tag_239\n      swap1\n      tag_124\n      jump\t// in\n    tag_239:\n      mload(0x40)\n      dup1\n      swap2\n      sub\n      swap1\n      revert\n    tag_238:\n        /* \"Documents/GitHub/ReCrypto/src/contracts/RecryUsdcSwap.sol\":1333:1340  _amount */\n      dup1\n        /* \"Documents/GitHub/ReCrypto/src/contracts/RecryUsdcSwap.sol\":1301:1305  usdc */\n      0x02\n      0x00\n      swap1\n      sload\n      swap1\n      0x0100\n      exp\n      swap1\n      div\n      0xffffffffffffffffffffffffffffffffffffffff\n      and\n        /* \"Documents/GitHub/ReCrypto/src/contracts/RecryUsdcSwap.sol\":1301:1315  usdc.balanceOf */\n      0xffffffffffffffffffffffffffffffffffffffff\n      and\n      0x70a08231\n        /* \"Documents/GitHub/ReCrypto/src/contracts/RecryUsdcSwap.sol\":1324:1328  this */\n      address\n        /* \"Documents/GitHub/ReCrypto/src/contracts/RecryUsdcSwap.sol\":1301:1330  usdc.balanceOf(address(this)) */\n      mload(0x40)\n      dup3\n      0xffffffff\n      and\n      0xe0\n      shl\n      dup2\n      mstore\n      0x04\n      add\n      tag_241\n      swap2\n      swap1\n      tag_81\n      jump\t// in\n    tag_241:\n      0x20\n      mload(0x40)\n      dup1\n      dup4\n      sub\n      dup2\n      dup7\n      dup1\n      extcodesize\n      iszero\n      dup1\n      iszero\n      tag_242\n      jumpi\n      0x00\n      dup1\n      revert\n    tag_242:\n      pop\n      gas\n      staticcall\n      iszero\n      dup1\n      iszero\n      tag_244\n      jumpi\n      returndatasize\n      0x00\n      dup1\n      returndatacopy\n      revert(0x00, returndatasize)\n    tag_244:\n      pop\n      pop\n      pop\n      pop\n      mload(0x40)\n      returndatasize\n      not(0x1f)\n      0x1f\n      dup3\n      add\n      and\n      dup3\n      add\n      dup1\n      0x40\n      mstore\n      pop\n      dup2\n      add\n      swap1\n      tag_245\n      swap2\n      swap1\n      tag_131\n      jump\t// in\n    tag_245:\n        /* \"Documents/GitHub/ReCrypto/src/contracts/RecryUsdcSwap.sol\":1301:1340  usdc.balanceOf(address(this)) > _amount */\n      gt\n        /* \"Documents/GitHub/ReCrypto/src/contracts/RecryUsdcSwap.sol\":1293:1371  require(usdc.balanceOf(address(this)) > _amount, \"no enough usdc to withdraw\") */\n      tag_246\n      jumpi\n      mload(0x40)\n      0x08c379a000000000000000000000000000000000000000000000000000000000\n      dup2\n      mstore\n      0x04\n      add\n      tag_247\n      swap1\n      tag_248\n      jump\t// in\n    tag_247:\n      mload(0x40)\n      dup1\n      swap2\n      sub\n      swap1\n      revert\n    tag_246:\n        /* \"Documents/GitHub/ReCrypto/src/contracts/RecryUsdcSwap.sol\":1390:1394  usdc */\n      0x02\n      0x00\n      swap1\n      sload\n      swap1\n      0x0100\n      exp\n      swap1\n      div\n      0xffffffffffffffffffffffffffffffffffffffff\n      and\n        /* \"Documents/GitHub/ReCrypto/src/contracts/RecryUsdcSwap.sol\":1390:1407  usdc.transferFrom */\n      0xffffffffffffffffffffffffffffffffffffffff\n      and\n      0x23b872dd\n        /* \"Documents/GitHub/ReCrypto/src/contracts/RecryUsdcSwap.sol\":1416:1420  this */\n      address\n        /* \"Documents/GitHub/ReCrypto/src/contracts/RecryUsdcSwap.sol\":1423:1428  owner */\n      0x00\n      dup1\n      sload\n      swap1\n      0x0100\n      exp\n      swap1\n      div\n      0xffffffffffffffffffffffffffffffffffffffff\n      and\n        /* \"Documents/GitHub/ReCrypto/src/contracts/RecryUsdcSwap.sol\":1430:1437  _amount */\n      dup5\n        /* \"Documents/GitHub/ReCrypto/src/contracts/RecryUsdcSwap.sol\":1390:1438  usdc.transferFrom(address(this), owner, _amount) */\n      mload(0x40)\n      dup5\n      0xffffffff\n      and\n      0xe0\n      shl\n      dup2\n      mstore\n      0x04\n      add\n      tag_249\n      swap4\n      swap3\n      swap2\n      swap1\n      tag_136\n      jump\t// in\n    tag_249:\n      0x20\n      mload(0x40)\n      dup1\n      dup4\n      sub\n      dup2\n      0x00\n      dup8\n      dup1\n      extcodesize\n      iszero\n      dup1\n      iszero\n      tag_250\n      jumpi\n      0x00\n      dup1\n      revert\n    tag_250:\n      pop\n      gas\n      call\n      iszero\n      dup1\n      iszero\n      tag_252\n      jumpi\n      returndatasize\n      0x00\n      dup1\n      returndatacopy\n      revert(0x00, returndatasize)\n    tag_252:\n      pop\n      pop\n      pop\n      pop\n      mload(0x40)\n      returndatasize\n      not(0x1f)\n      0x1f\n      dup3\n      add\n      and\n      dup3\n      add\n      dup1\n      0x40\n      mstore\n      pop\n      dup2\n      add\n      swap1\n      tag_253\n      swap2\n      swap1\n      tag_141\n      jump\t// in\n    tag_253:\n        /* \"Documents/GitHub/ReCrypto/src/contracts/RecryUsdcSwap.sol\":1382:1439  require(usdc.transferFrom(address(this), owner, _amount)) */\n      tag_254\n      jumpi\n      0x00\n      dup1\n      revert\n    tag_254:\n        /* \"Documents/GitHub/ReCrypto/src/contracts/RecryUsdcSwap.sol\":1224:1447  function withdrawUsdc(uint _amount) public payable isOwner{\r... */\n      pop\n      jump\t// out\n        /* \"Documents/GitHub/ReCrypto/src/contracts/RecryUsdcSwap.sol\":2910:3012  function getSender() public view returns(address _value)\r... */\n    tag_79:\n        /* \"Documents/GitHub/ReCrypto/src/contracts/RecryUsdcSwap.sol\":2951:2965  address _value */\n      0x00\n        /* \"Documents/GitHub/ReCrypto/src/contracts/RecryUsdcSwap.sol\":2994:3004  msg.sender */\n      caller\n        /* \"Documents/GitHub/ReCrypto/src/contracts/RecryUsdcSwap.sol\":2987:3004  return msg.sender */\n      swap1\n      pop\n        /* \"Documents/GitHub/ReCrypto/src/contracts/RecryUsdcSwap.sol\":2910:3012  function getSender() public view returns(address _value)\r... */\n      swap1\n      jump\t// out\n        /* \"Documents/GitHub/ReCrypto/src/contracts/RecryUsdcSwap.sol\":2158:2264  function getRecryMaxSupply() public view returns(uint _value)\r... */\n    tag_84:\n        /* \"Documents/GitHub/ReCrypto/src/contracts/RecryUsdcSwap.sol\":2207:2218  uint _value */\n      0x00\n        /* \"Documents/GitHub/ReCrypto/src/contracts/RecryUsdcSwap.sol\":2247:2256  maxSupply */\n      sload(0x03)\n        /* \"Documents/GitHub/ReCrypto/src/contracts/RecryUsdcSwap.sol\":2240:2256  return maxSupply */\n      swap1\n      pop\n        /* \"Documents/GitHub/ReCrypto/src/contracts/RecryUsdcSwap.sol\":2158:2264  function getRecryMaxSupply() public view returns(uint _value)\r... */\n      swap1\n      jump\t// out\n        /* \"Documents/GitHub/ReCrypto/src/contracts/RecryUsdcSwap.sol\":3018:3114  function getOwner() public view returns(address _value)\r... */\n    tag_88:\n        /* \"Documents/GitHub/ReCrypto/src/contracts/RecryUsdcSwap.sol\":3058:3072  address _value */\n      0x00\n        /* \"Documents/GitHub/ReCrypto/src/contracts/RecryUsdcSwap.sol\":3101:3106  owner */\n      dup1\n      0x00\n      swap1\n      sload\n      swap1\n      0x0100\n      exp\n      swap1\n      div\n      0xffffffffffffffffffffffffffffffffffffffff\n      and\n        /* \"Documents/GitHub/ReCrypto/src/contracts/RecryUsdcSwap.sol\":3094:3106  return owner */\n      swap1\n      pop\n        /* \"Documents/GitHub/ReCrypto/src/contracts/RecryUsdcSwap.sol\":3018:3114  function getOwner() public view returns(address _value)\r... */\n      swap1\n      jump\t// out\n        /* \"Documents/GitHub/ReCrypto/src/contracts/RecryUsdcSwap.sol\":150:170  address public owner */\n    tag_92:\n      0x00\n      dup1\n      sload\n      swap1\n      0x0100\n      exp\n      swap1\n      div\n      0xffffffffffffffffffffffffffffffffffffffff\n      and\n      dup2\n      jump\t// out\n        /* \"Documents/GitHub/ReCrypto/src/contracts/RecryUsdcSwap.sol\":2410:2538  function getUsdcMaxAvailable() public view returns(uint _value)\r... */\n    tag_96:\n        /* \"Documents/GitHub/ReCrypto/src/contracts/RecryUsdcSwap.sol\":2461:2472  uint _value */\n      0x00\n        /* \"Documents/GitHub/ReCrypto/src/contracts/RecryUsdcSwap.sol\":2501:2505  usdc */\n      0x02\n      0x00\n      swap1\n      sload\n      swap1\n      0x0100\n      exp\n      swap1\n      div\n      0xffffffffffffffffffffffffffffffffffffffff\n      and\n        /* \"Documents/GitHub/ReCrypto/src/contracts/RecryUsdcSwap.sol\":2501:2515  usdc.balanceOf */\n      0xffffffffffffffffffffffffffffffffffffffff\n      and\n      0x70a08231\n        /* \"Documents/GitHub/ReCrypto/src/contracts/RecryUsdcSwap.sol\":2524:2528  this */\n      address\n        /* \"Documents/GitHub/ReCrypto/src/contracts/RecryUsdcSwap.sol\":2501:2530  usdc.balanceOf(address(this)) */\n      mload(0x40)\n      dup3\n      0xffffffff\n      and\n      0xe0\n      shl\n      dup2\n      mstore\n      0x04\n      add\n      tag_259\n      swap2\n      swap1\n      tag_81\n      jump\t// in\n    tag_259:\n      0x20\n      mload(0x40)\n      dup1\n      dup4\n      sub\n      dup2\n      dup7\n      dup1\n      extcodesize\n      iszero\n      dup1\n      iszero\n      tag_260\n      jumpi\n      0x00\n      dup1\n      revert\n    tag_260:\n      pop\n      gas\n      staticcall\n      iszero\n      dup1\n      iszero\n      tag_262\n      jumpi\n      returndatasize\n      0x00\n      dup1\n      returndatacopy\n      revert(0x00, returndatasize)\n    tag_262:\n      pop\n      pop\n      pop\n      pop\n      mload(0x40)\n      returndatasize\n      not(0x1f)\n      0x1f\n      dup3\n      add\n      and\n      dup3\n      add\n      dup1\n      0x40\n      mstore\n      pop\n      dup2\n      add\n      swap1\n      tag_263\n      swap2\n      swap1\n      tag_131\n      jump\t// in\n    tag_263:\n        /* \"Documents/GitHub/ReCrypto/src/contracts/RecryUsdcSwap.sol\":2494:2530  return usdc.balanceOf(address(this)) */\n      swap1\n      pop\n        /* \"Documents/GitHub/ReCrypto/src/contracts/RecryUsdcSwap.sol\":2410:2538  function getUsdcMaxAvailable() public view returns(uint _value)\r... */\n      swap1\n      jump\t// out\n        /* \"Documents/GitHub/ReCrypto/src/contracts/RecryUsdcSwap.sol\":240:268  uint public maxSupply    = 0 */\n    tag_100:\n      sload(0x03)\n      dup2\n      jump\t// out\n        /* \"Documents/GitHub/ReCrypto/src/contracts/RecryUsdcSwap.sol\":1998:2150  function getRecryTotalValue() public view returns(uint _value)\r... */\n    tag_104:\n        /* \"Documents/GitHub/ReCrypto/src/contracts/RecryUsdcSwap.sol\":2048:2059  uint _value */\n      0x00\n        /* \"Documents/GitHub/ReCrypto/src/contracts/RecryUsdcSwap.sol\":2115:2120  recry */\n      0x01\n      0x00\n      swap1\n      sload\n      swap1\n      0x0100\n      exp\n      swap1\n      div\n      0xffffffffffffffffffffffffffffffffffffffff\n      and\n        /* \"Documents/GitHub/ReCrypto/src/contracts/RecryUsdcSwap.sol\":2115:2130  recry.balanceOf */\n      0xffffffffffffffffffffffffffffffffffffffff\n      and\n      0x70a08231\n        /* \"Documents/GitHub/ReCrypto/src/contracts/RecryUsdcSwap.sol\":2131:2141  msg.sender */\n      caller\n        /* \"Documents/GitHub/ReCrypto/src/contracts/RecryUsdcSwap.sol\":2115:2142  recry.balanceOf(msg.sender) */\n      mload(0x40)\n      dup3\n      0xffffffff\n      and\n      0xe0\n      shl\n      dup2\n      mstore\n      0x04\n      add\n      tag_265\n      swap2\n      swap1\n      tag_81\n      jump\t// in\n    tag_265:\n      0x20\n      mload(0x40)\n      dup1\n      dup4\n      sub\n      dup2\n      dup7\n      dup1\n      extcodesize\n      iszero\n      dup1\n      iszero\n      tag_266\n      jumpi\n      0x00\n      dup1\n      revert\n    tag_266:\n      pop\n      gas\n      staticcall\n      iszero\n      dup1\n      iszero\n      tag_268\n      jumpi\n      returndatasize\n      0x00\n      dup1\n      returndatacopy\n      revert(0x00, returndatasize)\n    tag_268:\n      pop\n      pop\n      pop\n      pop\n      mload(0x40)\n      returndatasize\n      not(0x1f)\n      0x1f\n      dup3\n      add\n      and\n      dup3\n      add\n      dup1\n      0x40\n      mstore\n      pop\n      dup2\n      add\n      swap1\n      tag_269\n      swap2\n      swap1\n      tag_131\n      jump\t// in\n    tag_269:\n        /* \"Documents/GitHub/ReCrypto/src/contracts/RecryUsdcSwap.sol\":2097:2112  getRecryValue() */\n      tag_270\n        /* \"Documents/GitHub/ReCrypto/src/contracts/RecryUsdcSwap.sol\":2097:2110  getRecryValue */\n      tag_108\n        /* \"Documents/GitHub/ReCrypto/src/contracts/RecryUsdcSwap.sol\":2097:2112  getRecryValue() */\n      jump\t// in\n    tag_270:\n        /* \"Documents/GitHub/ReCrypto/src/contracts/RecryUsdcSwap.sol\":2097:2142  getRecryValue() * recry.balanceOf(msg.sender) */\n      tag_271\n      swap2\n      swap1\n      tag_272\n      jump\t// in\n    tag_271:\n        /* \"Documents/GitHub/ReCrypto/src/contracts/RecryUsdcSwap.sol\":2088:2142  _value = getRecryValue() * recry.balanceOf(msg.sender) */\n      swap1\n      pop\n        /* \"Documents/GitHub/ReCrypto/src/contracts/RecryUsdcSwap.sol\":1998:2150  function getRecryTotalValue() public view returns(uint _value)\r... */\n      swap1\n      jump\t// out\n        /* \"Documents/GitHub/ReCrypto/src/contracts/RecryUsdcSwap.sol\":1690:1828  function getRecryValue() public view returns(uint _value)\r... */\n    tag_108:\n        /* \"Documents/GitHub/ReCrypto/src/contracts/RecryUsdcSwap.sol\":1735:1746  uint _value */\n      0x00\n        /* \"Documents/GitHub/ReCrypto/src/contracts/RecryUsdcSwap.sol\":1810:1819  maxSupply */\n      sload(0x03)\n        /* \"Documents/GitHub/ReCrypto/src/contracts/RecryUsdcSwap.sol\":1796:1808  protocolGain */\n      sload(0x04)\n        /* \"Documents/GitHub/ReCrypto/src/contracts/RecryUsdcSwap.sol\":1786:1795  maxSupply */\n      sload(0x03)\n        /* \"Documents/GitHub/ReCrypto/src/contracts/RecryUsdcSwap.sol\":1786:1808  maxSupply+protocolGain */\n      tag_274\n      swap2\n      swap1\n      tag_152\n      jump\t// in\n    tag_274:\n        /* \"Documents/GitHub/ReCrypto/src/contracts/RecryUsdcSwap.sol\":1785:1819  (maxSupply+protocolGain)/maxSupply */\n      tag_275\n      swap2\n      swap1\n      tag_165\n      jump\t// in\n    tag_275:\n        /* \"Documents/GitHub/ReCrypto/src/contracts/RecryUsdcSwap.sol\":1775:1820  _value = ((maxSupply+protocolGain)/maxSupply) */\n      swap1\n      pop\n        /* \"Documents/GitHub/ReCrypto/src/contracts/RecryUsdcSwap.sol\":1690:1828  function getRecryValue() public view returns(uint _value)\r... */\n      swap1\n      jump\t// out\n        /* \"Documents/GitHub/ReCrypto/src/contracts/RecryUsdcSwap.sol\":4328:4956  function sellRecryForUsdc(uint _amount) public payable{\r... */\n    tag_112:\n        /* \"Documents/GitHub/ReCrypto/src/contracts/RecryUsdcSwap.sol\":4435:4449  uint qtyToSell */\n      0x00\n        /* \"Documents/GitHub/ReCrypto/src/contracts/RecryUsdcSwap.sol\":4462:4477  getRecryValue() */\n      tag_277\n        /* \"Documents/GitHub/ReCrypto/src/contracts/RecryUsdcSwap.sol\":4462:4475  getRecryValue */\n      tag_108\n        /* \"Documents/GitHub/ReCrypto/src/contracts/RecryUsdcSwap.sol\":4462:4477  getRecryValue() */\n      jump\t// in\n    tag_277:\n        /* \"Documents/GitHub/ReCrypto/src/contracts/RecryUsdcSwap.sol\":4452:4459  _amount */\n      dup3\n        /* \"Documents/GitHub/ReCrypto/src/contracts/RecryUsdcSwap.sol\":4452:4477  _amount * getRecryValue() */\n      tag_278\n      swap2\n      swap1\n      tag_272\n      jump\t// in\n    tag_278:\n        /* \"Documents/GitHub/ReCrypto/src/contracts/RecryUsdcSwap.sol\":4435:4477  uint qtyToSell = _amount * getRecryValue() */\n      swap1\n      pop\n        /* \"Documents/GitHub/ReCrypto/src/contracts/RecryUsdcSwap.sol\":4506:4507  0 */\n      0x00\n        /* \"Documents/GitHub/ReCrypto/src/contracts/RecryUsdcSwap.sol\":4496:4503  _amount */\n      dup3\n        /* \"Documents/GitHub/ReCrypto/src/contracts/RecryUsdcSwap.sol\":4496:4507  _amount > 0 */\n      gt\n        /* \"Documents/GitHub/ReCrypto/src/contracts/RecryUsdcSwap.sol\":4488:4530  require(_amount > 0, \"amount cannot be 0\") */\n      tag_279\n      jumpi\n      mload(0x40)\n      0x08c379a000000000000000000000000000000000000000000000000000000000\n      dup2\n      mstore\n      0x04\n      add\n      tag_280\n      swap1\n      tag_168\n      jump\t// in\n    tag_280:\n      mload(0x40)\n      dup1\n      swap2\n      sub\n      swap1\n      revert\n    tag_279:\n        /* \"Documents/GitHub/ReCrypto/src/contracts/RecryUsdcSwap.sol\":4580:4587  _amount */\n      dup2\n        /* \"Documents/GitHub/ReCrypto/src/contracts/RecryUsdcSwap.sol\":4549:4554  recry */\n      0x01\n      0x00\n      swap1\n      sload\n      swap1\n      0x0100\n      exp\n      swap1\n      div\n      0xffffffffffffffffffffffffffffffffffffffff\n      and\n        /* \"Documents/GitHub/ReCrypto/src/contracts/RecryUsdcSwap.sol\":4549:4564  recry.balanceOf */\n      0xffffffffffffffffffffffffffffffffffffffff\n      and\n      0x70a08231\n        /* \"Documents/GitHub/ReCrypto/src/contracts/RecryUsdcSwap.sol\":4565:4575  msg.sender */\n      caller\n        /* \"Documents/GitHub/ReCrypto/src/contracts/RecryUsdcSwap.sol\":4549:4576  recry.balanceOf(msg.sender) */\n      mload(0x40)\n      dup3\n      0xffffffff\n      and\n      0xe0\n      shl\n      dup2\n      mstore\n      0x04\n      add\n      tag_281\n      swap2\n      swap1\n      tag_81\n      jump\t// in\n    tag_281:\n      0x20\n      mload(0x40)\n      dup1\n      dup4\n      sub\n      dup2\n      dup7\n      dup1\n      extcodesize\n      iszero\n      dup1\n      iszero\n      tag_282\n      jumpi\n      0x00\n      dup1\n      revert\n    tag_282:\n      pop\n      gas\n      staticcall\n      iszero\n      dup1\n      iszero\n      tag_284\n      jumpi\n      returndatasize\n      0x00\n      dup1\n      returndatacopy\n      revert(0x00, returndatasize)\n    tag_284:\n      pop\n      pop\n      pop\n      pop\n      mload(0x40)\n      returndatasize\n      not(0x1f)\n      0x1f\n      dup3\n      add\n      and\n      dup3\n      add\n      dup1\n      0x40\n      mstore\n      pop\n      dup2\n      add\n      swap1\n      tag_285\n      swap2\n      swap1\n      tag_131\n      jump\t// in\n    tag_285:\n        /* \"Documents/GitHub/ReCrypto/src/contracts/RecryUsdcSwap.sol\":4549:4587  recry.balanceOf(msg.sender) >= _amount */\n      lt\n      iszero\n        /* \"Documents/GitHub/ReCrypto/src/contracts/RecryUsdcSwap.sol\":4541:4616  require(recry.balanceOf(msg.sender) >= _amount , \"no enough recry to sell\") */\n      tag_286\n      jumpi\n      mload(0x40)\n      0x08c379a000000000000000000000000000000000000000000000000000000000\n      dup2\n      mstore\n      0x04\n      add\n      tag_287\n      swap1\n      tag_288\n      jump\t// in\n    tag_287:\n      mload(0x40)\n      dup1\n      swap2\n      sub\n      swap1\n      revert\n    tag_286:\n        /* \"Documents/GitHub/ReCrypto/src/contracts/RecryUsdcSwap.sol\":4660:4669  qtyToSell */\n      dup1\n        /* \"Documents/GitHub/ReCrypto/src/contracts/RecryUsdcSwap.sol\":4635:4656  getUsdcMaxAvailable() */\n      tag_289\n        /* \"Documents/GitHub/ReCrypto/src/contracts/RecryUsdcSwap.sol\":4635:4654  getUsdcMaxAvailable */\n      tag_96\n        /* \"Documents/GitHub/ReCrypto/src/contracts/RecryUsdcSwap.sol\":4635:4656  getUsdcMaxAvailable() */\n      jump\t// in\n    tag_289:\n        /* \"Documents/GitHub/ReCrypto/src/contracts/RecryUsdcSwap.sol\":4635:4669  getUsdcMaxAvailable() >= qtyToSell */\n      lt\n      iszero\n        /* \"Documents/GitHub/ReCrypto/src/contracts/RecryUsdcSwap.sol\":4627:4697  require(getUsdcMaxAvailable() >= qtyToSell , \"no enough usdc to swap\") */\n      tag_290\n      jumpi\n      mload(0x40)\n      0x08c379a000000000000000000000000000000000000000000000000000000000\n      dup2\n      mstore\n      0x04\n      add\n      tag_291\n      swap1\n      tag_292\n      jump\t// in\n    tag_291:\n      mload(0x40)\n      dup1\n      swap2\n      sub\n      swap1\n      revert\n    tag_290:\n        /* \"Documents/GitHub/ReCrypto/src/contracts/RecryUsdcSwap.sol\":4777:4782  recry */\n      0x01\n      0x00\n      swap1\n      sload\n      swap1\n      0x0100\n      exp\n      swap1\n      div\n      0xffffffffffffffffffffffffffffffffffffffff\n      and\n        /* \"Documents/GitHub/ReCrypto/src/contracts/RecryUsdcSwap.sol\":4777:4795  recry.transferFrom */\n      0xffffffffffffffffffffffffffffffffffffffff\n      and\n      0x23b872dd\n        /* \"Documents/GitHub/ReCrypto/src/contracts/RecryUsdcSwap.sol\":4796:4806  msg.sender */\n      caller\n        /* \"Documents/GitHub/ReCrypto/src/contracts/RecryUsdcSwap.sol\":4816:4820  this */\n      address\n        /* \"Documents/GitHub/ReCrypto/src/contracts/RecryUsdcSwap.sol\":4823:4830  _amount */\n      dup6\n        /* \"Documents/GitHub/ReCrypto/src/contracts/RecryUsdcSwap.sol\":4777:4831  recry.transferFrom(msg.sender, address(this), _amount) */\n      mload(0x40)\n      dup5\n      0xffffffff\n      and\n      0xe0\n      shl\n      dup2\n      mstore\n      0x04\n      add\n      tag_293\n      swap4\n      swap3\n      swap2\n      swap1\n      tag_136\n      jump\t// in\n    tag_293:\n      0x20\n      mload(0x40)\n      dup1\n      dup4\n      sub\n      dup2\n      0x00\n      dup8\n      dup1\n      extcodesize\n      iszero\n      dup1\n      iszero\n      tag_294\n      jumpi\n      0x00\n      dup1\n      revert\n    tag_294:\n      pop\n      gas\n      call\n      iszero\n      dup1\n      iszero\n      tag_296\n      jumpi\n      returndatasize\n      0x00\n      dup1\n      returndatacopy\n      revert(0x00, returndatasize)\n    tag_296:\n      pop\n      pop\n      pop\n      pop\n      mload(0x40)\n      returndatasize\n      not(0x1f)\n      0x1f\n      dup3\n      add\n      and\n      dup3\n      add\n      dup1\n      0x40\n      mstore\n      pop\n      dup2\n      add\n      swap1\n      tag_297\n      swap2\n      swap1\n      tag_141\n      jump\t// in\n    tag_297:\n        /* \"Documents/GitHub/ReCrypto/src/contracts/RecryUsdcSwap.sol\":4769:4832  require(recry.transferFrom(msg.sender, address(this), _amount)) */\n      tag_298\n      jumpi\n      0x00\n      dup1\n      revert\n    tag_298:\n        /* \"Documents/GitHub/ReCrypto/src/contracts/RecryUsdcSwap.sol\":4883:4887  usdc */\n      0x02\n      0x00\n      swap1\n      sload\n      swap1\n      0x0100\n      exp\n      swap1\n      div\n      0xffffffffffffffffffffffffffffffffffffffff\n      and\n        /* \"Documents/GitHub/ReCrypto/src/contracts/RecryUsdcSwap.sol\":4883:4900  usdc.transferFrom */\n      0xffffffffffffffffffffffffffffffffffffffff\n      and\n      0x23b872dd\n        /* \"Documents/GitHub/ReCrypto/src/contracts/RecryUsdcSwap.sol\":4909:4913  this */\n      address\n        /* \"Documents/GitHub/ReCrypto/src/contracts/RecryUsdcSwap.sol\":4916:4926  msg.sender */\n      caller\n        /* \"Documents/GitHub/ReCrypto/src/contracts/RecryUsdcSwap.sol\":4928:4937  qtyToSell */\n      dup5\n        /* \"Documents/GitHub/ReCrypto/src/contracts/RecryUsdcSwap.sol\":4883:4938  usdc.transferFrom(address(this), msg.sender, qtyToSell) */\n      mload(0x40)\n      dup5\n      0xffffffff\n      and\n      0xe0\n      shl\n      dup2\n      mstore\n      0x04\n      add\n      tag_299\n      swap4\n      swap3\n      swap2\n      swap1\n      tag_136\n      jump\t// in\n    tag_299:\n      0x20\n      mload(0x40)\n      dup1\n      dup4\n      sub\n      dup2\n      0x00\n      dup8\n      dup1\n      extcodesize\n      iszero\n      dup1\n      iszero\n      tag_300\n      jumpi\n      0x00\n      dup1\n      revert\n    tag_300:\n      pop\n      gas\n      call\n      iszero\n      dup1\n      iszero\n      tag_302\n      jumpi\n      returndatasize\n      0x00\n      dup1\n      returndatacopy\n      revert(0x00, returndatasize)\n    tag_302:\n      pop\n      pop\n      pop\n      pop\n      mload(0x40)\n      returndatasize\n      not(0x1f)\n      0x1f\n      dup3\n      add\n      and\n      dup3\n      add\n      dup1\n      0x40\n      mstore\n      pop\n      dup2\n      add\n      swap1\n      tag_303\n      swap2\n      swap1\n      tag_141\n      jump\t// in\n    tag_303:\n      pop\n        /* \"Documents/GitHub/ReCrypto/src/contracts/RecryUsdcSwap.sol\":4382:4956  {\r... */\n      pop\n        /* \"Documents/GitHub/ReCrypto/src/contracts/RecryUsdcSwap.sol\":4328:4956  function sellRecryForUsdc(uint _amount) public payable{\r... */\n      pop\n      jump\t// out\n        /* \"Documents/GitHub/ReCrypto/src/contracts/RecryUsdcSwap.sol\":2546:2653  function getProtocolGain() public view returns(uint _value)\r... */\n    tag_115:\n        /* \"Documents/GitHub/ReCrypto/src/contracts/RecryUsdcSwap.sol\":2593:2604  uint _value */\n      0x00\n        /* \"Documents/GitHub/ReCrypto/src/contracts/RecryUsdcSwap.sol\":2633:2645  protocolGain */\n      sload(0x04)\n        /* \"Documents/GitHub/ReCrypto/src/contracts/RecryUsdcSwap.sol\":2626:2645  return protocolGain */\n      swap1\n      pop\n        /* \"Documents/GitHub/ReCrypto/src/contracts/RecryUsdcSwap.sol\":2546:2653  function getProtocolGain() public view returns(uint _value)\r... */\n      swap1\n      jump\t// out\n        /* \"Documents/GitHub/ReCrypto/src/contracts/RecryUsdcSwap.sol\":1834:1992  function getRecryPrice() public view returns(uint _value)\r... */\n    tag_119:\n        /* \"Documents/GitHub/ReCrypto/src/contracts/RecryUsdcSwap.sol\":1879:1890  uint _value */\n      0x00\n        /* \"Documents/GitHub/ReCrypto/src/contracts/RecryUsdcSwap.sol\":1965:1984  1000000000000000000 */\n      0x0de0b6b3a7640000\n        /* \"Documents/GitHub/ReCrypto/src/contracts/RecryUsdcSwap.sol\":1954:1963  maxSupply */\n      sload(0x03)\n        /* \"Documents/GitHub/ReCrypto/src/contracts/RecryUsdcSwap.sol\":1940:1952  protocolGain */\n      sload(0x04)\n        /* \"Documents/GitHub/ReCrypto/src/contracts/RecryUsdcSwap.sol\":1930:1939  maxSupply */\n      sload(0x03)\n        /* \"Documents/GitHub/ReCrypto/src/contracts/RecryUsdcSwap.sol\":1930:1952  maxSupply+protocolGain */\n      tag_306\n      swap2\n      swap1\n      tag_152\n      jump\t// in\n    tag_306:\n        /* \"Documents/GitHub/ReCrypto/src/contracts/RecryUsdcSwap.sol\":1929:1963  (maxSupply+protocolGain)/maxSupply */\n      tag_307\n      swap2\n      swap1\n      tag_165\n      jump\t// in\n    tag_307:\n        /* \"Documents/GitHub/ReCrypto/src/contracts/RecryUsdcSwap.sol\":1928:1984  ((maxSupply+protocolGain)/maxSupply)*1000000000000000000 */\n      tag_308\n      swap2\n      swap1\n      tag_272\n      jump\t// in\n    tag_308:\n        /* \"Documents/GitHub/ReCrypto/src/contracts/RecryUsdcSwap.sol\":1919:1984  _value = ((maxSupply+protocolGain)/maxSupply)*1000000000000000000 */\n      swap1\n      pop\n        /* \"Documents/GitHub/ReCrypto/src/contracts/RecryUsdcSwap.sol\":1834:1992  function getRecryPrice() public view returns(uint _value)\r... */\n      swap1\n      jump\t// out\n        /* \"#utility.yul\":7:144   */\n    tag_310:\n        /* \"#utility.yul\":61:66   */\n      0x00\n        /* \"#utility.yul\":92:98   */\n      dup2\n        /* \"#utility.yul\":86:99   */\n      mload\n        /* \"#utility.yul\":77:99   */\n      swap1\n      pop\n        /* \"#utility.yul\":108:138   */\n      tag_312\n        /* \"#utility.yul\":132:137   */\n      dup2\n        /* \"#utility.yul\":108:138   */\n      tag_313\n      jump\t// in\n    tag_312:\n        /* \"#utility.yul\":7:144   */\n      swap3\n      swap2\n      pop\n      pop\n      jump\t// out\n        /* \"#utility.yul\":150:289   */\n    tag_314:\n        /* \"#utility.yul\":196:201   */\n      0x00\n        /* \"#utility.yul\":234:240   */\n      dup2\n        /* \"#utility.yul\":221:241   */\n      calldataload\n        /* \"#utility.yul\":212:241   */\n      swap1\n      pop\n        /* \"#utility.yul\":250:283   */\n      tag_316\n        /* \"#utility.yul\":277:282   */\n      dup2\n        /* \"#utility.yul\":250:283   */\n      tag_317\n      jump\t// in\n    tag_316:\n        /* \"#utility.yul\":150:289   */\n      swap3\n      swap2\n      pop\n      pop\n      jump\t// out\n        /* \"#utility.yul\":295:438   */\n    tag_318:\n        /* \"#utility.yul\":352:357   */\n      0x00\n        /* \"#utility.yul\":383:389   */\n      dup2\n        /* \"#utility.yul\":377:390   */\n      mload\n        /* \"#utility.yul\":368:390   */\n      swap1\n      pop\n        /* \"#utility.yul\":399:432   */\n      tag_320\n        /* \"#utility.yul\":426:431   */\n      dup2\n        /* \"#utility.yul\":399:432   */\n      tag_317\n      jump\t// in\n    tag_320:\n        /* \"#utility.yul\":295:438   */\n      swap3\n      swap2\n      pop\n      pop\n      jump\t// out\n        /* \"#utility.yul\":444:789   */\n    tag_141:\n        /* \"#utility.yul\":511:517   */\n      0x00\n        /* \"#utility.yul\":560:562   */\n      0x20\n        /* \"#utility.yul\":548:557   */\n      dup3\n        /* \"#utility.yul\":539:546   */\n      dup5\n        /* \"#utility.yul\":535:558   */\n      sub\n        /* \"#utility.yul\":531:563   */\n      slt\n        /* \"#utility.yul\":528:647   */\n      iszero\n      tag_322\n      jumpi\n        /* \"#utility.yul\":566:645   */\n      tag_323\n      tag_324\n      jump\t// in\n    tag_323:\n        /* \"#utility.yul\":528:647   */\n    tag_322:\n        /* \"#utility.yul\":686:687   */\n      0x00\n        /* \"#utility.yul\":711:772   */\n      tag_325\n        /* \"#utility.yul\":764:771   */\n      dup5\n        /* \"#utility.yul\":755:761   */\n      dup3\n        /* \"#utility.yul\":744:753   */\n      dup6\n        /* \"#utility.yul\":740:762   */\n      add\n        /* \"#utility.yul\":711:772   */\n      tag_310\n      jump\t// in\n    tag_325:\n        /* \"#utility.yul\":701:772   */\n      swap2\n      pop\n        /* \"#utility.yul\":657:782   */\n      pop\n        /* \"#utility.yul\":444:789   */\n      swap3\n      swap2\n      pop\n      pop\n      jump\t// out\n        /* \"#utility.yul\":795:1124   */\n    tag_40:\n        /* \"#utility.yul\":854:860   */\n      0x00\n        /* \"#utility.yul\":903:905   */\n      0x20\n        /* \"#utility.yul\":891:900   */\n      dup3\n        /* \"#utility.yul\":882:889   */\n      dup5\n        /* \"#utility.yul\":878:901   */\n      sub\n        /* \"#utility.yul\":874:906   */\n      slt\n        /* \"#utility.yul\":871:990   */\n      iszero\n      tag_327\n      jumpi\n        /* \"#utility.yul\":909:988   */\n      tag_328\n      tag_324\n      jump\t// in\n    tag_328:\n        /* \"#utility.yul\":871:990   */\n    tag_327:\n        /* \"#utility.yul\":1029:1030   */\n      0x00\n        /* \"#utility.yul\":1054:1107   */\n      tag_329\n        /* \"#utility.yul\":1099:1106   */\n      dup5\n        /* \"#utility.yul\":1090:1096   */\n      dup3\n        /* \"#utility.yul\":1079:1088   */\n      dup6\n        /* \"#utility.yul\":1075:1097   */\n      add\n        /* \"#utility.yul\":1054:1107   */\n      tag_314\n      jump\t// in\n    tag_329:\n        /* \"#utility.yul\":1044:1107   */\n      swap2\n      pop\n        /* \"#utility.yul\":1000:1117   */\n      pop\n        /* \"#utility.yul\":795:1124   */\n      swap3\n      swap2\n      pop\n      pop\n      jump\t// out\n        /* \"#utility.yul\":1130:1481   */\n    tag_131:\n        /* \"#utility.yul\":1200:1206   */\n      0x00\n        /* \"#utility.yul\":1249:1251   */\n      0x20\n        /* \"#utility.yul\":1237:1246   */\n      dup3\n        /* \"#utility.yul\":1228:1235   */\n      dup5\n        /* \"#utility.yul\":1224:1247   */\n      sub\n        /* \"#utility.yul\":1220:1252   */\n      slt\n        /* \"#utility.yul\":1217:1336   */\n      iszero\n      tag_331\n      jumpi\n        /* \"#utility.yul\":1255:1334   */\n      tag_332\n      tag_324\n      jump\t// in\n    tag_332:\n        /* \"#utility.yul\":1217:1336   */\n    tag_331:\n        /* \"#utility.yul\":1375:1376   */\n      0x00\n        /* \"#utility.yul\":1400:1464   */\n      tag_333\n        /* \"#utility.yul\":1456:1463   */\n      dup5\n        /* \"#utility.yul\":1447:1453   */\n      dup3\n        /* \"#utility.yul\":1436:1445   */\n      dup6\n        /* \"#utility.yul\":1432:1454   */\n      add\n        /* \"#utility.yul\":1400:1464   */\n      tag_318\n      jump\t// in\n    tag_333:\n        /* \"#utility.yul\":1390:1464   */\n      swap2\n      pop\n        /* \"#utility.yul\":1346:1474   */\n      pop\n        /* \"#utility.yul\":1130:1481   */\n      swap3\n      swap2\n      pop\n      pop\n      jump\t// out\n        /* \"#utility.yul\":1487:1605   */\n    tag_334:\n        /* \"#utility.yul\":1574:1598   */\n      tag_336\n        /* \"#utility.yul\":1592:1597   */\n      dup2\n        /* \"#utility.yul\":1574:1598   */\n      tag_337\n      jump\t// in\n    tag_336:\n        /* \"#utility.yul\":1569:1572   */\n      dup3\n        /* \"#utility.yul\":1562:1599   */\n      mstore\n        /* \"#utility.yul\":1487:1605   */\n      pop\n      pop\n      jump\t// out\n        /* \"#utility.yul\":1611:1720   */\n    tag_338:\n        /* \"#utility.yul\":1692:1713   */\n      tag_340\n        /* \"#utility.yul\":1707:1712   */\n      dup2\n        /* \"#utility.yul\":1692:1713   */\n      tag_341\n      jump\t// in\n    tag_340:\n        /* \"#utility.yul\":1687:1690   */\n      dup3\n        /* \"#utility.yul\":1680:1714   */\n      mstore\n        /* \"#utility.yul\":1611:1720   */\n      pop\n      pop\n      jump\t// out\n        /* \"#utility.yul\":1726:1899   */\n    tag_342:\n        /* \"#utility.yul\":1834:1892   */\n      tag_344\n        /* \"#utility.yul\":1886:1891   */\n      dup2\n        /* \"#utility.yul\":1834:1892   */\n      tag_345\n      jump\t// in\n    tag_344:\n        /* \"#utility.yul\":1829:1832   */\n      dup3\n        /* \"#utility.yul\":1822:1893   */\n      mstore\n        /* \"#utility.yul\":1726:1899   */\n      pop\n      pop\n      jump\t// out\n        /* \"#utility.yul\":1905:2072   */\n    tag_346:\n        /* \"#utility.yul\":2010:2065   */\n      tag_348\n        /* \"#utility.yul\":2059:2064   */\n      dup2\n        /* \"#utility.yul\":2010:2065   */\n      tag_349\n      jump\t// in\n    tag_348:\n        /* \"#utility.yul\":2005:2008   */\n      dup3\n        /* \"#utility.yul\":1998:2066   */\n      mstore\n        /* \"#utility.yul\":1905:2072   */\n      pop\n      pop\n      jump\t// out\n        /* \"#utility.yul\":2078:2444   */\n    tag_350:\n        /* \"#utility.yul\":2220:2223   */\n      0x00\n        /* \"#utility.yul\":2241:2308   */\n      tag_352\n        /* \"#utility.yul\":2305:2307   */\n      0x13\n        /* \"#utility.yul\":2300:2303   */\n      dup4\n        /* \"#utility.yul\":2241:2308   */\n      tag_353\n      jump\t// in\n    tag_352:\n        /* \"#utility.yul\":2234:2308   */\n      swap2\n      pop\n        /* \"#utility.yul\":2317:2410   */\n      tag_354\n        /* \"#utility.yul\":2406:2409   */\n      dup3\n        /* \"#utility.yul\":2317:2410   */\n      tag_355\n      jump\t// in\n    tag_354:\n        /* \"#utility.yul\":2435:2437   */\n      0x20\n        /* \"#utility.yul\":2430:2433   */\n      dup3\n        /* \"#utility.yul\":2426:2438   */\n      add\n        /* \"#utility.yul\":2419:2438   */\n      swap1\n      pop\n        /* \"#utility.yul\":2078:2444   */\n      swap2\n      swap1\n      pop\n      jump\t// out\n        /* \"#utility.yul\":2450:2816   */\n    tag_356:\n        /* \"#utility.yul\":2592:2595   */\n      0x00\n        /* \"#utility.yul\":2613:2680   */\n      tag_358\n        /* \"#utility.yul\":2677:2679   */\n      0x17\n        /* \"#utility.yul\":2672:2675   */\n      dup4\n        /* \"#utility.yul\":2613:2680   */\n      tag_353\n      jump\t// in\n    tag_358:\n        /* \"#utility.yul\":2606:2680   */\n      swap2\n      pop\n        /* \"#utility.yul\":2689:2782   */\n      tag_359\n        /* \"#utility.yul\":2778:2781   */\n      dup3\n        /* \"#utility.yul\":2689:2782   */\n      tag_360\n      jump\t// in\n    tag_359:\n        /* \"#utility.yul\":2807:2809   */\n      0x20\n        /* \"#utility.yul\":2802:2805   */\n      dup3\n        /* \"#utility.yul\":2798:2810   */\n      add\n        /* \"#utility.yul\":2791:2810   */\n      swap1\n      pop\n        /* \"#utility.yul\":2450:2816   */\n      swap2\n      swap1\n      pop\n      jump\t// out\n        /* \"#utility.yul\":2822:3188   */\n    tag_361:\n        /* \"#utility.yul\":2964:2967   */\n      0x00\n        /* \"#utility.yul\":2985:3052   */\n      tag_363\n        /* \"#utility.yul\":3049:3051   */\n      0x16\n        /* \"#utility.yul\":3044:3047   */\n      dup4\n        /* \"#utility.yul\":2985:3052   */\n      tag_353\n      jump\t// in\n    tag_363:\n        /* \"#utility.yul\":2978:3052   */\n      swap2\n      pop\n        /* \"#utility.yul\":3061:3154   */\n      tag_364\n        /* \"#utility.yul\":3150:3153   */\n      dup3\n        /* \"#utility.yul\":3061:3154   */\n      tag_365\n      jump\t// in\n    tag_364:\n        /* \"#utility.yul\":3179:3181   */\n      0x20\n        /* \"#utility.yul\":3174:3177   */\n      dup3\n        /* \"#utility.yul\":3170:3182   */\n      add\n        /* \"#utility.yul\":3163:3182   */\n      swap1\n      pop\n        /* \"#utility.yul\":2822:3188   */\n      swap2\n      swap1\n      pop\n      jump\t// out\n        /* \"#utility.yul\":3194:3560   */\n    tag_366:\n        /* \"#utility.yul\":3336:3339   */\n      0x00\n        /* \"#utility.yul\":3357:3424   */\n      tag_368\n        /* \"#utility.yul\":3421:3423   */\n      0x16\n        /* \"#utility.yul\":3416:3419   */\n      dup4\n        /* \"#utility.yul\":3357:3424   */\n      tag_353\n      jump\t// in\n    tag_368:\n        /* \"#utility.yul\":3350:3424   */\n      swap2\n      pop\n        /* \"#utility.yul\":3433:3526   */\n      tag_369\n        /* \"#utility.yul\":3522:3525   */\n      dup3\n        /* \"#utility.yul\":3433:3526   */\n      tag_370\n      jump\t// in\n    tag_369:\n        /* \"#utility.yul\":3551:3553   */\n      0x20\n        /* \"#utility.yul\":3546:3549   */\n      dup3\n        /* \"#utility.yul\":3542:3554   */\n      add\n        /* \"#utility.yul\":3535:3554   */\n      swap1\n      pop\n        /* \"#utility.yul\":3194:3560   */\n      swap2\n      swap1\n      pop\n      jump\t// out\n        /* \"#utility.yul\":3566:3932   */\n    tag_371:\n        /* \"#utility.yul\":3708:3711   */\n      0x00\n        /* \"#utility.yul\":3729:3796   */\n      tag_373\n        /* \"#utility.yul\":3793:3795   */\n      0x1a\n        /* \"#utility.yul\":3788:3791   */\n      dup4\n        /* \"#utility.yul\":3729:3796   */\n      tag_353\n      jump\t// in\n    tag_373:\n        /* \"#utility.yul\":3722:3796   */\n      swap2\n      pop\n        /* \"#utility.yul\":3805:3898   */\n      tag_374\n        /* \"#utility.yul\":3894:3897   */\n      dup3\n        /* \"#utility.yul\":3805:3898   */\n      tag_375\n      jump\t// in\n    tag_374:\n        /* \"#utility.yul\":3923:3925   */\n      0x20\n        /* \"#utility.yul\":3918:3921   */\n      dup3\n        /* \"#utility.yul\":3914:3926   */\n      add\n        /* \"#utility.yul\":3907:3926   */\n      swap1\n      pop\n        /* \"#utility.yul\":3566:3932   */\n      swap2\n      swap1\n      pop\n      jump\t// out\n        /* \"#utility.yul\":3938:4304   */\n    tag_376:\n        /* \"#utility.yul\":4080:4083   */\n      0x00\n        /* \"#utility.yul\":4101:4168   */\n      tag_378\n        /* \"#utility.yul\":4165:4167   */\n      0x1b\n        /* \"#utility.yul\":4160:4163   */\n      dup4\n        /* \"#utility.yul\":4101:4168   */\n      tag_353\n      jump\t// in\n    tag_378:\n        /* \"#utility.yul\":4094:4168   */\n      swap2\n      pop\n        /* \"#utility.yul\":4177:4270   */\n      tag_379\n        /* \"#utility.yul\":4266:4269   */\n      dup3\n        /* \"#utility.yul\":4177:4270   */\n      tag_380\n      jump\t// in\n    tag_379:\n        /* \"#utility.yul\":4295:4297   */\n      0x20\n        /* \"#utility.yul\":4290:4293   */\n      dup3\n        /* \"#utility.yul\":4286:4298   */\n      add\n        /* \"#utility.yul\":4279:4298   */\n      swap1\n      pop\n        /* \"#utility.yul\":3938:4304   */\n      swap2\n      swap1\n      pop\n      jump\t// out\n        /* \"#utility.yul\":4310:4676   */\n    tag_381:\n        /* \"#utility.yul\":4452:4455   */\n      0x00\n        /* \"#utility.yul\":4473:4540   */\n      tag_383\n        /* \"#utility.yul\":4537:4539   */\n      0x16\n        /* \"#utility.yul\":4532:4535   */\n      dup4\n        /* \"#utility.yul\":4473:4540   */\n      tag_353\n      jump\t// in\n    tag_383:\n        /* \"#utility.yul\":4466:4540   */\n      swap2\n      pop\n        /* \"#utility.yul\":4549:4642   */\n      tag_384\n        /* \"#utility.yul\":4638:4641   */\n      dup3\n        /* \"#utility.yul\":4549:4642   */\n      tag_385\n      jump\t// in\n    tag_384:\n        /* \"#utility.yul\":4667:4669   */\n      0x20\n        /* \"#utility.yul\":4662:4665   */\n      dup3\n        /* \"#utility.yul\":4658:4670   */\n      add\n        /* \"#utility.yul\":4651:4670   */\n      swap1\n      pop\n        /* \"#utility.yul\":4310:4676   */\n      swap2\n      swap1\n      pop\n      jump\t// out\n        /* \"#utility.yul\":4682:5048   */\n    tag_386:\n        /* \"#utility.yul\":4824:4827   */\n      0x00\n        /* \"#utility.yul\":4845:4912   */\n      tag_388\n        /* \"#utility.yul\":4909:4911   */\n      0x12\n        /* \"#utility.yul\":4904:4907   */\n      dup4\n        /* \"#utility.yul\":4845:4912   */\n      tag_353\n      jump\t// in\n    tag_388:\n        /* \"#utility.yul\":4838:4912   */\n      swap2\n      pop\n        /* \"#utility.yul\":4921:5014   */\n      tag_389\n        /* \"#utility.yul\":5010:5013   */\n      dup3\n        /* \"#utility.yul\":4921:5014   */\n      tag_390\n      jump\t// in\n    tag_389:\n        /* \"#utility.yul\":5039:5041   */\n      0x20\n        /* \"#utility.yul\":5034:5037   */\n      dup3\n        /* \"#utility.yul\":5030:5042   */\n      add\n        /* \"#utility.yul\":5023:5042   */\n      swap1\n      pop\n        /* \"#utility.yul\":4682:5048   */\n      swap2\n      swap1\n      pop\n      jump\t// out\n        /* \"#utility.yul\":5054:5172   */\n    tag_391:\n        /* \"#utility.yul\":5141:5165   */\n      tag_393\n        /* \"#utility.yul\":5159:5164   */\n      dup2\n        /* \"#utility.yul\":5141:5165   */\n      tag_394\n      jump\t// in\n    tag_393:\n        /* \"#utility.yul\":5136:5139   */\n      dup3\n        /* \"#utility.yul\":5129:5166   */\n      mstore\n        /* \"#utility.yul\":5054:5172   */\n      pop\n      pop\n      jump\t// out\n        /* \"#utility.yul\":5178:5400   */\n    tag_81:\n        /* \"#utility.yul\":5271:5275   */\n      0x00\n        /* \"#utility.yul\":5309:5311   */\n      0x20\n        /* \"#utility.yul\":5298:5307   */\n      dup3\n        /* \"#utility.yul\":5294:5312   */\n      add\n        /* \"#utility.yul\":5286:5312   */\n      swap1\n      pop\n        /* \"#utility.yul\":5322:5393   */\n      tag_396\n        /* \"#utility.yul\":5390:5391   */\n      0x00\n        /* \"#utility.yul\":5379:5388   */\n      dup4\n        /* \"#utility.yul\":5375:5392   */\n      add\n        /* \"#utility.yul\":5366:5372   */\n      dup5\n        /* \"#utility.yul\":5322:5393   */\n      tag_334\n      jump\t// in\n    tag_396:\n        /* \"#utility.yul\":5178:5400   */\n      swap3\n      swap2\n      pop\n      pop\n      jump\t// out\n        /* \"#utility.yul\":5406:5848   */\n    tag_136:\n        /* \"#utility.yul\":5555:5559   */\n      0x00\n        /* \"#utility.yul\":5593:5595   */\n      0x60\n        /* \"#utility.yul\":5582:5591   */\n      dup3\n        /* \"#utility.yul\":5578:5596   */\n      add\n        /* \"#utility.yul\":5570:5596   */\n      swap1\n      pop\n        /* \"#utility.yul\":5606:5677   */\n      tag_398\n        /* \"#utility.yul\":5674:5675   */\n      0x00\n        /* \"#utility.yul\":5663:5672   */\n      dup4\n        /* \"#utility.yul\":5659:5676   */\n      add\n        /* \"#utility.yul\":5650:5656   */\n      dup7\n        /* \"#utility.yul\":5606:5677   */\n      tag_334\n      jump\t// in\n    tag_398:\n        /* \"#utility.yul\":5687:5759   */\n      tag_399\n        /* \"#utility.yul\":5755:5757   */\n      0x20\n        /* \"#utility.yul\":5744:5753   */\n      dup4\n        /* \"#utility.yul\":5740:5758   */\n      add\n        /* \"#utility.yul\":5731:5737   */\n      dup6\n        /* \"#utility.yul\":5687:5759   */\n      tag_334\n      jump\t// in\n    tag_399:\n        /* \"#utility.yul\":5769:5841   */\n      tag_400\n        /* \"#utility.yul\":5837:5839   */\n      0x40\n        /* \"#utility.yul\":5826:5835   */\n      dup4\n        /* \"#utility.yul\":5822:5840   */\n      add\n        /* \"#utility.yul\":5813:5819   */\n      dup5\n        /* \"#utility.yul\":5769:5841   */\n      tag_391\n      jump\t// in\n    tag_400:\n        /* \"#utility.yul\":5406:5848   */\n      swap5\n      swap4\n      pop\n      pop\n      pop\n      pop\n      jump\t// out\n        /* \"#utility.yul\":5854:6064   */\n    tag_54:\n        /* \"#utility.yul\":5941:5945   */\n      0x00\n        /* \"#utility.yul\":5979:5981   */\n      0x20\n        /* \"#utility.yul\":5968:5977   */\n      dup3\n        /* \"#utility.yul\":5964:5982   */\n      add\n        /* \"#utility.yul\":5956:5982   */\n      swap1\n      pop\n        /* \"#utility.yul\":5992:6057   */\n      tag_402\n        /* \"#utility.yul\":6054:6055   */\n      0x00\n        /* \"#utility.yul\":6043:6052   */\n      dup4\n        /* \"#utility.yul\":6039:6056   */\n      add\n        /* \"#utility.yul\":6030:6036   */\n      dup5\n        /* \"#utility.yul\":5992:6057   */\n      tag_338\n      jump\t// in\n    tag_402:\n        /* \"#utility.yul\":5854:6064   */\n      swap3\n      swap2\n      pop\n      pop\n      jump\t// out\n        /* \"#utility.yul\":6070:6334   */\n    tag_32:\n        /* \"#utility.yul\":6184:6188   */\n      0x00\n        /* \"#utility.yul\":6222:6224   */\n      0x20\n        /* \"#utility.yul\":6211:6220   */\n      dup3\n        /* \"#utility.yul\":6207:6225   */\n      add\n        /* \"#utility.yul\":6199:6225   */\n      swap1\n      pop\n        /* \"#utility.yul\":6235:6327   */\n      tag_404\n        /* \"#utility.yul\":6324:6325   */\n      0x00\n        /* \"#utility.yul\":6313:6322   */\n      dup4\n        /* \"#utility.yul\":6309:6326   */\n      add\n        /* \"#utility.yul\":6300:6306   */\n      dup5\n        /* \"#utility.yul\":6235:6327   */\n      tag_342\n      jump\t// in\n    tag_404:\n        /* \"#utility.yul\":6070:6334   */\n      swap3\n      swap2\n      pop\n      pop\n      jump\t// out\n        /* \"#utility.yul\":6340:6598   */\n    tag_66:\n        /* \"#utility.yul\":6451:6455   */\n      0x00\n        /* \"#utility.yul\":6489:6491   */\n      0x20\n        /* \"#utility.yul\":6478:6487   */\n      dup3\n        /* \"#utility.yul\":6474:6492   */\n      add\n        /* \"#utility.yul\":6466:6492   */\n      swap1\n      pop\n        /* \"#utility.yul\":6502:6591   */\n      tag_406\n        /* \"#utility.yul\":6588:6589   */\n      0x00\n        /* \"#utility.yul\":6577:6586   */\n      dup4\n        /* \"#utility.yul\":6573:6590   */\n      add\n        /* \"#utility.yul\":6564:6570   */\n      dup5\n        /* \"#utility.yul\":6502:6591   */\n      tag_346\n      jump\t// in\n    tag_406:\n        /* \"#utility.yul\":6340:6598   */\n      swap3\n      swap2\n      pop\n      pop\n      jump\t// out\n        /* \"#utility.yul\":6604:7023   */\n    tag_124:\n        /* \"#utility.yul\":6770:6774   */\n      0x00\n        /* \"#utility.yul\":6808:6810   */\n      0x20\n        /* \"#utility.yul\":6797:6806   */\n      dup3\n        /* \"#utility.yul\":6793:6811   */\n      add\n        /* \"#utility.yul\":6785:6811   */\n      swap1\n      pop\n        /* \"#utility.yul\":6857:6866   */\n      dup2\n        /* \"#utility.yul\":6851:6855   */\n      dup2\n        /* \"#utility.yul\":6847:6867   */\n      sub\n        /* \"#utility.yul\":6843:6844   */\n      0x00\n        /* \"#utility.yul\":6832:6841   */\n      dup4\n        /* \"#utility.yul\":6828:6845   */\n      add\n        /* \"#utility.yul\":6821:6868   */\n      mstore\n        /* \"#utility.yul\":6885:7016   */\n      tag_408\n        /* \"#utility.yul\":7011:7015   */\n      dup2\n        /* \"#utility.yul\":6885:7016   */\n      tag_350\n      jump\t// in\n    tag_408:\n        /* \"#utility.yul\":6877:7016   */\n      swap1\n      pop\n        /* \"#utility.yul\":6604:7023   */\n      swap2\n      swap1\n      pop\n      jump\t// out\n        /* \"#utility.yul\":7029:7448   */\n    tag_288:\n        /* \"#utility.yul\":7195:7199   */\n      0x00\n        /* \"#utility.yul\":7233:7235   */\n      0x20\n        /* \"#utility.yul\":7222:7231   */\n      dup3\n        /* \"#utility.yul\":7218:7236   */\n      add\n        /* \"#utility.yul\":7210:7236   */\n      swap1\n      pop\n        /* \"#utility.yul\":7282:7291   */\n      dup2\n        /* \"#utility.yul\":7276:7280   */\n      dup2\n        /* \"#utility.yul\":7272:7292   */\n      sub\n        /* \"#utility.yul\":7268:7269   */\n      0x00\n        /* \"#utility.yul\":7257:7266   */\n      dup4\n        /* \"#utility.yul\":7253:7270   */\n      add\n        /* \"#utility.yul\":7246:7293   */\n      mstore\n        /* \"#utility.yul\":7310:7441   */\n      tag_410\n        /* \"#utility.yul\":7436:7440   */\n      dup2\n        /* \"#utility.yul\":7310:7441   */\n      tag_356\n      jump\t// in\n    tag_410:\n        /* \"#utility.yul\":7302:7441   */\n      swap1\n      pop\n        /* \"#utility.yul\":7029:7448   */\n      swap2\n      swap1\n      pop\n      jump\t// out\n        /* \"#utility.yul\":7454:7873   */\n    tag_292:\n        /* \"#utility.yul\":7620:7624   */\n      0x00\n        /* \"#utility.yul\":7658:7660   */\n      0x20\n        /* \"#utility.yul\":7647:7656   */\n      dup3\n        /* \"#utility.yul\":7643:7661   */\n      add\n        /* \"#utility.yul\":7635:7661   */\n      swap1\n      pop\n        /* \"#utility.yul\":7707:7716   */\n      dup2\n        /* \"#utility.yul\":7701:7705   */\n      dup2\n        /* \"#utility.yul\":7697:7717   */\n      sub\n        /* \"#utility.yul\":7693:7694   */\n      0x00\n        /* \"#utility.yul\":7682:7691   */\n      dup4\n        /* \"#utility.yul\":7678:7695   */\n      add\n        /* \"#utility.yul\":7671:7718   */\n      mstore\n        /* \"#utility.yul\":7735:7866   */\n      tag_412\n        /* \"#utility.yul\":7861:7865   */\n      dup2\n        /* \"#utility.yul\":7735:7866   */\n      tag_361\n      jump\t// in\n    tag_412:\n        /* \"#utility.yul\":7727:7866   */\n      swap1\n      pop\n        /* \"#utility.yul\":7454:7873   */\n      swap2\n      swap1\n      pop\n      jump\t// out\n        /* \"#utility.yul\":7879:8298   */\n    tag_229:\n        /* \"#utility.yul\":8045:8049   */\n      0x00\n        /* \"#utility.yul\":8083:8085   */\n      0x20\n        /* \"#utility.yul\":8072:8081   */\n      dup3\n        /* \"#utility.yul\":8068:8086   */\n      add\n        /* \"#utility.yul\":8060:8086   */\n      swap1\n      pop\n        /* \"#utility.yul\":8132:8141   */\n      dup2\n        /* \"#utility.yul\":8126:8130   */\n      dup2\n        /* \"#utility.yul\":8122:8142   */\n      sub\n        /* \"#utility.yul\":8118:8119   */\n      0x00\n        /* \"#utility.yul\":8107:8116   */\n      dup4\n        /* \"#utility.yul\":8103:8120   */\n      add\n        /* \"#utility.yul\":8096:8143   */\n      mstore\n        /* \"#utility.yul\":8160:8291   */\n      tag_414\n        /* \"#utility.yul\":8286:8290   */\n      dup2\n        /* \"#utility.yul\":8160:8291   */\n      tag_366\n      jump\t// in\n    tag_414:\n        /* \"#utility.yul\":8152:8291   */\n      swap1\n      pop\n        /* \"#utility.yul\":7879:8298   */\n      swap2\n      swap1\n      pop\n      jump\t// out\n        /* \"#utility.yul\":8304:8723   */\n    tag_248:\n        /* \"#utility.yul\":8470:8474   */\n      0x00\n        /* \"#utility.yul\":8508:8510   */\n      0x20\n        /* \"#utility.yul\":8497:8506   */\n      dup3\n        /* \"#utility.yul\":8493:8511   */\n      add\n        /* \"#utility.yul\":8485:8511   */\n      swap1\n      pop\n        /* \"#utility.yul\":8557:8566   */\n      dup2\n        /* \"#utility.yul\":8551:8555   */\n      dup2\n        /* \"#utility.yul\":8547:8567   */\n      sub\n        /* \"#utility.yul\":8543:8544   */\n      0x00\n        /* \"#utility.yul\":8532:8541   */\n      dup4\n        /* \"#utility.yul\":8528:8545   */\n      add\n        /* \"#utility.yul\":8521:8568   */\n      mstore\n        /* \"#utility.yul\":8585:8716   */\n      tag_416\n        /* \"#utility.yul\":8711:8715   */\n      dup2\n        /* \"#utility.yul\":8585:8716   */\n      tag_371\n      jump\t// in\n    tag_416:\n        /* \"#utility.yul\":8577:8716   */\n      swap1\n      pop\n        /* \"#utility.yul\":8304:8723   */\n      swap2\n      swap1\n      pop\n      jump\t// out\n        /* \"#utility.yul\":8729:9148   */\n    tag_134:\n        /* \"#utility.yul\":8895:8899   */\n      0x00\n        /* \"#utility.yul\":8933:8935   */\n      0x20\n        /* \"#utility.yul\":8922:8931   */\n      dup3\n        /* \"#utility.yul\":8918:8936   */\n      add\n        /* \"#utility.yul\":8910:8936   */\n      swap1\n      pop\n        /* \"#utility.yul\":8982:8991   */\n      dup2\n        /* \"#utility.yul\":8976:8980   */\n      dup2\n        /* \"#utility.yul\":8972:8992   */\n      sub\n        /* \"#utility.yul\":8968:8969   */\n      0x00\n        /* \"#utility.yul\":8957:8966   */\n      dup4\n        /* \"#utility.yul\":8953:8970   */\n      add\n        /* \"#utility.yul\":8946:8993   */\n      mstore\n        /* \"#utility.yul\":9010:9141   */\n      tag_418\n        /* \"#utility.yul\":9136:9140   */\n      dup2\n        /* \"#utility.yul\":9010:9141   */\n      tag_376\n      jump\t// in\n    tag_418:\n        /* \"#utility.yul\":9002:9141   */\n      swap1\n      pop\n        /* \"#utility.yul\":8729:9148   */\n      swap2\n      swap1\n      pop\n      jump\t// out\n        /* \"#utility.yul\":9154:9573   */\n    tag_176:\n        /* \"#utility.yul\":9320:9324   */\n      0x00\n        /* \"#utility.yul\":9358:9360   */\n      0x20\n        /* \"#utility.yul\":9347:9356   */\n      dup3\n        /* \"#utility.yul\":9343:9361   */\n      add\n        /* \"#utility.yul\":9335:9361   */\n      swap1\n      pop\n        /* \"#utility.yul\":9407:9416   */\n      dup2\n        /* \"#utility.yul\":9401:9405   */\n      dup2\n        /* \"#utility.yul\":9397:9417   */\n      sub\n        /* \"#utility.yul\":9393:9394   */\n      0x00\n        /* \"#utility.yul\":9382:9391   */\n      dup4\n        /* \"#utility.yul\":9378:9395   */\n      add\n        /* \"#utility.yul\":9371:9418   */\n      mstore\n        /* \"#utility.yul\":9435:9566   */\n      tag_420\n        /* \"#utility.yul\":9561:9565   */\n      dup2\n        /* \"#utility.yul\":9435:9566   */\n      tag_381\n      jump\t// in\n    tag_420:\n        /* \"#utility.yul\":9427:9566   */\n      swap1\n      pop\n        /* \"#utility.yul\":9154:9573   */\n      swap2\n      swap1\n      pop\n      jump\t// out\n        /* \"#utility.yul\":9579:9998   */\n    tag_168:\n        /* \"#utility.yul\":9745:9749   */\n      0x00\n        /* \"#utility.yul\":9783:9785   */\n      0x20\n        /* \"#utility.yul\":9772:9781   */\n      dup3\n        /* \"#utility.yul\":9768:9786   */\n      add\n        /* \"#utility.yul\":9760:9786   */\n      swap1\n      pop\n        /* \"#utility.yul\":9832:9841   */\n      dup2\n        /* \"#utility.yul\":9826:9830   */\n      dup2\n        /* \"#utility.yul\":9822:9842   */\n      sub\n        /* \"#utility.yul\":9818:9819   */\n      0x00\n        /* \"#utility.yul\":9807:9816   */\n      dup4\n        /* \"#utility.yul\":9803:9820   */\n      add\n        /* \"#utility.yul\":9796:9843   */\n      mstore\n        /* \"#utility.yul\":9860:9991   */\n      tag_422\n        /* \"#utility.yul\":9986:9990   */\n      dup2\n        /* \"#utility.yul\":9860:9991   */\n      tag_386\n      jump\t// in\n    tag_422:\n        /* \"#utility.yul\":9852:9991   */\n      swap1\n      pop\n        /* \"#utility.yul\":9579:9998   */\n      swap2\n      swap1\n      pop\n      jump\t// out\n        /* \"#utility.yul\":10004:10226   */\n    tag_37:\n        /* \"#utility.yul\":10097:10101   */\n      0x00\n        /* \"#utility.yul\":10135:10137   */\n      0x20\n        /* \"#utility.yul\":10124:10133   */\n      dup3\n        /* \"#utility.yul\":10120:10138   */\n      add\n        /* \"#utility.yul\":10112:10138   */\n      swap1\n      pop\n        /* \"#utility.yul\":10148:10219   */\n      tag_424\n        /* \"#utility.yul\":10216:10217   */\n      0x00\n        /* \"#utility.yul\":10205:10214   */\n      dup4\n        /* \"#utility.yul\":10201:10218   */\n      add\n        /* \"#utility.yul\":10192:10198   */\n      dup5\n        /* \"#utility.yul\":10148:10219   */\n      tag_391\n      jump\t// in\n    tag_424:\n        /* \"#utility.yul\":10004:10226   */\n      swap3\n      swap2\n      pop\n      pop\n      jump\t// out\n        /* \"#utility.yul\":10313:10482   */\n    tag_353:\n        /* \"#utility.yul\":10397:10408   */\n      0x00\n        /* \"#utility.yul\":10431:10437   */\n      dup3\n        /* \"#utility.yul\":10426:10429   */\n      dup3\n        /* \"#utility.yul\":10419:10438   */\n      mstore\n        /* \"#utility.yul\":10471:10475   */\n      0x20\n        /* \"#utility.yul\":10466:10469   */\n      dup3\n        /* \"#utility.yul\":10462:10476   */\n      add\n        /* \"#utility.yul\":10447:10476   */\n      swap1\n      pop\n        /* \"#utility.yul\":10313:10482   */\n      swap3\n      swap2\n      pop\n      pop\n      jump\t// out\n        /* \"#utility.yul\":10488:10793   */\n    tag_152:\n        /* \"#utility.yul\":10528:10531   */\n      0x00\n        /* \"#utility.yul\":10547:10567   */\n      tag_429\n        /* \"#utility.yul\":10565:10566   */\n      dup3\n        /* \"#utility.yul\":10547:10567   */\n      tag_394\n      jump\t// in\n    tag_429:\n        /* \"#utility.yul\":10542:10567   */\n      swap2\n      pop\n        /* \"#utility.yul\":10581:10601   */\n      tag_430\n        /* \"#utility.yul\":10599:10600   */\n      dup4\n        /* \"#utility.yul\":10581:10601   */\n      tag_394\n      jump\t// in\n    tag_430:\n        /* \"#utility.yul\":10576:10601   */\n      swap3\n      pop\n        /* \"#utility.yul\":10735:10736   */\n      dup3\n        /* \"#utility.yul\":10667:10733   */\n      0xffffffffffffffffffffffffffffffffffffffffffffffffffffffffffffffff\n        /* \"#utility.yul\":10663:10737   */\n      sub\n        /* \"#utility.yul\":10660:10661   */\n      dup3\n        /* \"#utility.yul\":10657:10738   */\n      gt\n        /* \"#utility.yul\":10654:10761   */\n      iszero\n      tag_431\n      jumpi\n        /* \"#utility.yul\":10741:10759   */\n      tag_432\n      tag_433\n      jump\t// in\n    tag_432:\n        /* \"#utility.yul\":10654:10761   */\n    tag_431:\n        /* \"#utility.yul\":10785:10786   */\n      dup3\n        /* \"#utility.yul\":10782:10783   */\n      dup3\n        /* \"#utility.yul\":10778:10787   */\n      add\n        /* \"#utility.yul\":10771:10787   */\n      swap1\n      pop\n        /* \"#utility.yul\":10488:10793   */\n      swap3\n      swap2\n      pop\n      pop\n      jump\t// out\n        /* \"#utility.yul\":10799:10984   */\n    tag_165:\n        /* \"#utility.yul\":10839:10840   */\n      0x00\n        /* \"#utility.yul\":10856:10876   */\n      tag_435\n        /* \"#utility.yul\":10874:10875   */\n      dup3\n        /* \"#utility.yul\":10856:10876   */\n      tag_394\n      jump\t// in\n    tag_435:\n        /* \"#utility.yul\":10851:10876   */\n      swap2\n      pop\n        /* \"#utility.yul\":10890:10910   */\n      tag_436\n        /* \"#utility.yul\":10908:10909   */\n      dup4\n        /* \"#utility.yul\":10890:10910   */\n      tag_394\n      jump\t// in\n    tag_436:\n        /* \"#utility.yul\":10885:10910   */\n      swap3\n      pop\n        /* \"#utility.yul\":10929:10930   */\n      dup3\n        /* \"#utility.yul\":10919:10954   */\n      tag_437\n      jumpi\n        /* \"#utility.yul\":10934:10952   */\n      tag_438\n      tag_439\n      jump\t// in\n    tag_438:\n        /* \"#utility.yul\":10919:10954   */\n    tag_437:\n        /* \"#utility.yul\":10976:10977   */\n      dup3\n        /* \"#utility.yul\":10973:10974   */\n      dup3\n        /* \"#utility.yul\":10969:10978   */\n      div\n        /* \"#utility.yul\":10964:10978   */\n      swap1\n      pop\n        /* \"#utility.yul\":10799:10984   */\n      swap3\n      swap2\n      pop\n      pop\n      jump\t// out\n        /* \"#utility.yul\":10990:11338   */\n    tag_272:\n        /* \"#utility.yul\":11030:11037   */\n      0x00\n        /* \"#utility.yul\":11053:11073   */\n      tag_441\n        /* \"#utility.yul\":11071:11072   */\n      dup3\n        /* \"#utility.yul\":11053:11073   */\n      tag_394\n      jump\t// in\n    tag_441:\n        /* \"#utility.yul\":11048:11073   */\n      swap2\n      pop\n        /* \"#utility.yul\":11087:11107   */\n      tag_442\n        /* \"#utility.yul\":11105:11106   */\n      dup4\n        /* \"#utility.yul\":11087:11107   */\n      tag_394\n      jump\t// in\n    tag_442:\n        /* \"#utility.yul\":11082:11107   */\n      swap3\n      pop\n        /* \"#utility.yul\":11275:11276   */\n      dup2\n        /* \"#utility.yul\":11207:11273   */\n      0xffffffffffffffffffffffffffffffffffffffffffffffffffffffffffffffff\n        /* \"#utility.yul\":11203:11277   */\n      div\n        /* \"#utility.yul\":11200:11201   */\n      dup4\n        /* \"#utility.yul\":11197:11278   */\n      gt\n        /* \"#utility.yul\":11192:11193   */\n      dup3\n        /* \"#utility.yul\":11185:11194   */\n      iszero\n        /* \"#utility.yul\":11178:11195   */\n      iszero\n        /* \"#utility.yul\":11174:11279   */\n      and\n        /* \"#utility.yul\":11171:11302   */\n      iszero\n      tag_443\n      jumpi\n        /* \"#utility.yul\":11282:11300   */\n      tag_444\n      tag_433\n      jump\t// in\n    tag_444:\n        /* \"#utility.yul\":11171:11302   */\n    tag_443:\n        /* \"#utility.yul\":11330:11331   */\n      dup3\n        /* \"#utility.yul\":11327:11328   */\n      dup3\n        /* \"#utility.yul\":11323:11332   */\n      mul\n        /* \"#utility.yul\":11312:11332   */\n      swap1\n      pop\n        /* \"#utility.yul\":10990:11338   */\n      swap3\n      swap2\n      pop\n      pop\n      jump\t// out\n        /* \"#utility.yul\":11344:11535   */\n    tag_179:\n        /* \"#utility.yul\":11384:11388   */\n      0x00\n        /* \"#utility.yul\":11404:11424   */\n      tag_446\n        /* \"#utility.yul\":11422:11423   */\n      dup3\n        /* \"#utility.yul\":11404:11424   */\n      tag_394\n      jump\t// in\n    tag_446:\n        /* \"#utility.yul\":11399:11424   */\n      swap2\n      pop\n        /* \"#utility.yul\":11438:11458   */\n      tag_447\n        /* \"#utility.yul\":11456:11457   */\n      dup4\n        /* \"#utility.yul\":11438:11458   */\n      tag_394\n      jump\t// in\n    tag_447:\n        /* \"#utility.yul\":11433:11458   */\n      swap3\n      pop\n        /* \"#utility.yul\":11477:11478   */\n      dup3\n        /* \"#utility.yul\":11474:11475   */\n      dup3\n        /* \"#utility.yul\":11471:11479   */\n      lt\n        /* \"#utility.yul\":11468:11502   */\n      iszero\n      tag_448\n      jumpi\n        /* \"#utility.yul\":11482:11500   */\n      tag_449\n      tag_433\n      jump\t// in\n    tag_449:\n        /* \"#utility.yul\":11468:11502   */\n    tag_448:\n        /* \"#utility.yul\":11527:11528   */\n      dup3\n        /* \"#utility.yul\":11524:11525   */\n      dup3\n        /* \"#utility.yul\":11520:11529   */\n      sub\n        /* \"#utility.yul\":11512:11529   */\n      swap1\n      pop\n        /* \"#utility.yul\":11344:11535   */\n      swap3\n      swap2\n      pop\n      pop\n      jump\t// out\n        /* \"#utility.yul\":11541:11637   */\n    tag_337:\n        /* \"#utility.yul\":11578:11585   */\n      0x00\n        /* \"#utility.yul\":11607:11631   */\n      tag_451\n        /* \"#utility.yul\":11625:11630   */\n      dup3\n        /* \"#utility.yul\":11607:11631   */\n      tag_452\n      jump\t// in\n    tag_451:\n        /* \"#utility.yul\":11596:11631   */\n      swap1\n      pop\n        /* \"#utility.yul\":11541:11637   */\n      swap2\n      swap1\n      pop\n      jump\t// out\n        /* \"#utility.yul\":11643:11733   */\n    tag_341:\n        /* \"#utility.yul\":11677:11684   */\n      0x00\n        /* \"#utility.yul\":11720:11725   */\n      dup2\n        /* \"#utility.yul\":11713:11726   */\n      iszero\n        /* \"#utility.yul\":11706:11727   */\n      iszero\n        /* \"#utility.yul\":11695:11727   */\n      swap1\n      pop\n        /* \"#utility.yul\":11643:11733   */\n      swap2\n      swap1\n      pop\n      jump\t// out\n        /* \"#utility.yul\":11739:11865   */\n    tag_452:\n        /* \"#utility.yul\":11776:11783   */\n      0x00\n        /* \"#utility.yul\":11816:11858   */\n      0xffffffffffffffffffffffffffffffffffffffff\n        /* \"#utility.yul\":11809:11814   */\n      dup3\n        /* \"#utility.yul\":11805:11859   */\n      and\n        /* \"#utility.yul\":11794:11859   */\n      swap1\n      pop\n        /* \"#utility.yul\":11739:11865   */\n      swap2\n      swap1\n      pop\n      jump\t// out\n        /* \"#utility.yul\":11871:11948   */\n    tag_394:\n        /* \"#utility.yul\":11908:11915   */\n      0x00\n        /* \"#utility.yul\":11937:11942   */\n      dup2\n        /* \"#utility.yul\":11926:11942   */\n      swap1\n      pop\n        /* \"#utility.yul\":11871:11948   */\n      swap2\n      swap1\n      pop\n      jump\t// out\n        /* \"#utility.yul\":11954:12101   */\n    tag_345:\n        /* \"#utility.yul\":12025:12034   */\n      0x00\n        /* \"#utility.yul\":12058:12095   */\n      tag_457\n        /* \"#utility.yul\":12089:12094   */\n      dup3\n        /* \"#utility.yul\":12058:12095   */\n      tag_458\n      jump\t// in\n    tag_457:\n        /* \"#utility.yul\":12045:12095   */\n      swap1\n      pop\n        /* \"#utility.yul\":11954:12101   */\n      swap2\n      swap1\n      pop\n      jump\t// out\n        /* \"#utility.yul\":12107:12251   */\n    tag_349:\n        /* \"#utility.yul\":12175:12184   */\n      0x00\n        /* \"#utility.yul\":12208:12245   */\n      tag_460\n        /* \"#utility.yul\":12239:12244   */\n      dup3\n        /* \"#utility.yul\":12208:12245   */\n      tag_458\n      jump\t// in\n    tag_460:\n        /* \"#utility.yul\":12195:12245   */\n      swap1\n      pop\n        /* \"#utility.yul\":12107:12251   */\n      swap2\n      swap1\n      pop\n      jump\t// out\n        /* \"#utility.yul\":12257:12383   */\n    tag_458:\n        /* \"#utility.yul\":12307:12316   */\n      0x00\n        /* \"#utility.yul\":12340:12377   */\n      tag_462\n        /* \"#utility.yul\":12371:12376   */\n      dup3\n        /* \"#utility.yul\":12340:12377   */\n      tag_463\n      jump\t// in\n    tag_462:\n        /* \"#utility.yul\":12327:12377   */\n      swap1\n      pop\n        /* \"#utility.yul\":12257:12383   */\n      swap2\n      swap1\n      pop\n      jump\t// out\n        /* \"#utility.yul\":12389:12502   */\n    tag_463:\n        /* \"#utility.yul\":12439:12448   */\n      0x00\n        /* \"#utility.yul\":12472:12496   */\n      tag_465\n        /* \"#utility.yul\":12490:12495   */\n      dup3\n        /* \"#utility.yul\":12472:12496   */\n      tag_452\n      jump\t// in\n    tag_465:\n        /* \"#utility.yul\":12459:12496   */\n      swap1\n      pop\n        /* \"#utility.yul\":12389:12502   */\n      swap2\n      swap1\n      pop\n      jump\t// out\n        /* \"#utility.yul\":12508:12688   */\n    tag_433:\n        /* \"#utility.yul\":12556:12633   */\n      0x4e487b7100000000000000000000000000000000000000000000000000000000\n        /* \"#utility.yul\":12553:12554   */\n      0x00\n        /* \"#utility.yul\":12546:12634   */\n      mstore\n        /* \"#utility.yul\":12653:12657   */\n      0x11\n        /* \"#utility.yul\":12650:12651   */\n      0x04\n        /* \"#utility.yul\":12643:12658   */\n      mstore\n        /* \"#utility.yul\":12677:12681   */\n      0x24\n        /* \"#utility.yul\":12674:12675   */\n      0x00\n        /* \"#utility.yul\":12667:12682   */\n      revert\n        /* \"#utility.yul\":12694:12874   */\n    tag_439:\n        /* \"#utility.yul\":12742:12819   */\n      0x4e487b7100000000000000000000000000000000000000000000000000000000\n        /* \"#utility.yul\":12739:12740   */\n      0x00\n        /* \"#utility.yul\":12732:12820   */\n      mstore\n        /* \"#utility.yul\":12839:12843   */\n      0x12\n        /* \"#utility.yul\":12836:12837   */\n      0x04\n        /* \"#utility.yul\":12829:12844   */\n      mstore\n        /* \"#utility.yul\":12863:12867   */\n      0x24\n        /* \"#utility.yul\":12860:12861   */\n      0x00\n        /* \"#utility.yul\":12853:12868   */\n      revert\n        /* \"#utility.yul\":13003:13120   */\n    tag_324:\n        /* \"#utility.yul\":13112:13113   */\n      0x00\n        /* \"#utility.yul\":13109:13110   */\n      dup1\n        /* \"#utility.yul\":13102:13114   */\n      revert\n        /* \"#utility.yul\":13126:13295   */\n    tag_355:\n        /* \"#utility.yul\":13266:13287   */\n      0x43616c6c6572206973206e6f74206f776e657200000000000000000000000000\n        /* \"#utility.yul\":13262:13263   */\n      0x00\n        /* \"#utility.yul\":13254:13260   */\n      dup3\n        /* \"#utility.yul\":13250:13264   */\n      add\n        /* \"#utility.yul\":13243:13288   */\n      mstore\n        /* \"#utility.yul\":13126:13295   */\n      pop\n      jump\t// out\n        /* \"#utility.yul\":13301:13474   */\n    tag_360:\n        /* \"#utility.yul\":13441:13466   */\n      0x6e6f20656e6f75676820726563727920746f2073656c6c000000000000000000\n        /* \"#utility.yul\":13437:13438   */\n      0x00\n        /* \"#utility.yul\":13429:13435   */\n      dup3\n        /* \"#utility.yul\":13425:13439   */\n      add\n        /* \"#utility.yul\":13418:13467   */\n      mstore\n        /* \"#utility.yul\":13301:13474   */\n      pop\n      jump\t// out\n        /* \"#utility.yul\":13480:13652   */\n    tag_365:\n        /* \"#utility.yul\":13620:13644   */\n      0x6e6f20656e6f756768207573646320746f207377617000000000000000000000\n        /* \"#utility.yul\":13616:13617   */\n      0x00\n        /* \"#utility.yul\":13608:13614   */\n      dup3\n        /* \"#utility.yul\":13604:13618   */\n      add\n        /* \"#utility.yul\":13597:13645   */\n      mstore\n        /* \"#utility.yul\":13480:13652   */\n      pop\n      jump\t// out\n        /* \"#utility.yul\":13658:13830   */\n    tag_370:\n        /* \"#utility.yul\":13798:13822   */\n      0x6e6f20656e6f75676820726563727920746f2061646400000000000000000000\n        /* \"#utility.yul\":13794:13795   */\n      0x00\n        /* \"#utility.yul\":13786:13792   */\n      dup3\n        /* \"#utility.yul\":13782:13796   */\n      add\n        /* \"#utility.yul\":13775:13823   */\n      mstore\n        /* \"#utility.yul\":13658:13830   */\n      pop\n      jump\t// out\n        /* \"#utility.yul\":13836:14012   */\n    tag_375:\n        /* \"#utility.yul\":13976:14004   */\n      0x6e6f20656e6f756768207573646320746f207769746864726177000000000000\n        /* \"#utility.yul\":13972:13973   */\n      0x00\n        /* \"#utility.yul\":13964:13970   */\n      dup3\n        /* \"#utility.yul\":13960:13974   */\n      add\n        /* \"#utility.yul\":13953:14005   */\n      mstore\n        /* \"#utility.yul\":13836:14012   */\n      pop\n      jump\t// out\n        /* \"#utility.yul\":14018:14195   */\n    tag_380:\n        /* \"#utility.yul\":14158:14187   */\n      0x6e6f20656e6f75676820726563727920746f2077697468647261770000000000\n        /* \"#utility.yul\":14154:14155   */\n      0x00\n        /* \"#utility.yul\":14146:14152   */\n      dup3\n        /* \"#utility.yul\":14142:14156   */\n      add\n        /* \"#utility.yul\":14135:14188   */\n      mstore\n        /* \"#utility.yul\":14018:14195   */\n      pop\n      jump\t// out\n        /* \"#utility.yul\":14201:14373   */\n    tag_385:\n        /* \"#utility.yul\":14341:14365   */\n      0x6e6f20656e6f75676820726563727920746f2062757900000000000000000000\n        /* \"#utility.yul\":14337:14338   */\n      0x00\n        /* \"#utility.yul\":14329:14335   */\n      dup3\n        /* \"#utility.yul\":14325:14339   */\n      add\n        /* \"#utility.yul\":14318:14366   */\n      mstore\n        /* \"#utility.yul\":14201:14373   */\n      pop\n      jump\t// out\n        /* \"#utility.yul\":14379:14547   */\n    tag_390:\n        /* \"#utility.yul\":14519:14539   */\n      0x616d6f756e742063616e6e6f7420626520300000000000000000000000000000\n        /* \"#utility.yul\":14515:14516   */\n      0x00\n        /* \"#utility.yul\":14507:14513   */\n      dup3\n        /* \"#utility.yul\":14503:14517   */\n      add\n        /* \"#utility.yul\":14496:14540   */\n      mstore\n        /* \"#utility.yul\":14379:14547   */\n      pop\n      jump\t// out\n        /* \"#utility.yul\":14553:14669   */\n    tag_313:\n        /* \"#utility.yul\":14623:14644   */\n      tag_480\n        /* \"#utility.yul\":14638:14643   */\n      dup2\n        /* \"#utility.yul\":14623:14644   */\n      tag_341\n      jump\t// in\n    tag_480:\n        /* \"#utility.yul\":14616:14621   */\n      dup2\n        /* \"#utility.yul\":14613:14645   */\n      eq\n        /* \"#utility.yul\":14603:14663   */\n      tag_481\n      jumpi\n        /* \"#utility.yul\":14659:14660   */\n      0x00\n        /* \"#utility.yul\":14656:14657   */\n      dup1\n        /* \"#utility.yul\":14649:14661   */\n      revert\n        /* \"#utility.yul\":14603:14663   */\n    tag_481:\n        /* \"#utility.yul\":14553:14669   */\n      pop\n      jump\t// out\n        /* \"#utility.yul\":14675:14797   */\n    tag_317:\n        /* \"#utility.yul\":14748:14772   */\n      tag_483\n        /* \"#utility.yul\":14766:14771   */\n      dup2\n        /* \"#utility.yul\":14748:14772   */\n      tag_394\n      jump\t// in\n    tag_483:\n        /* \"#utility.yul\":14741:14746   */\n      dup2\n        /* \"#utility.yul\":14738:14773   */\n      eq\n        /* \"#utility.yul\":14728:14791   */\n      tag_484\n      jumpi\n        /* \"#utility.yul\":14787:14788   */\n      0x00\n        /* \"#utility.yul\":14784:14785   */\n      dup1\n        /* \"#utility.yul\":14777:14789   */\n      revert\n        /* \"#utility.yul\":14728:14791   */\n    tag_484:\n        /* \"#utility.yul\":14675:14797   */\n      pop\n      jump\t// out\n\n    auxdata: 0xa26469706673582212207e7e20422b4c86211d3482d71bb98223d3bf7d2dd1f276ecb5a4a1ec110435ba64736f6c63430008070033\n}\n",
				"bytecode": {
					"linkReferences": {},
					"object": "6080604052600060035560006004553480156200001b57600080fd5b506040516200238538038062002385833981810160405281019062000041919062000139565b81600160006101000a81548173ffffffffffffffffffffffffffffffffffffffff021916908373ffffffffffffffffffffffffffffffffffffffff16021790555080600260006101000a81548173ffffffffffffffffffffffffffffffffffffffff021916908373ffffffffffffffffffffffffffffffffffffffff160217905550336000806101000a81548173ffffffffffffffffffffffffffffffffffffffff021916908373ffffffffffffffffffffffffffffffffffffffff160217905550505062000215565b6000815190506200011c81620001e1565b92915050565b6000815190506200013381620001fb565b92915050565b60008060408385031215620001535762000152620001dc565b5b600062000163858286016200010b565b9250506020620001768582860162000122565b9150509250929050565b60006200018d82620001bc565b9050919050565b6000620001a18262000180565b9050919050565b6000620001b58262000180565b9050919050565b600073ffffffffffffffffffffffffffffffffffffffff82169050919050565b600080fd5b620001ec8162000194565b8114620001f857600080fd5b50565b6200020681620001a8565b81146200021257600080fd5b50565b61216080620002256000396000f3fe6080604052600436106101405760003560e01c80635b06dece116100b6578063d5abeb011161006f578063d5abeb01146103de578063d60a904e14610409578063ddf5b66c14610434578063e37398d81461045f578063ecb9417c1461047b578063f1a376b6146104a657610140565b80635b06dece146102eb5780635e01eb5a146103075780637741eb9214610332578063893d20e81461035d5780638da5cb5b14610388578063b42ca291146103b357610140565b8063277181271161010857806327718127146102095780632bd160bc1461023457806333b3c3f71461025f5780633e413bee1461027b5780634bd2f33d146102a65780634cd60eb3146102cf57610140565b80630b468779146101455780630b6e87f71461017057806310d9744f1461019b578063112ed6e2146101b75780631ded4ad9146101e0575b600080fd5b34801561015157600080fd5b5061015a6104d1565b6040516101679190611c4a565b60405180910390f35b34801561017c57600080fd5b506101856104f7565b6040516101929190611d80565b60405180910390f35b6101b560048036038101906101b09190611a20565b6104fd565b005b3480156101c357600080fd5b506101de60048036038101906101d99190611a20565b610754565b005b3480156101ec57600080fd5b5061020760048036038101906102029190611a20565b6107ec565b005b34801561021557600080fd5b5061021e610891565b60405161022b9190611c2f565b60405180910390f35b34801561024057600080fd5b506102496108f9565b6040516102569190611d80565b60405180910390f35b61027960048036038101906102749190611a20565b6109ab565b005b34801561028757600080fd5b50610290610f12565b60405161029d9190611c65565b60405180910390f35b3480156102b257600080fd5b506102cd60048036038101906102c89190611a20565b610f38565b005b6102e960048036038101906102e49190611a20565b610fd0565b005b61030560048036038101906103009190611a20565b61121c565b005b34801561031357600080fd5b5061031c611473565b6040516103299190611bdd565b60405180910390f35b34801561033e57600080fd5b5061034761147b565b6040516103549190611d80565b60405180910390f35b34801561036957600080fd5b50610372611485565b60405161037f9190611bdd565b60405180910390f35b34801561039457600080fd5b5061039d6114ae565b6040516103aa9190611bdd565b60405180910390f35b3480156103bf57600080fd5b506103c86114d2565b6040516103d59190611d80565b60405180910390f35b3480156103ea57600080fd5b506103f3611584565b6040516104009190611d80565b60405180910390f35b34801561041557600080fd5b5061041e61158a565b60405161042b9190611d80565b60405180910390f35b34801561044057600080fd5b5061044961164e565b6040516104569190611d80565b60405180910390f35b61047960048036038101906104749190611a20565b611672565b005b34801561048757600080fd5b50610490611973565b60405161049d9190611d80565b60405180910390f35b3480156104b257600080fd5b506104bb61197d565b6040516104c89190611d80565b60405180910390f35b600160009054906101000a900473ffffffffffffffffffffffffffffffffffffffff1681565b60045481565b60008054906101000a900473ffffffffffffffffffffffffffffffffffffffff1673ffffffffffffffffffffffffffffffffffffffff163373ffffffffffffffffffffffffffffffffffffffff161461058b576040517f08c379a000000000000000000000000000000000000000000000000000000000815260040161058290611c80565b60405180910390fd5b80600160009054906101000a900473ffffffffffffffffffffffffffffffffffffffff1673ffffffffffffffffffffffffffffffffffffffff166370a08231306040518263ffffffff1660e01b81526004016105e79190611bdd565b60206040518083038186803b1580156105ff57600080fd5b505afa158015610613573d6000803e3d6000fd5b505050506040513d601f19601f820116820180604052508101906106379190611a4d565b11610677576040517f08c379a000000000000000000000000000000000000000000000000000000000815260040161066e90611d20565b60405180910390fd5b600160009054906101000a900473ffffffffffffffffffffffffffffffffffffffff1673ffffffffffffffffffffffffffffffffffffffff166323b872dd3060008054906101000a900473ffffffffffffffffffffffffffffffffffffffff16846040518463ffffffff1660e01b81526004016106f693929190611bf8565b602060405180830381600087803b15801561071057600080fd5b505af1158015610724573d6000803e3d6000fd5b505050506040513d601f19601f8201168201806040525081019061074891906119f3565b61075157600080fd5b50565b60008054906101000a900473ffffffffffffffffffffffffffffffffffffffff1673ffffffffffffffffffffffffffffffffffffffff163373ffffffffffffffffffffffffffffffffffffffff16146107e2576040517f08c379a00000000000000000000000000000000000000000000000000000000081526004016107d990611c80565b60405180910390fd5b8060048190555050565b60008054906101000a900473ffffffffffffffffffffffffffffffffffffffff1673ffffffffffffffffffffffffffffffffffffffff163373ffffffffffffffffffffffffffffffffffffffff161461087a576040517f08c379a000000000000000000000000000000000000000000000000000000000815260040161087190611c80565b60405180910390fd5b806004546108889190611dac565b60048190555050565b60008060009054906101000a900473ffffffffffffffffffffffffffffffffffffffff1673ffffffffffffffffffffffffffffffffffffffff163373ffffffffffffffffffffffffffffffffffffffff1614156108f157600190506108f6565b600090505b90565b6000600160009054906101000a900473ffffffffffffffffffffffffffffffffffffffff1673ffffffffffffffffffffffffffffffffffffffff166370a08231306040518263ffffffff1660e01b81526004016109569190611bdd565b60206040518083038186803b15801561096e57600080fd5b505afa158015610982573d6000803e3d6000fd5b505050506040513d601f19601f820116820180604052508101906109a69190611a4d565b905090565b60006109b561164e565b826109c09190611e02565b905060008211610a05576040517f08c379a00000000000000000000000000000000000000000000000000000000081526004016109fc90611d60565b60405180910390fd5b80600160009054906101000a900473ffffffffffffffffffffffffffffffffffffffff1673ffffffffffffffffffffffffffffffffffffffff166370a08231306040518263ffffffff1660e01b8152600401610a619190611bdd565b60206040518083038186803b158015610a7957600080fd5b505afa158015610a8d573d6000803e3d6000fd5b505050506040513d601f19601f82011682018060405250810190610ab19190611a4d565b1015610af2576040517f08c379a0000000000000000000000000000000000000000000000000000000008152600401610ae990611d40565b60405180910390fd5b6000610afc6114d2565b600454610b099190611e8d565b90506000811115610d805780831115610cc057600260009054906101000a900473ffffffffffffffffffffffffffffffffffffffff1673ffffffffffffffffffffffffffffffffffffffff166323b872dd3330846040518463ffffffff1660e01b8152600401610b7b93929190611bf8565b602060405180830381600087803b158015610b9557600080fd5b505af1158015610ba9573d6000803e3d6000fd5b505050506040513d601f19601f82011682018060405250810190610bcd91906119f3565b610bd657600080fd5b600260009054906101000a900473ffffffffffffffffffffffffffffffffffffffff1673ffffffffffffffffffffffffffffffffffffffff166323b872dd3360008054906101000a900473ffffffffffffffffffffffffffffffffffffffff168487610c429190611e8d565b6040518463ffffffff1660e01b8152600401610c6093929190611bf8565b602060405180830381600087803b158015610c7a57600080fd5b505af1158015610c8e573d6000803e3d6000fd5b505050506040513d601f19601f82011682018060405250810190610cb291906119f3565b610cbb57600080fd5b610d7b565b600260009054906101000a900473ffffffffffffffffffffffffffffffffffffffff1673ffffffffffffffffffffffffffffffffffffffff166323b872dd3330866040518463ffffffff1660e01b8152600401610d1f93929190611bf8565b602060405180830381600087803b158015610d3957600080fd5b505af1158015610d4d573d6000803e3d6000fd5b505050506040513d601f19601f82011682018060405250810190610d7191906119f3565b610d7a57600080fd5b5b610e5b565b600260009054906101000a900473ffffffffffffffffffffffffffffffffffffffff1673ffffffffffffffffffffffffffffffffffffffff166323b872dd3360008054906101000a900473ffffffffffffffffffffffffffffffffffffffff16866040518463ffffffff1660e01b8152600401610dff93929190611bf8565b602060405180830381600087803b158015610e1957600080fd5b505af1158015610e2d573d6000803e3d6000fd5b505050506040513d601f19601f82011682018060405250810190610e5191906119f3565b610e5a57600080fd5b5b600160009054906101000a900473ffffffffffffffffffffffffffffffffffffffff1673ffffffffffffffffffffffffffffffffffffffff166323b872dd3033866040518463ffffffff1660e01b8152600401610eba93929190611bf8565b602060405180830381600087803b158015610ed457600080fd5b505af1158015610ee8573d6000803e3d6000fd5b505050506040513d601f19601f82011682018060405250810190610f0c91906119f3565b50505050565b600260009054906101000a900473ffffffffffffffffffffffffffffffffffffffff1681565b60008054906101000a900473ffffffffffffffffffffffffffffffffffffffff1673ffffffffffffffffffffffffffffffffffffffff163373ffffffffffffffffffffffffffffffffffffffff1614610fc6576040517f08c379a0000000000000000000000000000000000000000000000000000000008152600401610fbd90611c80565b60405180910390fd5b8060038190555050565b60008054906101000a900473ffffffffffffffffffffffffffffffffffffffff1673ffffffffffffffffffffffffffffffffffffffff163373ffffffffffffffffffffffffffffffffffffffff161461105e576040517f08c379a000000000000000000000000000000000000000000000000000000000815260040161105590611c80565b60405180910390fd5b80600160009054906101000a900473ffffffffffffffffffffffffffffffffffffffff1673ffffffffffffffffffffffffffffffffffffffff166370a08231336040518263ffffffff1660e01b81526004016110ba9190611bdd565b60206040518083038186803b1580156110d257600080fd5b505afa1580156110e6573d6000803e3d6000fd5b505050506040513d601f19601f8201168201806040525081019061110a9190611a4d565b101561114b576040517f08c379a000000000000000000000000000000000000000000000000000000000815260040161114290611ce0565b60405180910390fd5b600160009054906101000a900473ffffffffffffffffffffffffffffffffffffffff1673ffffffffffffffffffffffffffffffffffffffff166323b872dd3330846040518463ffffffff1660e01b81526004016111aa93929190611bf8565b602060405180830381600087803b1580156111c457600080fd5b505af11580156111d8573d6000803e3d6000fd5b505050506040513d601f19601f820116820180604052508101906111fc91906119f3565b61120557600080fd5b806003546112139190611dac565b60038190555050565b60008054906101000a900473ffffffffffffffffffffffffffffffffffffffff1673ffffffffffffffffffffffffffffffffffffffff163373ffffffffffffffffffffffffffffffffffffffff16146112aa576040517f08c379a00000000000000000000000000000000000000000000000000000000081526004016112a190611c80565b60405180910390fd5b80600260009054906101000a900473ffffffffffffffffffffffffffffffffffffffff1673ffffffffffffffffffffffffffffffffffffffff166370a08231306040518263ffffffff1660e01b81526004016113069190611bdd565b60206040518083038186803b15801561131e57600080fd5b505afa158015611332573d6000803e3d6000fd5b505050506040513d601f19601f820116820180604052508101906113569190611a4d565b11611396576040517f08c379a000000000000000000000000000000000000000000000000000000000815260040161138d90611d00565b60405180910390fd5b600260009054906101000a900473ffffffffffffffffffffffffffffffffffffffff1673ffffffffffffffffffffffffffffffffffffffff166323b872dd3060008054906101000a900473ffffffffffffffffffffffffffffffffffffffff16846040518463ffffffff1660e01b815260040161141593929190611bf8565b602060405180830381600087803b15801561142f57600080fd5b505af1158015611443573d6000803e3d6000fd5b505050506040513d601f19601f8201168201806040525081019061146791906119f3565b61147057600080fd5b50565b600033905090565b6000600354905090565b60008060009054906101000a900473ffffffffffffffffffffffffffffffffffffffff16905090565b60008054906101000a900473ffffffffffffffffffffffffffffffffffffffff1681565b6000600260009054906101000a900473ffffffffffffffffffffffffffffffffffffffff1673ffffffffffffffffffffffffffffffffffffffff166370a08231306040518263ffffffff1660e01b815260040161152f9190611bdd565b60206040518083038186803b15801561154757600080fd5b505afa15801561155b573d6000803e3d6000fd5b505050506040513d601f19601f8201168201806040525081019061157f9190611a4d565b905090565b60035481565b6000600160009054906101000a900473ffffffffffffffffffffffffffffffffffffffff1673ffffffffffffffffffffffffffffffffffffffff166370a08231336040518263ffffffff1660e01b81526004016115e79190611bdd565b60206040518083038186803b1580156115ff57600080fd5b505afa158015611613573d6000803e3d6000fd5b505050506040513d601f19601f820116820180604052508101906116379190611a4d565b61163f61164e565b6116499190611e33565b905090565b60006003546004546003546116639190611dac565b61166d9190611e02565b905090565b600061167c61164e565b826116879190611e33565b9050600082116116cc576040517f08c379a00000000000000000000000000000000000000000000000000000000081526004016116c390611d60565b60405180910390fd5b81600160009054906101000a900473ffffffffffffffffffffffffffffffffffffffff1673ffffffffffffffffffffffffffffffffffffffff166370a08231336040518263ffffffff1660e01b81526004016117289190611bdd565b60206040518083038186803b15801561174057600080fd5b505afa158015611754573d6000803e3d6000fd5b505050506040513d601f19601f820116820180604052508101906117789190611a4d565b10156117b9576040517f08c379a00000000000000000000000000000000000000000000000000000000081526004016117b090611ca0565b60405180910390fd5b806117c26114d2565b1015611803576040517f08c379a00000000000000000000000000000000000000000000000000000000081526004016117fa90611cc0565b60405180910390fd5b600160009054906101000a900473ffffffffffffffffffffffffffffffffffffffff1673ffffffffffffffffffffffffffffffffffffffff166323b872dd3330856040518463ffffffff1660e01b815260040161186293929190611bf8565b602060405180830381600087803b15801561187c57600080fd5b505af1158015611890573d6000803e3d6000fd5b505050506040513d601f19601f820116820180604052508101906118b491906119f3565b6118bd57600080fd5b600260009054906101000a900473ffffffffffffffffffffffffffffffffffffffff1673ffffffffffffffffffffffffffffffffffffffff166323b872dd3033846040518463ffffffff1660e01b815260040161191c93929190611bf8565b602060405180830381600087803b15801561193657600080fd5b505af115801561194a573d6000803e3d6000fd5b505050506040513d601f19601f8201168201806040525081019061196e91906119f3565b505050565b6000600454905090565b6000670de0b6b3a764000060035460045460035461199b9190611dac565b6119a59190611e02565b6119af9190611e33565b905090565b6000815190506119c3816120fc565b92915050565b6000813590506119d881612113565b92915050565b6000815190506119ed81612113565b92915050565b600060208284031215611a0957611a08611faf565b5b6000611a17848285016119b4565b91505092915050565b600060208284031215611a3657611a35611faf565b5b6000611a44848285016119c9565b91505092915050565b600060208284031215611a6357611a62611faf565b5b6000611a71848285016119de565b91505092915050565b611a8381611ec1565b82525050565b611a9281611ed3565b82525050565b611aa181611f09565b82525050565b611ab081611f1b565b82525050565b6000611ac3601383611d9b565b9150611ace82611fb4565b602082019050919050565b6000611ae6601783611d9b565b9150611af182611fdd565b602082019050919050565b6000611b09601683611d9b565b9150611b1482612006565b602082019050919050565b6000611b2c601683611d9b565b9150611b378261202f565b602082019050919050565b6000611b4f601a83611d9b565b9150611b5a82612058565b602082019050919050565b6000611b72601b83611d9b565b9150611b7d82612081565b602082019050919050565b6000611b95601683611d9b565b9150611ba0826120aa565b602082019050919050565b6000611bb8601283611d9b565b9150611bc3826120d3565b602082019050919050565b611bd781611eff565b82525050565b6000602082019050611bf26000830184611a7a565b92915050565b6000606082019050611c0d6000830186611a7a565b611c1a6020830185611a7a565b611c276040830184611bce565b949350505050565b6000602082019050611c446000830184611a89565b92915050565b6000602082019050611c5f6000830184611a98565b92915050565b6000602082019050611c7a6000830184611aa7565b92915050565b60006020820190508181036000830152611c9981611ab6565b9050919050565b60006020820190508181036000830152611cb981611ad9565b9050919050565b60006020820190508181036000830152611cd981611afc565b9050919050565b60006020820190508181036000830152611cf981611b1f565b9050919050565b60006020820190508181036000830152611d1981611b42565b9050919050565b60006020820190508181036000830152611d3981611b65565b9050919050565b60006020820190508181036000830152611d5981611b88565b9050919050565b60006020820190508181036000830152611d7981611bab565b9050919050565b6000602082019050611d956000830184611bce565b92915050565b600082825260208201905092915050565b6000611db782611eff565b9150611dc283611eff565b9250827fffffffffffffffffffffffffffffffffffffffffffffffffffffffffffffffff03821115611df757611df6611f51565b5b828201905092915050565b6000611e0d82611eff565b9150611e1883611eff565b925082611e2857611e27611f80565b5b828204905092915050565b6000611e3e82611eff565b9150611e4983611eff565b9250817fffffffffffffffffffffffffffffffffffffffffffffffffffffffffffffffff0483118215151615611e8257611e81611f51565b5b828202905092915050565b6000611e9882611eff565b9150611ea383611eff565b925082821015611eb657611eb5611f51565b5b828203905092915050565b6000611ecc82611edf565b9050919050565b60008115159050919050565b600073ffffffffffffffffffffffffffffffffffffffff82169050919050565b6000819050919050565b6000611f1482611f2d565b9050919050565b6000611f2682611f2d565b9050919050565b6000611f3882611f3f565b9050919050565b6000611f4a82611edf565b9050919050565b7f4e487b7100000000000000000000000000000000000000000000000000000000600052601160045260246000fd5b7f4e487b7100000000000000000000000000000000000000000000000000000000600052601260045260246000fd5b600080fd5b7f43616c6c6572206973206e6f74206f776e657200000000000000000000000000600082015250565b7f6e6f20656e6f75676820726563727920746f2073656c6c000000000000000000600082015250565b7f6e6f20656e6f756768207573646320746f207377617000000000000000000000600082015250565b7f6e6f20656e6f75676820726563727920746f2061646400000000000000000000600082015250565b7f6e6f20656e6f756768207573646320746f207769746864726177000000000000600082015250565b7f6e6f20656e6f75676820726563727920746f2077697468647261770000000000600082015250565b7f6e6f20656e6f75676820726563727920746f2062757900000000000000000000600082015250565b7f616d6f756e742063616e6e6f7420626520300000000000000000000000000000600082015250565b61210581611ed3565b811461211057600080fd5b50565b61211c81611eff565b811461212757600080fd5b5056fea26469706673582212207e7e20422b4c86211d3482d71bb98223d3bf7d2dd1f276ecb5a4a1ec110435ba64736f6c63430008070033",
					"opcodes": "PUSH1 0x80 PUSH1 0x40 MSTORE PUSH1 0x0 PUSH1 0x3 SSTORE PUSH1 0x0 PUSH1 0x4 SSTORE CALLVALUE DUP1 ISZERO PUSH3 0x1B JUMPI PUSH1 0x0 DUP1 REVERT JUMPDEST POP PUSH1 0x40 MLOAD PUSH3 0x2385 CODESIZE SUB DUP1 PUSH3 0x2385 DUP4 CODECOPY DUP2 DUP2 ADD PUSH1 0x40 MSTORE DUP2 ADD SWAP1 PUSH3 0x41 SWAP2 SWAP1 PUSH3 0x139 JUMP JUMPDEST DUP2 PUSH1 0x1 PUSH1 0x0 PUSH2 0x100 EXP DUP2 SLOAD DUP2 PUSH20 0xFFFFFFFFFFFFFFFFFFFFFFFFFFFFFFFFFFFFFFFF MUL NOT AND SWAP1 DUP4 PUSH20 0xFFFFFFFFFFFFFFFFFFFFFFFFFFFFFFFFFFFFFFFF AND MUL OR SWAP1 SSTORE POP DUP1 PUSH1 0x2 PUSH1 0x0 PUSH2 0x100 EXP DUP2 SLOAD DUP2 PUSH20 0xFFFFFFFFFFFFFFFFFFFFFFFFFFFFFFFFFFFFFFFF MUL NOT AND SWAP1 DUP4 PUSH20 0xFFFFFFFFFFFFFFFFFFFFFFFFFFFFFFFFFFFFFFFF AND MUL OR SWAP1 SSTORE POP CALLER PUSH1 0x0 DUP1 PUSH2 0x100 EXP DUP2 SLOAD DUP2 PUSH20 0xFFFFFFFFFFFFFFFFFFFFFFFFFFFFFFFFFFFFFFFF MUL NOT AND SWAP1 DUP4 PUSH20 0xFFFFFFFFFFFFFFFFFFFFFFFFFFFFFFFFFFFFFFFF AND MUL OR SWAP1 SSTORE POP POP POP PUSH3 0x215 JUMP JUMPDEST PUSH1 0x0 DUP2 MLOAD SWAP1 POP PUSH3 0x11C DUP2 PUSH3 0x1E1 JUMP JUMPDEST SWAP3 SWAP2 POP POP JUMP JUMPDEST PUSH1 0x0 DUP2 MLOAD SWAP1 POP PUSH3 0x133 DUP2 PUSH3 0x1FB JUMP JUMPDEST SWAP3 SWAP2 POP POP JUMP JUMPDEST PUSH1 0x0 DUP1 PUSH1 0x40 DUP4 DUP6 SUB SLT ISZERO PUSH3 0x153 JUMPI PUSH3 0x152 PUSH3 0x1DC JUMP JUMPDEST JUMPDEST PUSH1 0x0 PUSH3 0x163 DUP6 DUP3 DUP7 ADD PUSH3 0x10B JUMP JUMPDEST SWAP3 POP POP PUSH1 0x20 PUSH3 0x176 DUP6 DUP3 DUP7 ADD PUSH3 0x122 JUMP JUMPDEST SWAP2 POP POP SWAP3 POP SWAP3 SWAP1 POP JUMP JUMPDEST PUSH1 0x0 PUSH3 0x18D DUP3 PUSH3 0x1BC JUMP JUMPDEST SWAP1 POP SWAP2 SWAP1 POP JUMP JUMPDEST PUSH1 0x0 PUSH3 0x1A1 DUP3 PUSH3 0x180 JUMP JUMPDEST SWAP1 POP SWAP2 SWAP1 POP JUMP JUMPDEST PUSH1 0x0 PUSH3 0x1B5 DUP3 PUSH3 0x180 JUMP JUMPDEST SWAP1 POP SWAP2 SWAP1 POP JUMP JUMPDEST PUSH1 0x0 PUSH20 0xFFFFFFFFFFFFFFFFFFFFFFFFFFFFFFFFFFFFFFFF DUP3 AND SWAP1 POP SWAP2 SWAP1 POP JUMP JUMPDEST PUSH1 0x0 DUP1 REVERT JUMPDEST PUSH3 0x1EC DUP2 PUSH3 0x194 JUMP JUMPDEST DUP2 EQ PUSH3 0x1F8 JUMPI PUSH1 0x0 DUP1 REVERT JUMPDEST POP JUMP JUMPDEST PUSH3 0x206 DUP2 PUSH3 0x1A8 JUMP JUMPDEST DUP2 EQ PUSH3 0x212 JUMPI PUSH1 0x0 DUP1 REVERT JUMPDEST POP JUMP JUMPDEST PUSH2 0x2160 DUP1 PUSH3 0x225 PUSH1 0x0 CODECOPY PUSH1 0x0 RETURN INVALID PUSH1 0x80 PUSH1 0x40 MSTORE PUSH1 0x4 CALLDATASIZE LT PUSH2 0x140 JUMPI PUSH1 0x0 CALLDATALOAD PUSH1 0xE0 SHR DUP1 PUSH4 0x5B06DECE GT PUSH2 0xB6 JUMPI DUP1 PUSH4 0xD5ABEB01 GT PUSH2 0x6F JUMPI DUP1 PUSH4 0xD5ABEB01 EQ PUSH2 0x3DE JUMPI DUP1 PUSH4 0xD60A904E EQ PUSH2 0x409 JUMPI DUP1 PUSH4 0xDDF5B66C EQ PUSH2 0x434 JUMPI DUP1 PUSH4 0xE37398D8 EQ PUSH2 0x45F JUMPI DUP1 PUSH4 0xECB9417C EQ PUSH2 0x47B JUMPI DUP1 PUSH4 0xF1A376B6 EQ PUSH2 0x4A6 JUMPI PUSH2 0x140 JUMP JUMPDEST DUP1 PUSH4 0x5B06DECE EQ PUSH2 0x2EB JUMPI DUP1 PUSH4 0x5E01EB5A EQ PUSH2 0x307 JUMPI DUP1 PUSH4 0x7741EB92 EQ PUSH2 0x332 JUMPI DUP1 PUSH4 0x893D20E8 EQ PUSH2 0x35D JUMPI DUP1 PUSH4 0x8DA5CB5B EQ PUSH2 0x388 JUMPI DUP1 PUSH4 0xB42CA291 EQ PUSH2 0x3B3 JUMPI PUSH2 0x140 JUMP JUMPDEST DUP1 PUSH4 0x27718127 GT PUSH2 0x108 JUMPI DUP1 PUSH4 0x27718127 EQ PUSH2 0x209 JUMPI DUP1 PUSH4 0x2BD160BC EQ PUSH2 0x234 JUMPI DUP1 PUSH4 0x33B3C3F7 EQ PUSH2 0x25F JUMPI DUP1 PUSH4 0x3E413BEE EQ PUSH2 0x27B JUMPI DUP1 PUSH4 0x4BD2F33D EQ PUSH2 0x2A6 JUMPI DUP1 PUSH4 0x4CD60EB3 EQ PUSH2 0x2CF JUMPI PUSH2 0x140 JUMP JUMPDEST DUP1 PUSH4 0xB468779 EQ PUSH2 0x145 JUMPI DUP1 PUSH4 0xB6E87F7 EQ PUSH2 0x170 JUMPI DUP1 PUSH4 0x10D9744F EQ PUSH2 0x19B JUMPI DUP1 PUSH4 0x112ED6E2 EQ PUSH2 0x1B7 JUMPI DUP1 PUSH4 0x1DED4AD9 EQ PUSH2 0x1E0 JUMPI JUMPDEST PUSH1 0x0 DUP1 REVERT JUMPDEST CALLVALUE DUP1 ISZERO PUSH2 0x151 JUMPI PUSH1 0x0 DUP1 REVERT JUMPDEST POP PUSH2 0x15A PUSH2 0x4D1 JUMP JUMPDEST PUSH1 0x40 MLOAD PUSH2 0x167 SWAP2 SWAP1 PUSH2 0x1C4A JUMP JUMPDEST PUSH1 0x40 MLOAD DUP1 SWAP2 SUB SWAP1 RETURN JUMPDEST CALLVALUE DUP1 ISZERO PUSH2 0x17C JUMPI PUSH1 0x0 DUP1 REVERT JUMPDEST POP PUSH2 0x185 PUSH2 0x4F7 JUMP JUMPDEST PUSH1 0x40 MLOAD PUSH2 0x192 SWAP2 SWAP1 PUSH2 0x1D80 JUMP JUMPDEST PUSH1 0x40 MLOAD DUP1 SWAP2 SUB SWAP1 RETURN JUMPDEST PUSH2 0x1B5 PUSH1 0x4 DUP1 CALLDATASIZE SUB DUP2 ADD SWAP1 PUSH2 0x1B0 SWAP2 SWAP1 PUSH2 0x1A20 JUMP JUMPDEST PUSH2 0x4FD JUMP JUMPDEST STOP JUMPDEST CALLVALUE DUP1 ISZERO PUSH2 0x1C3 JUMPI PUSH1 0x0 DUP1 REVERT JUMPDEST POP PUSH2 0x1DE PUSH1 0x4 DUP1 CALLDATASIZE SUB DUP2 ADD SWAP1 PUSH2 0x1D9 SWAP2 SWAP1 PUSH2 0x1A20 JUMP JUMPDEST PUSH2 0x754 JUMP JUMPDEST STOP JUMPDEST CALLVALUE DUP1 ISZERO PUSH2 0x1EC JUMPI PUSH1 0x0 DUP1 REVERT JUMPDEST POP PUSH2 0x207 PUSH1 0x4 DUP1 CALLDATASIZE SUB DUP2 ADD SWAP1 PUSH2 0x202 SWAP2 SWAP1 PUSH2 0x1A20 JUMP JUMPDEST PUSH2 0x7EC JUMP JUMPDEST STOP JUMPDEST CALLVALUE DUP1 ISZERO PUSH2 0x215 JUMPI PUSH1 0x0 DUP1 REVERT JUMPDEST POP PUSH2 0x21E PUSH2 0x891 JUMP JUMPDEST PUSH1 0x40 MLOAD PUSH2 0x22B SWAP2 SWAP1 PUSH2 0x1C2F JUMP JUMPDEST PUSH1 0x40 MLOAD DUP1 SWAP2 SUB SWAP1 RETURN JUMPDEST CALLVALUE DUP1 ISZERO PUSH2 0x240 JUMPI PUSH1 0x0 DUP1 REVERT JUMPDEST POP PUSH2 0x249 PUSH2 0x8F9 JUMP JUMPDEST PUSH1 0x40 MLOAD PUSH2 0x256 SWAP2 SWAP1 PUSH2 0x1D80 JUMP JUMPDEST PUSH1 0x40 MLOAD DUP1 SWAP2 SUB SWAP1 RETURN JUMPDEST PUSH2 0x279 PUSH1 0x4 DUP1 CALLDATASIZE SUB DUP2 ADD SWAP1 PUSH2 0x274 SWAP2 SWAP1 PUSH2 0x1A20 JUMP JUMPDEST PUSH2 0x9AB JUMP JUMPDEST STOP JUMPDEST CALLVALUE DUP1 ISZERO PUSH2 0x287 JUMPI PUSH1 0x0 DUP1 REVERT JUMPDEST POP PUSH2 0x290 PUSH2 0xF12 JUMP JUMPDEST PUSH1 0x40 MLOAD PUSH2 0x29D SWAP2 SWAP1 PUSH2 0x1C65 JUMP JUMPDEST PUSH1 0x40 MLOAD DUP1 SWAP2 SUB SWAP1 RETURN JUMPDEST CALLVALUE DUP1 ISZERO PUSH2 0x2B2 JUMPI PUSH1 0x0 DUP1 REVERT JUMPDEST POP PUSH2 0x2CD PUSH1 0x4 DUP1 CALLDATASIZE SUB DUP2 ADD SWAP1 PUSH2 0x2C8 SWAP2 SWAP1 PUSH2 0x1A20 JUMP JUMPDEST PUSH2 0xF38 JUMP JUMPDEST STOP JUMPDEST PUSH2 0x2E9 PUSH1 0x4 DUP1 CALLDATASIZE SUB DUP2 ADD SWAP1 PUSH2 0x2E4 SWAP2 SWAP1 PUSH2 0x1A20 JUMP JUMPDEST PUSH2 0xFD0 JUMP JUMPDEST STOP JUMPDEST PUSH2 0x305 PUSH1 0x4 DUP1 CALLDATASIZE SUB DUP2 ADD SWAP1 PUSH2 0x300 SWAP2 SWAP1 PUSH2 0x1A20 JUMP JUMPDEST PUSH2 0x121C JUMP JUMPDEST STOP JUMPDEST CALLVALUE DUP1 ISZERO PUSH2 0x313 JUMPI PUSH1 0x0 DUP1 REVERT JUMPDEST POP PUSH2 0x31C PUSH2 0x1473 JUMP JUMPDEST PUSH1 0x40 MLOAD PUSH2 0x329 SWAP2 SWAP1 PUSH2 0x1BDD JUMP JUMPDEST PUSH1 0x40 MLOAD DUP1 SWAP2 SUB SWAP1 RETURN JUMPDEST CALLVALUE DUP1 ISZERO PUSH2 0x33E JUMPI PUSH1 0x0 DUP1 REVERT JUMPDEST POP PUSH2 0x347 PUSH2 0x147B JUMP JUMPDEST PUSH1 0x40 MLOAD PUSH2 0x354 SWAP2 SWAP1 PUSH2 0x1D80 JUMP JUMPDEST PUSH1 0x40 MLOAD DUP1 SWAP2 SUB SWAP1 RETURN JUMPDEST CALLVALUE DUP1 ISZERO PUSH2 0x369 JUMPI PUSH1 0x0 DUP1 REVERT JUMPDEST POP PUSH2 0x372 PUSH2 0x1485 JUMP JUMPDEST PUSH1 0x40 MLOAD PUSH2 0x37F SWAP2 SWAP1 PUSH2 0x1BDD JUMP JUMPDEST PUSH1 0x40 MLOAD DUP1 SWAP2 SUB SWAP1 RETURN JUMPDEST CALLVALUE DUP1 ISZERO PUSH2 0x394 JUMPI PUSH1 0x0 DUP1 REVERT JUMPDEST POP PUSH2 0x39D PUSH2 0x14AE JUMP JUMPDEST PUSH1 0x40 MLOAD PUSH2 0x3AA SWAP2 SWAP1 PUSH2 0x1BDD JUMP JUMPDEST PUSH1 0x40 MLOAD DUP1 SWAP2 SUB SWAP1 RETURN JUMPDEST CALLVALUE DUP1 ISZERO PUSH2 0x3BF JUMPI PUSH1 0x0 DUP1 REVERT JUMPDEST POP PUSH2 0x3C8 PUSH2 0x14D2 JUMP JUMPDEST PUSH1 0x40 MLOAD PUSH2 0x3D5 SWAP2 SWAP1 PUSH2 0x1D80 JUMP JUMPDEST PUSH1 0x40 MLOAD DUP1 SWAP2 SUB SWAP1 RETURN JUMPDEST CALLVALUE DUP1 ISZERO PUSH2 0x3EA JUMPI PUSH1 0x0 DUP1 REVERT JUMPDEST POP PUSH2 0x3F3 PUSH2 0x1584 JUMP JUMPDEST PUSH1 0x40 MLOAD PUSH2 0x400 SWAP2 SWAP1 PUSH2 0x1D80 JUMP JUMPDEST PUSH1 0x40 MLOAD DUP1 SWAP2 SUB SWAP1 RETURN JUMPDEST CALLVALUE DUP1 ISZERO PUSH2 0x415 JUMPI PUSH1 0x0 DUP1 REVERT JUMPDEST POP PUSH2 0x41E PUSH2 0x158A JUMP JUMPDEST PUSH1 0x40 MLOAD PUSH2 0x42B SWAP2 SWAP1 PUSH2 0x1D80 JUMP JUMPDEST PUSH1 0x40 MLOAD DUP1 SWAP2 SUB SWAP1 RETURN JUMPDEST CALLVALUE DUP1 ISZERO PUSH2 0x440 JUMPI PUSH1 0x0 DUP1 REVERT JUMPDEST POP PUSH2 0x449 PUSH2 0x164E JUMP JUMPDEST PUSH1 0x40 MLOAD PUSH2 0x456 SWAP2 SWAP1 PUSH2 0x1D80 JUMP JUMPDEST PUSH1 0x40 MLOAD DUP1 SWAP2 SUB SWAP1 RETURN JUMPDEST PUSH2 0x479 PUSH1 0x4 DUP1 CALLDATASIZE SUB DUP2 ADD SWAP1 PUSH2 0x474 SWAP2 SWAP1 PUSH2 0x1A20 JUMP JUMPDEST PUSH2 0x1672 JUMP JUMPDEST STOP JUMPDEST CALLVALUE DUP1 ISZERO PUSH2 0x487 JUMPI PUSH1 0x0 DUP1 REVERT JUMPDEST POP PUSH2 0x490 PUSH2 0x1973 JUMP JUMPDEST PUSH1 0x40 MLOAD PUSH2 0x49D SWAP2 SWAP1 PUSH2 0x1D80 JUMP JUMPDEST PUSH1 0x40 MLOAD DUP1 SWAP2 SUB SWAP1 RETURN JUMPDEST CALLVALUE DUP1 ISZERO PUSH2 0x4B2 JUMPI PUSH1 0x0 DUP1 REVERT JUMPDEST POP PUSH2 0x4BB PUSH2 0x197D JUMP JUMPDEST PUSH1 0x40 MLOAD PUSH2 0x4C8 SWAP2 SWAP1 PUSH2 0x1D80 JUMP JUMPDEST PUSH1 0x40 MLOAD DUP1 SWAP2 SUB SWAP1 RETURN JUMPDEST PUSH1 0x1 PUSH1 0x0 SWAP1 SLOAD SWAP1 PUSH2 0x100 EXP SWAP1 DIV PUSH20 0xFFFFFFFFFFFFFFFFFFFFFFFFFFFFFFFFFFFFFFFF AND DUP2 JUMP JUMPDEST PUSH1 0x4 SLOAD DUP2 JUMP JUMPDEST PUSH1 0x0 DUP1 SLOAD SWAP1 PUSH2 0x100 EXP SWAP1 DIV PUSH20 0xFFFFFFFFFFFFFFFFFFFFFFFFFFFFFFFFFFFFFFFF AND PUSH20 0xFFFFFFFFFFFFFFFFFFFFFFFFFFFFFFFFFFFFFFFF AND CALLER PUSH20 0xFFFFFFFFFFFFFFFFFFFFFFFFFFFFFFFFFFFFFFFF AND EQ PUSH2 0x58B JUMPI PUSH1 0x40 MLOAD PUSH32 0x8C379A000000000000000000000000000000000000000000000000000000000 DUP2 MSTORE PUSH1 0x4 ADD PUSH2 0x582 SWAP1 PUSH2 0x1C80 JUMP JUMPDEST PUSH1 0x40 MLOAD DUP1 SWAP2 SUB SWAP1 REVERT JUMPDEST DUP1 PUSH1 0x1 PUSH1 0x0 SWAP1 SLOAD SWAP1 PUSH2 0x100 EXP SWAP1 DIV PUSH20 0xFFFFFFFFFFFFFFFFFFFFFFFFFFFFFFFFFFFFFFFF AND PUSH20 0xFFFFFFFFFFFFFFFFFFFFFFFFFFFFFFFFFFFFFFFF AND PUSH4 0x70A08231 ADDRESS PUSH1 0x40 MLOAD DUP3 PUSH4 0xFFFFFFFF AND PUSH1 0xE0 SHL DUP2 MSTORE PUSH1 0x4 ADD PUSH2 0x5E7 SWAP2 SWAP1 PUSH2 0x1BDD JUMP JUMPDEST PUSH1 0x20 PUSH1 0x40 MLOAD DUP1 DUP4 SUB DUP2 DUP7 DUP1 EXTCODESIZE ISZERO DUP1 ISZERO PUSH2 0x5FF JUMPI PUSH1 0x0 DUP1 REVERT JUMPDEST POP GAS STATICCALL ISZERO DUP1 ISZERO PUSH2 0x613 JUMPI RETURNDATASIZE PUSH1 0x0 DUP1 RETURNDATACOPY RETURNDATASIZE PUSH1 0x0 REVERT JUMPDEST POP POP POP POP PUSH1 0x40 MLOAD RETURNDATASIZE PUSH1 0x1F NOT PUSH1 0x1F DUP3 ADD AND DUP3 ADD DUP1 PUSH1 0x40 MSTORE POP DUP2 ADD SWAP1 PUSH2 0x637 SWAP2 SWAP1 PUSH2 0x1A4D JUMP JUMPDEST GT PUSH2 0x677 JUMPI PUSH1 0x40 MLOAD PUSH32 0x8C379A000000000000000000000000000000000000000000000000000000000 DUP2 MSTORE PUSH1 0x4 ADD PUSH2 0x66E SWAP1 PUSH2 0x1D20 JUMP JUMPDEST PUSH1 0x40 MLOAD DUP1 SWAP2 SUB SWAP1 REVERT JUMPDEST PUSH1 0x1 PUSH1 0x0 SWAP1 SLOAD SWAP1 PUSH2 0x100 EXP SWAP1 DIV PUSH20 0xFFFFFFFFFFFFFFFFFFFFFFFFFFFFFFFFFFFFFFFF AND PUSH20 0xFFFFFFFFFFFFFFFFFFFFFFFFFFFFFFFFFFFFFFFF AND PUSH4 0x23B872DD ADDRESS PUSH1 0x0 DUP1 SLOAD SWAP1 PUSH2 0x100 EXP SWAP1 DIV PUSH20 0xFFFFFFFFFFFFFFFFFFFFFFFFFFFFFFFFFFFFFFFF AND DUP5 PUSH1 0x40 MLOAD DUP5 PUSH4 0xFFFFFFFF AND PUSH1 0xE0 SHL DUP2 MSTORE PUSH1 0x4 ADD PUSH2 0x6F6 SWAP4 SWAP3 SWAP2 SWAP1 PUSH2 0x1BF8 JUMP JUMPDEST PUSH1 0x20 PUSH1 0x40 MLOAD DUP1 DUP4 SUB DUP2 PUSH1 0x0 DUP8 DUP1 EXTCODESIZE ISZERO DUP1 ISZERO PUSH2 0x710 JUMPI PUSH1 0x0 DUP1 REVERT JUMPDEST POP GAS CALL ISZERO DUP1 ISZERO PUSH2 0x724 JUMPI RETURNDATASIZE PUSH1 0x0 DUP1 RETURNDATACOPY RETURNDATASIZE PUSH1 0x0 REVERT JUMPDEST POP POP POP POP PUSH1 0x40 MLOAD RETURNDATASIZE PUSH1 0x1F NOT PUSH1 0x1F DUP3 ADD AND DUP3 ADD DUP1 PUSH1 0x40 MSTORE POP DUP2 ADD SWAP1 PUSH2 0x748 SWAP2 SWAP1 PUSH2 0x19F3 JUMP JUMPDEST PUSH2 0x751 JUMPI PUSH1 0x0 DUP1 REVERT JUMPDEST POP JUMP JUMPDEST PUSH1 0x0 DUP1 SLOAD SWAP1 PUSH2 0x100 EXP SWAP1 DIV PUSH20 0xFFFFFFFFFFFFFFFFFFFFFFFFFFFFFFFFFFFFFFFF AND PUSH20 0xFFFFFFFFFFFFFFFFFFFFFFFFFFFFFFFFFFFFFFFF AND CALLER PUSH20 0xFFFFFFFFFFFFFFFFFFFFFFFFFFFFFFFFFFFFFFFF AND EQ PUSH2 0x7E2 JUMPI PUSH1 0x40 MLOAD PUSH32 0x8C379A000000000000000000000000000000000000000000000000000000000 DUP2 MSTORE PUSH1 0x4 ADD PUSH2 0x7D9 SWAP1 PUSH2 0x1C80 JUMP JUMPDEST PUSH1 0x40 MLOAD DUP1 SWAP2 SUB SWAP1 REVERT JUMPDEST DUP1 PUSH1 0x4 DUP2 SWAP1 SSTORE POP POP JUMP JUMPDEST PUSH1 0x0 DUP1 SLOAD SWAP1 PUSH2 0x100 EXP SWAP1 DIV PUSH20 0xFFFFFFFFFFFFFFFFFFFFFFFFFFFFFFFFFFFFFFFF AND PUSH20 0xFFFFFFFFFFFFFFFFFFFFFFFFFFFFFFFFFFFFFFFF AND CALLER PUSH20 0xFFFFFFFFFFFFFFFFFFFFFFFFFFFFFFFFFFFFFFFF AND EQ PUSH2 0x87A JUMPI PUSH1 0x40 MLOAD PUSH32 0x8C379A000000000000000000000000000000000000000000000000000000000 DUP2 MSTORE PUSH1 0x4 ADD PUSH2 0x871 SWAP1 PUSH2 0x1C80 JUMP JUMPDEST PUSH1 0x40 MLOAD DUP1 SWAP2 SUB SWAP1 REVERT JUMPDEST DUP1 PUSH1 0x4 SLOAD PUSH2 0x888 SWAP2 SWAP1 PUSH2 0x1DAC JUMP JUMPDEST PUSH1 0x4 DUP2 SWAP1 SSTORE POP POP JUMP JUMPDEST PUSH1 0x0 DUP1 PUSH1 0x0 SWAP1 SLOAD SWAP1 PUSH2 0x100 EXP SWAP1 DIV PUSH20 0xFFFFFFFFFFFFFFFFFFFFFFFFFFFFFFFFFFFFFFFF AND PUSH20 0xFFFFFFFFFFFFFFFFFFFFFFFFFFFFFFFFFFFFFFFF AND CALLER PUSH20 0xFFFFFFFFFFFFFFFFFFFFFFFFFFFFFFFFFFFFFFFF AND EQ ISZERO PUSH2 0x8F1 JUMPI PUSH1 0x1 SWAP1 POP PUSH2 0x8F6 JUMP JUMPDEST PUSH1 0x0 SWAP1 POP JUMPDEST SWAP1 JUMP JUMPDEST PUSH1 0x0 PUSH1 0x1 PUSH1 0x0 SWAP1 SLOAD SWAP1 PUSH2 0x100 EXP SWAP1 DIV PUSH20 0xFFFFFFFFFFFFFFFFFFFFFFFFFFFFFFFFFFFFFFFF AND PUSH20 0xFFFFFFFFFFFFFFFFFFFFFFFFFFFFFFFFFFFFFFFF AND PUSH4 0x70A08231 ADDRESS PUSH1 0x40 MLOAD DUP3 PUSH4 0xFFFFFFFF AND PUSH1 0xE0 SHL DUP2 MSTORE PUSH1 0x4 ADD PUSH2 0x956 SWAP2 SWAP1 PUSH2 0x1BDD JUMP JUMPDEST PUSH1 0x20 PUSH1 0x40 MLOAD DUP1 DUP4 SUB DUP2 DUP7 DUP1 EXTCODESIZE ISZERO DUP1 ISZERO PUSH2 0x96E JUMPI PUSH1 0x0 DUP1 REVERT JUMPDEST POP GAS STATICCALL ISZERO DUP1 ISZERO PUSH2 0x982 JUMPI RETURNDATASIZE PUSH1 0x0 DUP1 RETURNDATACOPY RETURNDATASIZE PUSH1 0x0 REVERT JUMPDEST POP POP POP POP PUSH1 0x40 MLOAD RETURNDATASIZE PUSH1 0x1F NOT PUSH1 0x1F DUP3 ADD AND DUP3 ADD DUP1 PUSH1 0x40 MSTORE POP DUP2 ADD SWAP1 PUSH2 0x9A6 SWAP2 SWAP1 PUSH2 0x1A4D JUMP JUMPDEST SWAP1 POP SWAP1 JUMP JUMPDEST PUSH1 0x0 PUSH2 0x9B5 PUSH2 0x164E JUMP JUMPDEST DUP3 PUSH2 0x9C0 SWAP2 SWAP1 PUSH2 0x1E02 JUMP JUMPDEST SWAP1 POP PUSH1 0x0 DUP3 GT PUSH2 0xA05 JUMPI PUSH1 0x40 MLOAD PUSH32 0x8C379A000000000000000000000000000000000000000000000000000000000 DUP2 MSTORE PUSH1 0x4 ADD PUSH2 0x9FC SWAP1 PUSH2 0x1D60 JUMP JUMPDEST PUSH1 0x40 MLOAD DUP1 SWAP2 SUB SWAP1 REVERT JUMPDEST DUP1 PUSH1 0x1 PUSH1 0x0 SWAP1 SLOAD SWAP1 PUSH2 0x100 EXP SWAP1 DIV PUSH20 0xFFFFFFFFFFFFFFFFFFFFFFFFFFFFFFFFFFFFFFFF AND PUSH20 0xFFFFFFFFFFFFFFFFFFFFFFFFFFFFFFFFFFFFFFFF AND PUSH4 0x70A08231 ADDRESS PUSH1 0x40 MLOAD DUP3 PUSH4 0xFFFFFFFF AND PUSH1 0xE0 SHL DUP2 MSTORE PUSH1 0x4 ADD PUSH2 0xA61 SWAP2 SWAP1 PUSH2 0x1BDD JUMP JUMPDEST PUSH1 0x20 PUSH1 0x40 MLOAD DUP1 DUP4 SUB DUP2 DUP7 DUP1 EXTCODESIZE ISZERO DUP1 ISZERO PUSH2 0xA79 JUMPI PUSH1 0x0 DUP1 REVERT JUMPDEST POP GAS STATICCALL ISZERO DUP1 ISZERO PUSH2 0xA8D JUMPI RETURNDATASIZE PUSH1 0x0 DUP1 RETURNDATACOPY RETURNDATASIZE PUSH1 0x0 REVERT JUMPDEST POP POP POP POP PUSH1 0x40 MLOAD RETURNDATASIZE PUSH1 0x1F NOT PUSH1 0x1F DUP3 ADD AND DUP3 ADD DUP1 PUSH1 0x40 MSTORE POP DUP2 ADD SWAP1 PUSH2 0xAB1 SWAP2 SWAP1 PUSH2 0x1A4D JUMP JUMPDEST LT ISZERO PUSH2 0xAF2 JUMPI PUSH1 0x40 MLOAD PUSH32 0x8C379A000000000000000000000000000000000000000000000000000000000 DUP2 MSTORE PUSH1 0x4 ADD PUSH2 0xAE9 SWAP1 PUSH2 0x1D40 JUMP JUMPDEST PUSH1 0x40 MLOAD DUP1 SWAP2 SUB SWAP1 REVERT JUMPDEST PUSH1 0x0 PUSH2 0xAFC PUSH2 0x14D2 JUMP JUMPDEST PUSH1 0x4 SLOAD PUSH2 0xB09 SWAP2 SWAP1 PUSH2 0x1E8D JUMP JUMPDEST SWAP1 POP PUSH1 0x0 DUP2 GT ISZERO PUSH2 0xD80 JUMPI DUP1 DUP4 GT ISZERO PUSH2 0xCC0 JUMPI PUSH1 0x2 PUSH1 0x0 SWAP1 SLOAD SWAP1 PUSH2 0x100 EXP SWAP1 DIV PUSH20 0xFFFFFFFFFFFFFFFFFFFFFFFFFFFFFFFFFFFFFFFF AND PUSH20 0xFFFFFFFFFFFFFFFFFFFFFFFFFFFFFFFFFFFFFFFF AND PUSH4 0x23B872DD CALLER ADDRESS DUP5 PUSH1 0x40 MLOAD DUP5 PUSH4 0xFFFFFFFF AND PUSH1 0xE0 SHL DUP2 MSTORE PUSH1 0x4 ADD PUSH2 0xB7B SWAP4 SWAP3 SWAP2 SWAP1 PUSH2 0x1BF8 JUMP JUMPDEST PUSH1 0x20 PUSH1 0x40 MLOAD DUP1 DUP4 SUB DUP2 PUSH1 0x0 DUP8 DUP1 EXTCODESIZE ISZERO DUP1 ISZERO PUSH2 0xB95 JUMPI PUSH1 0x0 DUP1 REVERT JUMPDEST POP GAS CALL ISZERO DUP1 ISZERO PUSH2 0xBA9 JUMPI RETURNDATASIZE PUSH1 0x0 DUP1 RETURNDATACOPY RETURNDATASIZE PUSH1 0x0 REVERT JUMPDEST POP POP POP POP PUSH1 0x40 MLOAD RETURNDATASIZE PUSH1 0x1F NOT PUSH1 0x1F DUP3 ADD AND DUP3 ADD DUP1 PUSH1 0x40 MSTORE POP DUP2 ADD SWAP1 PUSH2 0xBCD SWAP2 SWAP1 PUSH2 0x19F3 JUMP JUMPDEST PUSH2 0xBD6 JUMPI PUSH1 0x0 DUP1 REVERT JUMPDEST PUSH1 0x2 PUSH1 0x0 SWAP1 SLOAD SWAP1 PUSH2 0x100 EXP SWAP1 DIV PUSH20 0xFFFFFFFFFFFFFFFFFFFFFFFFFFFFFFFFFFFFFFFF AND PUSH20 0xFFFFFFFFFFFFFFFFFFFFFFFFFFFFFFFFFFFFFFFF AND PUSH4 0x23B872DD CALLER PUSH1 0x0 DUP1 SLOAD SWAP1 PUSH2 0x100 EXP SWAP1 DIV PUSH20 0xFFFFFFFFFFFFFFFFFFFFFFFFFFFFFFFFFFFFFFFF AND DUP5 DUP8 PUSH2 0xC42 SWAP2 SWAP1 PUSH2 0x1E8D JUMP JUMPDEST PUSH1 0x40 MLOAD DUP5 PUSH4 0xFFFFFFFF AND PUSH1 0xE0 SHL DUP2 MSTORE PUSH1 0x4 ADD PUSH2 0xC60 SWAP4 SWAP3 SWAP2 SWAP1 PUSH2 0x1BF8 JUMP JUMPDEST PUSH1 0x20 PUSH1 0x40 MLOAD DUP1 DUP4 SUB DUP2 PUSH1 0x0 DUP8 DUP1 EXTCODESIZE ISZERO DUP1 ISZERO PUSH2 0xC7A JUMPI PUSH1 0x0 DUP1 REVERT JUMPDEST POP GAS CALL ISZERO DUP1 ISZERO PUSH2 0xC8E JUMPI RETURNDATASIZE PUSH1 0x0 DUP1 RETURNDATACOPY RETURNDATASIZE PUSH1 0x0 REVERT JUMPDEST POP POP POP POP PUSH1 0x40 MLOAD RETURNDATASIZE PUSH1 0x1F NOT PUSH1 0x1F DUP3 ADD AND DUP3 ADD DUP1 PUSH1 0x40 MSTORE POP DUP2 ADD SWAP1 PUSH2 0xCB2 SWAP2 SWAP1 PUSH2 0x19F3 JUMP JUMPDEST PUSH2 0xCBB JUMPI PUSH1 0x0 DUP1 REVERT JUMPDEST PUSH2 0xD7B JUMP JUMPDEST PUSH1 0x2 PUSH1 0x0 SWAP1 SLOAD SWAP1 PUSH2 0x100 EXP SWAP1 DIV PUSH20 0xFFFFFFFFFFFFFFFFFFFFFFFFFFFFFFFFFFFFFFFF AND PUSH20 0xFFFFFFFFFFFFFFFFFFFFFFFFFFFFFFFFFFFFFFFF AND PUSH4 0x23B872DD CALLER ADDRESS DUP7 PUSH1 0x40 MLOAD DUP5 PUSH4 0xFFFFFFFF AND PUSH1 0xE0 SHL DUP2 MSTORE PUSH1 0x4 ADD PUSH2 0xD1F SWAP4 SWAP3 SWAP2 SWAP1 PUSH2 0x1BF8 JUMP JUMPDEST PUSH1 0x20 PUSH1 0x40 MLOAD DUP1 DUP4 SUB DUP2 PUSH1 0x0 DUP8 DUP1 EXTCODESIZE ISZERO DUP1 ISZERO PUSH2 0xD39 JUMPI PUSH1 0x0 DUP1 REVERT JUMPDEST POP GAS CALL ISZERO DUP1 ISZERO PUSH2 0xD4D JUMPI RETURNDATASIZE PUSH1 0x0 DUP1 RETURNDATACOPY RETURNDATASIZE PUSH1 0x0 REVERT JUMPDEST POP POP POP POP PUSH1 0x40 MLOAD RETURNDATASIZE PUSH1 0x1F NOT PUSH1 0x1F DUP3 ADD AND DUP3 ADD DUP1 PUSH1 0x40 MSTORE POP DUP2 ADD SWAP1 PUSH2 0xD71 SWAP2 SWAP1 PUSH2 0x19F3 JUMP JUMPDEST PUSH2 0xD7A JUMPI PUSH1 0x0 DUP1 REVERT JUMPDEST JUMPDEST PUSH2 0xE5B JUMP JUMPDEST PUSH1 0x2 PUSH1 0x0 SWAP1 SLOAD SWAP1 PUSH2 0x100 EXP SWAP1 DIV PUSH20 0xFFFFFFFFFFFFFFFFFFFFFFFFFFFFFFFFFFFFFFFF AND PUSH20 0xFFFFFFFFFFFFFFFFFFFFFFFFFFFFFFFFFFFFFFFF AND PUSH4 0x23B872DD CALLER PUSH1 0x0 DUP1 SLOAD SWAP1 PUSH2 0x100 EXP SWAP1 DIV PUSH20 0xFFFFFFFFFFFFFFFFFFFFFFFFFFFFFFFFFFFFFFFF AND DUP7 PUSH1 0x40 MLOAD DUP5 PUSH4 0xFFFFFFFF AND PUSH1 0xE0 SHL DUP2 MSTORE PUSH1 0x4 ADD PUSH2 0xDFF SWAP4 SWAP3 SWAP2 SWAP1 PUSH2 0x1BF8 JUMP JUMPDEST PUSH1 0x20 PUSH1 0x40 MLOAD DUP1 DUP4 SUB DUP2 PUSH1 0x0 DUP8 DUP1 EXTCODESIZE ISZERO DUP1 ISZERO PUSH2 0xE19 JUMPI PUSH1 0x0 DUP1 REVERT JUMPDEST POP GAS CALL ISZERO DUP1 ISZERO PUSH2 0xE2D JUMPI RETURNDATASIZE PUSH1 0x0 DUP1 RETURNDATACOPY RETURNDATASIZE PUSH1 0x0 REVERT JUMPDEST POP POP POP POP PUSH1 0x40 MLOAD RETURNDATASIZE PUSH1 0x1F NOT PUSH1 0x1F DUP3 ADD AND DUP3 ADD DUP1 PUSH1 0x40 MSTORE POP DUP2 ADD SWAP1 PUSH2 0xE51 SWAP2 SWAP1 PUSH2 0x19F3 JUMP JUMPDEST PUSH2 0xE5A JUMPI PUSH1 0x0 DUP1 REVERT JUMPDEST JUMPDEST PUSH1 0x1 PUSH1 0x0 SWAP1 SLOAD SWAP1 PUSH2 0x100 EXP SWAP1 DIV PUSH20 0xFFFFFFFFFFFFFFFFFFFFFFFFFFFFFFFFFFFFFFFF AND PUSH20 0xFFFFFFFFFFFFFFFFFFFFFFFFFFFFFFFFFFFFFFFF AND PUSH4 0x23B872DD ADDRESS CALLER DUP7 PUSH1 0x40 MLOAD DUP5 PUSH4 0xFFFFFFFF AND PUSH1 0xE0 SHL DUP2 MSTORE PUSH1 0x4 ADD PUSH2 0xEBA SWAP4 SWAP3 SWAP2 SWAP1 PUSH2 0x1BF8 JUMP JUMPDEST PUSH1 0x20 PUSH1 0x40 MLOAD DUP1 DUP4 SUB DUP2 PUSH1 0x0 DUP8 DUP1 EXTCODESIZE ISZERO DUP1 ISZERO PUSH2 0xED4 JUMPI PUSH1 0x0 DUP1 REVERT JUMPDEST POP GAS CALL ISZERO DUP1 ISZERO PUSH2 0xEE8 JUMPI RETURNDATASIZE PUSH1 0x0 DUP1 RETURNDATACOPY RETURNDATASIZE PUSH1 0x0 REVERT JUMPDEST POP POP POP POP PUSH1 0x40 MLOAD RETURNDATASIZE PUSH1 0x1F NOT PUSH1 0x1F DUP3 ADD AND DUP3 ADD DUP1 PUSH1 0x40 MSTORE POP DUP2 ADD SWAP1 PUSH2 0xF0C SWAP2 SWAP1 PUSH2 0x19F3 JUMP JUMPDEST POP POP POP POP JUMP JUMPDEST PUSH1 0x2 PUSH1 0x0 SWAP1 SLOAD SWAP1 PUSH2 0x100 EXP SWAP1 DIV PUSH20 0xFFFFFFFFFFFFFFFFFFFFFFFFFFFFFFFFFFFFFFFF AND DUP2 JUMP JUMPDEST PUSH1 0x0 DUP1 SLOAD SWAP1 PUSH2 0x100 EXP SWAP1 DIV PUSH20 0xFFFFFFFFFFFFFFFFFFFFFFFFFFFFFFFFFFFFFFFF AND PUSH20 0xFFFFFFFFFFFFFFFFFFFFFFFFFFFFFFFFFFFFFFFF AND CALLER PUSH20 0xFFFFFFFFFFFFFFFFFFFFFFFFFFFFFFFFFFFFFFFF AND EQ PUSH2 0xFC6 JUMPI PUSH1 0x40 MLOAD PUSH32 0x8C379A000000000000000000000000000000000000000000000000000000000 DUP2 MSTORE PUSH1 0x4 ADD PUSH2 0xFBD SWAP1 PUSH2 0x1C80 JUMP JUMPDEST PUSH1 0x40 MLOAD DUP1 SWAP2 SUB SWAP1 REVERT JUMPDEST DUP1 PUSH1 0x3 DUP2 SWAP1 SSTORE POP POP JUMP JUMPDEST PUSH1 0x0 DUP1 SLOAD SWAP1 PUSH2 0x100 EXP SWAP1 DIV PUSH20 0xFFFFFFFFFFFFFFFFFFFFFFFFFFFFFFFFFFFFFFFF AND PUSH20 0xFFFFFFFFFFFFFFFFFFFFFFFFFFFFFFFFFFFFFFFF AND CALLER PUSH20 0xFFFFFFFFFFFFFFFFFFFFFFFFFFFFFFFFFFFFFFFF AND EQ PUSH2 0x105E JUMPI PUSH1 0x40 MLOAD PUSH32 0x8C379A000000000000000000000000000000000000000000000000000000000 DUP2 MSTORE PUSH1 0x4 ADD PUSH2 0x1055 SWAP1 PUSH2 0x1C80 JUMP JUMPDEST PUSH1 0x40 MLOAD DUP1 SWAP2 SUB SWAP1 REVERT JUMPDEST DUP1 PUSH1 0x1 PUSH1 0x0 SWAP1 SLOAD SWAP1 PUSH2 0x100 EXP SWAP1 DIV PUSH20 0xFFFFFFFFFFFFFFFFFFFFFFFFFFFFFFFFFFFFFFFF AND PUSH20 0xFFFFFFFFFFFFFFFFFFFFFFFFFFFFFFFFFFFFFFFF AND PUSH4 0x70A08231 CALLER PUSH1 0x40 MLOAD DUP3 PUSH4 0xFFFFFFFF AND PUSH1 0xE0 SHL DUP2 MSTORE PUSH1 0x4 ADD PUSH2 0x10BA SWAP2 SWAP1 PUSH2 0x1BDD JUMP JUMPDEST PUSH1 0x20 PUSH1 0x40 MLOAD DUP1 DUP4 SUB DUP2 DUP7 DUP1 EXTCODESIZE ISZERO DUP1 ISZERO PUSH2 0x10D2 JUMPI PUSH1 0x0 DUP1 REVERT JUMPDEST POP GAS STATICCALL ISZERO DUP1 ISZERO PUSH2 0x10E6 JUMPI RETURNDATASIZE PUSH1 0x0 DUP1 RETURNDATACOPY RETURNDATASIZE PUSH1 0x0 REVERT JUMPDEST POP POP POP POP PUSH1 0x40 MLOAD RETURNDATASIZE PUSH1 0x1F NOT PUSH1 0x1F DUP3 ADD AND DUP3 ADD DUP1 PUSH1 0x40 MSTORE POP DUP2 ADD SWAP1 PUSH2 0x110A SWAP2 SWAP1 PUSH2 0x1A4D JUMP JUMPDEST LT ISZERO PUSH2 0x114B JUMPI PUSH1 0x40 MLOAD PUSH32 0x8C379A000000000000000000000000000000000000000000000000000000000 DUP2 MSTORE PUSH1 0x4 ADD PUSH2 0x1142 SWAP1 PUSH2 0x1CE0 JUMP JUMPDEST PUSH1 0x40 MLOAD DUP1 SWAP2 SUB SWAP1 REVERT JUMPDEST PUSH1 0x1 PUSH1 0x0 SWAP1 SLOAD SWAP1 PUSH2 0x100 EXP SWAP1 DIV PUSH20 0xFFFFFFFFFFFFFFFFFFFFFFFFFFFFFFFFFFFFFFFF AND PUSH20 0xFFFFFFFFFFFFFFFFFFFFFFFFFFFFFFFFFFFFFFFF AND PUSH4 0x23B872DD CALLER ADDRESS DUP5 PUSH1 0x40 MLOAD DUP5 PUSH4 0xFFFFFFFF AND PUSH1 0xE0 SHL DUP2 MSTORE PUSH1 0x4 ADD PUSH2 0x11AA SWAP4 SWAP3 SWAP2 SWAP1 PUSH2 0x1BF8 JUMP JUMPDEST PUSH1 0x20 PUSH1 0x40 MLOAD DUP1 DUP4 SUB DUP2 PUSH1 0x0 DUP8 DUP1 EXTCODESIZE ISZERO DUP1 ISZERO PUSH2 0x11C4 JUMPI PUSH1 0x0 DUP1 REVERT JUMPDEST POP GAS CALL ISZERO DUP1 ISZERO PUSH2 0x11D8 JUMPI RETURNDATASIZE PUSH1 0x0 DUP1 RETURNDATACOPY RETURNDATASIZE PUSH1 0x0 REVERT JUMPDEST POP POP POP POP PUSH1 0x40 MLOAD RETURNDATASIZE PUSH1 0x1F NOT PUSH1 0x1F DUP3 ADD AND DUP3 ADD DUP1 PUSH1 0x40 MSTORE POP DUP2 ADD SWAP1 PUSH2 0x11FC SWAP2 SWAP1 PUSH2 0x19F3 JUMP JUMPDEST PUSH2 0x1205 JUMPI PUSH1 0x0 DUP1 REVERT JUMPDEST DUP1 PUSH1 0x3 SLOAD PUSH2 0x1213 SWAP2 SWAP1 PUSH2 0x1DAC JUMP JUMPDEST PUSH1 0x3 DUP2 SWAP1 SSTORE POP POP JUMP JUMPDEST PUSH1 0x0 DUP1 SLOAD SWAP1 PUSH2 0x100 EXP SWAP1 DIV PUSH20 0xFFFFFFFFFFFFFFFFFFFFFFFFFFFFFFFFFFFFFFFF AND PUSH20 0xFFFFFFFFFFFFFFFFFFFFFFFFFFFFFFFFFFFFFFFF AND CALLER PUSH20 0xFFFFFFFFFFFFFFFFFFFFFFFFFFFFFFFFFFFFFFFF AND EQ PUSH2 0x12AA JUMPI PUSH1 0x40 MLOAD PUSH32 0x8C379A000000000000000000000000000000000000000000000000000000000 DUP2 MSTORE PUSH1 0x4 ADD PUSH2 0x12A1 SWAP1 PUSH2 0x1C80 JUMP JUMPDEST PUSH1 0x40 MLOAD DUP1 SWAP2 SUB SWAP1 REVERT JUMPDEST DUP1 PUSH1 0x2 PUSH1 0x0 SWAP1 SLOAD SWAP1 PUSH2 0x100 EXP SWAP1 DIV PUSH20 0xFFFFFFFFFFFFFFFFFFFFFFFFFFFFFFFFFFFFFFFF AND PUSH20 0xFFFFFFFFFFFFFFFFFFFFFFFFFFFFFFFFFFFFFFFF AND PUSH4 0x70A08231 ADDRESS PUSH1 0x40 MLOAD DUP3 PUSH4 0xFFFFFFFF AND PUSH1 0xE0 SHL DUP2 MSTORE PUSH1 0x4 ADD PUSH2 0x1306 SWAP2 SWAP1 PUSH2 0x1BDD JUMP JUMPDEST PUSH1 0x20 PUSH1 0x40 MLOAD DUP1 DUP4 SUB DUP2 DUP7 DUP1 EXTCODESIZE ISZERO DUP1 ISZERO PUSH2 0x131E JUMPI PUSH1 0x0 DUP1 REVERT JUMPDEST POP GAS STATICCALL ISZERO DUP1 ISZERO PUSH2 0x1332 JUMPI RETURNDATASIZE PUSH1 0x0 DUP1 RETURNDATACOPY RETURNDATASIZE PUSH1 0x0 REVERT JUMPDEST POP POP POP POP PUSH1 0x40 MLOAD RETURNDATASIZE PUSH1 0x1F NOT PUSH1 0x1F DUP3 ADD AND DUP3 ADD DUP1 PUSH1 0x40 MSTORE POP DUP2 ADD SWAP1 PUSH2 0x1356 SWAP2 SWAP1 PUSH2 0x1A4D JUMP JUMPDEST GT PUSH2 0x1396 JUMPI PUSH1 0x40 MLOAD PUSH32 0x8C379A000000000000000000000000000000000000000000000000000000000 DUP2 MSTORE PUSH1 0x4 ADD PUSH2 0x138D SWAP1 PUSH2 0x1D00 JUMP JUMPDEST PUSH1 0x40 MLOAD DUP1 SWAP2 SUB SWAP1 REVERT JUMPDEST PUSH1 0x2 PUSH1 0x0 SWAP1 SLOAD SWAP1 PUSH2 0x100 EXP SWAP1 DIV PUSH20 0xFFFFFFFFFFFFFFFFFFFFFFFFFFFFFFFFFFFFFFFF AND PUSH20 0xFFFFFFFFFFFFFFFFFFFFFFFFFFFFFFFFFFFFFFFF AND PUSH4 0x23B872DD ADDRESS PUSH1 0x0 DUP1 SLOAD SWAP1 PUSH2 0x100 EXP SWAP1 DIV PUSH20 0xFFFFFFFFFFFFFFFFFFFFFFFFFFFFFFFFFFFFFFFF AND DUP5 PUSH1 0x40 MLOAD DUP5 PUSH4 0xFFFFFFFF AND PUSH1 0xE0 SHL DUP2 MSTORE PUSH1 0x4 ADD PUSH2 0x1415 SWAP4 SWAP3 SWAP2 SWAP1 PUSH2 0x1BF8 JUMP JUMPDEST PUSH1 0x20 PUSH1 0x40 MLOAD DUP1 DUP4 SUB DUP2 PUSH1 0x0 DUP8 DUP1 EXTCODESIZE ISZERO DUP1 ISZERO PUSH2 0x142F JUMPI PUSH1 0x0 DUP1 REVERT JUMPDEST POP GAS CALL ISZERO DUP1 ISZERO PUSH2 0x1443 JUMPI RETURNDATASIZE PUSH1 0x0 DUP1 RETURNDATACOPY RETURNDATASIZE PUSH1 0x0 REVERT JUMPDEST POP POP POP POP PUSH1 0x40 MLOAD RETURNDATASIZE PUSH1 0x1F NOT PUSH1 0x1F DUP3 ADD AND DUP3 ADD DUP1 PUSH1 0x40 MSTORE POP DUP2 ADD SWAP1 PUSH2 0x1467 SWAP2 SWAP1 PUSH2 0x19F3 JUMP JUMPDEST PUSH2 0x1470 JUMPI PUSH1 0x0 DUP1 REVERT JUMPDEST POP JUMP JUMPDEST PUSH1 0x0 CALLER SWAP1 POP SWAP1 JUMP JUMPDEST PUSH1 0x0 PUSH1 0x3 SLOAD SWAP1 POP SWAP1 JUMP JUMPDEST PUSH1 0x0 DUP1 PUSH1 0x0 SWAP1 SLOAD SWAP1 PUSH2 0x100 EXP SWAP1 DIV PUSH20 0xFFFFFFFFFFFFFFFFFFFFFFFFFFFFFFFFFFFFFFFF AND SWAP1 POP SWAP1 JUMP JUMPDEST PUSH1 0x0 DUP1 SLOAD SWAP1 PUSH2 0x100 EXP SWAP1 DIV PUSH20 0xFFFFFFFFFFFFFFFFFFFFFFFFFFFFFFFFFFFFFFFF AND DUP2 JUMP JUMPDEST PUSH1 0x0 PUSH1 0x2 PUSH1 0x0 SWAP1 SLOAD SWAP1 PUSH2 0x100 EXP SWAP1 DIV PUSH20 0xFFFFFFFFFFFFFFFFFFFFFFFFFFFFFFFFFFFFFFFF AND PUSH20 0xFFFFFFFFFFFFFFFFFFFFFFFFFFFFFFFFFFFFFFFF AND PUSH4 0x70A08231 ADDRESS PUSH1 0x40 MLOAD DUP3 PUSH4 0xFFFFFFFF AND PUSH1 0xE0 SHL DUP2 MSTORE PUSH1 0x4 ADD PUSH2 0x152F SWAP2 SWAP1 PUSH2 0x1BDD JUMP JUMPDEST PUSH1 0x20 PUSH1 0x40 MLOAD DUP1 DUP4 SUB DUP2 DUP7 DUP1 EXTCODESIZE ISZERO DUP1 ISZERO PUSH2 0x1547 JUMPI PUSH1 0x0 DUP1 REVERT JUMPDEST POP GAS STATICCALL ISZERO DUP1 ISZERO PUSH2 0x155B JUMPI RETURNDATASIZE PUSH1 0x0 DUP1 RETURNDATACOPY RETURNDATASIZE PUSH1 0x0 REVERT JUMPDEST POP POP POP POP PUSH1 0x40 MLOAD RETURNDATASIZE PUSH1 0x1F NOT PUSH1 0x1F DUP3 ADD AND DUP3 ADD DUP1 PUSH1 0x40 MSTORE POP DUP2 ADD SWAP1 PUSH2 0x157F SWAP2 SWAP1 PUSH2 0x1A4D JUMP JUMPDEST SWAP1 POP SWAP1 JUMP JUMPDEST PUSH1 0x3 SLOAD DUP2 JUMP JUMPDEST PUSH1 0x0 PUSH1 0x1 PUSH1 0x0 SWAP1 SLOAD SWAP1 PUSH2 0x100 EXP SWAP1 DIV PUSH20 0xFFFFFFFFFFFFFFFFFFFFFFFFFFFFFFFFFFFFFFFF AND PUSH20 0xFFFFFFFFFFFFFFFFFFFFFFFFFFFFFFFFFFFFFFFF AND PUSH4 0x70A08231 CALLER PUSH1 0x40 MLOAD DUP3 PUSH4 0xFFFFFFFF AND PUSH1 0xE0 SHL DUP2 MSTORE PUSH1 0x4 ADD PUSH2 0x15E7 SWAP2 SWAP1 PUSH2 0x1BDD JUMP JUMPDEST PUSH1 0x20 PUSH1 0x40 MLOAD DUP1 DUP4 SUB DUP2 DUP7 DUP1 EXTCODESIZE ISZERO DUP1 ISZERO PUSH2 0x15FF JUMPI PUSH1 0x0 DUP1 REVERT JUMPDEST POP GAS STATICCALL ISZERO DUP1 ISZERO PUSH2 0x1613 JUMPI RETURNDATASIZE PUSH1 0x0 DUP1 RETURNDATACOPY RETURNDATASIZE PUSH1 0x0 REVERT JUMPDEST POP POP POP POP PUSH1 0x40 MLOAD RETURNDATASIZE PUSH1 0x1F NOT PUSH1 0x1F DUP3 ADD AND DUP3 ADD DUP1 PUSH1 0x40 MSTORE POP DUP2 ADD SWAP1 PUSH2 0x1637 SWAP2 SWAP1 PUSH2 0x1A4D JUMP JUMPDEST PUSH2 0x163F PUSH2 0x164E JUMP JUMPDEST PUSH2 0x1649 SWAP2 SWAP1 PUSH2 0x1E33 JUMP JUMPDEST SWAP1 POP SWAP1 JUMP JUMPDEST PUSH1 0x0 PUSH1 0x3 SLOAD PUSH1 0x4 SLOAD PUSH1 0x3 SLOAD PUSH2 0x1663 SWAP2 SWAP1 PUSH2 0x1DAC JUMP JUMPDEST PUSH2 0x166D SWAP2 SWAP1 PUSH2 0x1E02 JUMP JUMPDEST SWAP1 POP SWAP1 JUMP JUMPDEST PUSH1 0x0 PUSH2 0x167C PUSH2 0x164E JUMP JUMPDEST DUP3 PUSH2 0x1687 SWAP2 SWAP1 PUSH2 0x1E33 JUMP JUMPDEST SWAP1 POP PUSH1 0x0 DUP3 GT PUSH2 0x16CC JUMPI PUSH1 0x40 MLOAD PUSH32 0x8C379A000000000000000000000000000000000000000000000000000000000 DUP2 MSTORE PUSH1 0x4 ADD PUSH2 0x16C3 SWAP1 PUSH2 0x1D60 JUMP JUMPDEST PUSH1 0x40 MLOAD DUP1 SWAP2 SUB SWAP1 REVERT JUMPDEST DUP2 PUSH1 0x1 PUSH1 0x0 SWAP1 SLOAD SWAP1 PUSH2 0x100 EXP SWAP1 DIV PUSH20 0xFFFFFFFFFFFFFFFFFFFFFFFFFFFFFFFFFFFFFFFF AND PUSH20 0xFFFFFFFFFFFFFFFFFFFFFFFFFFFFFFFFFFFFFFFF AND PUSH4 0x70A08231 CALLER PUSH1 0x40 MLOAD DUP3 PUSH4 0xFFFFFFFF AND PUSH1 0xE0 SHL DUP2 MSTORE PUSH1 0x4 ADD PUSH2 0x1728 SWAP2 SWAP1 PUSH2 0x1BDD JUMP JUMPDEST PUSH1 0x20 PUSH1 0x40 MLOAD DUP1 DUP4 SUB DUP2 DUP7 DUP1 EXTCODESIZE ISZERO DUP1 ISZERO PUSH2 0x1740 JUMPI PUSH1 0x0 DUP1 REVERT JUMPDEST POP GAS STATICCALL ISZERO DUP1 ISZERO PUSH2 0x1754 JUMPI RETURNDATASIZE PUSH1 0x0 DUP1 RETURNDATACOPY RETURNDATASIZE PUSH1 0x0 REVERT JUMPDEST POP POP POP POP PUSH1 0x40 MLOAD RETURNDATASIZE PUSH1 0x1F NOT PUSH1 0x1F DUP3 ADD AND DUP3 ADD DUP1 PUSH1 0x40 MSTORE POP DUP2 ADD SWAP1 PUSH2 0x1778 SWAP2 SWAP1 PUSH2 0x1A4D JUMP JUMPDEST LT ISZERO PUSH2 0x17B9 JUMPI PUSH1 0x40 MLOAD PUSH32 0x8C379A000000000000000000000000000000000000000000000000000000000 DUP2 MSTORE PUSH1 0x4 ADD PUSH2 0x17B0 SWAP1 PUSH2 0x1CA0 JUMP JUMPDEST PUSH1 0x40 MLOAD DUP1 SWAP2 SUB SWAP1 REVERT JUMPDEST DUP1 PUSH2 0x17C2 PUSH2 0x14D2 JUMP JUMPDEST LT ISZERO PUSH2 0x1803 JUMPI PUSH1 0x40 MLOAD PUSH32 0x8C379A000000000000000000000000000000000000000000000000000000000 DUP2 MSTORE PUSH1 0x4 ADD PUSH2 0x17FA SWAP1 PUSH2 0x1CC0 JUMP JUMPDEST PUSH1 0x40 MLOAD DUP1 SWAP2 SUB SWAP1 REVERT JUMPDEST PUSH1 0x1 PUSH1 0x0 SWAP1 SLOAD SWAP1 PUSH2 0x100 EXP SWAP1 DIV PUSH20 0xFFFFFFFFFFFFFFFFFFFFFFFFFFFFFFFFFFFFFFFF AND PUSH20 0xFFFFFFFFFFFFFFFFFFFFFFFFFFFFFFFFFFFFFFFF AND PUSH4 0x23B872DD CALLER ADDRESS DUP6 PUSH1 0x40 MLOAD DUP5 PUSH4 0xFFFFFFFF AND PUSH1 0xE0 SHL DUP2 MSTORE PUSH1 0x4 ADD PUSH2 0x1862 SWAP4 SWAP3 SWAP2 SWAP1 PUSH2 0x1BF8 JUMP JUMPDEST PUSH1 0x20 PUSH1 0x40 MLOAD DUP1 DUP4 SUB DUP2 PUSH1 0x0 DUP8 DUP1 EXTCODESIZE ISZERO DUP1 ISZERO PUSH2 0x187C JUMPI PUSH1 0x0 DUP1 REVERT JUMPDEST POP GAS CALL ISZERO DUP1 ISZERO PUSH2 0x1890 JUMPI RETURNDATASIZE PUSH1 0x0 DUP1 RETURNDATACOPY RETURNDATASIZE PUSH1 0x0 REVERT JUMPDEST POP POP POP POP PUSH1 0x40 MLOAD RETURNDATASIZE PUSH1 0x1F NOT PUSH1 0x1F DUP3 ADD AND DUP3 ADD DUP1 PUSH1 0x40 MSTORE POP DUP2 ADD SWAP1 PUSH2 0x18B4 SWAP2 SWAP1 PUSH2 0x19F3 JUMP JUMPDEST PUSH2 0x18BD JUMPI PUSH1 0x0 DUP1 REVERT JUMPDEST PUSH1 0x2 PUSH1 0x0 SWAP1 SLOAD SWAP1 PUSH2 0x100 EXP SWAP1 DIV PUSH20 0xFFFFFFFFFFFFFFFFFFFFFFFFFFFFFFFFFFFFFFFF AND PUSH20 0xFFFFFFFFFFFFFFFFFFFFFFFFFFFFFFFFFFFFFFFF AND PUSH4 0x23B872DD ADDRESS CALLER DUP5 PUSH1 0x40 MLOAD DUP5 PUSH4 0xFFFFFFFF AND PUSH1 0xE0 SHL DUP2 MSTORE PUSH1 0x4 ADD PUSH2 0x191C SWAP4 SWAP3 SWAP2 SWAP1 PUSH2 0x1BF8 JUMP JUMPDEST PUSH1 0x20 PUSH1 0x40 MLOAD DUP1 DUP4 SUB DUP2 PUSH1 0x0 DUP8 DUP1 EXTCODESIZE ISZERO DUP1 ISZERO PUSH2 0x1936 JUMPI PUSH1 0x0 DUP1 REVERT JUMPDEST POP GAS CALL ISZERO DUP1 ISZERO PUSH2 0x194A JUMPI RETURNDATASIZE PUSH1 0x0 DUP1 RETURNDATACOPY RETURNDATASIZE PUSH1 0x0 REVERT JUMPDEST POP POP POP POP PUSH1 0x40 MLOAD RETURNDATASIZE PUSH1 0x1F NOT PUSH1 0x1F DUP3 ADD AND DUP3 ADD DUP1 PUSH1 0x40 MSTORE POP DUP2 ADD SWAP1 PUSH2 0x196E SWAP2 SWAP1 PUSH2 0x19F3 JUMP JUMPDEST POP POP POP JUMP JUMPDEST PUSH1 0x0 PUSH1 0x4 SLOAD SWAP1 POP SWAP1 JUMP JUMPDEST PUSH1 0x0 PUSH8 0xDE0B6B3A7640000 PUSH1 0x3 SLOAD PUSH1 0x4 SLOAD PUSH1 0x3 SLOAD PUSH2 0x199B SWAP2 SWAP1 PUSH2 0x1DAC JUMP JUMPDEST PUSH2 0x19A5 SWAP2 SWAP1 PUSH2 0x1E02 JUMP JUMPDEST PUSH2 0x19AF SWAP2 SWAP1 PUSH2 0x1E33 JUMP JUMPDEST SWAP1 POP SWAP1 JUMP JUMPDEST PUSH1 0x0 DUP2 MLOAD SWAP1 POP PUSH2 0x19C3 DUP2 PUSH2 0x20FC JUMP JUMPDEST SWAP3 SWAP2 POP POP JUMP JUMPDEST PUSH1 0x0 DUP2 CALLDATALOAD SWAP1 POP PUSH2 0x19D8 DUP2 PUSH2 0x2113 JUMP JUMPDEST SWAP3 SWAP2 POP POP JUMP JUMPDEST PUSH1 0x0 DUP2 MLOAD SWAP1 POP PUSH2 0x19ED DUP2 PUSH2 0x2113 JUMP JUMPDEST SWAP3 SWAP2 POP POP JUMP JUMPDEST PUSH1 0x0 PUSH1 0x20 DUP3 DUP5 SUB SLT ISZERO PUSH2 0x1A09 JUMPI PUSH2 0x1A08 PUSH2 0x1FAF JUMP JUMPDEST JUMPDEST PUSH1 0x0 PUSH2 0x1A17 DUP5 DUP3 DUP6 ADD PUSH2 0x19B4 JUMP JUMPDEST SWAP2 POP POP SWAP3 SWAP2 POP POP JUMP JUMPDEST PUSH1 0x0 PUSH1 0x20 DUP3 DUP5 SUB SLT ISZERO PUSH2 0x1A36 JUMPI PUSH2 0x1A35 PUSH2 0x1FAF JUMP JUMPDEST JUMPDEST PUSH1 0x0 PUSH2 0x1A44 DUP5 DUP3 DUP6 ADD PUSH2 0x19C9 JUMP JUMPDEST SWAP2 POP POP SWAP3 SWAP2 POP POP JUMP JUMPDEST PUSH1 0x0 PUSH1 0x20 DUP3 DUP5 SUB SLT ISZERO PUSH2 0x1A63 JUMPI PUSH2 0x1A62 PUSH2 0x1FAF JUMP JUMPDEST JUMPDEST PUSH1 0x0 PUSH2 0x1A71 DUP5 DUP3 DUP6 ADD PUSH2 0x19DE JUMP JUMPDEST SWAP2 POP POP SWAP3 SWAP2 POP POP JUMP JUMPDEST PUSH2 0x1A83 DUP2 PUSH2 0x1EC1 JUMP JUMPDEST DUP3 MSTORE POP POP JUMP JUMPDEST PUSH2 0x1A92 DUP2 PUSH2 0x1ED3 JUMP JUMPDEST DUP3 MSTORE POP POP JUMP JUMPDEST PUSH2 0x1AA1 DUP2 PUSH2 0x1F09 JUMP JUMPDEST DUP3 MSTORE POP POP JUMP JUMPDEST PUSH2 0x1AB0 DUP2 PUSH2 0x1F1B JUMP JUMPDEST DUP3 MSTORE POP POP JUMP JUMPDEST PUSH1 0x0 PUSH2 0x1AC3 PUSH1 0x13 DUP4 PUSH2 0x1D9B JUMP JUMPDEST SWAP2 POP PUSH2 0x1ACE DUP3 PUSH2 0x1FB4 JUMP JUMPDEST PUSH1 0x20 DUP3 ADD SWAP1 POP SWAP2 SWAP1 POP JUMP JUMPDEST PUSH1 0x0 PUSH2 0x1AE6 PUSH1 0x17 DUP4 PUSH2 0x1D9B JUMP JUMPDEST SWAP2 POP PUSH2 0x1AF1 DUP3 PUSH2 0x1FDD JUMP JUMPDEST PUSH1 0x20 DUP3 ADD SWAP1 POP SWAP2 SWAP1 POP JUMP JUMPDEST PUSH1 0x0 PUSH2 0x1B09 PUSH1 0x16 DUP4 PUSH2 0x1D9B JUMP JUMPDEST SWAP2 POP PUSH2 0x1B14 DUP3 PUSH2 0x2006 JUMP JUMPDEST PUSH1 0x20 DUP3 ADD SWAP1 POP SWAP2 SWAP1 POP JUMP JUMPDEST PUSH1 0x0 PUSH2 0x1B2C PUSH1 0x16 DUP4 PUSH2 0x1D9B JUMP JUMPDEST SWAP2 POP PUSH2 0x1B37 DUP3 PUSH2 0x202F JUMP JUMPDEST PUSH1 0x20 DUP3 ADD SWAP1 POP SWAP2 SWAP1 POP JUMP JUMPDEST PUSH1 0x0 PUSH2 0x1B4F PUSH1 0x1A DUP4 PUSH2 0x1D9B JUMP JUMPDEST SWAP2 POP PUSH2 0x1B5A DUP3 PUSH2 0x2058 JUMP JUMPDEST PUSH1 0x20 DUP3 ADD SWAP1 POP SWAP2 SWAP1 POP JUMP JUMPDEST PUSH1 0x0 PUSH2 0x1B72 PUSH1 0x1B DUP4 PUSH2 0x1D9B JUMP JUMPDEST SWAP2 POP PUSH2 0x1B7D DUP3 PUSH2 0x2081 JUMP JUMPDEST PUSH1 0x20 DUP3 ADD SWAP1 POP SWAP2 SWAP1 POP JUMP JUMPDEST PUSH1 0x0 PUSH2 0x1B95 PUSH1 0x16 DUP4 PUSH2 0x1D9B JUMP JUMPDEST SWAP2 POP PUSH2 0x1BA0 DUP3 PUSH2 0x20AA JUMP JUMPDEST PUSH1 0x20 DUP3 ADD SWAP1 POP SWAP2 SWAP1 POP JUMP JUMPDEST PUSH1 0x0 PUSH2 0x1BB8 PUSH1 0x12 DUP4 PUSH2 0x1D9B JUMP JUMPDEST SWAP2 POP PUSH2 0x1BC3 DUP3 PUSH2 0x20D3 JUMP JUMPDEST PUSH1 0x20 DUP3 ADD SWAP1 POP SWAP2 SWAP1 POP JUMP JUMPDEST PUSH2 0x1BD7 DUP2 PUSH2 0x1EFF JUMP JUMPDEST DUP3 MSTORE POP POP JUMP JUMPDEST PUSH1 0x0 PUSH1 0x20 DUP3 ADD SWAP1 POP PUSH2 0x1BF2 PUSH1 0x0 DUP4 ADD DUP5 PUSH2 0x1A7A JUMP JUMPDEST SWAP3 SWAP2 POP POP JUMP JUMPDEST PUSH1 0x0 PUSH1 0x60 DUP3 ADD SWAP1 POP PUSH2 0x1C0D PUSH1 0x0 DUP4 ADD DUP7 PUSH2 0x1A7A JUMP JUMPDEST PUSH2 0x1C1A PUSH1 0x20 DUP4 ADD DUP6 PUSH2 0x1A7A JUMP JUMPDEST PUSH2 0x1C27 PUSH1 0x40 DUP4 ADD DUP5 PUSH2 0x1BCE JUMP JUMPDEST SWAP5 SWAP4 POP POP POP POP JUMP JUMPDEST PUSH1 0x0 PUSH1 0x20 DUP3 ADD SWAP1 POP PUSH2 0x1C44 PUSH1 0x0 DUP4 ADD DUP5 PUSH2 0x1A89 JUMP JUMPDEST SWAP3 SWAP2 POP POP JUMP JUMPDEST PUSH1 0x0 PUSH1 0x20 DUP3 ADD SWAP1 POP PUSH2 0x1C5F PUSH1 0x0 DUP4 ADD DUP5 PUSH2 0x1A98 JUMP JUMPDEST SWAP3 SWAP2 POP POP JUMP JUMPDEST PUSH1 0x0 PUSH1 0x20 DUP3 ADD SWAP1 POP PUSH2 0x1C7A PUSH1 0x0 DUP4 ADD DUP5 PUSH2 0x1AA7 JUMP JUMPDEST SWAP3 SWAP2 POP POP JUMP JUMPDEST PUSH1 0x0 PUSH1 0x20 DUP3 ADD SWAP1 POP DUP2 DUP2 SUB PUSH1 0x0 DUP4 ADD MSTORE PUSH2 0x1C99 DUP2 PUSH2 0x1AB6 JUMP JUMPDEST SWAP1 POP SWAP2 SWAP1 POP JUMP JUMPDEST PUSH1 0x0 PUSH1 0x20 DUP3 ADD SWAP1 POP DUP2 DUP2 SUB PUSH1 0x0 DUP4 ADD MSTORE PUSH2 0x1CB9 DUP2 PUSH2 0x1AD9 JUMP JUMPDEST SWAP1 POP SWAP2 SWAP1 POP JUMP JUMPDEST PUSH1 0x0 PUSH1 0x20 DUP3 ADD SWAP1 POP DUP2 DUP2 SUB PUSH1 0x0 DUP4 ADD MSTORE PUSH2 0x1CD9 DUP2 PUSH2 0x1AFC JUMP JUMPDEST SWAP1 POP SWAP2 SWAP1 POP JUMP JUMPDEST PUSH1 0x0 PUSH1 0x20 DUP3 ADD SWAP1 POP DUP2 DUP2 SUB PUSH1 0x0 DUP4 ADD MSTORE PUSH2 0x1CF9 DUP2 PUSH2 0x1B1F JUMP JUMPDEST SWAP1 POP SWAP2 SWAP1 POP JUMP JUMPDEST PUSH1 0x0 PUSH1 0x20 DUP3 ADD SWAP1 POP DUP2 DUP2 SUB PUSH1 0x0 DUP4 ADD MSTORE PUSH2 0x1D19 DUP2 PUSH2 0x1B42 JUMP JUMPDEST SWAP1 POP SWAP2 SWAP1 POP JUMP JUMPDEST PUSH1 0x0 PUSH1 0x20 DUP3 ADD SWAP1 POP DUP2 DUP2 SUB PUSH1 0x0 DUP4 ADD MSTORE PUSH2 0x1D39 DUP2 PUSH2 0x1B65 JUMP JUMPDEST SWAP1 POP SWAP2 SWAP1 POP JUMP JUMPDEST PUSH1 0x0 PUSH1 0x20 DUP3 ADD SWAP1 POP DUP2 DUP2 SUB PUSH1 0x0 DUP4 ADD MSTORE PUSH2 0x1D59 DUP2 PUSH2 0x1B88 JUMP JUMPDEST SWAP1 POP SWAP2 SWAP1 POP JUMP JUMPDEST PUSH1 0x0 PUSH1 0x20 DUP3 ADD SWAP1 POP DUP2 DUP2 SUB PUSH1 0x0 DUP4 ADD MSTORE PUSH2 0x1D79 DUP2 PUSH2 0x1BAB JUMP JUMPDEST SWAP1 POP SWAP2 SWAP1 POP JUMP JUMPDEST PUSH1 0x0 PUSH1 0x20 DUP3 ADD SWAP1 POP PUSH2 0x1D95 PUSH1 0x0 DUP4 ADD DUP5 PUSH2 0x1BCE JUMP JUMPDEST SWAP3 SWAP2 POP POP JUMP JUMPDEST PUSH1 0x0 DUP3 DUP3 MSTORE PUSH1 0x20 DUP3 ADD SWAP1 POP SWAP3 SWAP2 POP POP JUMP JUMPDEST PUSH1 0x0 PUSH2 0x1DB7 DUP3 PUSH2 0x1EFF JUMP JUMPDEST SWAP2 POP PUSH2 0x1DC2 DUP4 PUSH2 0x1EFF JUMP JUMPDEST SWAP3 POP DUP3 PUSH32 0xFFFFFFFFFFFFFFFFFFFFFFFFFFFFFFFFFFFFFFFFFFFFFFFFFFFFFFFFFFFFFFFF SUB DUP3 GT ISZERO PUSH2 0x1DF7 JUMPI PUSH2 0x1DF6 PUSH2 0x1F51 JUMP JUMPDEST JUMPDEST DUP3 DUP3 ADD SWAP1 POP SWAP3 SWAP2 POP POP JUMP JUMPDEST PUSH1 0x0 PUSH2 0x1E0D DUP3 PUSH2 0x1EFF JUMP JUMPDEST SWAP2 POP PUSH2 0x1E18 DUP4 PUSH2 0x1EFF JUMP JUMPDEST SWAP3 POP DUP3 PUSH2 0x1E28 JUMPI PUSH2 0x1E27 PUSH2 0x1F80 JUMP JUMPDEST JUMPDEST DUP3 DUP3 DIV SWAP1 POP SWAP3 SWAP2 POP POP JUMP JUMPDEST PUSH1 0x0 PUSH2 0x1E3E DUP3 PUSH2 0x1EFF JUMP JUMPDEST SWAP2 POP PUSH2 0x1E49 DUP4 PUSH2 0x1EFF JUMP JUMPDEST SWAP3 POP DUP2 PUSH32 0xFFFFFFFFFFFFFFFFFFFFFFFFFFFFFFFFFFFFFFFFFFFFFFFFFFFFFFFFFFFFFFFF DIV DUP4 GT DUP3 ISZERO ISZERO AND ISZERO PUSH2 0x1E82 JUMPI PUSH2 0x1E81 PUSH2 0x1F51 JUMP JUMPDEST JUMPDEST DUP3 DUP3 MUL SWAP1 POP SWAP3 SWAP2 POP POP JUMP JUMPDEST PUSH1 0x0 PUSH2 0x1E98 DUP3 PUSH2 0x1EFF JUMP JUMPDEST SWAP2 POP PUSH2 0x1EA3 DUP4 PUSH2 0x1EFF JUMP JUMPDEST SWAP3 POP DUP3 DUP3 LT ISZERO PUSH2 0x1EB6 JUMPI PUSH2 0x1EB5 PUSH2 0x1F51 JUMP JUMPDEST JUMPDEST DUP3 DUP3 SUB SWAP1 POP SWAP3 SWAP2 POP POP JUMP JUMPDEST PUSH1 0x0 PUSH2 0x1ECC DUP3 PUSH2 0x1EDF JUMP JUMPDEST SWAP1 POP SWAP2 SWAP1 POP JUMP JUMPDEST PUSH1 0x0 DUP2 ISZERO ISZERO SWAP1 POP SWAP2 SWAP1 POP JUMP JUMPDEST PUSH1 0x0 PUSH20 0xFFFFFFFFFFFFFFFFFFFFFFFFFFFFFFFFFFFFFFFF DUP3 AND SWAP1 POP SWAP2 SWAP1 POP JUMP JUMPDEST PUSH1 0x0 DUP2 SWAP1 POP SWAP2 SWAP1 POP JUMP JUMPDEST PUSH1 0x0 PUSH2 0x1F14 DUP3 PUSH2 0x1F2D JUMP JUMPDEST SWAP1 POP SWAP2 SWAP1 POP JUMP JUMPDEST PUSH1 0x0 PUSH2 0x1F26 DUP3 PUSH2 0x1F2D JUMP JUMPDEST SWAP1 POP SWAP2 SWAP1 POP JUMP JUMPDEST PUSH1 0x0 PUSH2 0x1F38 DUP3 PUSH2 0x1F3F JUMP JUMPDEST SWAP1 POP SWAP2 SWAP1 POP JUMP JUMPDEST PUSH1 0x0 PUSH2 0x1F4A DUP3 PUSH2 0x1EDF JUMP JUMPDEST SWAP1 POP SWAP2 SWAP1 POP JUMP JUMPDEST PUSH32 0x4E487B7100000000000000000000000000000000000000000000000000000000 PUSH1 0x0 MSTORE PUSH1 0x11 PUSH1 0x4 MSTORE PUSH1 0x24 PUSH1 0x0 REVERT JUMPDEST PUSH32 0x4E487B7100000000000000000000000000000000000000000000000000000000 PUSH1 0x0 MSTORE PUSH1 0x12 PUSH1 0x4 MSTORE PUSH1 0x24 PUSH1 0x0 REVERT JUMPDEST PUSH1 0x0 DUP1 REVERT JUMPDEST PUSH32 0x43616C6C6572206973206E6F74206F776E657200000000000000000000000000 PUSH1 0x0 DUP3 ADD MSTORE POP JUMP JUMPDEST PUSH32 0x6E6F20656E6F75676820726563727920746F2073656C6C000000000000000000 PUSH1 0x0 DUP3 ADD MSTORE POP JUMP JUMPDEST PUSH32 0x6E6F20656E6F756768207573646320746F207377617000000000000000000000 PUSH1 0x0 DUP3 ADD MSTORE POP JUMP JUMPDEST PUSH32 0x6E6F20656E6F75676820726563727920746F2061646400000000000000000000 PUSH1 0x0 DUP3 ADD MSTORE POP JUMP JUMPDEST PUSH32 0x6E6F20656E6F756768207573646320746F207769746864726177000000000000 PUSH1 0x0 DUP3 ADD MSTORE POP JUMP JUMPDEST PUSH32 0x6E6F20656E6F75676820726563727920746F2077697468647261770000000000 PUSH1 0x0 DUP3 ADD MSTORE POP JUMP JUMPDEST PUSH32 0x6E6F20656E6F75676820726563727920746F2062757900000000000000000000 PUSH1 0x0 DUP3 ADD MSTORE POP JUMP JUMPDEST PUSH32 0x616D6F756E742063616E6E6F7420626520300000000000000000000000000000 PUSH1 0x0 DUP3 ADD MSTORE POP JUMP JUMPDEST PUSH2 0x2105 DUP2 PUSH2 0x1ED3 JUMP JUMPDEST DUP2 EQ PUSH2 0x2110 JUMPI PUSH1 0x0 DUP1 REVERT JUMPDEST POP JUMP JUMPDEST PUSH2 0x211C DUP2 PUSH2 0x1EFF JUMP JUMPDEST DUP2 EQ PUSH2 0x2127 JUMPI PUSH1 0x0 DUP1 REVERT JUMPDEST POP JUMP INVALID LOG2 PUSH5 0x6970667358 0x22 SLT KECCAK256 PUSH31 0x7E20422B4C86211D3482D71BB98223D3BF7D2DD1F276ECB5A4A1EC110435BA PUSH5 0x736F6C6343 STOP ADDMOD SMOD STOP CALLER "
				},
				"gasEstimates": {
					"creation": {
						"codeDepositCost": "1708800",
						"executionCost": "infinite",
						"totalCost": "infinite"
					},
					"external": {
						"addProtocolGain(uint256)": "infinite",
						"addRecrySupply(uint256)": "infinite",
						"buyRecryWithUsdc(uint256)": "infinite",
						"changeProtocolGain(uint256)": "24777",
						"changeRecrySupply(uint256)": "24798",
						"getOwner()": "2611",
						"getProtocolGain()": "2547",
						"getRecryMaxAvailable()": "infinite",
						"getRecryMaxSupply()": "2504",
						"getRecryPrice()": "infinite",
						"getRecryTotalValue()": "infinite",
						"getRecryValue()": "infinite",
						"getSender()": "430",
						"getUsdcMaxAvailable()": "infinite",
						"isOwnerX()": "2550",
						"maxSupply()": "2451",
						"owner()": "2622",
						"protocolGain()": "2475",
						"recry()": "2624",
						"sellRecryForUsdc(uint256)": "infinite",
						"usdc()": "2689",
						"withdrawRecry(uint256)": "infinite",
						"withdrawUsdc(uint256)": "infinite"
					}
				},
				"methodIdentifiers": {
					"addProtocolGain(uint256)": "1ded4ad9",
					"addRecrySupply(uint256)": "4cd60eb3",
					"buyRecryWithUsdc(uint256)": "33b3c3f7",
					"changeProtocolGain(uint256)": "112ed6e2",
					"changeRecrySupply(uint256)": "4bd2f33d",
					"getOwner()": "893d20e8",
					"getProtocolGain()": "ecb9417c",
					"getRecryMaxAvailable()": "2bd160bc",
					"getRecryMaxSupply()": "7741eb92",
					"getRecryPrice()": "f1a376b6",
					"getRecryTotalValue()": "d60a904e",
					"getRecryValue()": "ddf5b66c",
					"getSender()": "5e01eb5a",
					"getUsdcMaxAvailable()": "b42ca291",
					"isOwnerX()": "27718127",
					"maxSupply()": "d5abeb01",
					"owner()": "8da5cb5b",
					"protocolGain()": "0b6e87f7",
					"recry()": "0b468779",
					"sellRecryForUsdc(uint256)": "e37398d8",
					"usdc()": "3e413bee",
					"withdrawRecry(uint256)": "10d9744f",
					"withdrawUsdc(uint256)": "5b06dece"
				}
			},
			"storageLayout": {
				"storage": [
					{
						"astId": 381,
						"contract": "Documents/GitHub/ReCrypto/src/contracts/RecryUsdcSwap.sol:RecryUsdcSwap",
						"label": "owner",
						"offset": 0,
						"slot": "0",
						"type": "t_address"
					},
					{
						"astId": 384,
						"contract": "Documents/GitHub/ReCrypto/src/contracts/RecryUsdcSwap.sol:RecryUsdcSwap",
						"label": "recry",
						"offset": 0,
						"slot": "1",
						"type": "t_contract(ReCryptoToken)375"
					},
					{
						"astId": 387,
						"contract": "Documents/GitHub/ReCrypto/src/contracts/RecryUsdcSwap.sol:RecryUsdcSwap",
						"label": "usdc",
						"offset": 0,
						"slot": "2",
						"type": "t_contract(UsdcToken)1057"
					},
					{
						"astId": 390,
						"contract": "Documents/GitHub/ReCrypto/src/contracts/RecryUsdcSwap.sol:RecryUsdcSwap",
						"label": "maxSupply",
						"offset": 0,
						"slot": "3",
						"type": "t_uint256"
					},
					{
						"astId": 393,
						"contract": "Documents/GitHub/ReCrypto/src/contracts/RecryUsdcSwap.sol:RecryUsdcSwap",
						"label": "protocolGain",
						"offset": 0,
						"slot": "4",
						"type": "t_uint256"
					}
				],
				"types": {
					"t_address": {
						"encoding": "inplace",
						"label": "address",
						"numberOfBytes": "20"
					},
					"t_contract(ReCryptoToken)375": {
						"encoding": "inplace",
						"label": "contract ReCryptoToken",
						"numberOfBytes": "20"
					},
					"t_contract(UsdcToken)1057": {
						"encoding": "inplace",
						"label": "contract UsdcToken",
						"numberOfBytes": "20"
					},
					"t_uint256": {
						"encoding": "inplace",
						"label": "uint256",
						"numberOfBytes": "32"
					}
				}
			},
			"userdoc": {
				"kind": "user",
				"methods": {},
				"version": 1
			}
		}
	}
}