{
  "contractName": "Authority",
  "abi": [
    {
      "inputs": [],
      "stateMutability": "nonpayable",
      "type": "constructor"
    },
    {
      "inputs": [],
      "name": "owner",
      "outputs": [
        {
          "internalType": "address",
          "name": "",
          "type": "address"
        }
      ],
      "stateMutability": "view",
      "type": "function",
      "constant": true
    },
    {
      "inputs": [
        {
          "internalType": "address",
          "name": "",
          "type": "address"
        }
      ],
      "name": "permissions",
      "outputs": [
        {
          "internalType": "uint256",
          "name": "",
          "type": "uint256"
        }
      ],
      "stateMutability": "view",
      "type": "function",
      "constant": true
    },
    {
      "inputs": [
        {
          "internalType": "address",
          "name": "_value",
          "type": "address"
        }
      ],
      "name": "addAuth",
      "outputs": [],
      "stateMutability": "nonpayable",
      "type": "function"
    },
    {
      "inputs": [
        {
          "internalType": "address",
          "name": "_value",
          "type": "address"
        }
      ],
      "name": "addBlock",
      "outputs": [],
      "stateMutability": "nonpayable",
      "type": "function"
    },
    {
      "inputs": [
        {
          "internalType": "address",
          "name": "_value",
          "type": "address"
        }
      ],
      "name": "delAuth",
      "outputs": [],
      "stateMutability": "nonpayable",
      "type": "function"
    },
    {
      "inputs": [
        {
          "internalType": "address",
          "name": "_value",
          "type": "address"
        }
      ],
      "name": "delBlock",
      "outputs": [],
      "stateMutability": "nonpayable",
      "type": "function"
    },
    {
      "inputs": [
        {
          "internalType": "address",
          "name": "_add1",
          "type": "address"
        },
        {
          "internalType": "address",
          "name": "_add2",
          "type": "address"
        }
      ],
      "name": "isAuthorized",
      "outputs": [
        {
          "internalType": "bool",
          "name": "",
          "type": "bool"
        }
      ],
      "stateMutability": "view",
      "type": "function",
      "constant": true
    }
  ],
  "bytecode": "0x608060405234801561001057600080fd5b50336000806101000a81548173ffffffffffffffffffffffffffffffffffffffff021916908373ffffffffffffffffffffffffffffffffffffffff1602179055506100603361006560201b60201c565b6101b7565b60008054906101000a900473ffffffffffffffffffffffffffffffffffffffff1673ffffffffffffffffffffffffffffffffffffffff163373ffffffffffffffffffffffffffffffffffffffff16146100f3576040517f08c379a00000000000000000000000000000000000000000000000000000000081526004016100ea90610197565b60405180910390fd5b60018060008373ffffffffffffffffffffffffffffffffffffffff1673ffffffffffffffffffffffffffffffffffffffff1681526020019081526020016000208190555050565b600082825260208201905092915050565b7f43616c6c6572206973206e6f74206f776e657200000000000000000000000000600082015250565b600061018160138361013a565b915061018c8261014b565b602082019050919050565b600060208201905081810360008301526101b081610174565b9050919050565b610857806101c66000396000f3fe608060405234801561001057600080fd5b506004361061007d5760003560e01c806365e4ad9e1161005b57806365e4ad9e146100ea5780638c19773f1461011a5780638da5cb5b14610136578063e2febc33146101545761007d565b806301e88208146100825780634de1e805146100b25780635422224e146100ce575b600080fd5b61009c600480360381019061009791906106a3565b610170565b6040516100a991906106e9565b60405180910390f35b6100cc60048036038101906100c791906106a3565b610188565b005b6100e860048036038101906100e391906106a3565b61025e565b005b61010460048036038101906100ff9190610704565b610333565b604051610111919061075f565b60405180910390f35b610134600480360381019061012f91906106a3565b610470565b005b61013e610546565b60405161014b9190610789565b60405180910390f35b61016e600480360381019061016991906106a3565b61056a565b005b60016020528060005260406000206000915090505481565b60008054906101000a900473ffffffffffffffffffffffffffffffffffffffff1673ffffffffffffffffffffffffffffffffffffffff163373ffffffffffffffffffffffffffffffffffffffff1614610216576040517f08c379a000000000000000000000000000000000000000000000000000000000815260040161020d90610801565b60405180910390fd5b6000600160008373ffffffffffffffffffffffffffffffffffffffff1673ffffffffffffffffffffffffffffffffffffffff1681526020019081526020016000208190555050565b60008054906101000a900473ffffffffffffffffffffffffffffffffffffffff1673ffffffffffffffffffffffffffffffffffffffff163373ffffffffffffffffffffffffffffffffffffffff16146102ec576040517f08c379a00000000000000000000000000000000000000000000000000000000081526004016102e390610801565b60405180910390fd5b60018060008373ffffffffffffffffffffffffffffffffffffffff1673ffffffffffffffffffffffffffffffffffffffff1681526020019081526020016000208190555050565b6000806000905060018060008673ffffffffffffffffffffffffffffffffffffffff1673ffffffffffffffffffffffffffffffffffffffff1681526020019081526020016000205414806103c5575060018060008573ffffffffffffffffffffffffffffffffffffffff1673ffffffffffffffffffffffffffffffffffffffff16815260200190815260200160002054145b156103cf57600190505b6002600160008673ffffffffffffffffffffffffffffffffffffffff1673ffffffffffffffffffffffffffffffffffffffff16815260200190815260200160002054148061045c57506002600160008573ffffffffffffffffffffffffffffffffffffffff1673ffffffffffffffffffffffffffffffffffffffff16815260200190815260200160002054145b1561046657600090505b8091505092915050565b60008054906101000a900473ffffffffffffffffffffffffffffffffffffffff1673ffffffffffffffffffffffffffffffffffffffff163373ffffffffffffffffffffffffffffffffffffffff16146104fe576040517f08c379a00000000000000000000000000000000000000000000000000000000081526004016104f590610801565b60405180910390fd5b6002600160008373ffffffffffffffffffffffffffffffffffffffff1673ffffffffffffffffffffffffffffffffffffffff1681526020019081526020016000208190555050565b60008054906101000a900473ffffffffffffffffffffffffffffffffffffffff1681565b60008054906101000a900473ffffffffffffffffffffffffffffffffffffffff1673ffffffffffffffffffffffffffffffffffffffff163373ffffffffffffffffffffffffffffffffffffffff16146105f8576040517f08c379a00000000000000000000000000000000000000000000000000000000081526004016105ef90610801565b60405180910390fd5b6000600160008373ffffffffffffffffffffffffffffffffffffffff1673ffffffffffffffffffffffffffffffffffffffff1681526020019081526020016000208190555050565b600080fd5b600073ffffffffffffffffffffffffffffffffffffffff82169050919050565b600061067082610645565b9050919050565b61068081610665565b811461068b57600080fd5b50565b60008135905061069d81610677565b92915050565b6000602082840312156106b9576106b8610640565b5b60006106c78482850161068e565b91505092915050565b6000819050919050565b6106e3816106d0565b82525050565b60006020820190506106fe60008301846106da565b92915050565b6000806040838503121561071b5761071a610640565b5b60006107298582860161068e565b925050602061073a8582860161068e565b9150509250929050565b60008115159050919050565b61075981610744565b82525050565b60006020820190506107746000830184610750565b92915050565b61078381610665565b82525050565b600060208201905061079e600083018461077a565b92915050565b600082825260208201905092915050565b7f43616c6c6572206973206e6f74206f776e657200000000000000000000000000600082015250565b60006107eb6013836107a4565b91506107f6826107b5565b602082019050919050565b6000602082019050818103600083015261081a816107de565b905091905056fea26469706673582212206c27e687800d11fc95697dee2180a1df2232cdad67772889f2030072a52b999364736f6c63430008140033",
  "immutableReferences": {},
  "source": "// SPDX-License-Identifier: MIT\r\npragma solidity ^0.8.4;\r\n\r\ncontract Authority {\r\n    address public owner;\r\n    mapping(address => uint) public permissions;\r\n\r\n    constructor() {\r\n        owner = msg.sender;\r\n        addAuth(msg.sender);\r\n    }\r\n\r\n    modifier isOwner() {\r\n        require(msg.sender == owner, \"Caller is not owner\");\r\n        _;\r\n    }\r\n\r\n    function addAuth(address _value) public isOwner {\r\n       permissions[_value] = 1;\r\n    }\r\n    function addBlock(address _value) public isOwner {\r\n        permissions[_value] = 2;\r\n    }\r\n    function delAuth(address _value) public isOwner {\r\n       permissions[_value] = 0;\r\n    }\r\n    function delBlock(address _value) public isOwner {\r\n        permissions[_value] = 0;\r\n    }\r\n\r\n    function isAuthorized(address _add1,address _add2) public view returns (bool) {\r\n        bool retVal = false;\r\n        if (permissions[_add1] == 1 || permissions[_add2] ==1)\r\n        {\r\n           retVal = true;\r\n        }\r\n        if (permissions[_add1] == 2 || permissions[_add2] ==2)\r\n        {\r\n           retVal = false;\r\n        }\r\n        return retVal;\r\n    }\r\n\r\n \r\n}\r\n",
  "sourcePath": "C:\\Users\\HP\\Documents\\GitHub\\defi_tutorial\\src\\contracts\\Authority.sol",
  "compiler": {
    "name": "solc",
    "version": "0.8.20+commit.a1b79de6.Emscripten.clang"
  },
  "schemaVersion": "3.4.14",
  "updatedAt": "2023-06-06T16:38:54.742Z",
  "networkType": "ethereum",
  "devdoc": {
    "kind": "dev",
    "methods": {},
    "version": 1
  },
  "userdoc": {
    "kind": "user",
    "methods": {},
    "version": 1
  }
}