{
  "contractName": "EurUsd",
  "abi": [
    {
      "inputs": [],
      "stateMutability": "nonpayable",
      "type": "constructor"
    },
    {
      "inputs": [],
      "name": "exchangeRate",
      "outputs": [
        {
          "internalType": "uint256",
          "name": "",
          "type": "uint256"
        }
      ],
      "stateMutability": "view",
      "type": "function",
      "constant": true
    },
    {
      "inputs": [],
      "name": "lastUpdated",
      "outputs": [
        {
          "internalType": "uint256",
          "name": "",
          "type": "uint256"
        }
      ],
      "stateMutability": "view",
      "type": "function",
      "constant": true
    },
    {
      "inputs": [],
      "name": "owner",
      "outputs": [
        {
          "internalType": "address",
          "name": "",
          "type": "address"
        }
      ],
      "stateMutability": "view",
      "type": "function",
      "constant": true
    },
    {
      "inputs": [
        {
          "internalType": "uint256",
          "name": "newRate",
          "type": "uint256"
        }
      ],
      "name": "updateExchangeRate",
      "outputs": [],
      "stateMutability": "nonpayable",
      "type": "function"
    },
    {
      "inputs": [],
      "name": "getExchangeRate",
      "outputs": [
        {
          "internalType": "uint256",
          "name": "",
          "type": "uint256"
        }
      ],
      "stateMutability": "view",
      "type": "function",
      "constant": true
    }
  ],
  "bytecode": "0x608060405234801561001057600080fd5b50336000806101000a81548173ffffffffffffffffffffffffffffffffffffffff021916908373ffffffffffffffffffffffffffffffffffffffff1602179055506104de806100606000396000f3fe608060405234801561001057600080fd5b50600436106100575760003560e01c80633ba0b9a91461005c5780638da5cb5b1461007a578063b9e205ae14610098578063d0b06f5d146100b4578063e6aa216c146100d2575b600080fd5b6100646100f0565b6040516100719190610205565b60405180910390f35b6100826100f6565b60405161008f9190610261565b60405180910390f35b6100b260048036038101906100ad91906102ad565b61011a565b005b6100bc6101dc565b6040516100c99190610205565b60405180910390f35b6100da6101e2565b6040516100e79190610205565b60405180910390f35b60015481565b60008054906101000a900473ffffffffffffffffffffffffffffffffffffffff1681565b60008054906101000a900473ffffffffffffffffffffffffffffffffffffffff1673ffffffffffffffffffffffffffffffffffffffff163373ffffffffffffffffffffffffffffffffffffffff16143360405160200161017a91906103c5565b604051602081830303815290604052906101ca576040517f08c379a00000000000000000000000000000000000000000000000000000000081526004016101c19190610486565b60405180910390fd5b50806001819055504260028190555050565b60025481565b6000600154905090565b6000819050919050565b6101ff816101ec565b82525050565b600060208201905061021a60008301846101f6565b92915050565b600073ffffffffffffffffffffffffffffffffffffffff82169050919050565b600061024b82610220565b9050919050565b61025b81610240565b82525050565b60006020820190506102766000830184610252565b92915050565b600080fd5b61028a816101ec565b811461029557600080fd5b50565b6000813590506102a781610281565b92915050565b6000602082840312156102c3576102c261027c565b5b60006102d184828501610298565b91505092915050565b600081905092915050565b7f4f6e6c7920746865206f776e6572202800000000000000000000000000000000600082015250565b600061031b6010836102da565b9150610326826102e5565b601082019050919050565b60008160601b9050919050565b600061034982610331565b9050919050565b600061035b8261033e565b9050919050565b61037361036e82610240565b610350565b82525050565b7f292063616e20757064617465207468652065786368616e676520726174652e00600082015250565b60006103af601f836102da565b91506103ba82610379565b601f82019050919050565b60006103d08261030e565b91506103dc8284610362565b6014820191506103eb826103a2565b915081905092915050565b600081519050919050565b600082825260208201905092915050565b60005b83811015610430578082015181840152602081019050610415565b60008484015250505050565b6000601f19601f8301169050919050565b6000610458826103f6565b6104628185610401565b9350610472818560208601610412565b61047b8161043c565b840191505092915050565b600060208201905081810360008301526104a0818461044d565b90509291505056fea264697066735822122044d5ec628cde3b4e9725ece94421ff06f613788a902506c12604cca4f83db45364736f6c63430008150033",
  "immutableReferences": {},
  "source": "// SPDX-License-Identifier: MIT\r\npragma solidity ^0.8.4;\r\n\r\ncontract EurUsd {\r\n    address public owner;\r\n    uint256 public exchangeRate;\r\n    uint256 public lastUpdated;\r\n\r\n    constructor() {\r\n        owner = msg.sender;\r\n    }\r\n\r\n    modifier onlyOwner() {\r\n        require(msg.sender == owner,string(abi.encodePacked(\"Only the owner (\", msg.sender, \") can update the exchange rate.\")));\r\n        _;\r\n    }\r\n\r\n    function updateExchangeRate(uint256 newRate) external onlyOwner {\r\n        exchangeRate = newRate;\r\n        lastUpdated = block.timestamp;\r\n    }\r\n\r\n    function getExchangeRate() external view returns (uint256) {\r\n        return exchangeRate;\r\n    }\r\n}\r\n",
  "sourcePath": "C:\\Users\\HP\\Documents\\GitHub\\redefi-dapp\\src\\contracts\\EurUsd.sol",
  "compiler": {
    "name": "solc",
    "version": "0.8.21+commit.d9974bed.Emscripten.clang"
  },
  "schemaVersion": "3.4.14",
  "updatedAt": "2023-10-06T18:56:05.205Z",
  "networkType": "ethereum",
  "devdoc": {
    "kind": "dev",
    "methods": {},
    "version": 1
  },
  "userdoc": {
    "kind": "user",
    "methods": {},
    "version": 1
  }
}