{
  "contractName": "RecryUsdcSwap",
  "abi": [
    {
      "inputs": [
        {
          "internalType": "contract ReCryptoToken",
          "name": "_recry",
          "type": "address"
        },
        {
          "internalType": "contract UsdcToken",
          "name": "_usdc",
          "type": "address"
        }
      ],
      "stateMutability": "nonpayable",
      "type": "constructor"
    },
    {
      "inputs": [],
      "name": "maxSupply",
      "outputs": [
        {
          "internalType": "uint256",
          "name": "",
          "type": "uint256"
        }
      ],
      "stateMutability": "view",
      "type": "function",
      "constant": true
    },
    {
      "inputs": [],
      "name": "owner",
      "outputs": [
        {
          "internalType": "address",
          "name": "",
          "type": "address"
        }
      ],
      "stateMutability": "view",
      "type": "function",
      "constant": true
    },
    {
      "inputs": [],
      "name": "protocolGain",
      "outputs": [
        {
          "internalType": "uint256",
          "name": "",
          "type": "uint256"
        }
      ],
      "stateMutability": "view",
      "type": "function",
      "constant": true
    },
    {
      "inputs": [],
      "name": "recry",
      "outputs": [
        {
          "internalType": "contract ReCryptoToken",
          "name": "",
          "type": "address"
        }
      ],
      "stateMutability": "view",
      "type": "function",
      "constant": true
    },
    {
      "inputs": [],
      "name": "usdc",
      "outputs": [
        {
          "internalType": "contract UsdcToken",
          "name": "",
          "type": "address"
        }
      ],
      "stateMutability": "view",
      "type": "function",
      "constant": true
    },
    {
      "inputs": [
        {
          "internalType": "uint256",
          "name": "_amount",
          "type": "uint256"
        }
      ],
      "name": "addRecrySupply",
      "outputs": [],
      "stateMutability": "nonpayable",
      "type": "function"
    },
    {
      "inputs": [
        {
          "internalType": "uint256",
          "name": "_amount",
          "type": "uint256"
        }
      ],
      "name": "changeRecrySupply",
      "outputs": [],
      "stateMutability": "nonpayable",
      "type": "function"
    },
    {
      "inputs": [],
      "name": "getRecryValue",
      "outputs": [
        {
          "internalType": "uint256",
          "name": "_value",
          "type": "uint256"
        }
      ],
      "stateMutability": "view",
      "type": "function",
      "constant": true
    },
    {
      "inputs": [],
      "name": "getRecryPrice",
      "outputs": [
        {
          "internalType": "uint256",
          "name": "_value",
          "type": "uint256"
        }
      ],
      "stateMutability": "view",
      "type": "function",
      "constant": true
    },
    {
      "inputs": [],
      "name": "getRecryTotalValue",
      "outputs": [
        {
          "internalType": "uint256",
          "name": "_value",
          "type": "uint256"
        }
      ],
      "stateMutability": "view",
      "type": "function",
      "constant": true
    },
    {
      "inputs": [],
      "name": "getRecryMaxSupply",
      "outputs": [
        {
          "internalType": "uint256",
          "name": "_value",
          "type": "uint256"
        }
      ],
      "stateMutability": "view",
      "type": "function",
      "constant": true
    },
    {
      "inputs": [],
      "name": "getRecryMaxAvailable",
      "outputs": [
        {
          "internalType": "uint256",
          "name": "_value",
          "type": "uint256"
        }
      ],
      "stateMutability": "view",
      "type": "function",
      "constant": true
    },
    {
      "inputs": [],
      "name": "getUsdcMaxAvailable",
      "outputs": [
        {
          "internalType": "uint256",
          "name": "_value",
          "type": "uint256"
        }
      ],
      "stateMutability": "view",
      "type": "function",
      "constant": true
    },
    {
      "inputs": [],
      "name": "getProtocolGain",
      "outputs": [
        {
          "internalType": "uint256",
          "name": "_value",
          "type": "uint256"
        }
      ],
      "stateMutability": "view",
      "type": "function",
      "constant": true
    },
    {
      "inputs": [
        {
          "internalType": "uint256",
          "name": "_amount",
          "type": "uint256"
        }
      ],
      "name": "buyRecryWithUsdc",
      "outputs": [],
      "stateMutability": "nonpayable",
      "type": "function"
    },
    {
      "inputs": [
        {
          "internalType": "uint256",
          "name": "_amount",
          "type": "uint256"
        }
      ],
      "name": "sellRecryForUsdc",
      "outputs": [],
      "stateMutability": "nonpayable",
      "type": "function"
    },
    {
      "inputs": [
        {
          "internalType": "uint256",
          "name": "_amount",
          "type": "uint256"
        }
      ],
      "name": "withdrawUsdc",
      "outputs": [],
      "stateMutability": "nonpayable",
      "type": "function"
    }
  ],
  "bytecode": "0x60806040526969e10de76676d080000060035560006004553480156200002457600080fd5b50604051620019513803806200195183398181016040528101906200004a9190620001d7565b81600160006101000a81548173ffffffffffffffffffffffffffffffffffffffff021916908373ffffffffffffffffffffffffffffffffffffffff16021790555080600260006101000a81548173ffffffffffffffffffffffffffffffffffffffff021916908373ffffffffffffffffffffffffffffffffffffffff160217905550336000806101000a81548173ffffffffffffffffffffffffffffffffffffffff021916908373ffffffffffffffffffffffffffffffffffffffff16021790555050506200021e565b600080fd5b600073ffffffffffffffffffffffffffffffffffffffff82169050919050565b6000620001468262000119565b9050919050565b60006200015a8262000139565b9050919050565b6200016c816200014d565b81146200017857600080fd5b50565b6000815190506200018c8162000161565b92915050565b60006200019f8262000139565b9050919050565b620001b18162000192565b8114620001bd57600080fd5b50565b600081519050620001d181620001a6565b92915050565b60008060408385031215620001f157620001f062000114565b5b600062000201858286016200017b565b92505060206200021485828601620001c0565b9150509250929050565b611723806200022e6000396000f3fe608060405234801561001057600080fd5b506004361061010b5760003560e01c80637741eb92116100a2578063d60a904e11610071578063d60a904e14610270578063ddf5b66c1461028e578063e37398d8146102ac578063ecb9417c146102c8578063f1a376b6146102e65761010b565b80637741eb92146101f85780638da5cb5b14610216578063b42ca29114610234578063d5abeb01146102525761010b565b80633e413bee116100de5780633e413bee146101865780634bd2f33d146101a45780634cd60eb3146101c05780635b06dece146101dc5761010b565b80630b468779146101105780630b6e87f71461012e5780632bd160bc1461014c57806333b3c3f71461016a575b600080fd5b610118610304565b60405161012591906110a6565b60405180910390f35b61013661032a565b60405161014391906110da565b60405180910390f35b610154610330565b60405161016191906110da565b60405180910390f35b610184600480360381019061017f9190611126565b6103d3565b005b61018e61065d565b60405161019b9190611174565b60405180910390f35b6101be60048036038101906101b99190611126565b610683565b005b6101da60048036038101906101d59190611126565b61071b565b005b6101f660048036038101906101f19190611126565b610949565b005b610200610b62565b60405161020d91906110da565b60405180910390f35b61021e610b6c565b60405161022b91906111b0565b60405180910390f35b61023c610b90565b60405161024991906110da565b60405180910390f35b61025a610c33565b60405161026791906110da565b60405180910390f35b610278610c39565b60405161028591906110da565b60405180910390f35b610296610cee565b6040516102a391906110da565b60405180910390f35b6102c660048036038101906102c19190611126565b610d12565b005b6102d0610fe6565b6040516102dd91906110da565b60405180910390f35b6102ee610ff0565b6040516102fb91906110da565b60405180910390f35b600160009054906101000a900473ffffffffffffffffffffffffffffffffffffffff1681565b60045481565b6000600160009054906101000a900473ffffffffffffffffffffffffffffffffffffffff1673ffffffffffffffffffffffffffffffffffffffff166370a08231306040518263ffffffff1660e01b815260040161038d91906111b0565b602060405180830381865afa1580156103aa573d6000803e3d6000fd5b505050506040513d601f19601f820116820180604052508101906103ce91906111e0565b905090565b60006103dd610cee565b826103e8919061126b565b90506000821161042d576040517f08c379a0000000000000000000000000000000000000000000000000000000008152600401610424906112f9565b60405180910390fd5b80600160009054906101000a900473ffffffffffffffffffffffffffffffffffffffff1673ffffffffffffffffffffffffffffffffffffffff166370a08231306040518263ffffffff1660e01b815260040161048991906111b0565b602060405180830381865afa1580156104a6573d6000803e3d6000fd5b505050506040513d601f19601f820116820180604052508101906104ca91906111e0565b101561050b576040517f08c379a000000000000000000000000000000000000000000000000000000000815260040161050290611365565b60405180910390fd5b600260009054906101000a900473ffffffffffffffffffffffffffffffffffffffff1673ffffffffffffffffffffffffffffffffffffffff166323b872dd3330856040518463ffffffff1660e01b815260040161056a93929190611385565b6020604051808303816000875af1158015610589573d6000803e3d6000fd5b505050506040513d601f19601f820116820180604052508101906105ad91906113f4565b6105b657600080fd5b600160009054906101000a900473ffffffffffffffffffffffffffffffffffffffff1673ffffffffffffffffffffffffffffffffffffffff166323b872dd3033856040518463ffffffff1660e01b815260040161061593929190611385565b6020604051808303816000875af1158015610634573d6000803e3d6000fd5b505050506040513d601f19601f8201168201806040525081019061065891906113f4565b505050565b600260009054906101000a900473ffffffffffffffffffffffffffffffffffffffff1681565b60008054906101000a900473ffffffffffffffffffffffffffffffffffffffff1673ffffffffffffffffffffffffffffffffffffffff163373ffffffffffffffffffffffffffffffffffffffff1614610711576040517f08c379a00000000000000000000000000000000000000000000000000000000081526004016107089061146d565b60405180910390fd5b8060038190555050565b60008054906101000a900473ffffffffffffffffffffffffffffffffffffffff1673ffffffffffffffffffffffffffffffffffffffff163373ffffffffffffffffffffffffffffffffffffffff16146107a9576040517f08c379a00000000000000000000000000000000000000000000000000000000081526004016107a09061146d565b60405180910390fd5b80600160009054906101000a900473ffffffffffffffffffffffffffffffffffffffff1673ffffffffffffffffffffffffffffffffffffffff166370a08231336040518263ffffffff1660e01b815260040161080591906111b0565b602060405180830381865afa158015610822573d6000803e3d6000fd5b505050506040513d601f19601f8201168201806040525081019061084691906111e0565b1015610887576040517f08c379a000000000000000000000000000000000000000000000000000000000815260040161087e906114d9565b60405180910390fd5b600160009054906101000a900473ffffffffffffffffffffffffffffffffffffffff1673ffffffffffffffffffffffffffffffffffffffff166323b872dd3330846040518463ffffffff1660e01b81526004016108e693929190611385565b6020604051808303816000875af1158015610905573d6000803e3d6000fd5b505050506040513d601f19601f8201168201806040525081019061092991906113f4565b61093257600080fd5b8060035461094091906114f9565b60038190555050565b60008054906101000a900473ffffffffffffffffffffffffffffffffffffffff1673ffffffffffffffffffffffffffffffffffffffff163373ffffffffffffffffffffffffffffffffffffffff16146109d7576040517f08c379a00000000000000000000000000000000000000000000000000000000081526004016109ce9061146d565b60405180910390fd5b80600260009054906101000a900473ffffffffffffffffffffffffffffffffffffffff1673ffffffffffffffffffffffffffffffffffffffff166370a08231306040518263ffffffff1660e01b8152600401610a3391906111b0565b602060405180830381865afa158015610a50573d6000803e3d6000fd5b505050506040513d601f19601f82011682018060405250810190610a7491906111e0565b11610ab4576040517f08c379a0000000000000000000000000000000000000000000000000000000008152600401610aab9061159b565b60405180910390fd5b600260009054906101000a900473ffffffffffffffffffffffffffffffffffffffff1673ffffffffffffffffffffffffffffffffffffffff166323b872dd3033846040518463ffffffff1660e01b8152600401610b1393929190611385565b6020604051808303816000875af1158015610b32573d6000803e3d6000fd5b505050506040513d601f19601f82011682018060405250810190610b5691906113f4565b610b5f57600080fd5b50565b6000600354905090565b60008054906101000a900473ffffffffffffffffffffffffffffffffffffffff1681565b6000600260009054906101000a900473ffffffffffffffffffffffffffffffffffffffff1673ffffffffffffffffffffffffffffffffffffffff166370a08231306040518263ffffffff1660e01b8152600401610bed91906111b0565b602060405180830381865afa158015610c0a573d6000803e3d6000fd5b505050506040513d601f19601f82011682018060405250810190610c2e91906111e0565b905090565b60035481565b6000600160009054906101000a900473ffffffffffffffffffffffffffffffffffffffff1673ffffffffffffffffffffffffffffffffffffffff166370a08231336040518263ffffffff1660e01b8152600401610c9691906111b0565b602060405180830381865afa158015610cb3573d6000803e3d6000fd5b505050506040513d601f19601f82011682018060405250810190610cd791906111e0565b610cdf610cee565b610ce991906115bb565b905090565b6000600354600454600354610d0391906114f9565b610d0d919061126b565b905090565b6000610d1c610cee565b82610d2791906115bb565b905060008211610d6c576040517f08c379a0000000000000000000000000000000000000000000000000000000008152600401610d63906112f9565b60405180910390fd5b81600160009054906101000a900473ffffffffffffffffffffffffffffffffffffffff1673ffffffffffffffffffffffffffffffffffffffff166370a08231336040518263ffffffff1660e01b8152600401610dc891906111b0565b602060405180830381865afa158015610de5573d6000803e3d6000fd5b505050506040513d601f19601f82011682018060405250810190610e0991906111e0565b1015610e4a576040517f08c379a0000000000000000000000000000000000000000000000000000000008152600401610e4190611661565b60405180910390fd5b80610e53610b90565b1015610e94576040517f08c379a0000000000000000000000000000000000000000000000000000000008152600401610e8b906116cd565b60405180910390fd5b600160009054906101000a900473ffffffffffffffffffffffffffffffffffffffff1673ffffffffffffffffffffffffffffffffffffffff166323b872dd3330856040518463ffffffff1660e01b8152600401610ef393929190611385565b6020604051808303816000875af1158015610f12573d6000803e3d6000fd5b505050506040513d601f19601f82011682018060405250810190610f3691906113f4565b610f3f57600080fd5b600260009054906101000a900473ffffffffffffffffffffffffffffffffffffffff1673ffffffffffffffffffffffffffffffffffffffff166323b872dd3033846040518463ffffffff1660e01b8152600401610f9e93929190611385565b6020604051808303816000875af1158015610fbd573d6000803e3d6000fd5b505050506040513d601f19601f82011682018060405250810190610fe191906113f4565b505050565b6000600454905090565b6000670de0b6b3a764000060035460045460035461100e91906114f9565b611018919061126b565b61102291906115bb565b905090565b600073ffffffffffffffffffffffffffffffffffffffff82169050919050565b6000819050919050565b600061106c61106761106284611027565b611047565b611027565b9050919050565b600061107e82611051565b9050919050565b600061109082611073565b9050919050565b6110a081611085565b82525050565b60006020820190506110bb6000830184611097565b92915050565b6000819050919050565b6110d4816110c1565b82525050565b60006020820190506110ef60008301846110cb565b92915050565b600080fd5b611103816110c1565b811461110e57600080fd5b50565b600081359050611120816110fa565b92915050565b60006020828403121561113c5761113b6110f5565b5b600061114a84828501611111565b91505092915050565b600061115e82611073565b9050919050565b61116e81611153565b82525050565b60006020820190506111896000830184611165565b92915050565b600061119a82611027565b9050919050565b6111aa8161118f565b82525050565b60006020820190506111c560008301846111a1565b92915050565b6000815190506111da816110fa565b92915050565b6000602082840312156111f6576111f56110f5565b5b6000611204848285016111cb565b91505092915050565b7f4e487b7100000000000000000000000000000000000000000000000000000000600052601260045260246000fd5b7f4e487b7100000000000000000000000000000000000000000000000000000000600052601160045260246000fd5b6000611276826110c1565b9150611281836110c1565b9250826112915761129061120d565b5b828204905092915050565b600082825260208201905092915050565b7f616d6f756e742063616e6e6f7420626520300000000000000000000000000000600082015250565b60006112e360128361129c565b91506112ee826112ad565b602082019050919050565b60006020820190508181036000830152611312816112d6565b9050919050565b7f6e6f20656e6f75676820726563727920746f2062757900000000000000000000600082015250565b600061134f60168361129c565b915061135a82611319565b602082019050919050565b6000602082019050818103600083015261137e81611342565b9050919050565b600060608201905061139a60008301866111a1565b6113a760208301856111a1565b6113b460408301846110cb565b949350505050565b60008115159050919050565b6113d1816113bc565b81146113dc57600080fd5b50565b6000815190506113ee816113c8565b92915050565b60006020828403121561140a576114096110f5565b5b6000611418848285016113df565b91505092915050565b7f43616c6c6572206973206e6f74206f776e657200000000000000000000000000600082015250565b600061145760138361129c565b915061146282611421565b602082019050919050565b600060208201905081810360008301526114868161144a565b9050919050565b7f6e6f20656e6f75676820726563727920746f2061646400000000000000000000600082015250565b60006114c360168361129c565b91506114ce8261148d565b602082019050919050565b600060208201905081810360008301526114f2816114b6565b9050919050565b6000611504826110c1565b915061150f836110c1565b9250827fffffffffffffffffffffffffffffffffffffffffffffffffffffffffffffffff038211156115445761154361123c565b5b828201905092915050565b7f6e6f20656e6f756768207573646320746f207769746864726177000000000000600082015250565b6000611585601a8361129c565b91506115908261154f565b602082019050919050565b600060208201905081810360008301526115b481611578565b9050919050565b60006115c6826110c1565b91506115d1836110c1565b9250817fffffffffffffffffffffffffffffffffffffffffffffffffffffffffffffffff048311821515161561160a5761160961123c565b5b828202905092915050565b7f6e6f20656e6f75676820726563727920746f2073656c6c000000000000000000600082015250565b600061164b60178361129c565b915061165682611615565b602082019050919050565b6000602082019050818103600083015261167a8161163e565b9050919050565b7f6e6f20656e6f756768207573646320746f207377617000000000000000000000600082015250565b60006116b760168361129c565b91506116c282611681565b602082019050919050565b600060208201905081810360008301526116e6816116aa565b905091905056fea2646970667358221220989bb447b8e265112167be3d860976f11b12f6b8708f61a3d5b2359bdbd29c7264736f6c634300080f0033",
  "immutableReferences": {},
  "source": "// SPDX-License-Identifier: MIT\r\npragma solidity ^0.8.4;\r\n\r\nimport \"./ReCryptoToken.sol\";\r\nimport \"./UsdcToken.sol\";\r\n\r\ncontract RecryUsdcSwap {\r\n    address public owner;\r\n    ReCryptoToken public recry;\r\n    UsdcToken public usdc;\r\n\r\n    uint public maxSupply    = 500000000000000000000000; //number of toklen available 500000\r\n    uint public protocolGain = 0; //protocol gain\r\n\r\n    constructor(ReCryptoToken _recry, UsdcToken _usdc) {\r\n        recry = _recry;\r\n        usdc = _usdc;\r\n        owner = msg.sender;\r\n    }\r\n    modifier isOwner() {\r\n        require(msg.sender == owner, \"Caller is not owner\");\r\n        _;\r\n    }\r\n\r\n    function addRecrySupply(uint _amount) public isOwner {\r\n       \r\n        require(recry.balanceOf(msg.sender) >= _amount , \"no enough recry to add\");\r\n        require(recry.transferFrom(msg.sender, address(this), _amount));\r\n        maxSupply = maxSupply + _amount;\r\n    }\r\n\r\n    function changeRecrySupply(uint _amount) public isOwner {\r\n        maxSupply = _amount;\r\n    }\r\n\r\n    function getRecryValue() public view returns(uint _value)\r\n    {\r\n           return  _value = ((maxSupply+protocolGain)/maxSupply);\r\n    }\r\n    function getRecryPrice() public view returns(uint _value)\r\n    {\r\n           return  _value = ((maxSupply+protocolGain)/maxSupply)*1000000000000000000;\r\n    }\r\n    function getRecryTotalValue() public view returns(uint _value)\r\n    {\r\n           return  _value = getRecryValue() * recry.balanceOf(msg.sender);\r\n    }\r\n\r\n    function getRecryMaxSupply() public view returns(uint _value)\r\n    {\r\n            return maxSupply;\r\n    }\r\n\r\n    function getRecryMaxAvailable() public view returns(uint _value)\r\n    {\r\n            return recry.balanceOf(address(this));\r\n    }\r\n    function getUsdcMaxAvailable() public view returns(uint _value)\r\n    {\r\n            return usdc.balanceOf(address(this));\r\n    }\r\n\r\n    function getProtocolGain() public view returns(uint _value)\r\n    {\r\n            return protocolGain;\r\n    }\r\n\r\n    function buyRecryWithUsdc(uint _amount) public {\r\n        // Require amount greater than 0\r\n        uint qtyToBuy = _amount / getRecryValue();\r\n        require(_amount > 0, \"amount cannot be 0\");\r\n        require(recry.balanceOf(address(this)) >= qtyToBuy , \"no enough recry to buy\");\r\n\r\n        // Trasnfer usdc to the owner not in the protocol\r\n        require(usdc.transferFrom(msg.sender, address(this), _amount));\r\n        // Trasnfer recry to the buyer\r\n        recry.transferFrom(address(this), msg.sender, _amount);        \r\n    }\r\n\r\n    function sellRecryForUsdc(uint _amount) public {\r\n        // Require amount greater than 0\r\n        uint qtyToSell = _amount * getRecryValue();\r\n        require(_amount > 0, \"amount cannot be 0\");\r\n        require(recry.balanceOf(msg.sender) >= _amount , \"no enough recry to sell\");\r\n        require(getUsdcMaxAvailable() >= qtyToSell , \"no enough usdc to swap\");\r\n\r\n        // Trasnfer usdc to the owner not in the protocol\r\n        require(recry.transferFrom(msg.sender, address(this), _amount));\r\n        // Trasnfer recry to the buyer\r\n        usdc.transferFrom(address(this), msg.sender, qtyToSell);        \r\n\r\n    }\r\n\r\n    function withdrawUsdc(uint _amount) public isOwner{\r\n        require(usdc.balanceOf(address(this)) > _amount, \"no enough usdc to withdraw\");\r\n        require(usdc.transferFrom(address(this), msg.sender, _amount));\r\n    }\r\n\r\n}\r\n",
  "sourcePath": "C:\\Users\\matteo\\Documents\\GitHub\\ReCrypto\\src\\contracts\\RecryUsdcSwap.sol",
  "compiler": {
    "name": "solc",
    "version": "0.8.15+commit.e14f2714.Emscripten.clang"
  },
  "schemaVersion": "3.4.7",
  "updatedAt": "2022-06-25T05:19:37.481Z",
  "networkType": "ethereum",
  "devdoc": {
    "kind": "dev",
    "methods": {},
    "version": 1
  },
  "userdoc": {
    "kind": "user",
    "methods": {},
    "version": 1
  }
}