{
  "contractName": "RecryUsdcSwap",
  "abi": [
    {
      "inputs": [
        {
          "internalType": "contract ReCryptoToken",
          "name": "_recry",
          "type": "address"
        },
        {
          "internalType": "contract UsdcToken",
          "name": "_usdc",
          "type": "address"
        }
      ],
      "stateMutability": "nonpayable",
      "type": "constructor"
    },
    {
      "inputs": [],
      "name": "maxSupply",
      "outputs": [
        {
          "internalType": "uint256",
          "name": "",
          "type": "uint256"
        }
      ],
      "stateMutability": "view",
      "type": "function",
      "constant": true
    },
    {
      "inputs": [],
      "name": "owner",
      "outputs": [
        {
          "internalType": "address",
          "name": "",
          "type": "address"
        }
      ],
      "stateMutability": "view",
      "type": "function",
      "constant": true
    },
    {
      "inputs": [],
      "name": "protocolGain",
      "outputs": [
        {
          "internalType": "uint256",
          "name": "",
          "type": "uint256"
        }
      ],
      "stateMutability": "view",
      "type": "function",
      "constant": true
    },
    {
      "inputs": [],
      "name": "recry",
      "outputs": [
        {
          "internalType": "contract ReCryptoToken",
          "name": "",
          "type": "address"
        }
      ],
      "stateMutability": "view",
      "type": "function",
      "constant": true
    },
    {
      "inputs": [],
      "name": "usdc",
      "outputs": [
        {
          "internalType": "contract UsdcToken",
          "name": "",
          "type": "address"
        }
      ],
      "stateMutability": "view",
      "type": "function",
      "constant": true
    },
    {
      "inputs": [
        {
          "internalType": "uint256",
          "name": "_amount",
          "type": "uint256"
        }
      ],
      "name": "addRecrySupply",
      "outputs": [],
      "stateMutability": "nonpayable",
      "type": "function"
    },
    {
      "inputs": [
        {
          "internalType": "uint256",
          "name": "_amount",
          "type": "uint256"
        }
      ],
      "name": "changeRecrySupply",
      "outputs": [],
      "stateMutability": "nonpayable",
      "type": "function"
    },
    {
      "inputs": [
        {
          "internalType": "uint256",
          "name": "_amount",
          "type": "uint256"
        }
      ],
      "name": "addProtocolGain",
      "outputs": [],
      "stateMutability": "nonpayable",
      "type": "function"
    },
    {
      "inputs": [
        {
          "internalType": "uint256",
          "name": "_amount",
          "type": "uint256"
        }
      ],
      "name": "changeProtocolGain",
      "outputs": [],
      "stateMutability": "nonpayable",
      "type": "function"
    },
    {
      "inputs": [],
      "name": "getRecryValue",
      "outputs": [
        {
          "internalType": "uint256",
          "name": "_value",
          "type": "uint256"
        }
      ],
      "stateMutability": "view",
      "type": "function",
      "constant": true
    },
    {
      "inputs": [],
      "name": "getRecryPrice",
      "outputs": [
        {
          "internalType": "uint256",
          "name": "_value",
          "type": "uint256"
        }
      ],
      "stateMutability": "view",
      "type": "function",
      "constant": true
    },
    {
      "inputs": [],
      "name": "getRecryTotalValue",
      "outputs": [
        {
          "internalType": "uint256",
          "name": "_value",
          "type": "uint256"
        }
      ],
      "stateMutability": "view",
      "type": "function",
      "constant": true
    },
    {
      "inputs": [],
      "name": "getRecryMaxSupply",
      "outputs": [
        {
          "internalType": "uint256",
          "name": "_value",
          "type": "uint256"
        }
      ],
      "stateMutability": "view",
      "type": "function",
      "constant": true
    },
    {
      "inputs": [],
      "name": "getRecryMaxAvailable",
      "outputs": [
        {
          "internalType": "uint256",
          "name": "_value",
          "type": "uint256"
        }
      ],
      "stateMutability": "view",
      "type": "function",
      "constant": true
    },
    {
      "inputs": [],
      "name": "getUsdcMaxAvailable",
      "outputs": [
        {
          "internalType": "uint256",
          "name": "_value",
          "type": "uint256"
        }
      ],
      "stateMutability": "view",
      "type": "function",
      "constant": true
    },
    {
      "inputs": [],
      "name": "getProtocolGain",
      "outputs": [
        {
          "internalType": "uint256",
          "name": "_value",
          "type": "uint256"
        }
      ],
      "stateMutability": "view",
      "type": "function",
      "constant": true
    },
    {
      "inputs": [],
      "name": "isOwnerX",
      "outputs": [
        {
          "internalType": "bool",
          "name": "_value",
          "type": "bool"
        }
      ],
      "stateMutability": "view",
      "type": "function",
      "constant": true
    },
    {
      "inputs": [
        {
          "internalType": "uint256",
          "name": "_amount",
          "type": "uint256"
        }
      ],
      "name": "buyRecryWithUsdc",
      "outputs": [],
      "stateMutability": "nonpayable",
      "type": "function"
    },
    {
      "inputs": [
        {
          "internalType": "uint256",
          "name": "_amount",
          "type": "uint256"
        }
      ],
      "name": "sellRecryForUsdc",
      "outputs": [],
      "stateMutability": "nonpayable",
      "type": "function"
    },
    {
      "inputs": [
        {
          "internalType": "uint256",
          "name": "_amount",
          "type": "uint256"
        }
      ],
      "name": "withdrawUsdc",
      "outputs": [],
      "stateMutability": "nonpayable",
      "type": "function"
    }
  ],
  "bytecode": "0x60806040526969e10de76676d080000060035560006004553480156200002457600080fd5b5060405162001e6d38038062001e6d83398181016040528101906200004a9190620001d7565b81600160006101000a81548173ffffffffffffffffffffffffffffffffffffffff021916908373ffffffffffffffffffffffffffffffffffffffff16021790555080600260006101000a81548173ffffffffffffffffffffffffffffffffffffffff021916908373ffffffffffffffffffffffffffffffffffffffff160217905550336000806101000a81548173ffffffffffffffffffffffffffffffffffffffff021916908373ffffffffffffffffffffffffffffffffffffffff16021790555050506200021e565b600080fd5b600073ffffffffffffffffffffffffffffffffffffffff82169050919050565b6000620001468262000119565b9050919050565b60006200015a8262000139565b9050919050565b6200016c816200014d565b81146200017857600080fd5b50565b6000815190506200018c8162000161565b92915050565b60006200019f8262000139565b9050919050565b620001b18162000192565b8114620001bd57600080fd5b50565b600081519050620001d181620001a6565b92915050565b60008060408385031215620001f157620001f062000114565b5b600062000201858286016200017b565b92505060206200021485828601620001c0565b9150509250929050565b611c3f806200022e6000396000f3fe608060405234801561001057600080fd5b506004361061012c5760003560e01c80635b06dece116100ad578063d60a904e11610071578063d60a904e146102e7578063ddf5b66c14610305578063e37398d814610323578063ecb9417c1461033f578063f1a376b61461035d5761012c565b80635b06dece146102535780637741eb921461026f5780638da5cb5b1461028d578063b42ca291146102ab578063d5abeb01146102c95761012c565b80632bd160bc116100f45780632bd160bc146101c357806333b3c3f7146101e15780633e413bee146101fd5780634bd2f33d1461021b5780634cd60eb3146102375761012c565b80630b468779146101315780630b6e87f71461014f578063112ed6e21461016d5780631ded4ad91461018957806327718127146101a5575b600080fd5b61013961037b565b6040516101469190611564565b60405180910390f35b6101576103a1565b6040516101649190611598565b60405180910390f35b610187600480360381019061018291906115e4565b6103a7565b005b6101a3600480360381019061019e91906115e4565b61043f565b005b6101ad6104e4565b6040516101ba919061162c565b60405180910390f35b6101cb61054b565b6040516101d89190611598565b60405180910390f35b6101fb60048036038101906101f691906115e4565b6105ee565b005b610205610afb565b6040516102129190611668565b60405180910390f35b610235600480360381019061023091906115e4565b610b21565b005b610251600480360381019061024c91906115e4565b610bb9565b005b61026d600480360381019061026891906115e4565b610de7565b005b610277611020565b6040516102849190611598565b60405180910390f35b61029561102a565b6040516102a291906116a4565b60405180910390f35b6102b361104e565b6040516102c09190611598565b60405180910390f35b6102d16110f1565b6040516102de9190611598565b60405180910390f35b6102ef6110f7565b6040516102fc9190611598565b60405180910390f35b61030d6111ac565b60405161031a9190611598565b60405180910390f35b61033d600480360381019061033891906115e4565b6111d0565b005b6103476114a4565b6040516103549190611598565b60405180910390f35b6103656114ae565b6040516103729190611598565b60405180910390f35b600160009054906101000a900473ffffffffffffffffffffffffffffffffffffffff1681565b60045481565b60008054906101000a900473ffffffffffffffffffffffffffffffffffffffff1673ffffffffffffffffffffffffffffffffffffffff163373ffffffffffffffffffffffffffffffffffffffff1614610435576040517f08c379a000000000000000000000000000000000000000000000000000000000815260040161042c9061171c565b60405180910390fd5b8060048190555050565b60008054906101000a900473ffffffffffffffffffffffffffffffffffffffff1673ffffffffffffffffffffffffffffffffffffffff163373ffffffffffffffffffffffffffffffffffffffff16146104cd576040517f08c379a00000000000000000000000000000000000000000000000000000000081526004016104c49061171c565b60405180910390fd5b806004546104db919061176b565b60048190555050565b60008060009054906101000a900473ffffffffffffffffffffffffffffffffffffffff1673ffffffffffffffffffffffffffffffffffffffff163373ffffffffffffffffffffffffffffffffffffffff16036105435760019050610548565b600090505b90565b6000600160009054906101000a900473ffffffffffffffffffffffffffffffffffffffff1673ffffffffffffffffffffffffffffffffffffffff166370a08231306040518263ffffffff1660e01b81526004016105a891906116a4565b602060405180830381865afa1580156105c5573d6000803e3d6000fd5b505050506040513d601f19601f820116820180604052508101906105e991906117d6565b905090565b60006105f86111ac565b826106039190611832565b905060008211610648576040517f08c379a000000000000000000000000000000000000000000000000000000000815260040161063f906118af565b60405180910390fd5b80600160009054906101000a900473ffffffffffffffffffffffffffffffffffffffff1673ffffffffffffffffffffffffffffffffffffffff166370a08231306040518263ffffffff1660e01b81526004016106a491906116a4565b602060405180830381865afa1580156106c1573d6000803e3d6000fd5b505050506040513d601f19601f820116820180604052508101906106e591906117d6565b1015610726576040517f08c379a000000000000000000000000000000000000000000000000000000000815260040161071d9061191b565b60405180910390fd5b600061073061104e565b60045461073d919061193b565b9050600081111561098757808311156108d657600260009054906101000a900473ffffffffffffffffffffffffffffffffffffffff1673ffffffffffffffffffffffffffffffffffffffff166323b872dd3330846040518463ffffffff1660e01b81526004016107af9392919061196f565b6020604051808303816000875af11580156107ce573d6000803e3d6000fd5b505050506040513d601f19601f820116820180604052508101906107f291906119d2565b6107fb57600080fd5b600260009054906101000a900473ffffffffffffffffffffffffffffffffffffffff1673ffffffffffffffffffffffffffffffffffffffff166323b872dd3360008054906101000a900473ffffffffffffffffffffffffffffffffffffffff168487610867919061193b565b6040518463ffffffff1660e01b81526004016108859392919061196f565b6020604051808303816000875af11580156108a4573d6000803e3d6000fd5b505050506040513d601f19601f820116820180604052508101906108c891906119d2565b6108d157600080fd5b610982565b600260009054906101000a900473ffffffffffffffffffffffffffffffffffffffff1673ffffffffffffffffffffffffffffffffffffffff166323b872dd3330866040518463ffffffff1660e01b81526004016109359392919061196f565b6020604051808303816000875af1158015610954573d6000803e3d6000fd5b505050506040513d601f19601f8201168201806040525081019061097891906119d2565b61098157600080fd5b5b610a53565b600260009054906101000a900473ffffffffffffffffffffffffffffffffffffffff1673ffffffffffffffffffffffffffffffffffffffff166323b872dd3360008054906101000a900473ffffffffffffffffffffffffffffffffffffffff16866040518463ffffffff1660e01b8152600401610a069392919061196f565b6020604051808303816000875af1158015610a25573d6000803e3d6000fd5b505050506040513d601f19601f82011682018060405250810190610a4991906119d2565b610a5257600080fd5b5b600160009054906101000a900473ffffffffffffffffffffffffffffffffffffffff1673ffffffffffffffffffffffffffffffffffffffff166323b872dd3033866040518463ffffffff1660e01b8152600401610ab29392919061196f565b6020604051808303816000875af1158015610ad1573d6000803e3d6000fd5b505050506040513d601f19601f82011682018060405250810190610af591906119d2565b50505050565b600260009054906101000a900473ffffffffffffffffffffffffffffffffffffffff1681565b60008054906101000a900473ffffffffffffffffffffffffffffffffffffffff1673ffffffffffffffffffffffffffffffffffffffff163373ffffffffffffffffffffffffffffffffffffffff1614610baf576040517f08c379a0000000000000000000000000000000000000000000000000000000008152600401610ba69061171c565b60405180910390fd5b8060038190555050565b60008054906101000a900473ffffffffffffffffffffffffffffffffffffffff1673ffffffffffffffffffffffffffffffffffffffff163373ffffffffffffffffffffffffffffffffffffffff1614610c47576040517f08c379a0000000000000000000000000000000000000000000000000000000008152600401610c3e9061171c565b60405180910390fd5b80600160009054906101000a900473ffffffffffffffffffffffffffffffffffffffff1673ffffffffffffffffffffffffffffffffffffffff166370a08231336040518263ffffffff1660e01b8152600401610ca391906116a4565b602060405180830381865afa158015610cc0573d6000803e3d6000fd5b505050506040513d601f19601f82011682018060405250810190610ce491906117d6565b1015610d25576040517f08c379a0000000000000000000000000000000000000000000000000000000008152600401610d1c90611a4b565b60405180910390fd5b600160009054906101000a900473ffffffffffffffffffffffffffffffffffffffff1673ffffffffffffffffffffffffffffffffffffffff166323b872dd3330846040518463ffffffff1660e01b8152600401610d849392919061196f565b6020604051808303816000875af1158015610da3573d6000803e3d6000fd5b505050506040513d601f19601f82011682018060405250810190610dc791906119d2565b610dd057600080fd5b80600354610dde919061176b565b60038190555050565b60008054906101000a900473ffffffffffffffffffffffffffffffffffffffff1673ffffffffffffffffffffffffffffffffffffffff163373ffffffffffffffffffffffffffffffffffffffff1614610e75576040517f08c379a0000000000000000000000000000000000000000000000000000000008152600401610e6c9061171c565b60405180910390fd5b80600260009054906101000a900473ffffffffffffffffffffffffffffffffffffffff1673ffffffffffffffffffffffffffffffffffffffff166370a08231306040518263ffffffff1660e01b8152600401610ed191906116a4565b602060405180830381865afa158015610eee573d6000803e3d6000fd5b505050506040513d601f19601f82011682018060405250810190610f1291906117d6565b11610f52576040517f08c379a0000000000000000000000000000000000000000000000000000000008152600401610f4990611ab7565b60405180910390fd5b600260009054906101000a900473ffffffffffffffffffffffffffffffffffffffff1673ffffffffffffffffffffffffffffffffffffffff166323b872dd3060008054906101000a900473ffffffffffffffffffffffffffffffffffffffff16846040518463ffffffff1660e01b8152600401610fd19392919061196f565b6020604051808303816000875af1158015610ff0573d6000803e3d6000fd5b505050506040513d601f19601f8201168201806040525081019061101491906119d2565b61101d57600080fd5b50565b6000600354905090565b60008054906101000a900473ffffffffffffffffffffffffffffffffffffffff1681565b6000600260009054906101000a900473ffffffffffffffffffffffffffffffffffffffff1673ffffffffffffffffffffffffffffffffffffffff166370a08231306040518263ffffffff1660e01b81526004016110ab91906116a4565b602060405180830381865afa1580156110c8573d6000803e3d6000fd5b505050506040513d601f19601f820116820180604052508101906110ec91906117d6565b905090565b60035481565b6000600160009054906101000a900473ffffffffffffffffffffffffffffffffffffffff1673ffffffffffffffffffffffffffffffffffffffff166370a08231336040518263ffffffff1660e01b815260040161115491906116a4565b602060405180830381865afa158015611171573d6000803e3d6000fd5b505050506040513d601f19601f8201168201806040525081019061119591906117d6565b61119d6111ac565b6111a79190611ad7565b905090565b60006003546004546003546111c1919061176b565b6111cb9190611832565b905090565b60006111da6111ac565b826111e59190611ad7565b90506000821161122a576040517f08c379a0000000000000000000000000000000000000000000000000000000008152600401611221906118af565b60405180910390fd5b81600160009054906101000a900473ffffffffffffffffffffffffffffffffffffffff1673ffffffffffffffffffffffffffffffffffffffff166370a08231336040518263ffffffff1660e01b815260040161128691906116a4565b602060405180830381865afa1580156112a3573d6000803e3d6000fd5b505050506040513d601f19601f820116820180604052508101906112c791906117d6565b1015611308576040517f08c379a00000000000000000000000000000000000000000000000000000000081526004016112ff90611b7d565b60405180910390fd5b8061131161104e565b1015611352576040517f08c379a000000000000000000000000000000000000000000000000000000000815260040161134990611be9565b60405180910390fd5b600160009054906101000a900473ffffffffffffffffffffffffffffffffffffffff1673ffffffffffffffffffffffffffffffffffffffff166323b872dd3330856040518463ffffffff1660e01b81526004016113b19392919061196f565b6020604051808303816000875af11580156113d0573d6000803e3d6000fd5b505050506040513d601f19601f820116820180604052508101906113f491906119d2565b6113fd57600080fd5b600260009054906101000a900473ffffffffffffffffffffffffffffffffffffffff1673ffffffffffffffffffffffffffffffffffffffff166323b872dd3033846040518463ffffffff1660e01b815260040161145c9392919061196f565b6020604051808303816000875af115801561147b573d6000803e3d6000fd5b505050506040513d601f19601f8201168201806040525081019061149f91906119d2565b505050565b6000600454905090565b6000670de0b6b3a76400006003546004546003546114cc919061176b565b6114d69190611832565b6114e09190611ad7565b905090565b600073ffffffffffffffffffffffffffffffffffffffff82169050919050565b6000819050919050565b600061152a611525611520846114e5565b611505565b6114e5565b9050919050565b600061153c8261150f565b9050919050565b600061154e82611531565b9050919050565b61155e81611543565b82525050565b60006020820190506115796000830184611555565b92915050565b6000819050919050565b6115928161157f565b82525050565b60006020820190506115ad6000830184611589565b92915050565b600080fd5b6115c18161157f565b81146115cc57600080fd5b50565b6000813590506115de816115b8565b92915050565b6000602082840312156115fa576115f96115b3565b5b6000611608848285016115cf565b91505092915050565b60008115159050919050565b61162681611611565b82525050565b6000602082019050611641600083018461161d565b92915050565b600061165282611531565b9050919050565b61166281611647565b82525050565b600060208201905061167d6000830184611659565b92915050565b600061168e826114e5565b9050919050565b61169e81611683565b82525050565b60006020820190506116b96000830184611695565b92915050565b600082825260208201905092915050565b7f43616c6c6572206973206e6f74206f776e657200000000000000000000000000600082015250565b60006117066013836116bf565b9150611711826116d0565b602082019050919050565b60006020820190508181036000830152611735816116f9565b9050919050565b7f4e487b7100000000000000000000000000000000000000000000000000000000600052601160045260246000fd5b60006117768261157f565b91506117818361157f565b9250827fffffffffffffffffffffffffffffffffffffffffffffffffffffffffffffffff038211156117b6576117b561173c565b5b828201905092915050565b6000815190506117d0816115b8565b92915050565b6000602082840312156117ec576117eb6115b3565b5b60006117fa848285016117c1565b91505092915050565b7f4e487b7100000000000000000000000000000000000000000000000000000000600052601260045260246000fd5b600061183d8261157f565b91506118488361157f565b92508261185857611857611803565b5b828204905092915050565b7f616d6f756e742063616e6e6f7420626520300000000000000000000000000000600082015250565b60006118996012836116bf565b91506118a482611863565b602082019050919050565b600060208201905081810360008301526118c88161188c565b9050919050565b7f6e6f20656e6f75676820726563727920746f2062757900000000000000000000600082015250565b60006119056016836116bf565b9150611910826118cf565b602082019050919050565b60006020820190508181036000830152611934816118f8565b9050919050565b60006119468261157f565b91506119518361157f565b9250828210156119645761196361173c565b5b828203905092915050565b60006060820190506119846000830186611695565b6119916020830185611695565b61199e6040830184611589565b949350505050565b6119af81611611565b81146119ba57600080fd5b50565b6000815190506119cc816119a6565b92915050565b6000602082840312156119e8576119e76115b3565b5b60006119f6848285016119bd565b91505092915050565b7f6e6f20656e6f75676820726563727920746f2061646400000000000000000000600082015250565b6000611a356016836116bf565b9150611a40826119ff565b602082019050919050565b60006020820190508181036000830152611a6481611a28565b9050919050565b7f6e6f20656e6f756768207573646320746f207769746864726177000000000000600082015250565b6000611aa1601a836116bf565b9150611aac82611a6b565b602082019050919050565b60006020820190508181036000830152611ad081611a94565b9050919050565b6000611ae28261157f565b9150611aed8361157f565b9250817fffffffffffffffffffffffffffffffffffffffffffffffffffffffffffffffff0483118215151615611b2657611b2561173c565b5b828202905092915050565b7f6e6f20656e6f75676820726563727920746f2073656c6c000000000000000000600082015250565b6000611b676017836116bf565b9150611b7282611b31565b602082019050919050565b60006020820190508181036000830152611b9681611b5a565b9050919050565b7f6e6f20656e6f756768207573646320746f207377617000000000000000000000600082015250565b6000611bd36016836116bf565b9150611bde82611b9d565b602082019050919050565b60006020820190508181036000830152611c0281611bc6565b905091905056fea26469706673582212203fcdbdfe5f60b4b1f635c0400a9ca6d484f0d83812863cd71b89fc790d3f191764736f6c634300080f0033",
  "immutableReferences": {},
  "source": "// SPDX-License-Identifier: MIT\r\npragma solidity ^0.8.4;\r\n\r\nimport \"./ReCryptoToken.sol\";\r\nimport \"./UsdcToken.sol\";\r\n\r\ncontract RecryUsdcSwap {\r\n    address public owner;\r\n    ReCryptoToken public recry;\r\n    UsdcToken public usdc;\r\n\r\n    uint public maxSupply    = 500000000000000000000000; //number of toklen available 500000\r\n    uint public protocolGain = 0; //protocol gain\r\n\r\n    constructor(ReCryptoToken _recry, UsdcToken _usdc) {\r\n        recry = _recry;\r\n        usdc = _usdc;\r\n        owner = msg.sender;\r\n    }\r\n    modifier isOwner() {\r\n        require(msg.sender == owner, \"Caller is not owner\");\r\n        _;\r\n    }\r\n\r\n    function addRecrySupply(uint _amount) public isOwner {\r\n        require(recry.balanceOf(msg.sender) >= _amount , \"no enough recry to add\");\r\n        require(recry.transferFrom(msg.sender, address(this), _amount));\r\n        maxSupply = maxSupply + _amount;\r\n    }\r\n\r\n    function changeRecrySupply(uint _amount) public isOwner {\r\n        maxSupply = _amount;\r\n    }\r\n\r\n    function addProtocolGain(uint _amount) public isOwner {\r\n        protocolGain = protocolGain + _amount;\r\n    }\r\n\r\n    function changeProtocolGain(uint _amount) public isOwner {\r\n         protocolGain = _amount;\r\n    }\r\n\r\n    function getRecryValue() public view returns(uint _value)\r\n    {\r\n           return  _value = ((maxSupply+protocolGain)/maxSupply);\r\n    }\r\n    function getRecryPrice() public view returns(uint _value)\r\n    {\r\n           return  _value = ((maxSupply+protocolGain)/maxSupply)*1000000000000000000;\r\n    }\r\n    function getRecryTotalValue() public view returns(uint _value)\r\n    {\r\n           return  _value = getRecryValue() * recry.balanceOf(msg.sender);\r\n    }\r\n\r\n    function getRecryMaxSupply() public view returns(uint _value)\r\n    {\r\n            return maxSupply;\r\n    }\r\n\r\n    function getRecryMaxAvailable() public view returns(uint _value)\r\n    {\r\n            return recry.balanceOf(address(this));\r\n    }\r\n\r\n    function getUsdcMaxAvailable() public view returns(uint _value)\r\n    {\r\n            return usdc.balanceOf(address(this));\r\n    }\r\n\r\n    function getProtocolGain() public view returns(uint _value)\r\n    {\r\n            return protocolGain;\r\n    }\r\n\r\n    function isOwnerX() public view returns(bool _value)\r\n    {\r\n            if (msg.sender == owner)\r\n            {\r\n                return true;\r\n            }\r\n            else\r\n            {\r\n                return false;\r\n            }\r\n    }\r\n\r\n    function buyRecryWithUsdc(uint _amount) public {\r\n        // Require amount greater than 0\r\n        uint qtyToBuy = _amount / getRecryValue();\r\n        require(_amount > 0, \"amount cannot be 0\");\r\n        require(recry.balanceOf(address(this)) >= qtyToBuy , \"no enough recry to buy\");\r\n        uint maxRecharge = protocolGain - getUsdcMaxAvailable();\r\n        if (maxRecharge > 0)\r\n        {\r\n               // Trasnfer some usdc to refill the protocol  not in the protocol\r\n               if (_amount > maxRecharge)\r\n               {\r\n                     require(usdc.transferFrom(msg.sender, address(this), maxRecharge)); \r\n                     require(usdc.transferFrom(msg.sender, owner, _amount-maxRecharge)); \r\n               }\r\n               else\r\n               {\r\n                    require(usdc.transferFrom(msg.sender, address(this), _amount)); \r\n               }\r\n        }\r\n        else\r\n        {\r\n             // Trasnfer usdc to the owner not in the protocol\r\n               require(usdc.transferFrom(msg.sender, owner, _amount)); \r\n        }\r\n        \r\n        // Trasnfer recry to the buyer\r\n        recry.transferFrom(address(this), msg.sender, _amount);        \r\n    }\r\n\r\n    function sellRecryForUsdc(uint _amount) public {\r\n        // Require amount greater than 0\r\n        uint qtyToSell = _amount * getRecryValue();\r\n        require(_amount > 0, \"amount cannot be 0\");\r\n        require(recry.balanceOf(msg.sender) >= _amount , \"no enough recry to sell\");\r\n        require(getUsdcMaxAvailable() >= qtyToSell , \"no enough usdc to swap\");\r\n\r\n        // Trasnfer usdc to the owner not in the protocol\r\n        require(recry.transferFrom(msg.sender, address(this), _amount));\r\n        // Trasnfer recry to the buyer\r\n        usdc.transferFrom(address(this), msg.sender, qtyToSell);        \r\n\r\n    }\r\n\r\n    function withdrawUsdc(uint _amount) public isOwner{\r\n        require(usdc.balanceOf(address(this)) > _amount, \"no enough usdc to withdraw\");\r\n        require(usdc.transferFrom(address(this), owner, _amount));\r\n    }\r\n\r\n}\r\n",
  "sourcePath": "C:\\Users\\matteo\\Documents\\GitHub\\ReCrypto\\src\\contracts\\RecryUsdcSwap.sol",
  "compiler": {
    "name": "solc",
    "version": "0.8.15+commit.e14f2714.Emscripten.clang"
  },
  "schemaVersion": "3.4.7",
  "updatedAt": "2022-06-26T08:32:53.878Z",
  "networkType": "ethereum",
  "devdoc": {
    "kind": "dev",
    "methods": {},
    "version": 1
  },
  "userdoc": {
    "kind": "user",
    "methods": {},
    "version": 1
  }
}