{
  "contractName": "RecryUsdcSwap",
  "abi": [
    {
      "inputs": [
        {
          "internalType": "contract ReCryptoToken",
          "name": "_recry",
          "type": "address"
        },
        {
          "internalType": "contract UsdcToken",
          "name": "_usdc",
          "type": "address"
        }
      ],
      "stateMutability": "nonpayable",
      "type": "constructor"
    },
    {
      "inputs": [
        {
          "internalType": "uint256",
          "name": "",
          "type": "uint256"
        }
      ],
      "name": "buyers",
      "outputs": [
        {
          "internalType": "address",
          "name": "",
          "type": "address"
        }
      ],
      "stateMutability": "view",
      "type": "function",
      "constant": true
    },
    {
      "inputs": [
        {
          "internalType": "address",
          "name": "",
          "type": "address"
        }
      ],
      "name": "hasPurchased",
      "outputs": [
        {
          "internalType": "bool",
          "name": "",
          "type": "bool"
        }
      ],
      "stateMutability": "view",
      "type": "function",
      "constant": true
    },
    {
      "inputs": [
        {
          "internalType": "address",
          "name": "",
          "type": "address"
        }
      ],
      "name": "isPurchased",
      "outputs": [
        {
          "internalType": "bool",
          "name": "",
          "type": "bool"
        }
      ],
      "stateMutability": "view",
      "type": "function",
      "constant": true
    },
    {
      "inputs": [],
      "name": "maxSupply",
      "outputs": [
        {
          "internalType": "uint256",
          "name": "",
          "type": "uint256"
        }
      ],
      "stateMutability": "view",
      "type": "function",
      "constant": true
    },
    {
      "inputs": [],
      "name": "owner",
      "outputs": [
        {
          "internalType": "address",
          "name": "",
          "type": "address"
        }
      ],
      "stateMutability": "view",
      "type": "function",
      "constant": true
    },
    {
      "inputs": [],
      "name": "protocolGain",
      "outputs": [
        {
          "internalType": "uint256",
          "name": "",
          "type": "uint256"
        }
      ],
      "stateMutability": "view",
      "type": "function",
      "constant": true
    },
    {
      "inputs": [],
      "name": "recry",
      "outputs": [
        {
          "internalType": "contract ReCryptoToken",
          "name": "",
          "type": "address"
        }
      ],
      "stateMutability": "view",
      "type": "function",
      "constant": true
    },
    {
      "inputs": [],
      "name": "usdc",
      "outputs": [
        {
          "internalType": "contract UsdcToken",
          "name": "",
          "type": "address"
        }
      ],
      "stateMutability": "view",
      "type": "function",
      "constant": true
    },
    {
      "inputs": [
        {
          "internalType": "uint256",
          "name": "_amount",
          "type": "uint256"
        }
      ],
      "name": "addSupply",
      "outputs": [],
      "stateMutability": "nonpayable",
      "type": "function"
    },
    {
      "inputs": [
        {
          "internalType": "uint256",
          "name": "_amount",
          "type": "uint256"
        }
      ],
      "name": "changeSupply",
      "outputs": [],
      "stateMutability": "nonpayable",
      "type": "function"
    },
    {
      "inputs": [],
      "name": "getRecryValue",
      "outputs": [
        {
          "internalType": "uint256",
          "name": "_value",
          "type": "uint256"
        }
      ],
      "stateMutability": "view",
      "type": "function",
      "constant": true
    },
    {
      "inputs": [],
      "name": "getMaxSupply",
      "outputs": [
        {
          "internalType": "uint256",
          "name": "_value",
          "type": "uint256"
        }
      ],
      "stateMutability": "view",
      "type": "function",
      "constant": true
    },
    {
      "inputs": [],
      "name": "getMaxAvailable",
      "outputs": [
        {
          "internalType": "uint256",
          "name": "_value",
          "type": "uint256"
        }
      ],
      "stateMutability": "view",
      "type": "function",
      "constant": true
    },
    {
      "inputs": [],
      "name": "getProtocolGain",
      "outputs": [
        {
          "internalType": "uint256",
          "name": "_value",
          "type": "uint256"
        }
      ],
      "stateMutability": "view",
      "type": "function",
      "constant": true
    },
    {
      "inputs": [
        {
          "internalType": "uint256",
          "name": "_amount",
          "type": "uint256"
        }
      ],
      "name": "buyRecryWithUsdc",
      "outputs": [],
      "stateMutability": "nonpayable",
      "type": "function"
    }
  ],
  "bytecode": "0x60806040526969e10de76676d080000060035560006004553480156200002457600080fd5b50604051620011b1380380620011b183398181016040528101906200004a9190620001d7565b81600160006101000a81548173ffffffffffffffffffffffffffffffffffffffff021916908373ffffffffffffffffffffffffffffffffffffffff16021790555080600260006101000a81548173ffffffffffffffffffffffffffffffffffffffff021916908373ffffffffffffffffffffffffffffffffffffffff160217905550336000806101000a81548173ffffffffffffffffffffffffffffffffffffffff021916908373ffffffffffffffffffffffffffffffffffffffff16021790555050506200021e565b600080fd5b600073ffffffffffffffffffffffffffffffffffffffff82169050919050565b6000620001468262000119565b9050919050565b60006200015a8262000139565b9050919050565b6200016c816200014d565b81146200017857600080fd5b50565b6000815190506200018c8162000161565b92915050565b60006200019f8262000139565b9050919050565b620001b18162000192565b8114620001bd57600080fd5b50565b600081519050620001d181620001a6565b92915050565b60008060408385031215620001f157620001f062000114565b5b600062000201858286016200017b565b92505060206200021485828601620001c0565b9150509250929050565b610f83806200022e6000396000f3fe608060405234801561001057600080fd5b50600436106100f55760003560e01c80634c0f38c211610097578063d5abeb0111610066578063d5abeb0114610262578063ddf5b66c14610280578063ecb9417c1461029e578063f2aa8218146102bc576100f5565b80634c0f38c2146101d85780638da5cb5b146101f657806390118fb414610214578063bac2e6db14610244576100f5565b806333b3c3f7116100d357806333b3c3f71461016657806339a7919f146101825780633e413bee1461019e57806340753a76146101bc576100f5565b80630b468779146100fa5780630b6e87f71461011857806316236fda14610136575b600080fd5b6101026102ec565b60405161010f9190610a8d565b60405180910390f35b610120610312565b60405161012d9190610ac1565b60405180910390f35b610150600480360381019061014b9190610b1f565b610318565b60405161015d9190610b67565b60405180910390f35b610180600480360381019061017b9190610bae565b610338565b005b61019c60048036038101906101979190610bae565b610747565b005b6101a66107df565b6040516101b39190610bfc565b60405180910390f35b6101d660048036038101906101d19190610bae565b610805565b005b6101e06108aa565b6040516101ed9190610ac1565b60405180910390f35b6101fe6108b4565b60405161020b9190610c26565b60405180910390f35b61022e60048036038101906102299190610b1f565b6108d8565b60405161023b9190610b67565b60405180910390f35b61024c6108f8565b6040516102599190610ac1565b60405180910390f35b61026a61099b565b6040516102779190610ac1565b60405180910390f35b6102886109a1565b6040516102959190610ac1565b60405180910390f35b6102a66109c5565b6040516102b39190610ac1565b60405180910390f35b6102d660048036038101906102d19190610bae565b6109cf565b6040516102e39190610c26565b60405180910390f35b600160009054906101000a900473ffffffffffffffffffffffffffffffffffffffff1681565b60045481565b60076020528060005260406000206000915054906101000a900460ff1681565b60006103426109a1565b8261034d9190610c9f565b905060008211610392576040517f08c379a000000000000000000000000000000000000000000000000000000000815260040161038990610d2d565b60405180910390fd5b80600160009054906101000a900473ffffffffffffffffffffffffffffffffffffffff1673ffffffffffffffffffffffffffffffffffffffff166370a08231306040518263ffffffff1660e01b81526004016103ee9190610c26565b602060405180830381865afa15801561040b573d6000803e3d6000fd5b505050506040513d601f19601f8201168201806040525081019061042f9190610d62565b1015610470576040517f08c379a000000000000000000000000000000000000000000000000000000000815260040161046790610ddb565b60405180910390fd5b600260009054906101000a900473ffffffffffffffffffffffffffffffffffffffff1673ffffffffffffffffffffffffffffffffffffffff166323b872dd3360008054906101000a900473ffffffffffffffffffffffffffffffffffffffff16856040518463ffffffff1660e01b81526004016104ef93929190610dfb565b6020604051808303816000875af115801561050e573d6000803e3d6000fd5b505050506040513d601f19601f820116820180604052508101906105329190610e5e565b61053b57600080fd5b600160009054906101000a900473ffffffffffffffffffffffffffffffffffffffff1673ffffffffffffffffffffffffffffffffffffffff166323b872dd3033856040518463ffffffff1660e01b815260040161059a93929190610dfb565b6020604051808303816000875af11580156105b9573d6000803e3d6000fd5b505050506040513d601f19601f820116820180604052508101906105dd9190610e5e565b50600660003373ffffffffffffffffffffffffffffffffffffffff1673ffffffffffffffffffffffffffffffffffffffff16815260200190815260200160002060009054906101000a900460ff16610693576005339080600181540180825580915050600190039060005260206000200160009091909190916101000a81548173ffffffffffffffffffffffffffffffffffffffff021916908373ffffffffffffffffffffffffffffffffffffffff1602179055505b6001600760003373ffffffffffffffffffffffffffffffffffffffff1673ffffffffffffffffffffffffffffffffffffffff16815260200190815260200160002060006101000a81548160ff0219169083151502179055506001600660003373ffffffffffffffffffffffffffffffffffffffff1673ffffffffffffffffffffffffffffffffffffffff16815260200190815260200160002060006101000a81548160ff0219169083151502179055505050565b60008054906101000a900473ffffffffffffffffffffffffffffffffffffffff1673ffffffffffffffffffffffffffffffffffffffff163373ffffffffffffffffffffffffffffffffffffffff16146107d5576040517f08c379a00000000000000000000000000000000000000000000000000000000081526004016107cc90610ed7565b60405180910390fd5b8060038190555050565b600260009054906101000a900473ffffffffffffffffffffffffffffffffffffffff1681565b60008054906101000a900473ffffffffffffffffffffffffffffffffffffffff1673ffffffffffffffffffffffffffffffffffffffff163373ffffffffffffffffffffffffffffffffffffffff1614610893576040517f08c379a000000000000000000000000000000000000000000000000000000000815260040161088a90610ed7565b60405180910390fd5b806003546108a19190610ef7565b60038190555050565b6000600354905090565b60008054906101000a900473ffffffffffffffffffffffffffffffffffffffff1681565b60066020528060005260406000206000915054906101000a900460ff1681565b6000600160009054906101000a900473ffffffffffffffffffffffffffffffffffffffff1673ffffffffffffffffffffffffffffffffffffffff166370a08231306040518263ffffffff1660e01b81526004016109559190610c26565b602060405180830381865afa158015610972573d6000803e3d6000fd5b505050506040513d601f19601f820116820180604052508101906109969190610d62565b905090565b60035481565b60006003546004546003546109b69190610ef7565b6109c09190610c9f565b905090565b6000600454905090565b600581815481106109df57600080fd5b906000526020600020016000915054906101000a900473ffffffffffffffffffffffffffffffffffffffff1681565b600073ffffffffffffffffffffffffffffffffffffffff82169050919050565b6000819050919050565b6000610a53610a4e610a4984610a0e565b610a2e565b610a0e565b9050919050565b6000610a6582610a38565b9050919050565b6000610a7782610a5a565b9050919050565b610a8781610a6c565b82525050565b6000602082019050610aa26000830184610a7e565b92915050565b6000819050919050565b610abb81610aa8565b82525050565b6000602082019050610ad66000830184610ab2565b92915050565b600080fd5b6000610aec82610a0e565b9050919050565b610afc81610ae1565b8114610b0757600080fd5b50565b600081359050610b1981610af3565b92915050565b600060208284031215610b3557610b34610adc565b5b6000610b4384828501610b0a565b91505092915050565b60008115159050919050565b610b6181610b4c565b82525050565b6000602082019050610b7c6000830184610b58565b92915050565b610b8b81610aa8565b8114610b9657600080fd5b50565b600081359050610ba881610b82565b92915050565b600060208284031215610bc457610bc3610adc565b5b6000610bd284828501610b99565b91505092915050565b6000610be682610a5a565b9050919050565b610bf681610bdb565b82525050565b6000602082019050610c116000830184610bed565b92915050565b610c2081610ae1565b82525050565b6000602082019050610c3b6000830184610c17565b92915050565b7f4e487b7100000000000000000000000000000000000000000000000000000000600052601260045260246000fd5b7f4e487b7100000000000000000000000000000000000000000000000000000000600052601160045260246000fd5b6000610caa82610aa8565b9150610cb583610aa8565b925082610cc557610cc4610c41565b5b828204905092915050565b600082825260208201905092915050565b7f616d6f756e742063616e6e6f7420626520300000000000000000000000000000600082015250565b6000610d17601283610cd0565b9150610d2282610ce1565b602082019050919050565b60006020820190508181036000830152610d4681610d0a565b9050919050565b600081519050610d5c81610b82565b92915050565b600060208284031215610d7857610d77610adc565b5b6000610d8684828501610d4d565b91505092915050565b7f6e6f20656e6f75676820726563727920746f2062757900000000000000000000600082015250565b6000610dc5601683610cd0565b9150610dd082610d8f565b602082019050919050565b60006020820190508181036000830152610df481610db8565b9050919050565b6000606082019050610e106000830186610c17565b610e1d6020830185610c17565b610e2a6040830184610ab2565b949350505050565b610e3b81610b4c565b8114610e4657600080fd5b50565b600081519050610e5881610e32565b92915050565b600060208284031215610e7457610e73610adc565b5b6000610e8284828501610e49565b91505092915050565b7f43616c6c6572206973206e6f74206f776e657200000000000000000000000000600082015250565b6000610ec1601383610cd0565b9150610ecc82610e8b565b602082019050919050565b60006020820190508181036000830152610ef081610eb4565b9050919050565b6000610f0282610aa8565b9150610f0d83610aa8565b9250827fffffffffffffffffffffffffffffffffffffffffffffffffffffffffffffffff03821115610f4257610f41610c70565b5b82820190509291505056fea2646970667358221220fa2ddf383022b1ea3c48f55602ac2f16b4fc5a5c41b2a5af38c7d075d33aa44e64736f6c634300080f0033",
  "immutableReferences": {},
  "source": "// SPDX-License-Identifier: MIT\r\npragma solidity ^0.8.4;\r\n\r\nimport \"./ReCryptoToken.sol\";\r\nimport \"./UsdcToken.sol\";\r\n\r\ncontract RecryUsdcSwap {\r\n    address public owner;\r\n    ReCryptoToken public recry;\r\n    UsdcToken public usdc;\r\n\r\n    uint public maxSupply    = 500000000000000000000000; //number of toklen available 500000\r\n    uint public protocolGain = 0; //protocol gain\r\n\r\n    address[] public buyers;\r\n    mapping(address => bool) public hasPurchased;\r\n    mapping(address => bool) public isPurchased;\r\n\r\n    constructor(ReCryptoToken _recry, UsdcToken _usdc) {\r\n        recry = _recry;\r\n        usdc = _usdc;\r\n        owner = msg.sender;\r\n    }\r\n    modifier isOwner() {\r\n        require(msg.sender == owner, \"Caller is not owner\");\r\n        _;\r\n    }\r\n\r\n    function addSupply(uint _amount) public isOwner {\r\n        maxSupply = maxSupply + _amount;\r\n    }\r\n\r\n    function changeSupply(uint _amount) public isOwner {\r\n        maxSupply = _amount;\r\n    }\r\n\r\n    function getRecryValue() public view returns(uint _value)\r\n    {\r\n           return  _value = ((maxSupply+protocolGain)/maxSupply);\r\n    }\r\n\r\n    function getMaxSupply() public view returns(uint _value)\r\n    {\r\n            return maxSupply;\r\n    }\r\n\r\n    function getMaxAvailable() public view returns(uint _value)\r\n    {\r\n            return recry.balanceOf(address(this));\r\n    }\r\n\r\n    function getProtocolGain() public view returns(uint _value)\r\n    {\r\n            return protocolGain;\r\n    }\r\n\r\n    function buyRecryWithUsdc(uint _amount) public {\r\n        // Require amount greater than 0\r\n        uint qtyToBuy = _amount / getRecryValue();\r\n        require(_amount > 0, \"amount cannot be 0\");\r\n        require(recry.balanceOf(address(this)) >= qtyToBuy , \"no enough recry to buy\");\r\n\r\n        // Trasnfer usdc to the owner not in the protocol\r\n        require(usdc.transferFrom(msg.sender, owner, _amount));\r\n        // Trasnfer recry to the buyer\r\n        recry.transferFrom(address(this), msg.sender, _amount);        \r\n\r\n        // Add user to buyers array *only* if they haven't buyed already\r\n        if(!hasPurchased[msg.sender]) {\r\n            buyers.push(msg.sender);\r\n        }\r\n\r\n        // Update buying status\r\n        isPurchased[msg.sender] = true;\r\n        hasPurchased[msg.sender] = true;\r\n    }\r\n\r\n}\r\n",
  "sourcePath": "C:\\Users\\matteo\\Documents\\GitHub\\ReCrypto\\src\\contracts\\RecryUsdcSwap.sol",
  "compiler": {
    "name": "solc",
    "version": "0.8.15+commit.e14f2714.Emscripten.clang"
  },
  "schemaVersion": "3.4.7",
  "updatedAt": "2022-06-18T06:47:24.678Z",
  "networkType": "ethereum",
  "devdoc": {
    "kind": "dev",
    "methods": {},
    "version": 1
  },
  "userdoc": {
    "kind": "user",
    "methods": {},
    "version": 1
  }
}