{
  "contractName": "RecryUsdcSwap",
  "abi": [
    {
      "inputs": [
        {
          "internalType": "contract ReCryptoToken",
          "name": "_recry",
          "type": "address"
        },
        {
          "internalType": "contract UsdcToken",
          "name": "_usdc",
          "type": "address"
        }
      ],
      "stateMutability": "nonpayable",
      "type": "constructor"
    },
    {
      "inputs": [],
      "name": "maxSupply",
      "outputs": [
        {
          "internalType": "uint256",
          "name": "",
          "type": "uint256"
        }
      ],
      "stateMutability": "view",
      "type": "function",
      "constant": true
    },
    {
      "inputs": [],
      "name": "owner",
      "outputs": [
        {
          "internalType": "address",
          "name": "",
          "type": "address"
        }
      ],
      "stateMutability": "view",
      "type": "function",
      "constant": true
    },
    {
      "inputs": [],
      "name": "protocolGain",
      "outputs": [
        {
          "internalType": "uint256",
          "name": "",
          "type": "uint256"
        }
      ],
      "stateMutability": "view",
      "type": "function",
      "constant": true
    },
    {
      "inputs": [],
      "name": "recry",
      "outputs": [
        {
          "internalType": "contract ReCryptoToken",
          "name": "",
          "type": "address"
        }
      ],
      "stateMutability": "view",
      "type": "function",
      "constant": true
    },
    {
      "inputs": [],
      "name": "usdc",
      "outputs": [
        {
          "internalType": "contract UsdcToken",
          "name": "",
          "type": "address"
        }
      ],
      "stateMutability": "view",
      "type": "function",
      "constant": true
    },
    {
      "inputs": [
        {
          "internalType": "uint256",
          "name": "_amount",
          "type": "uint256"
        }
      ],
      "name": "addRecrySupply",
      "outputs": [],
      "stateMutability": "nonpayable",
      "type": "function"
    },
    {
      "inputs": [
        {
          "internalType": "uint256",
          "name": "_amount",
          "type": "uint256"
        }
      ],
      "name": "changeRecrySupply",
      "outputs": [],
      "stateMutability": "nonpayable",
      "type": "function"
    },
    {
      "inputs": [
        {
          "internalType": "uint256",
          "name": "_amount",
          "type": "uint256"
        }
      ],
      "name": "addProtocolGain",
      "outputs": [],
      "stateMutability": "nonpayable",
      "type": "function"
    },
    {
      "inputs": [
        {
          "internalType": "uint256",
          "name": "_amount",
          "type": "uint256"
        }
      ],
      "name": "changeProtocolGain",
      "outputs": [],
      "stateMutability": "nonpayable",
      "type": "function"
    },
    {
      "inputs": [],
      "name": "getRecryValue",
      "outputs": [
        {
          "internalType": "uint256",
          "name": "_value",
          "type": "uint256"
        }
      ],
      "stateMutability": "view",
      "type": "function",
      "constant": true
    },
    {
      "inputs": [],
      "name": "getRecryPrice",
      "outputs": [
        {
          "internalType": "uint256",
          "name": "_value",
          "type": "uint256"
        }
      ],
      "stateMutability": "view",
      "type": "function",
      "constant": true
    },
    {
      "inputs": [],
      "name": "getRecryTotalValue",
      "outputs": [
        {
          "internalType": "uint256",
          "name": "_value",
          "type": "uint256"
        }
      ],
      "stateMutability": "view",
      "type": "function",
      "constant": true
    },
    {
      "inputs": [],
      "name": "getRecryMaxSupply",
      "outputs": [
        {
          "internalType": "uint256",
          "name": "_value",
          "type": "uint256"
        }
      ],
      "stateMutability": "view",
      "type": "function",
      "constant": true
    },
    {
      "inputs": [],
      "name": "getRecryMaxAvailable",
      "outputs": [
        {
          "internalType": "uint256",
          "name": "_value",
          "type": "uint256"
        }
      ],
      "stateMutability": "view",
      "type": "function",
      "constant": true
    },
    {
      "inputs": [],
      "name": "getUsdcMaxAvailable",
      "outputs": [
        {
          "internalType": "uint256",
          "name": "_value",
          "type": "uint256"
        }
      ],
      "stateMutability": "view",
      "type": "function",
      "constant": true
    },
    {
      "inputs": [],
      "name": "getProtocolGain",
      "outputs": [
        {
          "internalType": "uint256",
          "name": "_value",
          "type": "uint256"
        }
      ],
      "stateMutability": "view",
      "type": "function",
      "constant": true
    },
    {
      "inputs": [
        {
          "internalType": "uint256",
          "name": "_amount",
          "type": "uint256"
        }
      ],
      "name": "buyRecryWithUsdc",
      "outputs": [],
      "stateMutability": "nonpayable",
      "type": "function"
    },
    {
      "inputs": [
        {
          "internalType": "uint256",
          "name": "_amount",
          "type": "uint256"
        }
      ],
      "name": "sellRecryForUsdc",
      "outputs": [],
      "stateMutability": "nonpayable",
      "type": "function"
    },
    {
      "inputs": [
        {
          "internalType": "uint256",
          "name": "_amount",
          "type": "uint256"
        }
      ],
      "name": "withdrawUsdc",
      "outputs": [],
      "stateMutability": "nonpayable",
      "type": "function"
    }
  ],
  "bytecode": "0x60806040526969e10de76676d080000060035560006004553480156200002457600080fd5b5060405162001db338038062001db383398181016040528101906200004a9190620001d7565b81600160006101000a81548173ffffffffffffffffffffffffffffffffffffffff021916908373ffffffffffffffffffffffffffffffffffffffff16021790555080600260006101000a81548173ffffffffffffffffffffffffffffffffffffffff021916908373ffffffffffffffffffffffffffffffffffffffff160217905550336000806101000a81548173ffffffffffffffffffffffffffffffffffffffff021916908373ffffffffffffffffffffffffffffffffffffffff16021790555050506200021e565b600080fd5b600073ffffffffffffffffffffffffffffffffffffffff82169050919050565b6000620001468262000119565b9050919050565b60006200015a8262000139565b9050919050565b6200016c816200014d565b81146200017857600080fd5b50565b6000815190506200018c8162000161565b92915050565b60006200019f8262000139565b9050919050565b620001b18162000192565b8114620001bd57600080fd5b50565b600081519050620001d181620001a6565b92915050565b60008060408385031215620001f157620001f062000114565b5b600062000201858286016200017b565b92505060206200021485828601620001c0565b9150509250929050565b611b85806200022e6000396000f3fe608060405234801561001057600080fd5b50600436106101215760003560e01c80635b06dece116100ad578063d60a904e11610071578063d60a904e146102be578063ddf5b66c146102dc578063e37398d8146102fa578063ecb9417c14610316578063f1a376b61461033457610121565b80635b06dece1461022a5780637741eb92146102465780638da5cb5b14610264578063b42ca29114610282578063d5abeb01146102a057610121565b80632bd160bc116100f45780632bd160bc1461019a57806333b3c3f7146101b85780633e413bee146101d45780634bd2f33d146101f25780634cd60eb31461020e57610121565b80630b468779146101265780630b6e87f714610144578063112ed6e2146101625780631ded4ad91461017e575b600080fd5b61012e610352565b60405161013b91906114d4565b60405180910390f35b61014c610378565b6040516101599190611508565b60405180910390f35b61017c60048036038101906101779190611554565b61037e565b005b61019860048036038101906101939190611554565b610416565b005b6101a26104bb565b6040516101af9190611508565b60405180910390f35b6101d260048036038101906101cd9190611554565b61055e565b005b6101dc610a6b565b6040516101e991906115a2565b60405180910390f35b61020c60048036038101906102079190611554565b610a91565b005b61022860048036038101906102239190611554565b610b29565b005b610244600480360381019061023f9190611554565b610d57565b005b61024e610f90565b60405161025b9190611508565b60405180910390f35b61026c610f9a565b60405161027991906115de565b60405180910390f35b61028a610fbe565b6040516102979190611508565b60405180910390f35b6102a8611061565b6040516102b59190611508565b60405180910390f35b6102c6611067565b6040516102d39190611508565b60405180910390f35b6102e461111c565b6040516102f19190611508565b60405180910390f35b610314600480360381019061030f9190611554565b611140565b005b61031e611414565b60405161032b9190611508565b60405180910390f35b61033c61141e565b6040516103499190611508565b60405180910390f35b600160009054906101000a900473ffffffffffffffffffffffffffffffffffffffff1681565b60045481565b60008054906101000a900473ffffffffffffffffffffffffffffffffffffffff1673ffffffffffffffffffffffffffffffffffffffff163373ffffffffffffffffffffffffffffffffffffffff161461040c576040517f08c379a000000000000000000000000000000000000000000000000000000000815260040161040390611656565b60405180910390fd5b8060048190555050565b60008054906101000a900473ffffffffffffffffffffffffffffffffffffffff1673ffffffffffffffffffffffffffffffffffffffff163373ffffffffffffffffffffffffffffffffffffffff16146104a4576040517f08c379a000000000000000000000000000000000000000000000000000000000815260040161049b90611656565b60405180910390fd5b806004546104b291906116a5565b60048190555050565b6000600160009054906101000a900473ffffffffffffffffffffffffffffffffffffffff1673ffffffffffffffffffffffffffffffffffffffff166370a08231306040518263ffffffff1660e01b815260040161051891906115de565b602060405180830381865afa158015610535573d6000803e3d6000fd5b505050506040513d601f19601f820116820180604052508101906105599190611710565b905090565b600061056861111c565b82610573919061176c565b9050600082116105b8576040517f08c379a00000000000000000000000000000000000000000000000000000000081526004016105af906117e9565b60405180910390fd5b80600160009054906101000a900473ffffffffffffffffffffffffffffffffffffffff1673ffffffffffffffffffffffffffffffffffffffff166370a08231306040518263ffffffff1660e01b815260040161061491906115de565b602060405180830381865afa158015610631573d6000803e3d6000fd5b505050506040513d601f19601f820116820180604052508101906106559190611710565b1015610696576040517f08c379a000000000000000000000000000000000000000000000000000000000815260040161068d90611855565b60405180910390fd5b60006106a0610fbe565b6004546106ad9190611875565b905060008111156108f7578083111561084657600260009054906101000a900473ffffffffffffffffffffffffffffffffffffffff1673ffffffffffffffffffffffffffffffffffffffff166323b872dd3330846040518463ffffffff1660e01b815260040161071f939291906118a9565b6020604051808303816000875af115801561073e573d6000803e3d6000fd5b505050506040513d601f19601f820116820180604052508101906107629190611918565b61076b57600080fd5b600260009054906101000a900473ffffffffffffffffffffffffffffffffffffffff1673ffffffffffffffffffffffffffffffffffffffff166323b872dd3360008054906101000a900473ffffffffffffffffffffffffffffffffffffffff1684876107d79190611875565b6040518463ffffffff1660e01b81526004016107f5939291906118a9565b6020604051808303816000875af1158015610814573d6000803e3d6000fd5b505050506040513d601f19601f820116820180604052508101906108389190611918565b61084157600080fd5b6108f2565b600260009054906101000a900473ffffffffffffffffffffffffffffffffffffffff1673ffffffffffffffffffffffffffffffffffffffff166323b872dd3330866040518463ffffffff1660e01b81526004016108a5939291906118a9565b6020604051808303816000875af11580156108c4573d6000803e3d6000fd5b505050506040513d601f19601f820116820180604052508101906108e89190611918565b6108f157600080fd5b5b6109c3565b600260009054906101000a900473ffffffffffffffffffffffffffffffffffffffff1673ffffffffffffffffffffffffffffffffffffffff166323b872dd3360008054906101000a900473ffffffffffffffffffffffffffffffffffffffff16866040518463ffffffff1660e01b8152600401610976939291906118a9565b6020604051808303816000875af1158015610995573d6000803e3d6000fd5b505050506040513d601f19601f820116820180604052508101906109b99190611918565b6109c257600080fd5b5b600160009054906101000a900473ffffffffffffffffffffffffffffffffffffffff1673ffffffffffffffffffffffffffffffffffffffff166323b872dd3033866040518463ffffffff1660e01b8152600401610a22939291906118a9565b6020604051808303816000875af1158015610a41573d6000803e3d6000fd5b505050506040513d601f19601f82011682018060405250810190610a659190611918565b50505050565b600260009054906101000a900473ffffffffffffffffffffffffffffffffffffffff1681565b60008054906101000a900473ffffffffffffffffffffffffffffffffffffffff1673ffffffffffffffffffffffffffffffffffffffff163373ffffffffffffffffffffffffffffffffffffffff1614610b1f576040517f08c379a0000000000000000000000000000000000000000000000000000000008152600401610b1690611656565b60405180910390fd5b8060038190555050565b60008054906101000a900473ffffffffffffffffffffffffffffffffffffffff1673ffffffffffffffffffffffffffffffffffffffff163373ffffffffffffffffffffffffffffffffffffffff1614610bb7576040517f08c379a0000000000000000000000000000000000000000000000000000000008152600401610bae90611656565b60405180910390fd5b80600160009054906101000a900473ffffffffffffffffffffffffffffffffffffffff1673ffffffffffffffffffffffffffffffffffffffff166370a08231336040518263ffffffff1660e01b8152600401610c1391906115de565b602060405180830381865afa158015610c30573d6000803e3d6000fd5b505050506040513d601f19601f82011682018060405250810190610c549190611710565b1015610c95576040517f08c379a0000000000000000000000000000000000000000000000000000000008152600401610c8c90611991565b60405180910390fd5b600160009054906101000a900473ffffffffffffffffffffffffffffffffffffffff1673ffffffffffffffffffffffffffffffffffffffff166323b872dd3330846040518463ffffffff1660e01b8152600401610cf4939291906118a9565b6020604051808303816000875af1158015610d13573d6000803e3d6000fd5b505050506040513d601f19601f82011682018060405250810190610d379190611918565b610d4057600080fd5b80600354610d4e91906116a5565b60038190555050565b60008054906101000a900473ffffffffffffffffffffffffffffffffffffffff1673ffffffffffffffffffffffffffffffffffffffff163373ffffffffffffffffffffffffffffffffffffffff1614610de5576040517f08c379a0000000000000000000000000000000000000000000000000000000008152600401610ddc90611656565b60405180910390fd5b80600260009054906101000a900473ffffffffffffffffffffffffffffffffffffffff1673ffffffffffffffffffffffffffffffffffffffff166370a08231306040518263ffffffff1660e01b8152600401610e4191906115de565b602060405180830381865afa158015610e5e573d6000803e3d6000fd5b505050506040513d601f19601f82011682018060405250810190610e829190611710565b11610ec2576040517f08c379a0000000000000000000000000000000000000000000000000000000008152600401610eb9906119fd565b60405180910390fd5b600260009054906101000a900473ffffffffffffffffffffffffffffffffffffffff1673ffffffffffffffffffffffffffffffffffffffff166323b872dd3060008054906101000a900473ffffffffffffffffffffffffffffffffffffffff16846040518463ffffffff1660e01b8152600401610f41939291906118a9565b6020604051808303816000875af1158015610f60573d6000803e3d6000fd5b505050506040513d601f19601f82011682018060405250810190610f849190611918565b610f8d57600080fd5b50565b6000600354905090565b60008054906101000a900473ffffffffffffffffffffffffffffffffffffffff1681565b6000600260009054906101000a900473ffffffffffffffffffffffffffffffffffffffff1673ffffffffffffffffffffffffffffffffffffffff166370a08231306040518263ffffffff1660e01b815260040161101b91906115de565b602060405180830381865afa158015611038573d6000803e3d6000fd5b505050506040513d601f19601f8201168201806040525081019061105c9190611710565b905090565b60035481565b6000600160009054906101000a900473ffffffffffffffffffffffffffffffffffffffff1673ffffffffffffffffffffffffffffffffffffffff166370a08231336040518263ffffffff1660e01b81526004016110c491906115de565b602060405180830381865afa1580156110e1573d6000803e3d6000fd5b505050506040513d601f19601f820116820180604052508101906111059190611710565b61110d61111c565b6111179190611a1d565b905090565b600060035460045460035461113191906116a5565b61113b919061176c565b905090565b600061114a61111c565b826111559190611a1d565b90506000821161119a576040517f08c379a0000000000000000000000000000000000000000000000000000000008152600401611191906117e9565b60405180910390fd5b81600160009054906101000a900473ffffffffffffffffffffffffffffffffffffffff1673ffffffffffffffffffffffffffffffffffffffff166370a08231336040518263ffffffff1660e01b81526004016111f691906115de565b602060405180830381865afa158015611213573d6000803e3d6000fd5b505050506040513d601f19601f820116820180604052508101906112379190611710565b1015611278576040517f08c379a000000000000000000000000000000000000000000000000000000000815260040161126f90611ac3565b60405180910390fd5b80611281610fbe565b10156112c2576040517f08c379a00000000000000000000000000000000000000000000000000000000081526004016112b990611b2f565b60405180910390fd5b600160009054906101000a900473ffffffffffffffffffffffffffffffffffffffff1673ffffffffffffffffffffffffffffffffffffffff166323b872dd3330856040518463ffffffff1660e01b8152600401611321939291906118a9565b6020604051808303816000875af1158015611340573d6000803e3d6000fd5b505050506040513d601f19601f820116820180604052508101906113649190611918565b61136d57600080fd5b600260009054906101000a900473ffffffffffffffffffffffffffffffffffffffff1673ffffffffffffffffffffffffffffffffffffffff166323b872dd3033846040518463ffffffff1660e01b81526004016113cc939291906118a9565b6020604051808303816000875af11580156113eb573d6000803e3d6000fd5b505050506040513d601f19601f8201168201806040525081019061140f9190611918565b505050565b6000600454905090565b6000670de0b6b3a764000060035460045460035461143c91906116a5565b611446919061176c565b6114509190611a1d565b905090565b600073ffffffffffffffffffffffffffffffffffffffff82169050919050565b6000819050919050565b600061149a61149561149084611455565b611475565b611455565b9050919050565b60006114ac8261147f565b9050919050565b60006114be826114a1565b9050919050565b6114ce816114b3565b82525050565b60006020820190506114e960008301846114c5565b92915050565b6000819050919050565b611502816114ef565b82525050565b600060208201905061151d60008301846114f9565b92915050565b600080fd5b611531816114ef565b811461153c57600080fd5b50565b60008135905061154e81611528565b92915050565b60006020828403121561156a57611569611523565b5b60006115788482850161153f565b91505092915050565b600061158c826114a1565b9050919050565b61159c81611581565b82525050565b60006020820190506115b76000830184611593565b92915050565b60006115c882611455565b9050919050565b6115d8816115bd565b82525050565b60006020820190506115f360008301846115cf565b92915050565b600082825260208201905092915050565b7f43616c6c6572206973206e6f74206f776e657200000000000000000000000000600082015250565b60006116406013836115f9565b915061164b8261160a565b602082019050919050565b6000602082019050818103600083015261166f81611633565b9050919050565b7f4e487b7100000000000000000000000000000000000000000000000000000000600052601160045260246000fd5b60006116b0826114ef565b91506116bb836114ef565b9250827fffffffffffffffffffffffffffffffffffffffffffffffffffffffffffffffff038211156116f0576116ef611676565b5b828201905092915050565b60008151905061170a81611528565b92915050565b60006020828403121561172657611725611523565b5b6000611734848285016116fb565b91505092915050565b7f4e487b7100000000000000000000000000000000000000000000000000000000600052601260045260246000fd5b6000611777826114ef565b9150611782836114ef565b9250826117925761179161173d565b5b828204905092915050565b7f616d6f756e742063616e6e6f7420626520300000000000000000000000000000600082015250565b60006117d36012836115f9565b91506117de8261179d565b602082019050919050565b60006020820190508181036000830152611802816117c6565b9050919050565b7f6e6f20656e6f75676820726563727920746f2062757900000000000000000000600082015250565b600061183f6016836115f9565b915061184a82611809565b602082019050919050565b6000602082019050818103600083015261186e81611832565b9050919050565b6000611880826114ef565b915061188b836114ef565b92508282101561189e5761189d611676565b5b828203905092915050565b60006060820190506118be60008301866115cf565b6118cb60208301856115cf565b6118d860408301846114f9565b949350505050565b60008115159050919050565b6118f5816118e0565b811461190057600080fd5b50565b600081519050611912816118ec565b92915050565b60006020828403121561192e5761192d611523565b5b600061193c84828501611903565b91505092915050565b7f6e6f20656e6f75676820726563727920746f2061646400000000000000000000600082015250565b600061197b6016836115f9565b915061198682611945565b602082019050919050565b600060208201905081810360008301526119aa8161196e565b9050919050565b7f6e6f20656e6f756768207573646320746f207769746864726177000000000000600082015250565b60006119e7601a836115f9565b91506119f2826119b1565b602082019050919050565b60006020820190508181036000830152611a16816119da565b9050919050565b6000611a28826114ef565b9150611a33836114ef565b9250817fffffffffffffffffffffffffffffffffffffffffffffffffffffffffffffffff0483118215151615611a6c57611a6b611676565b5b828202905092915050565b7f6e6f20656e6f75676820726563727920746f2073656c6c000000000000000000600082015250565b6000611aad6017836115f9565b9150611ab882611a77565b602082019050919050565b60006020820190508181036000830152611adc81611aa0565b9050919050565b7f6e6f20656e6f756768207573646320746f207377617000000000000000000000600082015250565b6000611b196016836115f9565b9150611b2482611ae3565b602082019050919050565b60006020820190508181036000830152611b4881611b0c565b905091905056fea2646970667358221220129e348a2f38d55575d09eb82e0e1b1658376e8d644c021913fbfd8c6b9a602c64736f6c634300080f0033",
  "immutableReferences": {},
  "source": "// SPDX-License-Identifier: MIT\r\npragma solidity ^0.8.4;\r\n\r\nimport \"./ReCryptoToken.sol\";\r\nimport \"./UsdcToken.sol\";\r\n\r\ncontract RecryUsdcSwap {\r\n    address public owner;\r\n    ReCryptoToken public recry;\r\n    UsdcToken public usdc;\r\n\r\n    uint public maxSupply    = 500000000000000000000000; //number of toklen available 500000\r\n    uint public protocolGain = 0; //protocol gain\r\n\r\n    constructor(ReCryptoToken _recry, UsdcToken _usdc) {\r\n        recry = _recry;\r\n        usdc = _usdc;\r\n        owner = msg.sender;\r\n    }\r\n    modifier isOwner() {\r\n        require(msg.sender == owner, \"Caller is not owner\");\r\n        _;\r\n    }\r\n\r\n    function addRecrySupply(uint _amount) public isOwner {\r\n        require(recry.balanceOf(msg.sender) >= _amount , \"no enough recry to add\");\r\n        require(recry.transferFrom(msg.sender, address(this), _amount));\r\n        maxSupply = maxSupply + _amount;\r\n    }\r\n\r\n    function changeRecrySupply(uint _amount) public isOwner {\r\n        maxSupply = _amount;\r\n    }\r\n\r\n    function addProtocolGain(uint _amount) public isOwner {\r\n        protocolGain = protocolGain + _amount;\r\n    }\r\n\r\n    function changeProtocolGain(uint _amount) public isOwner {\r\n         protocolGain = _amount;\r\n    }\r\n\r\n    function getRecryValue() public view returns(uint _value)\r\n    {\r\n           return  _value = ((maxSupply+protocolGain)/maxSupply);\r\n    }\r\n    function getRecryPrice() public view returns(uint _value)\r\n    {\r\n           return  _value = ((maxSupply+protocolGain)/maxSupply)*1000000000000000000;\r\n    }\r\n    function getRecryTotalValue() public view returns(uint _value)\r\n    {\r\n           return  _value = getRecryValue() * recry.balanceOf(msg.sender);\r\n    }\r\n\r\n    function getRecryMaxSupply() public view returns(uint _value)\r\n    {\r\n            return maxSupply;\r\n    }\r\n\r\n    function getRecryMaxAvailable() public view returns(uint _value)\r\n    {\r\n            return recry.balanceOf(address(this));\r\n    }\r\n    function getUsdcMaxAvailable() public view returns(uint _value)\r\n    {\r\n            return usdc.balanceOf(address(this));\r\n    }\r\n\r\n    function getProtocolGain() public view returns(uint _value)\r\n    {\r\n            return protocolGain;\r\n    }\r\n\r\n    function buyRecryWithUsdc(uint _amount) public {\r\n        // Require amount greater than 0\r\n        uint qtyToBuy = _amount / getRecryValue();\r\n        require(_amount > 0, \"amount cannot be 0\");\r\n        require(recry.balanceOf(address(this)) >= qtyToBuy , \"no enough recry to buy\");\r\n        uint maxRecharge = protocolGain - getUsdcMaxAvailable();\r\n        if (maxRecharge > 0)\r\n        {\r\n               // Trasnfer some usdc to refill the protocol  not in the protocol\r\n               if (_amount > maxRecharge)\r\n               {\r\n                     require(usdc.transferFrom(msg.sender, address(this), maxRecharge)); \r\n                     require(usdc.transferFrom(msg.sender, owner, _amount-maxRecharge)); \r\n               }\r\n               else\r\n               {\r\n                    require(usdc.transferFrom(msg.sender, address(this), _amount)); \r\n               }\r\n        }\r\n        else\r\n        {\r\n             // Trasnfer usdc to the owner not in the protocol\r\n               require(usdc.transferFrom(msg.sender, owner, _amount)); \r\n        }\r\n        \r\n        // Trasnfer recry to the buyer\r\n        recry.transferFrom(address(this), msg.sender, _amount);        \r\n    }\r\n\r\n    function sellRecryForUsdc(uint _amount) public {\r\n        // Require amount greater than 0\r\n        uint qtyToSell = _amount * getRecryValue();\r\n        require(_amount > 0, \"amount cannot be 0\");\r\n        require(recry.balanceOf(msg.sender) >= _amount , \"no enough recry to sell\");\r\n        require(getUsdcMaxAvailable() >= qtyToSell , \"no enough usdc to swap\");\r\n\r\n        // Trasnfer usdc to the owner not in the protocol\r\n        require(recry.transferFrom(msg.sender, address(this), _amount));\r\n        // Trasnfer recry to the buyer\r\n        usdc.transferFrom(address(this), msg.sender, qtyToSell);        \r\n\r\n    }\r\n\r\n    function withdrawUsdc(uint _amount) public isOwner{\r\n        require(usdc.balanceOf(address(this)) > _amount, \"no enough usdc to withdraw\");\r\n        require(usdc.transferFrom(address(this), owner, _amount));\r\n    }\r\n\r\n}\r\n",
  "sourcePath": "C:\\Users\\matteo\\Documents\\GitHub\\ReCrypto\\src\\contracts\\RecryUsdcSwap.sol",
  "compiler": {
    "name": "solc",
    "version": "0.8.15+commit.e14f2714.Emscripten.clang"
  },
  "schemaVersion": "3.4.7",
  "updatedAt": "2022-06-25T08:26:30.370Z",
  "networkType": "ethereum",
  "devdoc": {
    "kind": "dev",
    "methods": {},
    "version": 1
  },
  "userdoc": {
    "kind": "user",
    "methods": {},
    "version": 1
  }
}