{
  "contractName": "RecryUsdcSwap",
  "abi": [
    {
      "inputs": [
        {
          "internalType": "contract ReCryptoToken",
          "name": "_recry",
          "type": "address"
        },
        {
          "internalType": "contract UsdcToken",
          "name": "_usdc",
          "type": "address"
        }
      ],
      "stateMutability": "nonpayable",
      "type": "constructor"
    },
    {
      "inputs": [
        {
          "internalType": "address",
          "name": "",
          "type": "address"
        }
      ],
      "name": "buyBalance",
      "outputs": [
        {
          "internalType": "uint256",
          "name": "",
          "type": "uint256"
        }
      ],
      "stateMutability": "view",
      "type": "function"
    },
    {
      "inputs": [
        {
          "internalType": "uint256",
          "name": "",
          "type": "uint256"
        }
      ],
      "name": "buyers",
      "outputs": [
        {
          "internalType": "address",
          "name": "",
          "type": "address"
        }
      ],
      "stateMutability": "view",
      "type": "function"
    },
    {
      "inputs": [
        {
          "internalType": "address",
          "name": "",
          "type": "address"
        }
      ],
      "name": "hasPurchased",
      "outputs": [
        {
          "internalType": "bool",
          "name": "",
          "type": "bool"
        }
      ],
      "stateMutability": "view",
      "type": "function"
    },
    {
      "inputs": [
        {
          "internalType": "address",
          "name": "",
          "type": "address"
        }
      ],
      "name": "isPurchased",
      "outputs": [
        {
          "internalType": "bool",
          "name": "",
          "type": "bool"
        }
      ],
      "stateMutability": "view",
      "type": "function"
    },
    {
      "inputs": [],
      "name": "maxSupply",
      "outputs": [
        {
          "internalType": "uint256",
          "name": "",
          "type": "uint256"
        }
      ],
      "stateMutability": "view",
      "type": "function"
    },
    {
      "inputs": [],
      "name": "owner",
      "outputs": [
        {
          "internalType": "address",
          "name": "",
          "type": "address"
        }
      ],
      "stateMutability": "view",
      "type": "function"
    },
    {
      "inputs": [],
      "name": "protocolGain",
      "outputs": [
        {
          "internalType": "uint256",
          "name": "",
          "type": "uint256"
        }
      ],
      "stateMutability": "view",
      "type": "function"
    },
    {
      "inputs": [],
      "name": "recry",
      "outputs": [
        {
          "internalType": "contract ReCryptoToken",
          "name": "",
          "type": "address"
        }
      ],
      "stateMutability": "view",
      "type": "function"
    },
    {
      "inputs": [],
      "name": "usdc",
      "outputs": [
        {
          "internalType": "contract UsdcToken",
          "name": "",
          "type": "address"
        }
      ],
      "stateMutability": "view",
      "type": "function"
    },
    {
      "inputs": [
        {
          "internalType": "uint256",
          "name": "_amount",
          "type": "uint256"
        }
      ],
      "name": "addSupply",
      "outputs": [],
      "stateMutability": "nonpayable",
      "type": "function"
    },
    {
      "inputs": [
        {
          "internalType": "uint256",
          "name": "_amount",
          "type": "uint256"
        }
      ],
      "name": "changeSupply",
      "outputs": [],
      "stateMutability": "nonpayable",
      "type": "function"
    },
    {
      "inputs": [],
      "name": "getRecryValue",
      "outputs": [
        {
          "internalType": "uint256",
          "name": "_value",
          "type": "uint256"
        }
      ],
      "stateMutability": "view",
      "type": "function"
    },
    {
      "inputs": [],
      "name": "getMaxSupply",
      "outputs": [
        {
          "internalType": "uint256",
          "name": "_value",
          "type": "uint256"
        }
      ],
      "stateMutability": "view",
      "type": "function"
    },
    {
      "inputs": [],
      "name": "getProtocolGain",
      "outputs": [
        {
          "internalType": "uint256",
          "name": "_value",
          "type": "uint256"
        }
      ],
      "stateMutability": "view",
      "type": "function"
    },
    {
      "inputs": [
        {
          "internalType": "uint256",
          "name": "_amount",
          "type": "uint256"
        }
      ],
      "name": "buyRecryWithUsdc",
      "outputs": [],
      "stateMutability": "nonpayable",
      "type": "function"
    }
  ],
  "bytecode": "0x60806040526969e10de76676d080000060035560006004553480156200002457600080fd5b50604051620010e2380380620010e283398181016040528101906200004a9190620001d7565b81600160006101000a81548173ffffffffffffffffffffffffffffffffffffffff021916908373ffffffffffffffffffffffffffffffffffffffff16021790555080600260006101000a81548173ffffffffffffffffffffffffffffffffffffffff021916908373ffffffffffffffffffffffffffffffffffffffff160217905550336000806101000a81548173ffffffffffffffffffffffffffffffffffffffff021916908373ffffffffffffffffffffffffffffffffffffffff16021790555050506200021e565b600080fd5b600073ffffffffffffffffffffffffffffffffffffffff82169050919050565b6000620001468262000119565b9050919050565b60006200015a8262000139565b9050919050565b6200016c816200014d565b81146200017857600080fd5b50565b6000815190506200018c8162000161565b92915050565b60006200019f8262000139565b9050919050565b620001b18162000192565b8114620001bd57600080fd5b50565b600081519050620001d181620001a6565b92915050565b60008060408385031215620001f157620001f062000114565b5b600062000201858286016200017b565b92505060206200021485828601620001c0565b9150509250929050565b610eb4806200022e6000396000f3fe608060405234801561001057600080fd5b50600436106100f55760003560e01c80634c0f38c211610097578063d5abeb0111610066578063d5abeb0114610274578063ddf5b66c14610292578063ecb9417c146102b0578063f2aa8218146102ce576100f5565b80634c0f38c2146101d8578063576534db146101f65780638da5cb5b1461022657806390118fb414610244576100f5565b806333b3c3f7116100d357806333b3c3f71461016657806339a7919f146101825780633e413bee1461019e57806340753a76146101bc576100f5565b80630b468779146100fa5780630b6e87f71461011857806316236fda14610136575b600080fd5b6101026102fe565b60405161010f9190610a00565b60405180910390f35b610120610324565b60405161012d9190610a34565b60405180910390f35b610150600480360381019061014b9190610a92565b61032a565b60405161015d9190610ada565b60405180910390f35b610180600480360381019061017b9190610b21565b61034a565b005b61019c60048036038101906101979190610b21565b610745565b005b6101a66107dd565b6040516101b39190610b6f565b60405180910390f35b6101d660048036038101906101d19190610b21565b610803565b005b6101e06108a8565b6040516101ed9190610a34565b60405180910390f35b610210600480360381019061020b9190610a92565b6108b2565b60405161021d9190610a34565b60405180910390f35b61022e6108ca565b60405161023b9190610b99565b60405180910390f35b61025e60048036038101906102599190610a92565b6108ee565b60405161026b9190610ada565b60405180910390f35b61027c61090e565b6040516102899190610a34565b60405180910390f35b61029a610914565b6040516102a79190610a34565b60405180910390f35b6102b8610938565b6040516102c59190610a34565b60405180910390f35b6102e860048036038101906102e39190610b21565b610942565b6040516102f59190610b99565b60405180910390f35b600160009054906101000a900473ffffffffffffffffffffffffffffffffffffffff1681565b60045481565b60086020528060005260406000206000915054906101000a900460ff1681565b6000610354610914565b8261035f9190610c12565b9050600082116103a4576040517f08c379a000000000000000000000000000000000000000000000000000000000815260040161039b90610ca0565b60405180910390fd5b80600354106103e8576040517f08c379a00000000000000000000000000000000000000000000000000000000081526004016103df90610d0c565b60405180910390fd5b600260009054906101000a900473ffffffffffffffffffffffffffffffffffffffff1673ffffffffffffffffffffffffffffffffffffffff166323b872dd3360008054906101000a900473ffffffffffffffffffffffffffffffffffffffff16856040518463ffffffff1660e01b815260040161046793929190610d2c565b6020604051808303816000875af1158015610486573d6000803e3d6000fd5b505050506040513d601f19601f820116820180604052508101906104aa9190610d8f565b50600160009054906101000a900473ffffffffffffffffffffffffffffffffffffffff1673ffffffffffffffffffffffffffffffffffffffff166323b872dd3033856040518463ffffffff1660e01b815260040161050a93929190610d2c565b6020604051808303816000875af1158015610529573d6000803e3d6000fd5b505050506040513d601f19601f8201168201806040525081019061054d9190610d8f565b5080600660003373ffffffffffffffffffffffffffffffffffffffff1673ffffffffffffffffffffffffffffffffffffffff168152602001908152602001600020546105999190610dbc565b600660003373ffffffffffffffffffffffffffffffffffffffff1673ffffffffffffffffffffffffffffffffffffffff16815260200190815260200160002081905550600760003373ffffffffffffffffffffffffffffffffffffffff1673ffffffffffffffffffffffffffffffffffffffff16815260200190815260200160002060009054906101000a900460ff16610691576005339080600181540180825580915050600190039060005260206000200160009091909190916101000a81548173ffffffffffffffffffffffffffffffffffffffff021916908373ffffffffffffffffffffffffffffffffffffffff1602179055505b6001600860003373ffffffffffffffffffffffffffffffffffffffff1673ffffffffffffffffffffffffffffffffffffffff16815260200190815260200160002060006101000a81548160ff0219169083151502179055506001600760003373ffffffffffffffffffffffffffffffffffffffff1673ffffffffffffffffffffffffffffffffffffffff16815260200190815260200160002060006101000a81548160ff0219169083151502179055505050565b60008054906101000a900473ffffffffffffffffffffffffffffffffffffffff1673ffffffffffffffffffffffffffffffffffffffff163373ffffffffffffffffffffffffffffffffffffffff16146107d3576040517f08c379a00000000000000000000000000000000000000000000000000000000081526004016107ca90610e5e565b60405180910390fd5b8060038190555050565b600260009054906101000a900473ffffffffffffffffffffffffffffffffffffffff1681565b60008054906101000a900473ffffffffffffffffffffffffffffffffffffffff1673ffffffffffffffffffffffffffffffffffffffff163373ffffffffffffffffffffffffffffffffffffffff1614610891576040517f08c379a000000000000000000000000000000000000000000000000000000000815260040161088890610e5e565b60405180910390fd5b8060035461089f9190610dbc565b60038190555050565b6000600354905090565b60066020528060005260406000206000915090505481565b60008054906101000a900473ffffffffffffffffffffffffffffffffffffffff1681565b60076020528060005260406000206000915054906101000a900460ff1681565b60035481565b60006003546004546003546109299190610dbc565b6109339190610c12565b905090565b6000600454905090565b6005818154811061095257600080fd5b906000526020600020016000915054906101000a900473ffffffffffffffffffffffffffffffffffffffff1681565b600073ffffffffffffffffffffffffffffffffffffffff82169050919050565b6000819050919050565b60006109c66109c16109bc84610981565b6109a1565b610981565b9050919050565b60006109d8826109ab565b9050919050565b60006109ea826109cd565b9050919050565b6109fa816109df565b82525050565b6000602082019050610a1560008301846109f1565b92915050565b6000819050919050565b610a2e81610a1b565b82525050565b6000602082019050610a496000830184610a25565b92915050565b600080fd5b6000610a5f82610981565b9050919050565b610a6f81610a54565b8114610a7a57600080fd5b50565b600081359050610a8c81610a66565b92915050565b600060208284031215610aa857610aa7610a4f565b5b6000610ab684828501610a7d565b91505092915050565b60008115159050919050565b610ad481610abf565b82525050565b6000602082019050610aef6000830184610acb565b92915050565b610afe81610a1b565b8114610b0957600080fd5b50565b600081359050610b1b81610af5565b92915050565b600060208284031215610b3757610b36610a4f565b5b6000610b4584828501610b0c565b91505092915050565b6000610b59826109cd565b9050919050565b610b6981610b4e565b82525050565b6000602082019050610b846000830184610b60565b92915050565b610b9381610a54565b82525050565b6000602082019050610bae6000830184610b8a565b92915050565b7f4e487b7100000000000000000000000000000000000000000000000000000000600052601260045260246000fd5b7f4e487b7100000000000000000000000000000000000000000000000000000000600052601160045260246000fd5b6000610c1d82610a1b565b9150610c2883610a1b565b925082610c3857610c37610bb4565b5b828204905092915050565b600082825260208201905092915050565b7f616d6f756e742063616e6e6f7420626520300000000000000000000000000000600082015250565b6000610c8a601283610c43565b9150610c9582610c54565b602082019050919050565b60006020820190508181036000830152610cb981610c7d565b9050919050565b7f6e6f20656e6f75676820726563727920746f2062757900000000000000000000600082015250565b6000610cf6601683610c43565b9150610d0182610cc0565b602082019050919050565b60006020820190508181036000830152610d2581610ce9565b9050919050565b6000606082019050610d416000830186610b8a565b610d4e6020830185610b8a565b610d5b6040830184610a25565b949350505050565b610d6c81610abf565b8114610d7757600080fd5b50565b600081519050610d8981610d63565b92915050565b600060208284031215610da557610da4610a4f565b5b6000610db384828501610d7a565b91505092915050565b6000610dc782610a1b565b9150610dd283610a1b565b9250827fffffffffffffffffffffffffffffffffffffffffffffffffffffffffffffffff03821115610e0757610e06610be3565b5b828201905092915050565b7f43616c6c6572206973206e6f74206f776e657200000000000000000000000000600082015250565b6000610e48601383610c43565b9150610e5382610e12565b602082019050919050565b60006020820190508181036000830152610e7781610e3b565b905091905056fea2646970667358221220ca463165b09594cbec5d96edbd29d7f98ffd690ce8f6a61124b7811abda4506b64736f6c634300080f0033",
  "immutableReferences": {},
  "source": "// SPDX-License-Identifier: MIT\r\npragma solidity ^0.8.4;\r\n\r\nimport \"./ReCryptoToken.sol\";\r\nimport \"./UsdcToken.sol\";\r\n\r\ncontract RecryUsdcSwap {\r\n    address public owner;\r\n    ReCryptoToken public recry;\r\n    UsdcToken public usdc;\r\n\r\n    uint public maxSupply    = 500000000000000000000000; //number of toklen available 500000\r\n    uint public protocolGain = 0; //protocol gain\r\n\r\n    address[] public buyers;\r\n    mapping(address => uint) public buyBalance;\r\n    mapping(address => bool) public hasPurchased;\r\n    mapping(address => bool) public isPurchased;\r\n\r\n    constructor(ReCryptoToken _recry, UsdcToken _usdc) {\r\n        recry = _recry;\r\n        usdc = _usdc;\r\n        owner = msg.sender;\r\n    }\r\n    modifier isOwner() {\r\n        require(msg.sender == owner, \"Caller is not owner\");\r\n        _;\r\n    }\r\n\r\n    function addSupply(uint _amount) public isOwner {\r\n        maxSupply = maxSupply + _amount;\r\n    }\r\n\r\n    function changeSupply(uint _amount) public isOwner {\r\n        maxSupply = _amount;\r\n    }\r\n\r\n    function getRecryValue() public view returns(uint _value)\r\n    {\r\n           return  _value = ((maxSupply+protocolGain)/maxSupply);\r\n    }\r\n\r\n    function getMaxSupply() public view returns(uint _value)\r\n    {\r\n            return maxSupply;\r\n    }\r\n    function getProtocolGain() public view returns(uint _value)\r\n    {\r\n            return protocolGain;\r\n    }\r\n\r\n    function buyRecryWithUsdc(uint _amount) public {\r\n        // Require amount greater than 0\r\n        uint qtyToBuy = _amount / getRecryValue();\r\n        require(_amount > 0, \"amount cannot be 0\");\r\n        require(maxSupply < qtyToBuy, \"no enough recry to buy\");\r\n\r\n        // Trasnfer usdc to the owner not in the protocol\r\n        usdc.transferFrom(msg.sender, owner, _amount);\r\n        // Trasnfer recry to the buyer\r\n        recry.transferFrom(address(this), msg.sender, _amount);\r\n\r\n        // Update buy balance\r\n        buyBalance[msg.sender] = buyBalance[msg.sender] + qtyToBuy;\r\n\r\n        // Add user to buyers array *only* if they haven't buyed already\r\n        if(!hasPurchased[msg.sender]) {\r\n            buyers.push(msg.sender);\r\n        }\r\n\r\n        // Update buying status\r\n        isPurchased[msg.sender] = true;\r\n        hasPurchased[msg.sender] = true;\r\n    }\r\n\r\n}\r\n",
  "sourcePath": "C:\\Users\\matteo\\Documents\\GitHub\\ReCrypto\\src\\contracts\\RecryUsdcSwap.sol",
  "compiler": {
    "name": "solc",
    "version": "0.8.15+commit.e14f2714.Emscripten.clang"
  },
  "schemaVersion": "3.4.7",
  "updatedAt": "2022-06-18T05:30:03.339Z",
  "devdoc": {
    "kind": "dev",
    "methods": {},
    "version": 1
  },
  "userdoc": {
    "kind": "user",
    "methods": {},
    "version": 1
  }
}