{
  "contractName": "SwapRecryEur",
  "abi": [
    {
      "inputs": [
        {
          "internalType": "contract ReCryptoToken",
          "name": "_recry",
          "type": "address"
        },
        {
          "internalType": "contract ReEURToken",
          "name": "_reeur",
          "type": "address"
        }
      ],
      "stateMutability": "nonpayable",
      "type": "constructor"
    },
    {
      "inputs": [],
      "name": "maxSupply",
      "outputs": [
        {
          "internalType": "uint256",
          "name": "",
          "type": "uint256"
        }
      ],
      "stateMutability": "view",
      "type": "function"
    },
    {
      "inputs": [],
      "name": "owner",
      "outputs": [
        {
          "internalType": "address",
          "name": "",
          "type": "address"
        }
      ],
      "stateMutability": "view",
      "type": "function"
    },
    {
      "inputs": [],
      "name": "protocolGain",
      "outputs": [
        {
          "internalType": "uint256",
          "name": "",
          "type": "uint256"
        }
      ],
      "stateMutability": "view",
      "type": "function"
    },
    {
      "inputs": [],
      "name": "recry",
      "outputs": [
        {
          "internalType": "contract ReCryptoToken",
          "name": "",
          "type": "address"
        }
      ],
      "stateMutability": "view",
      "type": "function"
    },
    {
      "inputs": [],
      "name": "reeur",
      "outputs": [
        {
          "internalType": "contract ReEURToken",
          "name": "",
          "type": "address"
        }
      ],
      "stateMutability": "view",
      "type": "function"
    },
    {
      "inputs": [
        {
          "internalType": "uint256",
          "name": "_amount",
          "type": "uint256"
        }
      ],
      "name": "addRecrySupply",
      "outputs": [],
      "stateMutability": "payable",
      "type": "function"
    },
    {
      "inputs": [
        {
          "internalType": "uint256",
          "name": "_amount",
          "type": "uint256"
        }
      ],
      "name": "changeRecrySupply",
      "outputs": [],
      "stateMutability": "nonpayable",
      "type": "function"
    },
    {
      "inputs": [
        {
          "internalType": "uint256",
          "name": "_amount",
          "type": "uint256"
        }
      ],
      "name": "addProtocolGain",
      "outputs": [],
      "stateMutability": "nonpayable",
      "type": "function"
    },
    {
      "inputs": [
        {
          "internalType": "uint256",
          "name": "_amount",
          "type": "uint256"
        }
      ],
      "name": "changeProtocolGain",
      "outputs": [],
      "stateMutability": "nonpayable",
      "type": "function"
    },
    {
      "inputs": [
        {
          "internalType": "uint256",
          "name": "_amount",
          "type": "uint256"
        }
      ],
      "name": "withdrawReEUR",
      "outputs": [],
      "stateMutability": "payable",
      "type": "function"
    },
    {
      "inputs": [
        {
          "internalType": "uint256",
          "name": "_amount",
          "type": "uint256"
        }
      ],
      "name": "withdrawRecry",
      "outputs": [],
      "stateMutability": "payable",
      "type": "function"
    },
    {
      "inputs": [],
      "name": "getRecryValue",
      "outputs": [
        {
          "internalType": "uint256",
          "name": "_value",
          "type": "uint256"
        }
      ],
      "stateMutability": "view",
      "type": "function"
    },
    {
      "inputs": [],
      "name": "getRecryPrice",
      "outputs": [
        {
          "internalType": "uint256",
          "name": "_value",
          "type": "uint256"
        }
      ],
      "stateMutability": "view",
      "type": "function"
    },
    {
      "inputs": [],
      "name": "getRecryTotalValue",
      "outputs": [
        {
          "internalType": "uint256",
          "name": "_value",
          "type": "uint256"
        }
      ],
      "stateMutability": "view",
      "type": "function"
    },
    {
      "inputs": [],
      "name": "getRecryMaxSupply",
      "outputs": [
        {
          "internalType": "uint256",
          "name": "_value",
          "type": "uint256"
        }
      ],
      "stateMutability": "view",
      "type": "function"
    },
    {
      "inputs": [],
      "name": "getRecryMaxAvailable",
      "outputs": [
        {
          "internalType": "uint256",
          "name": "_value",
          "type": "uint256"
        }
      ],
      "stateMutability": "view",
      "type": "function"
    },
    {
      "inputs": [],
      "name": "getReEURMaxAvailable",
      "outputs": [
        {
          "internalType": "uint256",
          "name": "_value",
          "type": "uint256"
        }
      ],
      "stateMutability": "view",
      "type": "function"
    },
    {
      "inputs": [],
      "name": "getProtocolGain",
      "outputs": [
        {
          "internalType": "uint256",
          "name": "_value",
          "type": "uint256"
        }
      ],
      "stateMutability": "view",
      "type": "function"
    },
    {
      "inputs": [],
      "name": "isOwnerX",
      "outputs": [
        {
          "internalType": "bool",
          "name": "_value",
          "type": "bool"
        }
      ],
      "stateMutability": "view",
      "type": "function"
    },
    {
      "inputs": [],
      "name": "getSender",
      "outputs": [
        {
          "internalType": "address",
          "name": "_value",
          "type": "address"
        }
      ],
      "stateMutability": "view",
      "type": "function"
    },
    {
      "inputs": [],
      "name": "getOwner",
      "outputs": [
        {
          "internalType": "address",
          "name": "_value",
          "type": "address"
        }
      ],
      "stateMutability": "view",
      "type": "function"
    },
    {
      "inputs": [
        {
          "internalType": "uint256",
          "name": "_amount",
          "type": "uint256"
        }
      ],
      "name": "buyRecryWithReEUR",
      "outputs": [],
      "stateMutability": "payable",
      "type": "function"
    },
    {
      "inputs": [
        {
          "internalType": "uint256",
          "name": "_amount",
          "type": "uint256"
        }
      ],
      "name": "sellRecryForReEUR",
      "outputs": [],
      "stateMutability": "payable",
      "type": "function"
    }
  ],
  "bytecode": "0x6080604052600060035560006004553480156200001b57600080fd5b5060405162002277380380620022778339818101604052810190620000419190620001ce565b81600160006101000a81548173ffffffffffffffffffffffffffffffffffffffff021916908373ffffffffffffffffffffffffffffffffffffffff16021790555080600260006101000a81548173ffffffffffffffffffffffffffffffffffffffff021916908373ffffffffffffffffffffffffffffffffffffffff160217905550336000806101000a81548173ffffffffffffffffffffffffffffffffffffffff021916908373ffffffffffffffffffffffffffffffffffffffff160217905550505062000215565b600080fd5b600073ffffffffffffffffffffffffffffffffffffffff82169050919050565b60006200013d8262000110565b9050919050565b6000620001518262000130565b9050919050565b620001638162000144565b81146200016f57600080fd5b50565b600081519050620001838162000158565b92915050565b6000620001968262000130565b9050919050565b620001a88162000189565b8114620001b457600080fd5b50565b600081519050620001c8816200019d565b92915050565b60008060408385031215620001e857620001e76200010b565b5b6000620001f88582860162000172565b92505060206200020b85828601620001b7565b9150509250929050565b61205280620002256000396000f3fe6080604052600436106101405760003560e01c80635e01eb5a116100b6578063a53167f91161006f578063a53167f9146103de578063d5abeb01146103fa578063d60a904e14610425578063ddf5b66c14610450578063ecb9417c1461047b578063f1a376b6146104a657610140565b80635e01eb5a146102eb578063689215fd146103165780637741eb9214610332578063893d20e81461035d5780638da5cb5b146103885780639586910c146103b357610140565b8063277181271161010857806327718127146102095780632bd160bc146102345780633debda311461025f57806347a9f70a1461028a5780634bd2f33d146102a65780634cd60eb3146102cf57610140565b80630b468779146101455780630b6e87f71461017057806310d9744f1461019b578063112ed6e2146101b75780631ded4ad9146101e0575b600080fd5b34801561015157600080fd5b5061015a6104d1565b604051610167919061191c565b60405180910390f35b34801561017c57600080fd5b506101856104f7565b6040516101929190611950565b60405180910390f35b6101b560048036038101906101b0919061199c565b6104fd565b005b3480156101c357600080fd5b506101de60048036038101906101d9919061199c565b610734565b005b3480156101ec57600080fd5b506102076004803603810190610202919061199c565b6107cc565b005b34801561021557600080fd5b5061021e610871565b60405161022b91906119e4565b60405180910390f35b34801561024057600080fd5b506102496108d8565b6040516102569190611950565b60405180910390f35b34801561026b57600080fd5b5061027461097b565b6040516102819190611950565b60405180910390f35b6102a4600480360381019061029f919061199c565b610a1e565b005b3480156102b257600080fd5b506102cd60048036038101906102c8919061199c565b610c55565b005b6102e960048036038101906102e4919061199c565b610ced565b005b3480156102f757600080fd5b50610300610f1b565b60405161030d9190611a20565b60405180910390f35b610330600480360381019061032b919061199c565b610f23565b005b34801561033e57600080fd5b5061034761142e565b6040516103549190611950565b60405180910390f35b34801561036957600080fd5b50610372611438565b60405161037f9190611a20565b60405180910390f35b34801561039457600080fd5b5061039d611461565b6040516103aa9190611a20565b60405180910390f35b3480156103bf57600080fd5b506103c8611485565b6040516103d59190611a5c565b60405180910390f35b6103f860048036038101906103f3919061199c565b6114ab565b005b34801561040657600080fd5b5061040f61177d565b60405161041c9190611950565b60405180910390f35b34801561043157600080fd5b5061043a611783565b6040516104479190611950565b60405180910390f35b34801561045c57600080fd5b50610465611838565b6040516104729190611950565b60405180910390f35b34801561048757600080fd5b5061049061185c565b60405161049d9190611950565b60405180910390f35b3480156104b257600080fd5b506104bb611866565b6040516104c89190611950565b60405180910390f35b600160009054906101000a900473ffffffffffffffffffffffffffffffffffffffff1681565b60045481565b60008054906101000a900473ffffffffffffffffffffffffffffffffffffffff1673ffffffffffffffffffffffffffffffffffffffff163373ffffffffffffffffffffffffffffffffffffffff161461058b576040517f08c379a000000000000000000000000000000000000000000000000000000000815260040161058290611ad4565b60405180910390fd5b80600160009054906101000a900473ffffffffffffffffffffffffffffffffffffffff1673ffffffffffffffffffffffffffffffffffffffff166370a08231306040518263ffffffff1660e01b81526004016105e79190611a20565b602060405180830381865afa158015610604573d6000803e3d6000fd5b505050506040513d601f19601f820116820180604052508101906106289190611b09565b11610668576040517f08c379a000000000000000000000000000000000000000000000000000000000815260040161065f90611b82565b60405180910390fd5b600160009054906101000a900473ffffffffffffffffffffffffffffffffffffffff1673ffffffffffffffffffffffffffffffffffffffff1663a9059cbb60008054906101000a900473ffffffffffffffffffffffffffffffffffffffff16836040518363ffffffff1660e01b81526004016106e5929190611ba2565b6020604051808303816000875af1158015610704573d6000803e3d6000fd5b505050506040513d601f19601f820116820180604052508101906107289190611bf7565b61073157600080fd5b50565b60008054906101000a900473ffffffffffffffffffffffffffffffffffffffff1673ffffffffffffffffffffffffffffffffffffffff163373ffffffffffffffffffffffffffffffffffffffff16146107c2576040517f08c379a00000000000000000000000000000000000000000000000000000000081526004016107b990611ad4565b60405180910390fd5b8060048190555050565b60008054906101000a900473ffffffffffffffffffffffffffffffffffffffff1673ffffffffffffffffffffffffffffffffffffffff163373ffffffffffffffffffffffffffffffffffffffff161461085a576040517f08c379a000000000000000000000000000000000000000000000000000000000815260040161085190611ad4565b60405180910390fd5b806004546108689190611c53565b60048190555050565b60008060009054906101000a900473ffffffffffffffffffffffffffffffffffffffff1673ffffffffffffffffffffffffffffffffffffffff163373ffffffffffffffffffffffffffffffffffffffff16036108d057600190506108d5565b600090505b90565b6000600160009054906101000a900473ffffffffffffffffffffffffffffffffffffffff1673ffffffffffffffffffffffffffffffffffffffff166370a08231306040518263ffffffff1660e01b81526004016109359190611a20565b602060405180830381865afa158015610952573d6000803e3d6000fd5b505050506040513d601f19601f820116820180604052508101906109769190611b09565b905090565b6000600260009054906101000a900473ffffffffffffffffffffffffffffffffffffffff1673ffffffffffffffffffffffffffffffffffffffff166370a08231306040518263ffffffff1660e01b81526004016109d89190611a20565b602060405180830381865afa1580156109f5573d6000803e3d6000fd5b505050506040513d601f19601f82011682018060405250810190610a199190611b09565b905090565b60008054906101000a900473ffffffffffffffffffffffffffffffffffffffff1673ffffffffffffffffffffffffffffffffffffffff163373ffffffffffffffffffffffffffffffffffffffff1614610aac576040517f08c379a0000000000000000000000000000000000000000000000000000000008152600401610aa390611ad4565b60405180910390fd5b80600260009054906101000a900473ffffffffffffffffffffffffffffffffffffffff1673ffffffffffffffffffffffffffffffffffffffff166370a08231306040518263ffffffff1660e01b8152600401610b089190611a20565b602060405180830381865afa158015610b25573d6000803e3d6000fd5b505050506040513d601f19601f82011682018060405250810190610b499190611b09565b11610b89576040517f08c379a0000000000000000000000000000000000000000000000000000000008152600401610b8090611cd3565b60405180910390fd5b600260009054906101000a900473ffffffffffffffffffffffffffffffffffffffff1673ffffffffffffffffffffffffffffffffffffffff1663a9059cbb60008054906101000a900473ffffffffffffffffffffffffffffffffffffffff16836040518363ffffffff1660e01b8152600401610c06929190611ba2565b6020604051808303816000875af1158015610c25573d6000803e3d6000fd5b505050506040513d601f19601f82011682018060405250810190610c499190611bf7565b610c5257600080fd5b50565b60008054906101000a900473ffffffffffffffffffffffffffffffffffffffff1673ffffffffffffffffffffffffffffffffffffffff163373ffffffffffffffffffffffffffffffffffffffff1614610ce3576040517f08c379a0000000000000000000000000000000000000000000000000000000008152600401610cda90611ad4565b60405180910390fd5b8060038190555050565b60008054906101000a900473ffffffffffffffffffffffffffffffffffffffff1673ffffffffffffffffffffffffffffffffffffffff163373ffffffffffffffffffffffffffffffffffffffff1614610d7b576040517f08c379a0000000000000000000000000000000000000000000000000000000008152600401610d7290611ad4565b60405180910390fd5b80600160009054906101000a900473ffffffffffffffffffffffffffffffffffffffff1673ffffffffffffffffffffffffffffffffffffffff166370a08231336040518263ffffffff1660e01b8152600401610dd79190611a20565b602060405180830381865afa158015610df4573d6000803e3d6000fd5b505050506040513d601f19601f82011682018060405250810190610e189190611b09565b1015610e59576040517f08c379a0000000000000000000000000000000000000000000000000000000008152600401610e5090611d3f565b60405180910390fd5b600160009054906101000a900473ffffffffffffffffffffffffffffffffffffffff1673ffffffffffffffffffffffffffffffffffffffff166323b872dd3330846040518463ffffffff1660e01b8152600401610eb893929190611d5f565b6020604051808303816000875af1158015610ed7573d6000803e3d6000fd5b505050506040513d601f19601f82011682018060405250810190610efb9190611bf7565b610f0457600080fd5b80600354610f129190611c53565b60038190555050565b600033905090565b6000610f2d611838565b82610f389190611dc5565b905060008211610f7d576040517f08c379a0000000000000000000000000000000000000000000000000000000008152600401610f7490611e42565b60405180910390fd5b80600160009054906101000a900473ffffffffffffffffffffffffffffffffffffffff1673ffffffffffffffffffffffffffffffffffffffff166370a08231306040518263ffffffff1660e01b8152600401610fd99190611a20565b602060405180830381865afa158015610ff6573d6000803e3d6000fd5b505050506040513d601f19601f8201168201806040525081019061101a9190611b09565b101561105b576040517f08c379a000000000000000000000000000000000000000000000000000000000815260040161105290611eae565b60405180910390fd5b600061106561097b565b6004546110729190611ece565b905060008111156112bc578083111561120b57600260009054906101000a900473ffffffffffffffffffffffffffffffffffffffff1673ffffffffffffffffffffffffffffffffffffffff166323b872dd3330846040518463ffffffff1660e01b81526004016110e493929190611d5f565b6020604051808303816000875af1158015611103573d6000803e3d6000fd5b505050506040513d601f19601f820116820180604052508101906111279190611bf7565b61113057600080fd5b600260009054906101000a900473ffffffffffffffffffffffffffffffffffffffff1673ffffffffffffffffffffffffffffffffffffffff166323b872dd3360008054906101000a900473ffffffffffffffffffffffffffffffffffffffff16848761119c9190611ece565b6040518463ffffffff1660e01b81526004016111ba93929190611d5f565b6020604051808303816000875af11580156111d9573d6000803e3d6000fd5b505050506040513d601f19601f820116820180604052508101906111fd9190611bf7565b61120657600080fd5b6112b7565b600260009054906101000a900473ffffffffffffffffffffffffffffffffffffffff1673ffffffffffffffffffffffffffffffffffffffff166323b872dd3330866040518463ffffffff1660e01b815260040161126a93929190611d5f565b6020604051808303816000875af1158015611289573d6000803e3d6000fd5b505050506040513d601f19601f820116820180604052508101906112ad9190611bf7565b6112b657600080fd5b5b611388565b600260009054906101000a900473ffffffffffffffffffffffffffffffffffffffff1673ffffffffffffffffffffffffffffffffffffffff166323b872dd3360008054906101000a900473ffffffffffffffffffffffffffffffffffffffff16866040518463ffffffff1660e01b815260040161133b93929190611d5f565b6020604051808303816000875af115801561135a573d6000803e3d6000fd5b505050506040513d601f19601f8201168201806040525081019061137e9190611bf7565b61138757600080fd5b5b600160009054906101000a900473ffffffffffffffffffffffffffffffffffffffff1673ffffffffffffffffffffffffffffffffffffffff1663a9059cbb33856040518363ffffffff1660e01b81526004016113e5929190611ba2565b6020604051808303816000875af1158015611404573d6000803e3d6000fd5b505050506040513d601f19601f820116820180604052508101906114289190611bf7565b50505050565b6000600354905090565b60008060009054906101000a900473ffffffffffffffffffffffffffffffffffffffff16905090565b60008054906101000a900473ffffffffffffffffffffffffffffffffffffffff1681565b600260009054906101000a900473ffffffffffffffffffffffffffffffffffffffff1681565b60006114b5611838565b826114c09190611f02565b905060008211611505576040517f08c379a00000000000000000000000000000000000000000000000000000000081526004016114fc90611e42565b60405180910390fd5b81600160009054906101000a900473ffffffffffffffffffffffffffffffffffffffff1673ffffffffffffffffffffffffffffffffffffffff166370a08231336040518263ffffffff1660e01b81526004016115619190611a20565b602060405180830381865afa15801561157e573d6000803e3d6000fd5b505050506040513d601f19601f820116820180604052508101906115a29190611b09565b10156115e3576040517f08c379a00000000000000000000000000000000000000000000000000000000081526004016115da90611f90565b60405180910390fd5b806115ec61097b565b101561162d576040517f08c379a000000000000000000000000000000000000000000000000000000000815260040161162490611ffc565b60405180910390fd5b600160009054906101000a900473ffffffffffffffffffffffffffffffffffffffff1673ffffffffffffffffffffffffffffffffffffffff166323b872dd3330856040518463ffffffff1660e01b815260040161168c93929190611d5f565b6020604051808303816000875af11580156116ab573d6000803e3d6000fd5b505050506040513d601f19601f820116820180604052508101906116cf9190611bf7565b6116d857600080fd5b600260009054906101000a900473ffffffffffffffffffffffffffffffffffffffff1673ffffffffffffffffffffffffffffffffffffffff1663a9059cbb33836040518363ffffffff1660e01b8152600401611735929190611ba2565b6020604051808303816000875af1158015611754573d6000803e3d6000fd5b505050506040513d601f19601f820116820180604052508101906117789190611bf7565b505050565b60035481565b6000600160009054906101000a900473ffffffffffffffffffffffffffffffffffffffff1673ffffffffffffffffffffffffffffffffffffffff166370a08231336040518263ffffffff1660e01b81526004016117e09190611a20565b602060405180830381865afa1580156117fd573d6000803e3d6000fd5b505050506040513d601f19601f820116820180604052508101906118219190611b09565b611829611838565b6118339190611f02565b905090565b600060035460045460035461184d9190611c53565b6118579190611dc5565b905090565b6000600454905090565b6000670de0b6b3a76400006003546004546003546118849190611c53565b61188e9190611dc5565b6118989190611f02565b905090565b600073ffffffffffffffffffffffffffffffffffffffff82169050919050565b6000819050919050565b60006118e26118dd6118d88461189d565b6118bd565b61189d565b9050919050565b60006118f4826118c7565b9050919050565b6000611906826118e9565b9050919050565b611916816118fb565b82525050565b6000602082019050611931600083018461190d565b92915050565b6000819050919050565b61194a81611937565b82525050565b60006020820190506119656000830184611941565b92915050565b600080fd5b61197981611937565b811461198457600080fd5b50565b60008135905061199681611970565b92915050565b6000602082840312156119b2576119b161196b565b5b60006119c084828501611987565b91505092915050565b60008115159050919050565b6119de816119c9565b82525050565b60006020820190506119f960008301846119d5565b92915050565b6000611a0a8261189d565b9050919050565b611a1a816119ff565b82525050565b6000602082019050611a356000830184611a11565b92915050565b6000611a46826118e9565b9050919050565b611a5681611a3b565b82525050565b6000602082019050611a716000830184611a4d565b92915050565b600082825260208201905092915050565b7f43616c6c6572206973206e6f74206f776e657200000000000000000000000000600082015250565b6000611abe601383611a77565b9150611ac982611a88565b602082019050919050565b60006020820190508181036000830152611aed81611ab1565b9050919050565b600081519050611b0381611970565b92915050565b600060208284031215611b1f57611b1e61196b565b5b6000611b2d84828501611af4565b91505092915050565b7f6e6f20656e6f75676820726563727920746f2077697468647261770000000000600082015250565b6000611b6c601b83611a77565b9150611b7782611b36565b602082019050919050565b60006020820190508181036000830152611b9b81611b5f565b9050919050565b6000604082019050611bb76000830185611a11565b611bc46020830184611941565b9392505050565b611bd4816119c9565b8114611bdf57600080fd5b50565b600081519050611bf181611bcb565b92915050565b600060208284031215611c0d57611c0c61196b565b5b6000611c1b84828501611be2565b91505092915050565b7f4e487b7100000000000000000000000000000000000000000000000000000000600052601160045260246000fd5b6000611c5e82611937565b9150611c6983611937565b9250828201905080821115611c8157611c80611c24565b5b92915050565b7f6e6f20656e6f75676820726565757220746f2077697468647261770000000000600082015250565b6000611cbd601b83611a77565b9150611cc882611c87565b602082019050919050565b60006020820190508181036000830152611cec81611cb0565b9050919050565b7f6e6f20656e6f75676820726563727920746f2061646400000000000000000000600082015250565b6000611d29601683611a77565b9150611d3482611cf3565b602082019050919050565b60006020820190508181036000830152611d5881611d1c565b9050919050565b6000606082019050611d746000830186611a11565b611d816020830185611a11565b611d8e6040830184611941565b949350505050565b7f4e487b7100000000000000000000000000000000000000000000000000000000600052601260045260246000fd5b6000611dd082611937565b9150611ddb83611937565b925082611deb57611dea611d96565b5b828204905092915050565b7f616d6f756e742063616e6e6f7420626520300000000000000000000000000000600082015250565b6000611e2c601283611a77565b9150611e3782611df6565b602082019050919050565b60006020820190508181036000830152611e5b81611e1f565b9050919050565b7f6e6f20656e6f75676820726563727920746f2062757900000000000000000000600082015250565b6000611e98601683611a77565b9150611ea382611e62565b602082019050919050565b60006020820190508181036000830152611ec781611e8b565b9050919050565b6000611ed982611937565b9150611ee483611937565b9250828203905081811115611efc57611efb611c24565b5b92915050565b6000611f0d82611937565b9150611f1883611937565b9250828202611f2681611937565b91508282048414831517611f3d57611f3c611c24565b5b5092915050565b7f6e6f20656e6f75676820726563727920746f2073656c6c000000000000000000600082015250565b6000611f7a601783611a77565b9150611f8582611f44565b602082019050919050565b60006020820190508181036000830152611fa981611f6d565b9050919050565b7f6e6f20656e6f75676820726565757220746f2073776170000000000000000000600082015250565b6000611fe6601783611a77565b9150611ff182611fb0565b602082019050919050565b6000602082019050818103600083015261201581611fd9565b905091905056fea2646970667358221220a6af8240fead736ca4f745983402a0ba04162ec71d38092619bb17e20d527d5864736f6c63430008140033",
  "immutableReferences": {},
  "source": "// SPDX-License-Identifier: MIT\r\npragma solidity ^0.8.4;\r\n\r\nimport \"./ReCryptoToken.sol\";\r\nimport \"./ReEURToken.sol\";\r\n\r\ncontract SwapRecryEur {\r\n    address public owner;\r\n    ReCryptoToken public recry;\r\n    ReEURToken public reeur;\r\n\r\n    uint public maxSupply    = 0; //number of toklen available 500000\r\n    uint public protocolGain = 0; //protocol gain\r\n\r\n    constructor(ReCryptoToken _recry, ReEURToken _reeur) {\r\n        recry = _recry;\r\n        reeur = _reeur;\r\n        owner = msg.sender;\r\n    }\r\n    modifier isOwner() {\r\n        require(msg.sender == owner, \"Caller is not owner\");\r\n        _;\r\n    }\r\n\r\n    function addRecrySupply(uint _amount) public payable isOwner {\r\n        require(recry.balanceOf(msg.sender) >= _amount , \"no enough recry to add\");\r\n        require(recry.transferFrom(msg.sender,address(this), _amount));\r\n        maxSupply = maxSupply + _amount;\r\n    }\r\n\r\n    function changeRecrySupply(uint _amount) public isOwner {\r\n        maxSupply = _amount;\r\n    }\r\n\r\n    function addProtocolGain(uint _amount) public isOwner {\r\n        protocolGain = protocolGain + _amount;\r\n    }\r\n\r\n    function changeProtocolGain(uint _amount) public isOwner {\r\n         protocolGain = _amount;\r\n    }\r\n    \r\n    function withdrawReEUR(uint _amount) public payable isOwner{\r\n        require(reeur.balanceOf(address(this)) > _amount, \"no enough reeur to withdraw\");\r\n        require(reeur.transfer(owner, _amount));\r\n    }\r\n\r\n    function withdrawRecry(uint _amount) public payable isOwner{\r\n        require(recry.balanceOf(address(this)) > _amount, \"no enough recry to withdraw\");\r\n        require(recry.transfer(owner, _amount));\r\n    }\r\n\r\n    function getRecryValue() public view returns(uint _value)\r\n    {\r\n           return  _value = ((maxSupply+protocolGain)/maxSupply);\r\n    }\r\n    function getRecryPrice() public view returns(uint _value)\r\n    {\r\n           return  _value = ((maxSupply+protocolGain)/maxSupply)*1000000000000000000;\r\n    }\r\n    function getRecryTotalValue() public view returns(uint _value)\r\n    {\r\n           return  _value = getRecryValue() * recry.balanceOf(msg.sender);\r\n    }\r\n\r\n    function getRecryMaxSupply() public view returns(uint _value)\r\n    {\r\n            return maxSupply;\r\n    }\r\n\r\n    function getRecryMaxAvailable() public view returns(uint _value)\r\n    {\r\n            return recry.balanceOf(address(this));\r\n    }\r\n\r\n    function getReEURMaxAvailable() public view returns(uint _value)\r\n    {\r\n            return reeur.balanceOf(address(this));\r\n    }\r\n\r\n    function getProtocolGain() public view returns(uint _value)\r\n    {\r\n            return protocolGain;\r\n    }\r\n\r\n    function isOwnerX() public view returns(bool _value)\r\n    {\r\n            if (msg.sender == owner)\r\n            {\r\n                return true;\r\n            }\r\n            else\r\n            {\r\n                return false;\r\n            }\r\n    }\r\n    function getSender() public view returns(address _value)\r\n    {\r\n            return msg.sender;\r\n    }\r\n    function getOwner() public view returns(address _value)\r\n    {\r\n            return owner;\r\n    }\r\n\r\n    function buyRecryWithReEUR(uint _amount) public payable{\r\n        // Require amount greater than 0\r\n        uint qtyToBuy = _amount / getRecryValue();\r\n        require(_amount > 0, \"amount cannot be 0\");\r\n        require(recry.balanceOf(address(this)) >= qtyToBuy , \"no enough recry to buy\");\r\n        uint maxRecharge = protocolGain - getReEURMaxAvailable();\r\n        if (maxRecharge > 0)\r\n        {\r\n               // Trasnfer some reeur to refill the protocol  not in the protocol\r\n               if (_amount > maxRecharge)\r\n               {\r\n                     require(reeur.transferFrom(msg.sender, address(this), maxRecharge)); \r\n                     require(reeur.transferFrom(msg.sender, owner, _amount-maxRecharge)); \r\n               }\r\n               else\r\n               {\r\n                    require(reeur.transferFrom(msg.sender, address(this), _amount)); \r\n               }\r\n        }\r\n        else\r\n        {\r\n             // Trasnfer reeur to the owner not in the protocol\r\n               require(reeur.transferFrom(msg.sender, owner, _amount)); \r\n        }\r\n        \r\n        // Trasnfer recry to the buyer\r\n        recry.transfer(msg.sender, _amount);        \r\n    }\r\n\r\n    function sellRecryForReEUR(uint _amount) public payable{\r\n        // Require amount greater than 0\r\n        uint qtyToSell = _amount * getRecryValue();\r\n        require(_amount > 0, \"amount cannot be 0\");\r\n        require(recry.balanceOf(msg.sender) >= _amount , \"no enough recry to sell\");\r\n        require(getReEURMaxAvailable() >= qtyToSell , \"no enough reeur to swap\");\r\n\r\n        // Trasnfer reeur to the owner not in the protocol\r\n        require(recry.transferFrom(msg.sender, address(this), _amount));\r\n        // Trasnfer recry to the buyer\r\n        reeur.transfer(msg.sender, qtyToSell);        \r\n\r\n    }\r\n\r\n\r\n}\r\n",
  "sourcePath": "C:\\Users\\matteo\\Documents\\GitHub\\ReCrypto\\src\\contracts\\SwapRecryEur.sol",
  "compiler": {
    "name": "solc",
    "version": "0.8.20+commit.a1b79de6.Emscripten.clang"
  },
  "schemaVersion": "3.4.7",
  "updatedAt": "2023-05-21T09:46:49.731Z",
  "devdoc": {
    "kind": "dev",
    "methods": {},
    "version": 1
  },
  "userdoc": {
    "kind": "user",
    "methods": {},
    "version": 1
  }
}