{
  "contractName": "SwapRecryEur",
  "abi": [
    {
      "inputs": [
        {
          "internalType": "contract ReCryptoToken",
          "name": "_recry",
          "type": "address"
        },
        {
          "internalType": "contract ReEURToken",
          "name": "_reeur",
          "type": "address"
        }
      ],
      "stateMutability": "nonpayable",
      "type": "constructor"
    },
    {
      "inputs": [],
      "name": "maxSupply",
      "outputs": [
        {
          "internalType": "uint256",
          "name": "",
          "type": "uint256"
        }
      ],
      "stateMutability": "view",
      "type": "function",
      "constant": true
    },
    {
      "inputs": [],
      "name": "owner",
      "outputs": [
        {
          "internalType": "address",
          "name": "",
          "type": "address"
        }
      ],
      "stateMutability": "view",
      "type": "function",
      "constant": true
    },
    {
      "inputs": [],
      "name": "protocolGain",
      "outputs": [
        {
          "internalType": "uint256",
          "name": "",
          "type": "uint256"
        }
      ],
      "stateMutability": "view",
      "type": "function",
      "constant": true
    },
    {
      "inputs": [],
      "name": "recry",
      "outputs": [
        {
          "internalType": "contract ReCryptoToken",
          "name": "",
          "type": "address"
        }
      ],
      "stateMutability": "view",
      "type": "function",
      "constant": true
    },
    {
      "inputs": [],
      "name": "reeur",
      "outputs": [
        {
          "internalType": "contract ReEURToken",
          "name": "",
          "type": "address"
        }
      ],
      "stateMutability": "view",
      "type": "function",
      "constant": true
    },
    {
      "inputs": [
        {
          "internalType": "uint256",
          "name": "_amount",
          "type": "uint256"
        }
      ],
      "name": "addRecrySupply",
      "outputs": [],
      "stateMutability": "payable",
      "type": "function",
      "payable": true
    },
    {
      "inputs": [
        {
          "internalType": "uint256",
          "name": "_amount",
          "type": "uint256"
        }
      ],
      "name": "remRecrySupply",
      "outputs": [],
      "stateMutability": "payable",
      "type": "function",
      "payable": true
    },
    {
      "inputs": [
        {
          "internalType": "uint256",
          "name": "_amount",
          "type": "uint256"
        }
      ],
      "name": "changeRecrySupply",
      "outputs": [],
      "stateMutability": "nonpayable",
      "type": "function"
    },
    {
      "inputs": [
        {
          "internalType": "uint256",
          "name": "_amount",
          "type": "uint256"
        }
      ],
      "name": "addProtocolGain",
      "outputs": [],
      "stateMutability": "nonpayable",
      "type": "function"
    },
    {
      "inputs": [
        {
          "internalType": "uint256",
          "name": "_amount",
          "type": "uint256"
        }
      ],
      "name": "changeProtocolGain",
      "outputs": [],
      "stateMutability": "nonpayable",
      "type": "function"
    },
    {
      "inputs": [],
      "name": "getRecryValue",
      "outputs": [
        {
          "internalType": "uint256",
          "name": "_value",
          "type": "uint256"
        }
      ],
      "stateMutability": "view",
      "type": "function",
      "constant": true
    },
    {
      "inputs": [],
      "name": "getRecryPrice",
      "outputs": [
        {
          "internalType": "uint256",
          "name": "_value",
          "type": "uint256"
        }
      ],
      "stateMutability": "view",
      "type": "function",
      "constant": true
    },
    {
      "inputs": [],
      "name": "getRecryTotalValue",
      "outputs": [
        {
          "internalType": "uint256",
          "name": "_value",
          "type": "uint256"
        }
      ],
      "stateMutability": "view",
      "type": "function",
      "constant": true
    },
    {
      "inputs": [],
      "name": "getRecryMaxSupply",
      "outputs": [
        {
          "internalType": "uint256",
          "name": "_value",
          "type": "uint256"
        }
      ],
      "stateMutability": "view",
      "type": "function",
      "constant": true
    },
    {
      "inputs": [],
      "name": "getRecryMaxAvailable",
      "outputs": [
        {
          "internalType": "uint256",
          "name": "_value",
          "type": "uint256"
        }
      ],
      "stateMutability": "view",
      "type": "function",
      "constant": true
    },
    {
      "inputs": [],
      "name": "getReEURMaxAvailable",
      "outputs": [
        {
          "internalType": "uint256",
          "name": "_value",
          "type": "uint256"
        }
      ],
      "stateMutability": "view",
      "type": "function",
      "constant": true
    },
    {
      "inputs": [],
      "name": "getProtocolGain",
      "outputs": [
        {
          "internalType": "uint256",
          "name": "_value",
          "type": "uint256"
        }
      ],
      "stateMutability": "view",
      "type": "function",
      "constant": true
    },
    {
      "inputs": [],
      "name": "isOwnerX",
      "outputs": [
        {
          "internalType": "bool",
          "name": "_value",
          "type": "bool"
        }
      ],
      "stateMutability": "view",
      "type": "function",
      "constant": true
    },
    {
      "inputs": [],
      "name": "getSender",
      "outputs": [
        {
          "internalType": "address",
          "name": "_value",
          "type": "address"
        }
      ],
      "stateMutability": "view",
      "type": "function",
      "constant": true
    },
    {
      "inputs": [],
      "name": "getOwner",
      "outputs": [
        {
          "internalType": "address",
          "name": "_value",
          "type": "address"
        }
      ],
      "stateMutability": "view",
      "type": "function",
      "constant": true
    },
    {
      "inputs": [
        {
          "internalType": "uint256",
          "name": "_amount",
          "type": "uint256"
        }
      ],
      "name": "buyRecryWithReEUR",
      "outputs": [],
      "stateMutability": "payable",
      "type": "function",
      "payable": true
    },
    {
      "inputs": [
        {
          "internalType": "uint256",
          "name": "_amount",
          "type": "uint256"
        }
      ],
      "name": "sellRecryForReEUR",
      "outputs": [],
      "stateMutability": "payable",
      "type": "function",
      "payable": true
    }
  ],
  "bytecode": "0x6080604052600060035560006004553480156200001b57600080fd5b50604051620020ea380380620020ea8339818101604052810190620000419190620001ce565b81600160006101000a81548173ffffffffffffffffffffffffffffffffffffffff021916908373ffffffffffffffffffffffffffffffffffffffff16021790555080600260006101000a81548173ffffffffffffffffffffffffffffffffffffffff021916908373ffffffffffffffffffffffffffffffffffffffff160217905550336000806101000a81548173ffffffffffffffffffffffffffffffffffffffff021916908373ffffffffffffffffffffffffffffffffffffffff160217905550505062000215565b600080fd5b600073ffffffffffffffffffffffffffffffffffffffff82169050919050565b60006200013d8262000110565b9050919050565b6000620001518262000130565b9050919050565b620001638162000144565b81146200016f57600080fd5b50565b600081519050620001838162000158565b92915050565b6000620001968262000130565b9050919050565b620001a88162000189565b8114620001b457600080fd5b50565b600081519050620001c8816200019d565b92915050565b60008060408385031215620001e857620001e76200010b565b5b6000620001f88582860162000172565b92505060206200020b85828601620001b7565b9150509250929050565b611ec580620002256000396000f3fe6080604052600436106101355760003560e01c8063689215fd116100ab578063a53167f91161006f578063a53167f9146103b7578063d5abeb01146103d3578063d60a904e146103fe578063ddf5b66c14610429578063ecb9417c14610454578063f1a376b61461047f57610135565b8063689215fd146102ef5780637741eb921461030b578063893d20e8146103365780638da5cb5b146103615780639586910c1461038c57610135565b80632bd160bc116100fd5780632bd160bc1461020d5780633debda31146102385780634bd2f33d146102635780634cd60eb31461028c5780635837bec1146102a85780635e01eb5a146102c457610135565b80630b4687791461013a5780630b6e87f714610165578063112ed6e2146101905780631ded4ad9146101b957806327718127146101e2575b600080fd5b34801561014657600080fd5b5061014f6104aa565b60405161015c9190611769565b60405180910390f35b34801561017157600080fd5b5061017a6104d0565b604051610187919061179d565b60405180910390f35b34801561019c57600080fd5b506101b760048036038101906101b291906117e9565b6104d6565b005b3480156101c557600080fd5b506101e060048036038101906101db91906117e9565b61056e565b005b3480156101ee57600080fd5b506101f7610613565b6040516102049190611831565b60405180910390f35b34801561021957600080fd5b5061022261067a565b60405161022f919061179d565b60405180910390f35b34801561024457600080fd5b5061024d61071d565b60405161025a919061179d565b60405180910390f35b34801561026f57600080fd5b5061028a600480360381019061028591906117e9565b6107c0565b005b6102a660048036038101906102a191906117e9565b6108ef565b005b6102c260048036038101906102bd91906117e9565b610b1d565b005b3480156102d057600080fd5b506102d9610d68565b6040516102e6919061186d565b60405180910390f35b610309600480360381019061030491906117e9565b610d70565b005b34801561031757600080fd5b5061032061127b565b60405161032d919061179d565b60405180910390f35b34801561034257600080fd5b5061034b611285565b604051610358919061186d565b60405180910390f35b34801561036d57600080fd5b506103766112ae565b604051610383919061186d565b60405180910390f35b34801561039857600080fd5b506103a16112d2565b6040516103ae91906118a9565b60405180910390f35b6103d160048036038101906103cc91906117e9565b6112f8565b005b3480156103df57600080fd5b506103e86115ca565b6040516103f5919061179d565b60405180910390f35b34801561040a57600080fd5b506104136115d0565b604051610420919061179d565b60405180910390f35b34801561043557600080fd5b5061043e611685565b60405161044b919061179d565b60405180910390f35b34801561046057600080fd5b506104696116a9565b604051610476919061179d565b60405180910390f35b34801561048b57600080fd5b506104946116b3565b6040516104a1919061179d565b60405180910390f35b600160009054906101000a900473ffffffffffffffffffffffffffffffffffffffff1681565b60045481565b60008054906101000a900473ffffffffffffffffffffffffffffffffffffffff1673ffffffffffffffffffffffffffffffffffffffff163373ffffffffffffffffffffffffffffffffffffffff1614610564576040517f08c379a000000000000000000000000000000000000000000000000000000000815260040161055b90611921565b60405180910390fd5b8060048190555050565b60008054906101000a900473ffffffffffffffffffffffffffffffffffffffff1673ffffffffffffffffffffffffffffffffffffffff163373ffffffffffffffffffffffffffffffffffffffff16146105fc576040517f08c379a00000000000000000000000000000000000000000000000000000000081526004016105f390611921565b60405180910390fd5b8060045461060a9190611970565b60048190555050565b60008060009054906101000a900473ffffffffffffffffffffffffffffffffffffffff1673ffffffffffffffffffffffffffffffffffffffff163373ffffffffffffffffffffffffffffffffffffffff16036106725760019050610677565b600090505b90565b6000600160009054906101000a900473ffffffffffffffffffffffffffffffffffffffff1673ffffffffffffffffffffffffffffffffffffffff166370a08231306040518263ffffffff1660e01b81526004016106d7919061186d565b602060405180830381865afa1580156106f4573d6000803e3d6000fd5b505050506040513d601f19601f8201168201806040525081019061071891906119b9565b905090565b6000600260009054906101000a900473ffffffffffffffffffffffffffffffffffffffff1673ffffffffffffffffffffffffffffffffffffffff166370a08231306040518263ffffffff1660e01b815260040161077a919061186d565b602060405180830381865afa158015610797573d6000803e3d6000fd5b505050506040513d601f19601f820116820180604052508101906107bb91906119b9565b905090565b60008054906101000a900473ffffffffffffffffffffffffffffffffffffffff1673ffffffffffffffffffffffffffffffffffffffff163373ffffffffffffffffffffffffffffffffffffffff161461084e576040517f08c379a000000000000000000000000000000000000000000000000000000000815260040161084590611921565b60405180910390fd5b6003548103610892576040517f08c379a000000000000000000000000000000000000000000000000000000000815260040161088990611a58565b60405180910390fd5b6003548111156108bd576000600354826108ac9190611a78565b90506108b781610b1d565b506108e5565b6003548110156108e4576000816003546108d79190611a78565b90506108e2816108ef565b505b5b8060038190555050565b60008054906101000a900473ffffffffffffffffffffffffffffffffffffffff1673ffffffffffffffffffffffffffffffffffffffff163373ffffffffffffffffffffffffffffffffffffffff161461097d576040517f08c379a000000000000000000000000000000000000000000000000000000000815260040161097490611921565b60405180910390fd5b80600160009054906101000a900473ffffffffffffffffffffffffffffffffffffffff1673ffffffffffffffffffffffffffffffffffffffff166370a08231336040518263ffffffff1660e01b81526004016109d9919061186d565b602060405180830381865afa1580156109f6573d6000803e3d6000fd5b505050506040513d601f19601f82011682018060405250810190610a1a91906119b9565b1015610a5b576040517f08c379a0000000000000000000000000000000000000000000000000000000008152600401610a5290611af8565b60405180910390fd5b600160009054906101000a900473ffffffffffffffffffffffffffffffffffffffff1673ffffffffffffffffffffffffffffffffffffffff166323b872dd3330846040518463ffffffff1660e01b8152600401610aba93929190611b18565b6020604051808303816000875af1158015610ad9573d6000803e3d6000fd5b505050506040513d601f19601f82011682018060405250810190610afd9190611b7b565b610b0657600080fd5b80600354610b149190611970565b60038190555050565b60008054906101000a900473ffffffffffffffffffffffffffffffffffffffff1673ffffffffffffffffffffffffffffffffffffffff163373ffffffffffffffffffffffffffffffffffffffff1614610bab576040517f08c379a0000000000000000000000000000000000000000000000000000000008152600401610ba290611921565b60405180910390fd5b80600160009054906101000a900473ffffffffffffffffffffffffffffffffffffffff1673ffffffffffffffffffffffffffffffffffffffff166370a08231306040518263ffffffff1660e01b8152600401610c07919061186d565b602060405180830381865afa158015610c24573d6000803e3d6000fd5b505050506040513d601f19601f82011682018060405250810190610c4891906119b9565b11610c88576040517f08c379a0000000000000000000000000000000000000000000000000000000008152600401610c7f90611bf4565b60405180910390fd5b600160009054906101000a900473ffffffffffffffffffffffffffffffffffffffff1673ffffffffffffffffffffffffffffffffffffffff1663a9059cbb60008054906101000a900473ffffffffffffffffffffffffffffffffffffffff16836040518363ffffffff1660e01b8152600401610d05929190611c14565b6020604051808303816000875af1158015610d24573d6000803e3d6000fd5b505050506040513d601f19601f82011682018060405250810190610d489190611b7b565b610d5157600080fd5b80600354610d5f9190611970565b60038190555050565b600033905090565b6000610d7a611685565b82610d859190611c6c565b905060008211610dca576040517f08c379a0000000000000000000000000000000000000000000000000000000008152600401610dc190611ce9565b60405180910390fd5b80600160009054906101000a900473ffffffffffffffffffffffffffffffffffffffff1673ffffffffffffffffffffffffffffffffffffffff166370a08231306040518263ffffffff1660e01b8152600401610e26919061186d565b602060405180830381865afa158015610e43573d6000803e3d6000fd5b505050506040513d601f19601f82011682018060405250810190610e6791906119b9565b1015610ea8576040517f08c379a0000000000000000000000000000000000000000000000000000000008152600401610e9f90611d55565b60405180910390fd5b6000610eb261071d565b600454610ebf9190611a78565b90506000811115611109578083111561105857600260009054906101000a900473ffffffffffffffffffffffffffffffffffffffff1673ffffffffffffffffffffffffffffffffffffffff166323b872dd3330846040518463ffffffff1660e01b8152600401610f3193929190611b18565b6020604051808303816000875af1158015610f50573d6000803e3d6000fd5b505050506040513d601f19601f82011682018060405250810190610f749190611b7b565b610f7d57600080fd5b600260009054906101000a900473ffffffffffffffffffffffffffffffffffffffff1673ffffffffffffffffffffffffffffffffffffffff166323b872dd3360008054906101000a900473ffffffffffffffffffffffffffffffffffffffff168487610fe99190611a78565b6040518463ffffffff1660e01b815260040161100793929190611b18565b6020604051808303816000875af1158015611026573d6000803e3d6000fd5b505050506040513d601f19601f8201168201806040525081019061104a9190611b7b565b61105357600080fd5b611104565b600260009054906101000a900473ffffffffffffffffffffffffffffffffffffffff1673ffffffffffffffffffffffffffffffffffffffff166323b872dd3330866040518463ffffffff1660e01b81526004016110b793929190611b18565b6020604051808303816000875af11580156110d6573d6000803e3d6000fd5b505050506040513d601f19601f820116820180604052508101906110fa9190611b7b565b61110357600080fd5b5b6111d5565b600260009054906101000a900473ffffffffffffffffffffffffffffffffffffffff1673ffffffffffffffffffffffffffffffffffffffff166323b872dd3360008054906101000a900473ffffffffffffffffffffffffffffffffffffffff16866040518463ffffffff1660e01b815260040161118893929190611b18565b6020604051808303816000875af11580156111a7573d6000803e3d6000fd5b505050506040513d601f19601f820116820180604052508101906111cb9190611b7b565b6111d457600080fd5b5b600160009054906101000a900473ffffffffffffffffffffffffffffffffffffffff1673ffffffffffffffffffffffffffffffffffffffff1663a9059cbb33856040518363ffffffff1660e01b8152600401611232929190611c14565b6020604051808303816000875af1158015611251573d6000803e3d6000fd5b505050506040513d601f19601f820116820180604052508101906112759190611b7b565b50505050565b6000600354905090565b60008060009054906101000a900473ffffffffffffffffffffffffffffffffffffffff16905090565b60008054906101000a900473ffffffffffffffffffffffffffffffffffffffff1681565b600260009054906101000a900473ffffffffffffffffffffffffffffffffffffffff1681565b6000611302611685565b8261130d9190611d75565b905060008211611352576040517f08c379a000000000000000000000000000000000000000000000000000000000815260040161134990611ce9565b60405180910390fd5b81600160009054906101000a900473ffffffffffffffffffffffffffffffffffffffff1673ffffffffffffffffffffffffffffffffffffffff166370a08231336040518263ffffffff1660e01b81526004016113ae919061186d565b602060405180830381865afa1580156113cb573d6000803e3d6000fd5b505050506040513d601f19601f820116820180604052508101906113ef91906119b9565b1015611430576040517f08c379a000000000000000000000000000000000000000000000000000000000815260040161142790611e03565b60405180910390fd5b8061143961071d565b101561147a576040517f08c379a000000000000000000000000000000000000000000000000000000000815260040161147190611e6f565b60405180910390fd5b600160009054906101000a900473ffffffffffffffffffffffffffffffffffffffff1673ffffffffffffffffffffffffffffffffffffffff166323b872dd3330856040518463ffffffff1660e01b81526004016114d993929190611b18565b6020604051808303816000875af11580156114f8573d6000803e3d6000fd5b505050506040513d601f19601f8201168201806040525081019061151c9190611b7b565b61152557600080fd5b600260009054906101000a900473ffffffffffffffffffffffffffffffffffffffff1673ffffffffffffffffffffffffffffffffffffffff1663a9059cbb33836040518363ffffffff1660e01b8152600401611582929190611c14565b6020604051808303816000875af11580156115a1573d6000803e3d6000fd5b505050506040513d601f19601f820116820180604052508101906115c59190611b7b565b505050565b60035481565b6000600160009054906101000a900473ffffffffffffffffffffffffffffffffffffffff1673ffffffffffffffffffffffffffffffffffffffff166370a08231336040518263ffffffff1660e01b815260040161162d919061186d565b602060405180830381865afa15801561164a573d6000803e3d6000fd5b505050506040513d601f19601f8201168201806040525081019061166e91906119b9565b611676611685565b6116809190611d75565b905090565b600060035460045460035461169a9190611970565b6116a49190611c6c565b905090565b6000600454905090565b6000670de0b6b3a76400006003546004546003546116d19190611970565b6116db9190611c6c565b6116e59190611d75565b905090565b600073ffffffffffffffffffffffffffffffffffffffff82169050919050565b6000819050919050565b600061172f61172a611725846116ea565b61170a565b6116ea565b9050919050565b600061174182611714565b9050919050565b600061175382611736565b9050919050565b61176381611748565b82525050565b600060208201905061177e600083018461175a565b92915050565b6000819050919050565b61179781611784565b82525050565b60006020820190506117b2600083018461178e565b92915050565b600080fd5b6117c681611784565b81146117d157600080fd5b50565b6000813590506117e3816117bd565b92915050565b6000602082840312156117ff576117fe6117b8565b5b600061180d848285016117d4565b91505092915050565b60008115159050919050565b61182b81611816565b82525050565b60006020820190506118466000830184611822565b92915050565b6000611857826116ea565b9050919050565b6118678161184c565b82525050565b6000602082019050611882600083018461185e565b92915050565b600061189382611736565b9050919050565b6118a381611888565b82525050565b60006020820190506118be600083018461189a565b92915050565b600082825260208201905092915050565b7f43616c6c6572206973206e6f74206f776e657200000000000000000000000000600082015250565b600061190b6013836118c4565b9150611916826118d5565b602082019050919050565b6000602082019050818103600083015261193a816118fe565b9050919050565b7f4e487b7100000000000000000000000000000000000000000000000000000000600052601160045260246000fd5b600061197b82611784565b915061198683611784565b925082820190508082111561199e5761199d611941565b5b92915050565b6000815190506119b3816117bd565b92915050565b6000602082840312156119cf576119ce6117b8565b5b60006119dd848285016119a4565b91505092915050565b7f416d6f756e74206d75737420626520646966666572656e742066726f6d206d6160008201527f78537570706c7900000000000000000000000000000000000000000000000000602082015250565b6000611a426027836118c4565b9150611a4d826119e6565b604082019050919050565b60006020820190508181036000830152611a7181611a35565b9050919050565b6000611a8382611784565b9150611a8e83611784565b9250828203905081811115611aa657611aa5611941565b5b92915050565b7f6e6f20656e6f75676820726563727920746f2061646400000000000000000000600082015250565b6000611ae26016836118c4565b9150611aed82611aac565b602082019050919050565b60006020820190508181036000830152611b1181611ad5565b9050919050565b6000606082019050611b2d600083018661185e565b611b3a602083018561185e565b611b47604083018461178e565b949350505050565b611b5881611816565b8114611b6357600080fd5b50565b600081519050611b7581611b4f565b92915050565b600060208284031215611b9157611b906117b8565b5b6000611b9f84828501611b66565b91505092915050565b7f6e6f20656e6f75676820726563727920746f2077697468647261770000000000600082015250565b6000611bde601b836118c4565b9150611be982611ba8565b602082019050919050565b60006020820190508181036000830152611c0d81611bd1565b9050919050565b6000604082019050611c29600083018561185e565b611c36602083018461178e565b9392505050565b7f4e487b7100000000000000000000000000000000000000000000000000000000600052601260045260246000fd5b6000611c7782611784565b9150611c8283611784565b925082611c9257611c91611c3d565b5b828204905092915050565b7f616d6f756e742063616e6e6f7420626520300000000000000000000000000000600082015250565b6000611cd36012836118c4565b9150611cde82611c9d565b602082019050919050565b60006020820190508181036000830152611d0281611cc6565b9050919050565b7f6e6f20656e6f75676820726563727920746f2062757900000000000000000000600082015250565b6000611d3f6016836118c4565b9150611d4a82611d09565b602082019050919050565b60006020820190508181036000830152611d6e81611d32565b9050919050565b6000611d8082611784565b9150611d8b83611784565b9250828202611d9981611784565b91508282048414831517611db057611daf611941565b5b5092915050565b7f6e6f20656e6f75676820726563727920746f2073656c6c000000000000000000600082015250565b6000611ded6017836118c4565b9150611df882611db7565b602082019050919050565b60006020820190508181036000830152611e1c81611de0565b9050919050565b7f6e6f20656e6f75676820726565757220746f2073776170000000000000000000600082015250565b6000611e596017836118c4565b9150611e6482611e23565b602082019050919050565b60006020820190508181036000830152611e8881611e4c565b905091905056fea2646970667358221220d25004859544901f3aa77c147bb92d9102598a110a44837bf01bf619e3bb866a64736f6c63430008150033",
  "immutableReferences": {},
  "source": "// SPDX-License-Identifier: MIT\r\npragma solidity ^0.8.4;\r\n\r\nimport \"./ReCryptoToken.sol\";\r\nimport \"./ReEURToken.sol\";\r\n\r\ncontract SwapRecryEur {\r\n    address public owner;\r\n    ReCryptoToken public recry;\r\n    ReEURToken public reeur;\r\n\r\n    uint public maxSupply    = 0; //number of token available 500000\r\n    uint public protocolGain = 0; //protocol gain\r\n\r\n    constructor(ReCryptoToken _recry, ReEURToken _reeur) {\r\n        recry = _recry;\r\n        reeur = _reeur;\r\n        owner = msg.sender;\r\n    }\r\n    modifier isOwner() {\r\n        require(msg.sender == owner, \"Caller is not owner\");\r\n        _;\r\n    }\r\n\r\n    function addRecrySupply(uint _amount) public payable isOwner {\r\n        require(recry.balanceOf(msg.sender) >= _amount , \"no enough recry to add\");\r\n        require(recry.transferFrom(msg.sender,address(this), _amount));\r\n        maxSupply = maxSupply + _amount;\r\n    }\r\n\r\n    function remRecrySupply(uint _amount) public payable isOwner{\r\n        require(recry.balanceOf(address(this)) > _amount, \"no enough recry to withdraw\");\r\n        require(recry.transfer(owner, _amount));\r\n        maxSupply = maxSupply + _amount;\r\n    }\r\n\r\n    function changeRecrySupply(uint _amount) public isOwner {\r\n         require(_amount != maxSupply, \"Amount must be different from maxSupply\");\r\n        if (_amount > maxSupply)\r\n        {\r\n            uint diff = _amount-maxSupply;\r\n            remRecrySupply(diff); \r\n        }\r\n        else if (_amount < maxSupply)\r\n        {\r\n            uint diff = maxSupply-_amount;\r\n            addRecrySupply(diff); \r\n        }      \r\n        maxSupply = _amount;\r\n    }\r\n\r\n    function addProtocolGain(uint _amount) public isOwner {\r\n        protocolGain = protocolGain + _amount;\r\n    }\r\n\r\n    function changeProtocolGain(uint _amount) public isOwner {\r\n         protocolGain = _amount;\r\n    }\r\n\r\n    function getRecryValue() public view returns(uint _value)\r\n    {\r\n           return  _value = ((maxSupply+protocolGain)/maxSupply);\r\n    }\r\n    function getRecryPrice() public view returns(uint _value)\r\n    {\r\n           return  _value = ((maxSupply+protocolGain)/maxSupply)*1000000000000000000;\r\n    }\r\n    function getRecryTotalValue() public view returns(uint _value)\r\n    {\r\n           return  _value = getRecryValue() * recry.balanceOf(msg.sender);\r\n    }\r\n\r\n    function getRecryMaxSupply() public view returns(uint _value)\r\n    {\r\n            return maxSupply;\r\n    }\r\n\r\n    function getRecryMaxAvailable() public view returns(uint _value)\r\n    {\r\n            return recry.balanceOf(address(this));\r\n    }\r\n\r\n    function getReEURMaxAvailable() public view returns(uint _value)\r\n    {\r\n            return reeur.balanceOf(address(this));\r\n    }\r\n\r\n    function getProtocolGain() public view returns(uint _value)\r\n    {\r\n            return protocolGain;\r\n    }\r\n\r\n    function isOwnerX() public view returns(bool _value)\r\n    {\r\n            if (msg.sender == owner)\r\n            {\r\n                return true;\r\n            }\r\n            else\r\n            {\r\n                return false;\r\n            }\r\n    }\r\n    function getSender() public view returns(address _value)\r\n    {\r\n            return msg.sender;\r\n    }\r\n    function getOwner() public view returns(address _value)\r\n    {\r\n            return owner;\r\n    }\r\n\r\n    function buyRecryWithReEUR(uint _amount) public payable{\r\n        // Require amount greater than 0\r\n        uint qtyToBuy = _amount / getRecryValue();\r\n        require(_amount > 0, \"amount cannot be 0\");\r\n        require(recry.balanceOf(address(this)) >= qtyToBuy , \"no enough recry to buy\");\r\n        uint maxRecharge = protocolGain - getReEURMaxAvailable();\r\n        if (maxRecharge > 0)\r\n        {\r\n               // Trasnfer some reeur to refill the protocol  not in the protocol\r\n               if (_amount > maxRecharge)\r\n               {\r\n                     require(reeur.transferFrom(msg.sender, address(this), maxRecharge)); \r\n                     require(reeur.transferFrom(msg.sender, owner, _amount-maxRecharge)); \r\n               }\r\n               else\r\n               {\r\n                    require(reeur.transferFrom(msg.sender, address(this), _amount)); \r\n               }\r\n        }\r\n        else\r\n        {\r\n             // Trasnfer reeur to the owner not in the protocol\r\n               require(reeur.transferFrom(msg.sender, owner, _amount)); \r\n        }\r\n        \r\n        // Trasnfer recry to the buyer\r\n        recry.transfer(msg.sender, _amount);        \r\n    }\r\n\r\n    function sellRecryForReEUR(uint _amount) public payable{\r\n        // Require amount greater than 0\r\n        uint qtyToSell = _amount * getRecryValue();\r\n        require(_amount > 0, \"amount cannot be 0\");\r\n        require(recry.balanceOf(msg.sender) >= _amount , \"no enough recry to sell\");\r\n        require(getReEURMaxAvailable() >= qtyToSell , \"no enough reeur to swap\");\r\n\r\n        // Trasnfer reeur to the owner not in the protocol\r\n        require(recry.transferFrom(msg.sender, address(this), _amount));\r\n        // Trasnfer recry to the buyer\r\n        reeur.transfer(msg.sender, qtyToSell);        \r\n\r\n    }\r\n\r\n\r\n}\r\n",
  "sourcePath": "C:\\Users\\HP\\Documents\\GitHub\\redefi-dapp\\src\\contracts\\SwapRecryEur.sol",
  "compiler": {
    "name": "solc",
    "version": "0.8.21+commit.d9974bed.Emscripten.clang"
  },
  "schemaVersion": "3.4.14",
  "updatedAt": "2023-10-06T18:56:05.189Z",
  "networkType": "ethereum",
  "devdoc": {
    "kind": "dev",
    "methods": {},
    "version": 1
  },
  "userdoc": {
    "kind": "user",
    "methods": {},
    "version": 1
  }
}