{
  "contractName": "SwapRecryUsd",
  "abi": [
    {
      "inputs": [
        {
          "internalType": "contract ReCryptoToken",
          "name": "_recry",
          "type": "address"
        },
        {
          "internalType": "contract ReUSDToken",
          "name": "_reusd",
          "type": "address"
        }
      ],
      "stateMutability": "nonpayable",
      "type": "constructor"
    },
    {
      "inputs": [],
      "name": "maxSupply",
      "outputs": [
        {
          "internalType": "uint256",
          "name": "",
          "type": "uint256"
        }
      ],
      "stateMutability": "view",
      "type": "function"
    },
    {
      "inputs": [],
      "name": "owner",
      "outputs": [
        {
          "internalType": "address",
          "name": "",
          "type": "address"
        }
      ],
      "stateMutability": "view",
      "type": "function"
    },
    {
      "inputs": [],
      "name": "protocolGain",
      "outputs": [
        {
          "internalType": "uint256",
          "name": "",
          "type": "uint256"
        }
      ],
      "stateMutability": "view",
      "type": "function"
    },
    {
      "inputs": [],
      "name": "recry",
      "outputs": [
        {
          "internalType": "contract ReCryptoToken",
          "name": "",
          "type": "address"
        }
      ],
      "stateMutability": "view",
      "type": "function"
    },
    {
      "inputs": [],
      "name": "reusd",
      "outputs": [
        {
          "internalType": "contract ReUSDToken",
          "name": "",
          "type": "address"
        }
      ],
      "stateMutability": "view",
      "type": "function"
    },
    {
      "inputs": [
        {
          "internalType": "uint256",
          "name": "_amount",
          "type": "uint256"
        }
      ],
      "name": "addRecrySupply",
      "outputs": [],
      "stateMutability": "payable",
      "type": "function"
    },
    {
      "inputs": [
        {
          "internalType": "uint256",
          "name": "_amount",
          "type": "uint256"
        }
      ],
      "name": "changeRecrySupply",
      "outputs": [],
      "stateMutability": "nonpayable",
      "type": "function"
    },
    {
      "inputs": [
        {
          "internalType": "uint256",
          "name": "_amount",
          "type": "uint256"
        }
      ],
      "name": "addProtocolGain",
      "outputs": [],
      "stateMutability": "nonpayable",
      "type": "function"
    },
    {
      "inputs": [
        {
          "internalType": "uint256",
          "name": "_amount",
          "type": "uint256"
        }
      ],
      "name": "changeProtocolGain",
      "outputs": [],
      "stateMutability": "nonpayable",
      "type": "function"
    },
    {
      "inputs": [
        {
          "internalType": "uint256",
          "name": "_amount",
          "type": "uint256"
        }
      ],
      "name": "withdrawReUSD",
      "outputs": [],
      "stateMutability": "payable",
      "type": "function"
    },
    {
      "inputs": [
        {
          "internalType": "uint256",
          "name": "_amount",
          "type": "uint256"
        }
      ],
      "name": "withdrawRecry",
      "outputs": [],
      "stateMutability": "payable",
      "type": "function"
    },
    {
      "inputs": [],
      "name": "getRecryValue",
      "outputs": [
        {
          "internalType": "uint256",
          "name": "_value",
          "type": "uint256"
        }
      ],
      "stateMutability": "view",
      "type": "function"
    },
    {
      "inputs": [],
      "name": "getRecryPrice",
      "outputs": [
        {
          "internalType": "uint256",
          "name": "_value",
          "type": "uint256"
        }
      ],
      "stateMutability": "view",
      "type": "function"
    },
    {
      "inputs": [],
      "name": "getRecryTotalValue",
      "outputs": [
        {
          "internalType": "uint256",
          "name": "_value",
          "type": "uint256"
        }
      ],
      "stateMutability": "view",
      "type": "function"
    },
    {
      "inputs": [],
      "name": "getRecryMaxSupply",
      "outputs": [
        {
          "internalType": "uint256",
          "name": "_value",
          "type": "uint256"
        }
      ],
      "stateMutability": "view",
      "type": "function"
    },
    {
      "inputs": [],
      "name": "getRecryMaxAvailable",
      "outputs": [
        {
          "internalType": "uint256",
          "name": "_value",
          "type": "uint256"
        }
      ],
      "stateMutability": "view",
      "type": "function"
    },
    {
      "inputs": [],
      "name": "getReUSDMaxAvailable",
      "outputs": [
        {
          "internalType": "uint256",
          "name": "_value",
          "type": "uint256"
        }
      ],
      "stateMutability": "view",
      "type": "function"
    },
    {
      "inputs": [],
      "name": "getProtocolGain",
      "outputs": [
        {
          "internalType": "uint256",
          "name": "_value",
          "type": "uint256"
        }
      ],
      "stateMutability": "view",
      "type": "function"
    },
    {
      "inputs": [],
      "name": "isOwnerX",
      "outputs": [
        {
          "internalType": "bool",
          "name": "_value",
          "type": "bool"
        }
      ],
      "stateMutability": "view",
      "type": "function"
    },
    {
      "inputs": [],
      "name": "getSender",
      "outputs": [
        {
          "internalType": "address",
          "name": "_value",
          "type": "address"
        }
      ],
      "stateMutability": "view",
      "type": "function"
    },
    {
      "inputs": [],
      "name": "getOwner",
      "outputs": [
        {
          "internalType": "address",
          "name": "_value",
          "type": "address"
        }
      ],
      "stateMutability": "view",
      "type": "function"
    },
    {
      "inputs": [
        {
          "internalType": "uint256",
          "name": "_amount",
          "type": "uint256"
        }
      ],
      "name": "buyRecryWithReUSD",
      "outputs": [],
      "stateMutability": "payable",
      "type": "function"
    },
    {
      "inputs": [
        {
          "internalType": "uint256",
          "name": "_amount",
          "type": "uint256"
        }
      ],
      "name": "sellRecryForReUSD",
      "outputs": [],
      "stateMutability": "payable",
      "type": "function"
    }
  ],
  "bytecode": "0x6080604052600060035560006004553480156200001b57600080fd5b5060405162002277380380620022778339818101604052810190620000419190620001ce565b81600160006101000a81548173ffffffffffffffffffffffffffffffffffffffff021916908373ffffffffffffffffffffffffffffffffffffffff16021790555080600260006101000a81548173ffffffffffffffffffffffffffffffffffffffff021916908373ffffffffffffffffffffffffffffffffffffffff160217905550336000806101000a81548173ffffffffffffffffffffffffffffffffffffffff021916908373ffffffffffffffffffffffffffffffffffffffff160217905550505062000215565b600080fd5b600073ffffffffffffffffffffffffffffffffffffffff82169050919050565b60006200013d8262000110565b9050919050565b6000620001518262000130565b9050919050565b620001638162000144565b81146200016f57600080fd5b50565b600081519050620001838162000158565b92915050565b6000620001968262000130565b9050919050565b620001a88162000189565b8114620001b457600080fd5b50565b600081519050620001c8816200019d565b92915050565b60008060408385031215620001e857620001e76200010b565b5b6000620001f88582860162000172565b92505060206200020b85828601620001b7565b9150509250929050565b61205280620002256000396000f3fe6080604052600436106101405760003560e01c80635e01eb5a116100b6578063d5abeb011161006f578063d5abeb01146103de578063d60a904e14610409578063ddf5b66c14610434578063e46cc8b81461045f578063ecb9417c1461047b578063f1a376b6146104a657610140565b80635e01eb5a146102eb57806360bda491146103165780637741eb9214610341578063893d20e81461036c5780638da5cb5b14610397578063bbfab7dc146103c257610140565b8063277181271161010857806327718127146102095780632bd160bc14610234578063386e364f1461025f5780634bd2f33d1461027b5780634ccb7382146102a45780634cd60eb3146102cf57610140565b80630b468779146101455780630b6e87f71461017057806310d9744f1461019b578063112ed6e2146101b75780631ded4ad9146101e0575b600080fd5b34801561015157600080fd5b5061015a6104d1565b604051610167919061191c565b60405180910390f35b34801561017c57600080fd5b506101856104f7565b6040516101929190611950565b60405180910390f35b6101b560048036038101906101b0919061199c565b6104fd565b005b3480156101c357600080fd5b506101de60048036038101906101d9919061199c565b610734565b005b3480156101ec57600080fd5b506102076004803603810190610202919061199c565b6107cc565b005b34801561021557600080fd5b5061021e610871565b60405161022b91906119e4565b60405180910390f35b34801561024057600080fd5b506102496108d8565b6040516102569190611950565b60405180910390f35b6102796004803603810190610274919061199c565b61097b565b005b34801561028757600080fd5b506102a2600480360381019061029d919061199c565b610e86565b005b3480156102b057600080fd5b506102b9610f1e565b6040516102c69190611a20565b60405180910390f35b6102e960048036038101906102e4919061199c565b610f44565b005b3480156102f757600080fd5b50610300611172565b60405161030d9190611a5c565b60405180910390f35b34801561032257600080fd5b5061032b61117a565b6040516103389190611950565b60405180910390f35b34801561034d57600080fd5b5061035661121d565b6040516103639190611950565b60405180910390f35b34801561037857600080fd5b50610381611227565b60405161038e9190611a5c565b60405180910390f35b3480156103a357600080fd5b506103ac611250565b6040516103b99190611a5c565b60405180910390f35b6103dc60048036038101906103d7919061199c565b611274565b005b3480156103ea57600080fd5b506103f3611546565b6040516104009190611950565b60405180910390f35b34801561041557600080fd5b5061041e61154c565b60405161042b9190611950565b60405180910390f35b34801561044057600080fd5b50610449611601565b6040516104569190611950565b60405180910390f35b6104796004803603810190610474919061199c565b611625565b005b34801561048757600080fd5b5061049061185c565b60405161049d9190611950565b60405180910390f35b3480156104b257600080fd5b506104bb611866565b6040516104c89190611950565b60405180910390f35b600160009054906101000a900473ffffffffffffffffffffffffffffffffffffffff1681565b60045481565b60008054906101000a900473ffffffffffffffffffffffffffffffffffffffff1673ffffffffffffffffffffffffffffffffffffffff163373ffffffffffffffffffffffffffffffffffffffff161461058b576040517f08c379a000000000000000000000000000000000000000000000000000000000815260040161058290611ad4565b60405180910390fd5b80600160009054906101000a900473ffffffffffffffffffffffffffffffffffffffff1673ffffffffffffffffffffffffffffffffffffffff166370a08231306040518263ffffffff1660e01b81526004016105e79190611a5c565b602060405180830381865afa158015610604573d6000803e3d6000fd5b505050506040513d601f19601f820116820180604052508101906106289190611b09565b11610668576040517f08c379a000000000000000000000000000000000000000000000000000000000815260040161065f90611b82565b60405180910390fd5b600160009054906101000a900473ffffffffffffffffffffffffffffffffffffffff1673ffffffffffffffffffffffffffffffffffffffff1663a9059cbb60008054906101000a900473ffffffffffffffffffffffffffffffffffffffff16836040518363ffffffff1660e01b81526004016106e5929190611ba2565b6020604051808303816000875af1158015610704573d6000803e3d6000fd5b505050506040513d601f19601f820116820180604052508101906107289190611bf7565b61073157600080fd5b50565b60008054906101000a900473ffffffffffffffffffffffffffffffffffffffff1673ffffffffffffffffffffffffffffffffffffffff163373ffffffffffffffffffffffffffffffffffffffff16146107c2576040517f08c379a00000000000000000000000000000000000000000000000000000000081526004016107b990611ad4565b60405180910390fd5b8060048190555050565b60008054906101000a900473ffffffffffffffffffffffffffffffffffffffff1673ffffffffffffffffffffffffffffffffffffffff163373ffffffffffffffffffffffffffffffffffffffff161461085a576040517f08c379a000000000000000000000000000000000000000000000000000000000815260040161085190611ad4565b60405180910390fd5b806004546108689190611c53565b60048190555050565b60008060009054906101000a900473ffffffffffffffffffffffffffffffffffffffff1673ffffffffffffffffffffffffffffffffffffffff163373ffffffffffffffffffffffffffffffffffffffff16036108d057600190506108d5565b600090505b90565b6000600160009054906101000a900473ffffffffffffffffffffffffffffffffffffffff1673ffffffffffffffffffffffffffffffffffffffff166370a08231306040518263ffffffff1660e01b81526004016109359190611a5c565b602060405180830381865afa158015610952573d6000803e3d6000fd5b505050506040513d601f19601f820116820180604052508101906109769190611b09565b905090565b6000610985611601565b826109909190611cb6565b9050600082116109d5576040517f08c379a00000000000000000000000000000000000000000000000000000000081526004016109cc90611d33565b60405180910390fd5b80600160009054906101000a900473ffffffffffffffffffffffffffffffffffffffff1673ffffffffffffffffffffffffffffffffffffffff166370a08231306040518263ffffffff1660e01b8152600401610a319190611a5c565b602060405180830381865afa158015610a4e573d6000803e3d6000fd5b505050506040513d601f19601f82011682018060405250810190610a729190611b09565b1015610ab3576040517f08c379a0000000000000000000000000000000000000000000000000000000008152600401610aaa90611d9f565b60405180910390fd5b6000610abd61117a565b600454610aca9190611dbf565b90506000811115610d145780831115610c6357600260009054906101000a900473ffffffffffffffffffffffffffffffffffffffff1673ffffffffffffffffffffffffffffffffffffffff166323b872dd3330846040518463ffffffff1660e01b8152600401610b3c93929190611df3565b6020604051808303816000875af1158015610b5b573d6000803e3d6000fd5b505050506040513d601f19601f82011682018060405250810190610b7f9190611bf7565b610b8857600080fd5b600260009054906101000a900473ffffffffffffffffffffffffffffffffffffffff1673ffffffffffffffffffffffffffffffffffffffff166323b872dd3360008054906101000a900473ffffffffffffffffffffffffffffffffffffffff168487610bf49190611dbf565b6040518463ffffffff1660e01b8152600401610c1293929190611df3565b6020604051808303816000875af1158015610c31573d6000803e3d6000fd5b505050506040513d601f19601f82011682018060405250810190610c559190611bf7565b610c5e57600080fd5b610d0f565b600260009054906101000a900473ffffffffffffffffffffffffffffffffffffffff1673ffffffffffffffffffffffffffffffffffffffff166323b872dd3330866040518463ffffffff1660e01b8152600401610cc293929190611df3565b6020604051808303816000875af1158015610ce1573d6000803e3d6000fd5b505050506040513d601f19601f82011682018060405250810190610d059190611bf7565b610d0e57600080fd5b5b610de0565b600260009054906101000a900473ffffffffffffffffffffffffffffffffffffffff1673ffffffffffffffffffffffffffffffffffffffff166323b872dd3360008054906101000a900473ffffffffffffffffffffffffffffffffffffffff16866040518463ffffffff1660e01b8152600401610d9393929190611df3565b6020604051808303816000875af1158015610db2573d6000803e3d6000fd5b505050506040513d601f19601f82011682018060405250810190610dd69190611bf7565b610ddf57600080fd5b5b600160009054906101000a900473ffffffffffffffffffffffffffffffffffffffff1673ffffffffffffffffffffffffffffffffffffffff1663a9059cbb33856040518363ffffffff1660e01b8152600401610e3d929190611ba2565b6020604051808303816000875af1158015610e5c573d6000803e3d6000fd5b505050506040513d601f19601f82011682018060405250810190610e809190611bf7565b50505050565b60008054906101000a900473ffffffffffffffffffffffffffffffffffffffff1673ffffffffffffffffffffffffffffffffffffffff163373ffffffffffffffffffffffffffffffffffffffff1614610f14576040517f08c379a0000000000000000000000000000000000000000000000000000000008152600401610f0b90611ad4565b60405180910390fd5b8060038190555050565b600260009054906101000a900473ffffffffffffffffffffffffffffffffffffffff1681565b60008054906101000a900473ffffffffffffffffffffffffffffffffffffffff1673ffffffffffffffffffffffffffffffffffffffff163373ffffffffffffffffffffffffffffffffffffffff1614610fd2576040517f08c379a0000000000000000000000000000000000000000000000000000000008152600401610fc990611ad4565b60405180910390fd5b80600160009054906101000a900473ffffffffffffffffffffffffffffffffffffffff1673ffffffffffffffffffffffffffffffffffffffff166370a08231336040518263ffffffff1660e01b815260040161102e9190611a5c565b602060405180830381865afa15801561104b573d6000803e3d6000fd5b505050506040513d601f19601f8201168201806040525081019061106f9190611b09565b10156110b0576040517f08c379a00000000000000000000000000000000000000000000000000000000081526004016110a790611e76565b60405180910390fd5b600160009054906101000a900473ffffffffffffffffffffffffffffffffffffffff1673ffffffffffffffffffffffffffffffffffffffff166323b872dd3330846040518463ffffffff1660e01b815260040161110f93929190611df3565b6020604051808303816000875af115801561112e573d6000803e3d6000fd5b505050506040513d601f19601f820116820180604052508101906111529190611bf7565b61115b57600080fd5b806003546111699190611c53565b60038190555050565b600033905090565b6000600260009054906101000a900473ffffffffffffffffffffffffffffffffffffffff1673ffffffffffffffffffffffffffffffffffffffff166370a08231306040518263ffffffff1660e01b81526004016111d79190611a5c565b602060405180830381865afa1580156111f4573d6000803e3d6000fd5b505050506040513d601f19601f820116820180604052508101906112189190611b09565b905090565b6000600354905090565b60008060009054906101000a900473ffffffffffffffffffffffffffffffffffffffff16905090565b60008054906101000a900473ffffffffffffffffffffffffffffffffffffffff1681565b600061127e611601565b826112899190611e96565b9050600082116112ce576040517f08c379a00000000000000000000000000000000000000000000000000000000081526004016112c590611d33565b60405180910390fd5b81600160009054906101000a900473ffffffffffffffffffffffffffffffffffffffff1673ffffffffffffffffffffffffffffffffffffffff166370a08231336040518263ffffffff1660e01b815260040161132a9190611a5c565b602060405180830381865afa158015611347573d6000803e3d6000fd5b505050506040513d601f19601f8201168201806040525081019061136b9190611b09565b10156113ac576040517f08c379a00000000000000000000000000000000000000000000000000000000081526004016113a390611f24565b60405180910390fd5b806113b561117a565b10156113f6576040517f08c379a00000000000000000000000000000000000000000000000000000000081526004016113ed90611f90565b60405180910390fd5b600160009054906101000a900473ffffffffffffffffffffffffffffffffffffffff1673ffffffffffffffffffffffffffffffffffffffff166323b872dd3330856040518463ffffffff1660e01b815260040161145593929190611df3565b6020604051808303816000875af1158015611474573d6000803e3d6000fd5b505050506040513d601f19601f820116820180604052508101906114989190611bf7565b6114a157600080fd5b600260009054906101000a900473ffffffffffffffffffffffffffffffffffffffff1673ffffffffffffffffffffffffffffffffffffffff1663a9059cbb33836040518363ffffffff1660e01b81526004016114fe929190611ba2565b6020604051808303816000875af115801561151d573d6000803e3d6000fd5b505050506040513d601f19601f820116820180604052508101906115419190611bf7565b505050565b60035481565b6000600160009054906101000a900473ffffffffffffffffffffffffffffffffffffffff1673ffffffffffffffffffffffffffffffffffffffff166370a08231336040518263ffffffff1660e01b81526004016115a99190611a5c565b602060405180830381865afa1580156115c6573d6000803e3d6000fd5b505050506040513d601f19601f820116820180604052508101906115ea9190611b09565b6115f2611601565b6115fc9190611e96565b905090565b60006003546004546003546116169190611c53565b6116209190611cb6565b905090565b60008054906101000a900473ffffffffffffffffffffffffffffffffffffffff1673ffffffffffffffffffffffffffffffffffffffff163373ffffffffffffffffffffffffffffffffffffffff16146116b3576040517f08c379a00000000000000000000000000000000000000000000000000000000081526004016116aa90611ad4565b60405180910390fd5b80600260009054906101000a900473ffffffffffffffffffffffffffffffffffffffff1673ffffffffffffffffffffffffffffffffffffffff166370a08231306040518263ffffffff1660e01b815260040161170f9190611a5c565b602060405180830381865afa15801561172c573d6000803e3d6000fd5b505050506040513d601f19601f820116820180604052508101906117509190611b09565b11611790576040517f08c379a000000000000000000000000000000000000000000000000000000000815260040161178790611ffc565b60405180910390fd5b600260009054906101000a900473ffffffffffffffffffffffffffffffffffffffff1673ffffffffffffffffffffffffffffffffffffffff1663a9059cbb60008054906101000a900473ffffffffffffffffffffffffffffffffffffffff16836040518363ffffffff1660e01b815260040161180d929190611ba2565b6020604051808303816000875af115801561182c573d6000803e3d6000fd5b505050506040513d601f19601f820116820180604052508101906118509190611bf7565b61185957600080fd5b50565b6000600454905090565b6000670de0b6b3a76400006003546004546003546118849190611c53565b61188e9190611cb6565b6118989190611e96565b905090565b600073ffffffffffffffffffffffffffffffffffffffff82169050919050565b6000819050919050565b60006118e26118dd6118d88461189d565b6118bd565b61189d565b9050919050565b60006118f4826118c7565b9050919050565b6000611906826118e9565b9050919050565b611916816118fb565b82525050565b6000602082019050611931600083018461190d565b92915050565b6000819050919050565b61194a81611937565b82525050565b60006020820190506119656000830184611941565b92915050565b600080fd5b61197981611937565b811461198457600080fd5b50565b60008135905061199681611970565b92915050565b6000602082840312156119b2576119b161196b565b5b60006119c084828501611987565b91505092915050565b60008115159050919050565b6119de816119c9565b82525050565b60006020820190506119f960008301846119d5565b92915050565b6000611a0a826118e9565b9050919050565b611a1a816119ff565b82525050565b6000602082019050611a356000830184611a11565b92915050565b6000611a468261189d565b9050919050565b611a5681611a3b565b82525050565b6000602082019050611a716000830184611a4d565b92915050565b600082825260208201905092915050565b7f43616c6c6572206973206e6f74206f776e657200000000000000000000000000600082015250565b6000611abe601383611a77565b9150611ac982611a88565b602082019050919050565b60006020820190508181036000830152611aed81611ab1565b9050919050565b600081519050611b0381611970565b92915050565b600060208284031215611b1f57611b1e61196b565b5b6000611b2d84828501611af4565b91505092915050565b7f6e6f20656e6f75676820726563727920746f2077697468647261770000000000600082015250565b6000611b6c601b83611a77565b9150611b7782611b36565b602082019050919050565b60006020820190508181036000830152611b9b81611b5f565b9050919050565b6000604082019050611bb76000830185611a4d565b611bc46020830184611941565b9392505050565b611bd4816119c9565b8114611bdf57600080fd5b50565b600081519050611bf181611bcb565b92915050565b600060208284031215611c0d57611c0c61196b565b5b6000611c1b84828501611be2565b91505092915050565b7f4e487b7100000000000000000000000000000000000000000000000000000000600052601160045260246000fd5b6000611c5e82611937565b9150611c6983611937565b9250828201905080821115611c8157611c80611c24565b5b92915050565b7f4e487b7100000000000000000000000000000000000000000000000000000000600052601260045260246000fd5b6000611cc182611937565b9150611ccc83611937565b925082611cdc57611cdb611c87565b5b828204905092915050565b7f616d6f756e742063616e6e6f7420626520300000000000000000000000000000600082015250565b6000611d1d601283611a77565b9150611d2882611ce7565b602082019050919050565b60006020820190508181036000830152611d4c81611d10565b9050919050565b7f6e6f20656e6f75676820726563727920746f2062757900000000000000000000600082015250565b6000611d89601683611a77565b9150611d9482611d53565b602082019050919050565b60006020820190508181036000830152611db881611d7c565b9050919050565b6000611dca82611937565b9150611dd583611937565b9250828203905081811115611ded57611dec611c24565b5b92915050565b6000606082019050611e086000830186611a4d565b611e156020830185611a4d565b611e226040830184611941565b949350505050565b7f6e6f20656e6f75676820726563727920746f2061646400000000000000000000600082015250565b6000611e60601683611a77565b9150611e6b82611e2a565b602082019050919050565b60006020820190508181036000830152611e8f81611e53565b9050919050565b6000611ea182611937565b9150611eac83611937565b9250828202611eba81611937565b91508282048414831517611ed157611ed0611c24565b5b5092915050565b7f6e6f20656e6f75676820726563727920746f2073656c6c000000000000000000600082015250565b6000611f0e601783611a77565b9150611f1982611ed8565b602082019050919050565b60006020820190508181036000830152611f3d81611f01565b9050919050565b7f6e6f20656e6f75676820726575736420746f2073776170000000000000000000600082015250565b6000611f7a601783611a77565b9150611f8582611f44565b602082019050919050565b60006020820190508181036000830152611fa981611f6d565b9050919050565b7f6e6f20656e6f75676820726575736420746f2077697468647261770000000000600082015250565b6000611fe6601b83611a77565b9150611ff182611fb0565b602082019050919050565b6000602082019050818103600083015261201581611fd9565b905091905056fea264697066735822122036f5b5220af65e07e6f09f4b5f411a072e1242476b60d91f943a8d55ecef919664736f6c63430008150033",
  "immutableReferences": {},
  "source": "// SPDX-License-Identifier: MIT\r\npragma solidity ^0.8.4;\r\n\r\nimport \"./ReCryptoToken.sol\";\r\nimport \"./ReUSDToken.sol\";\r\n\r\ncontract SwapRecryUsd {\r\n    address public owner;\r\n    ReCryptoToken public recry;\r\n    ReUSDToken public reusd;\r\n\r\n    uint public maxSupply    = 0; //number of toklen available 500000\r\n    uint public protocolGain = 0; //protocol gain\r\n\r\n    constructor(ReCryptoToken _recry, ReUSDToken _reusd) {\r\n        recry = _recry;\r\n        reusd = _reusd;\r\n        owner = msg.sender;\r\n    }\r\n    modifier isOwner() {\r\n        require(msg.sender == owner, \"Caller is not owner\");\r\n        _;\r\n    }\r\n\r\n    function addRecrySupply(uint _amount) public payable isOwner {\r\n        require(recry.balanceOf(msg.sender) >= _amount , \"no enough recry to add\");\r\n        require(recry.transferFrom(msg.sender,address(this), _amount));\r\n        maxSupply = maxSupply + _amount;\r\n    }\r\n\r\n    function changeRecrySupply(uint _amount) public isOwner {\r\n        maxSupply = _amount;\r\n    }\r\n\r\n    function addProtocolGain(uint _amount) public isOwner {\r\n        protocolGain = protocolGain + _amount;\r\n    }\r\n\r\n    function changeProtocolGain(uint _amount) public isOwner {\r\n         protocolGain = _amount;\r\n    }\r\n    \r\n    function withdrawReUSD(uint _amount) public payable isOwner{\r\n        require(reusd.balanceOf(address(this)) > _amount, \"no enough reusd to withdraw\");\r\n        require(reusd.transfer(owner, _amount));\r\n    }\r\n\r\n    function withdrawRecry(uint _amount) public payable isOwner{\r\n        require(recry.balanceOf(address(this)) > _amount, \"no enough recry to withdraw\");\r\n        require(recry.transfer(owner, _amount));\r\n    }\r\n\r\n    function getRecryValue() public view returns(uint _value)\r\n    {\r\n           return  _value = ((maxSupply+protocolGain)/maxSupply);\r\n    }\r\n    function getRecryPrice() public view returns(uint _value)\r\n    {\r\n           return  _value = ((maxSupply+protocolGain)/maxSupply)*1000000000000000000;\r\n    }\r\n    function getRecryTotalValue() public view returns(uint _value)\r\n    {\r\n           return  _value = getRecryValue() * recry.balanceOf(msg.sender);\r\n    }\r\n\r\n    function getRecryMaxSupply() public view returns(uint _value)\r\n    {\r\n            return maxSupply;\r\n    }\r\n\r\n    function getRecryMaxAvailable() public view returns(uint _value)\r\n    {\r\n            return recry.balanceOf(address(this));\r\n    }\r\n\r\n    function getReUSDMaxAvailable() public view returns(uint _value)\r\n    {\r\n            return reusd.balanceOf(address(this));\r\n    }\r\n\r\n    function getProtocolGain() public view returns(uint _value)\r\n    {\r\n            return protocolGain;\r\n    }\r\n\r\n    function isOwnerX() public view returns(bool _value)\r\n    {\r\n            if (msg.sender == owner)\r\n            {\r\n                return true;\r\n            }\r\n            else\r\n            {\r\n                return false;\r\n            }\r\n    }\r\n    function getSender() public view returns(address _value)\r\n    {\r\n            return msg.sender;\r\n    }\r\n    function getOwner() public view returns(address _value)\r\n    {\r\n            return owner;\r\n    }\r\n\r\n    function buyRecryWithReUSD(uint _amount) public payable{\r\n        // Require amount greater than 0\r\n        uint qtyToBuy = _amount / getRecryValue();\r\n        require(_amount > 0, \"amount cannot be 0\");\r\n        require(recry.balanceOf(address(this)) >= qtyToBuy , \"no enough recry to buy\");\r\n        uint maxRecharge = protocolGain - getReUSDMaxAvailable();\r\n        if (maxRecharge > 0)\r\n        {\r\n               // Trasnfer some reusd to refill the protocol  not in the protocol\r\n               if (_amount > maxRecharge)\r\n               {\r\n                     require(reusd.transferFrom(msg.sender, address(this), maxRecharge)); \r\n                     require(reusd.transferFrom(msg.sender, owner, _amount-maxRecharge)); \r\n               }\r\n               else\r\n               {\r\n                    require(reusd.transferFrom(msg.sender, address(this), _amount)); \r\n               }\r\n        }\r\n        else\r\n        {\r\n             // Trasnfer reusd to the owner not in the protocol\r\n               require(reusd.transferFrom(msg.sender, owner, _amount)); \r\n        }\r\n        \r\n        // Trasnfer recry to the buyer\r\n        recry.transfer(msg.sender, _amount);        \r\n    }\r\n\r\n    function sellRecryForReUSD(uint _amount) public payable{\r\n        // Require amount greater than 0\r\n        uint qtyToSell = _amount * getRecryValue();\r\n        require(_amount > 0, \"amount cannot be 0\");\r\n        require(recry.balanceOf(msg.sender) >= _amount , \"no enough recry to sell\");\r\n        require(getReUSDMaxAvailable() >= qtyToSell , \"no enough reusd to swap\");\r\n\r\n        // Trasnfer reusd to the owner not in the protocol\r\n        require(recry.transferFrom(msg.sender, address(this), _amount));\r\n        // Trasnfer recry to the buyer\r\n        reusd.transfer(msg.sender, qtyToSell);        \r\n\r\n    }\r\n\r\n\r\n}\r\n",
  "sourcePath": "C:\\Users\\HP\\Documents\\GitHub\\redefi-dapp\\src\\contracts\\SwapRecryUsd.sol",
  "compiler": {
    "name": "solc",
    "version": "0.8.21+commit.d9974bed.Emscripten.clang"
  },
  "schemaVersion": "3.4.14",
  "updatedAt": "2023-10-06T18:55:58.863Z",
  "devdoc": {
    "kind": "dev",
    "methods": {},
    "version": 1
  },
  "userdoc": {
    "kind": "user",
    "methods": {},
    "version": 1
  }
}